{
	"tutor.sol": {
		"TutorContract": {
			"abi": [
				{
					"inputs": [
						{
							"internalType": "string[]",
							"name": "q",
							"type": "string[]"
						},
						{
							"internalType": "uint8[]",
							"name": "a",
							"type": "uint8[]"
						}
					],
					"stateMutability": "nonpayable",
					"type": "constructor"
				},
				{
					"anonymous": false,
					"inputs": [
						{
							"indexed": false,
							"internalType": "bool",
							"name": "correct",
							"type": "bool"
						}
					],
					"name": "Answered",
					"type": "event"
				},
				{
					"inputs": [
						{
							"internalType": "uint8",
							"name": "a",
							"type": "uint8"
						},
						{
							"internalType": "address payable",
							"name": "to",
							"type": "address"
						}
					],
					"name": "answer",
					"outputs": [],
					"stateMutability": "nonpayable",
					"type": "function"
				},
				{
					"inputs": [],
					"name": "calculate_grade",
					"outputs": [
						{
							"internalType": "TutorContract.fxp",
							"name": "",
							"type": "int64"
						}
					],
					"stateMutability": "view",
					"type": "function"
				},
				{
					"inputs": [],
					"name": "get_current_question",
					"outputs": [
						{
							"internalType": "string",
							"name": "",
							"type": "string"
						}
					],
					"stateMutability": "view",
					"type": "function"
				}
			],
			"devdoc": {
				"kind": "dev",
				"methods": {},
				"version": 1
			},
			"evm": {
				"assembly": "    /* \"tutor.sol\":60:2244  contract TutorContract {... */\n  mstore(0x40, 0x80)\n    /* \"tutor.sol\":385:748  constructor(string[] memory q, uint8[] memory a) {... */\n  callvalue\n  dup1\n  iszero\n  tag_1\n  jumpi\n  0x00\n  dup1\n  revert\ntag_1:\n  pop\n  mload(0x40)\n  sub(codesize, bytecodeSize)\n  dup1\n  bytecodeSize\n  dup4\n  codecopy\n  dup2\n  dup2\n  add\n  0x40\n  mstore\n  dup2\n  add\n  swap1\n  tag_2\n  swap2\n  swap1\n  tag_3\n  jump\t// in\ntag_2:\n    /* \"tutor.sol\":454:455  q */\n  dup2\n    /* \"tutor.sol\":442:451  questions */\n  0x00\n    /* \"tutor.sol\":442:455  questions = q */\n  swap1\n  dup1\n  mload\n  swap1\n  0x20\n  add\n  swap1\n  tag_6\n  swap3\n  swap2\n  swap1\n  tag_7\n  jump\t// in\ntag_6:\n  pop\n    /* \"tutor.sol\":473:474  a */\n  dup1\n    /* \"tutor.sol\":463:470  answers */\n  0x01\n    /* \"tutor.sol\":463:474  answers = a */\n  swap1\n  dup1\n  mload\n  swap1\n  0x20\n  add\n  swap1\n  tag_8\n  swap3\n  swap2\n  swap1\n  tag_9\n  jump\t// in\ntag_8:\n  pop\n    /* \"tutor.sol\":482:584  weights = [fxp.wrap(2000000), fxp.wrap(1500000), fxp.wrap(900000), fxp.wrap(400000), fxp.wrap(200000)] */\n  mload(0x40)\n  dup1\n  0xa0\n  add\n  0x40\n  mstore\n  dup1\n    /* \"tutor.sol\":502:509  2000000 */\n  0x1e8480\n    /* \"tutor.sol\":482:584  weights = [fxp.wrap(2000000), fxp.wrap(1500000), fxp.wrap(900000), fxp.wrap(400000), fxp.wrap(200000)] */\n  0x07\n  signextend\n  0x07\n  signextend\n  dup2\n  mstore\n  0x20\n  add\n    /* \"tutor.sol\":521:528  1500000 */\n  0x16e360\n    /* \"tutor.sol\":482:584  weights = [fxp.wrap(2000000), fxp.wrap(1500000), fxp.wrap(900000), fxp.wrap(400000), fxp.wrap(200000)] */\n  0x07\n  signextend\n  0x07\n  signextend\n  dup2\n  mstore\n  0x20\n  add\n    /* \"tutor.sol\":540:546  900000 */\n  0x0dbba0\n    /* \"tutor.sol\":482:584  weights = [fxp.wrap(2000000), fxp.wrap(1500000), fxp.wrap(900000), fxp.wrap(400000), fxp.wrap(200000)] */\n  0x07\n  signextend\n  0x07\n  signextend\n  dup2\n  mstore\n  0x20\n  add\n    /* \"tutor.sol\":558:564  400000 */\n  0x061a80\n    /* \"tutor.sol\":482:584  weights = [fxp.wrap(2000000), fxp.wrap(1500000), fxp.wrap(900000), fxp.wrap(400000), fxp.wrap(200000)] */\n  0x07\n  signextend\n  0x07\n  signextend\n  dup2\n  mstore\n  0x20\n  add\n    /* \"tutor.sol\":576:582  200000 */\n  0x030d40\n    /* \"tutor.sol\":482:584  weights = [fxp.wrap(2000000), fxp.wrap(1500000), fxp.wrap(900000), fxp.wrap(400000), fxp.wrap(200000)] */\n  0x07\n  signextend\n  0x07\n  signextend\n  dup2\n  mstore\n  pop\n    /* \"tutor.sol\":482:489  weights */\n  0x02\n    /* \"tutor.sol\":482:584  weights = [fxp.wrap(2000000), fxp.wrap(1500000), fxp.wrap(900000), fxp.wrap(400000), fxp.wrap(200000)] */\n  swap1\n  0x05\n  tag_10\n  swap3\n  swap2\n  swap1\n  tag_11\n  jump\t// in\ntag_10:\n  pop\n    /* \"tutor.sol\":592:696  points = [fxp.wrap(1000000), fxp.wrap(1000000), fxp.wrap(1000000), fxp.wrap(1000000), fxp.wrap(1000000)] */\n  mload(0x40)\n  dup1\n  0xa0\n  add\n  0x40\n  mstore\n  dup1\n    /* \"tutor.sol\":611:618  1000000 */\n  0x0f4240\n    /* \"tutor.sol\":592:696  points = [fxp.wrap(1000000), fxp.wrap(1000000), fxp.wrap(1000000), fxp.wrap(1000000), fxp.wrap(1000000)] */\n  0x07\n  signextend\n  0x07\n  signextend\n  dup2\n  mstore\n  0x20\n  add\n    /* \"tutor.sol\":630:637  1000000 */\n  0x0f4240\n    /* \"tutor.sol\":592:696  points = [fxp.wrap(1000000), fxp.wrap(1000000), fxp.wrap(1000000), fxp.wrap(1000000), fxp.wrap(1000000)] */\n  0x07\n  signextend\n  0x07\n  signextend\n  dup2\n  mstore\n  0x20\n  add\n    /* \"tutor.sol\":649:656  1000000 */\n  0x0f4240\n    /* \"tutor.sol\":592:696  points = [fxp.wrap(1000000), fxp.wrap(1000000), fxp.wrap(1000000), fxp.wrap(1000000), fxp.wrap(1000000)] */\n  0x07\n  signextend\n  0x07\n  signextend\n  dup2\n  mstore\n  0x20\n  add\n    /* \"tutor.sol\":668:675  1000000 */\n  0x0f4240\n    /* \"tutor.sol\":592:696  points = [fxp.wrap(1000000), fxp.wrap(1000000), fxp.wrap(1000000), fxp.wrap(1000000), fxp.wrap(1000000)] */\n  0x07\n  signextend\n  0x07\n  signextend\n  dup2\n  mstore\n  0x20\n  add\n    /* \"tutor.sol\":687:694  1000000 */\n  0x0f4240\n    /* \"tutor.sol\":592:696  points = [fxp.wrap(1000000), fxp.wrap(1000000), fxp.wrap(1000000), fxp.wrap(1000000), fxp.wrap(1000000)] */\n  0x07\n  signextend\n  0x07\n  signextend\n  dup2\n  mstore\n  pop\n    /* \"tutor.sol\":592:598  points */\n  0x03\n    /* \"tutor.sol\":592:696  points = [fxp.wrap(1000000), fxp.wrap(1000000), fxp.wrap(1000000), fxp.wrap(1000000), fxp.wrap(1000000)] */\n  swap1\n  0x05\n  tag_12\n  swap3\n  swap2\n  swap1\n  tag_11\n  jump\t// in\ntag_12:\n  pop\n    /* \"tutor.sol\":715:716  0 */\n  0x00\n    /* \"tutor.sol\":704:712  progress */\n  0x04\n  0x00\n    /* \"tutor.sol\":704:716  progress = 0 */\n  0x0100\n  exp\n  dup2\n  sload\n  dup2\n  0xff\n  mul\n  not\n  and\n  swap1\n  dup4\n  0xff\n  and\n  mul\n  or\n  swap1\n  sstore\n  pop\n    /* \"tutor.sol\":741:742  0 */\n  0x00\n    /* \"tutor.sol\":724:729  grade */\n  0x04\n  0x01\n    /* \"tutor.sol\":724:743  grade = fxp.wrap(0) */\n  0x0100\n  exp\n  dup2\n  sload\n  dup2\n  0xffffffffffffffff\n  mul\n  not\n  and\n  swap1\n  dup4\n  0x07\n  signextend\n  0xffffffffffffffff\n  and\n  mul\n  or\n  swap1\n  sstore\n  pop\n    /* \"tutor.sol\":385:748  constructor(string[] memory q, uint8[] memory a) {... */\n  pop\n  pop\n    /* \"tutor.sol\":60:2244  contract TutorContract {... */\n  jump(tag_13)\ntag_7:\n  dup3\n  dup1\n  sload\n  dup3\n  dup3\n  sstore\n  swap1\n  0x00\n  mstore\n  keccak256(0x00, 0x20)\n  swap1\n  dup2\n  add\n  swap3\n  dup3\n  iszero\n  tag_14\n  jumpi\n  swap2\n  0x20\n  mul\n  dup3\n  add\ntag_15:\n  dup3\n  dup2\n  gt\n  iszero\n  tag_16\n  jumpi\n  dup3\n  mload\n  dup3\n  swap1\n  dup2\n  tag_17\n  swap2\n  swap1\n  tag_18\n  jump\t// in\ntag_17:\n  pop\n  swap2\n  0x20\n  add\n  swap2\n  swap1\n  0x01\n  add\n  swap1\n  jump(tag_15)\ntag_16:\ntag_14:\n  pop\n  swap1\n  pop\n  tag_19\n  swap2\n  swap1\n  tag_20\n  jump\t// in\ntag_19:\n  pop\n  swap1\n  jump\t// out\ntag_9:\n  dup3\n  dup1\n  sload\n  dup3\n  dup3\n  sstore\n  swap1\n  0x00\n  mstore\n  keccak256(0x00, 0x20)\n  swap1\n  0x1f\n  add\n  0x20\n  swap1\n  div\n  dup2\n  add\n  swap3\n  dup3\n  iszero\n  tag_21\n  jumpi\n  swap2\n  0x20\n  mul\n  dup3\n  add\n  0x00\ntag_22:\n  dup4\n  dup3\n  gt\n  iszero\n  tag_23\n  jumpi\n  dup4\n  mload\n  dup4\n  dup3\n  0x0100\n  exp\n  dup2\n  sload\n  dup2\n  0xff\n  mul\n  not\n  and\n  swap1\n  dup4\n  0xff\n  and\n  mul\n  or\n  swap1\n  sstore\n  pop\n  swap3\n  0x20\n  add\n  swap3\n  0x01\n  add\n  0x20\n  dup2\n  0x00\n  add\n  div\n  swap3\n  dup4\n  add\n  swap3\n  0x01\n  sub\n  mul\n  jump(tag_22)\ntag_23:\n  dup1\n  iszero\n  tag_24\n  jumpi\n  dup3\n  dup2\n  0x0100\n  exp\n  dup2\n  sload\n  swap1\n  0xff\n  mul\n  not\n  and\n  swap1\n  sstore\n  0x01\n  add\n  0x20\n  dup2\n  0x00\n  add\n  div\n  swap3\n  dup4\n  add\n  swap3\n  0x01\n  sub\n  mul\n  jump(tag_23)\ntag_24:\n  pop\ntag_21:\n  pop\n  swap1\n  pop\n  tag_25\n  swap2\n  swap1\n  tag_26\n  jump\t// in\ntag_25:\n  pop\n  swap1\n  jump\t// out\ntag_11:\n  dup3\n  dup1\n  sload\n  dup3\n  dup3\n  sstore\n  swap1\n  0x00\n  mstore\n  keccak256(0x00, 0x20)\n  swap1\n  0x03\n  add\n  0x04\n  swap1\n  div\n  dup2\n  add\n  swap3\n  dup3\n  iszero\n  tag_27\n  jumpi\n  swap2\n  0x20\n  mul\n  dup3\n  add\n  0x00\ntag_28:\n  dup4\n  dup3\n  gt\n  iszero\n  tag_29\n  jumpi\n  dup4\n  mload\n  dup4\n  dup3\n  0x0100\n  exp\n  dup2\n  sload\n  dup2\n  0xffffffffffffffff\n  mul\n  not\n  and\n  swap1\n  dup4\n  0x07\n  signextend\n  0xffffffffffffffff\n  and\n  mul\n  or\n  swap1\n  sstore\n  pop\n  swap3\n  0x20\n  add\n  swap3\n  0x08\n  add\n  0x20\n  dup2\n  0x07\n  add\n  div\n  swap3\n  dup4\n  add\n  swap3\n  0x01\n  sub\n  mul\n  jump(tag_28)\ntag_29:\n  dup1\n  iszero\n  tag_30\n  jumpi\n  dup3\n  dup2\n  0x0100\n  exp\n  dup2\n  sload\n  swap1\n  0xffffffffffffffff\n  mul\n  not\n  and\n  swap1\n  sstore\n  0x08\n  add\n  0x20\n  dup2\n  0x07\n  add\n  div\n  swap3\n  dup4\n  add\n  swap3\n  0x01\n  sub\n  mul\n  jump(tag_29)\ntag_30:\n  pop\ntag_27:\n  pop\n  swap1\n  pop\n  tag_31\n  swap2\n  swap1\n  tag_26\n  jump\t// in\ntag_31:\n  pop\n  swap1\n  jump\t// out\ntag_20:\ntag_32:\n  dup1\n  dup3\n  gt\n  iszero\n  tag_33\n  jumpi\n  0x00\n  dup2\n  dup2\n  tag_34\n  swap2\n  swap1\n  tag_35\n  jump\t// in\ntag_34:\n  pop\n  0x01\n  add\n  jump(tag_32)\ntag_33:\n  pop\n  swap1\n  jump\t// out\ntag_26:\ntag_36:\n  dup1\n  dup3\n  gt\n  iszero\n  tag_37\n  jumpi\n  0x00\n  dup2\n  0x00\n  swap1\n  sstore\n  pop\n  0x01\n  add\n  jump(tag_36)\ntag_37:\n  pop\n  swap1\n  jump\t// out\ntag_35:\n  pop\n  dup1\n  sload\n  tag_38\n  swap1\n  tag_39\n  jump\t// in\ntag_38:\n  0x00\n  dup3\n  sstore\n  dup1\n  0x1f\n  lt\n  tag_41\n  jumpi\n  pop\n  jump(tag_40)\ntag_41:\n  0x1f\n  add\n  0x20\n  swap1\n  div\n  swap1\n  0x00\n  mstore\n  keccak256(0x00, 0x20)\n  swap1\n  dup2\n  add\n  swap1\n  tag_42\n  swap2\n  swap1\n  tag_26\n  jump\t// in\ntag_42:\ntag_40:\n  pop\n  jump\t// out\n    /* \"#utility.yul\":7:82   */\ntag_43:\n    /* \"#utility.yul\":40:46   */\n  0x00\n    /* \"#utility.yul\":73:75   */\n  0x40\n    /* \"#utility.yul\":67:76   */\n  mload\n    /* \"#utility.yul\":57:76   */\n  swap1\n  pop\n    /* \"#utility.yul\":7:82   */\n  swap1\n  jump\t// out\n    /* \"#utility.yul\":88:205   */\ntag_44:\n    /* \"#utility.yul\":197:198   */\n  0x00\n    /* \"#utility.yul\":194:195   */\n  dup1\n    /* \"#utility.yul\":187:199   */\n  revert\n    /* \"#utility.yul\":211:328   */\ntag_45:\n    /* \"#utility.yul\":320:321   */\n  0x00\n    /* \"#utility.yul\":317:318   */\n  dup1\n    /* \"#utility.yul\":310:322   */\n  revert\n    /* \"#utility.yul\":334:451   */\ntag_46:\n    /* \"#utility.yul\":443:444   */\n  0x00\n    /* \"#utility.yul\":440:441   */\n  dup1\n    /* \"#utility.yul\":433:445   */\n  revert\n    /* \"#utility.yul\":457:559   */\ntag_47:\n    /* \"#utility.yul\":498:504   */\n  0x00\n    /* \"#utility.yul\":549:551   */\n  0x1f\n    /* \"#utility.yul\":545:552   */\n  not\n    /* \"#utility.yul\":540:542   */\n  0x1f\n    /* \"#utility.yul\":533:538   */\n  dup4\n    /* \"#utility.yul\":529:543   */\n  add\n    /* \"#utility.yul\":525:553   */\n  and\n    /* \"#utility.yul\":515:553   */\n  swap1\n  pop\n    /* \"#utility.yul\":457:559   */\n  swap2\n  swap1\n  pop\n  jump\t// out\n    /* \"#utility.yul\":565:745   */\ntag_48:\n    /* \"#utility.yul\":613:690   */\n  0x4e487b7100000000000000000000000000000000000000000000000000000000\n    /* \"#utility.yul\":610:611   */\n  0x00\n    /* \"#utility.yul\":603:691   */\n  mstore\n    /* \"#utility.yul\":710:714   */\n  0x41\n    /* \"#utility.yul\":707:708   */\n  0x04\n    /* \"#utility.yul\":700:715   */\n  mstore\n    /* \"#utility.yul\":734:738   */\n  0x24\n    /* \"#utility.yul\":731:732   */\n  0x00\n    /* \"#utility.yul\":724:739   */\n  revert\n    /* \"#utility.yul\":751:1032   */\ntag_49:\n    /* \"#utility.yul\":834:861   */\n  tag_92\n    /* \"#utility.yul\":856:860   */\n  dup3\n    /* \"#utility.yul\":834:861   */\n  tag_47\n  jump\t// in\ntag_92:\n    /* \"#utility.yul\":826:832   */\n  dup2\n    /* \"#utility.yul\":822:862   */\n  add\n    /* \"#utility.yul\":964:970   */\n  dup2\n    /* \"#utility.yul\":952:962   */\n  dup2\n    /* \"#utility.yul\":949:971   */\n  lt\n    /* \"#utility.yul\":928:946   */\n  0xffffffffffffffff\n    /* \"#utility.yul\":916:926   */\n  dup3\n    /* \"#utility.yul\":913:947   */\n  gt\n    /* \"#utility.yul\":910:972   */\n  or\n    /* \"#utility.yul\":907:995   */\n  iszero\n  tag_93\n  jumpi\n    /* \"#utility.yul\":975:993   */\n  tag_94\n  tag_48\n  jump\t// in\ntag_94:\n    /* \"#utility.yul\":907:995   */\ntag_93:\n    /* \"#utility.yul\":1015:1025   */\n  dup1\n    /* \"#utility.yul\":1011:1013   */\n  0x40\n    /* \"#utility.yul\":1004:1026   */\n  mstore\n    /* \"#utility.yul\":794:1032   */\n  pop\n    /* \"#utility.yul\":751:1032   */\n  pop\n  pop\n  jump\t// out\n    /* \"#utility.yul\":1038:1167   */\ntag_50:\n    /* \"#utility.yul\":1072:1078   */\n  0x00\n    /* \"#utility.yul\":1099:1119   */\n  tag_96\n  tag_43\n  jump\t// in\ntag_96:\n    /* \"#utility.yul\":1089:1119   */\n  swap1\n  pop\n    /* \"#utility.yul\":1128:1161   */\n  tag_97\n    /* \"#utility.yul\":1156:1160   */\n  dup3\n    /* \"#utility.yul\":1148:1154   */\n  dup3\n    /* \"#utility.yul\":1128:1161   */\n  tag_49\n  jump\t// in\ntag_97:\n    /* \"#utility.yul\":1038:1167   */\n  swap2\n  swap1\n  pop\n  jump\t// out\n    /* \"#utility.yul\":1173:1494   */\ntag_51:\n    /* \"#utility.yul\":1260:1264   */\n  0x00\n    /* \"#utility.yul\":1350:1368   */\n  0xffffffffffffffff\n    /* \"#utility.yul\":1342:1348   */\n  dup3\n    /* \"#utility.yul\":1339:1369   */\n  gt\n    /* \"#utility.yul\":1336:1392   */\n  iszero\n  tag_99\n  jumpi\n    /* \"#utility.yul\":1372:1390   */\n  tag_100\n  tag_48\n  jump\t// in\ntag_100:\n    /* \"#utility.yul\":1336:1392   */\ntag_99:\n    /* \"#utility.yul\":1422:1426   */\n  0x20\n    /* \"#utility.yul\":1414:1420   */\n  dup3\n    /* \"#utility.yul\":1410:1427   */\n  mul\n    /* \"#utility.yul\":1402:1427   */\n  swap1\n  pop\n    /* \"#utility.yul\":1482:1486   */\n  0x20\n    /* \"#utility.yul\":1476:1480   */\n  dup2\n    /* \"#utility.yul\":1472:1487   */\n  add\n    /* \"#utility.yul\":1464:1487   */\n  swap1\n  pop\n    /* \"#utility.yul\":1173:1494   */\n  swap2\n  swap1\n  pop\n  jump\t// out\n    /* \"#utility.yul\":1500:1617   */\ntag_52:\n    /* \"#utility.yul\":1609:1610   */\n  0x00\n    /* \"#utility.yul\":1606:1607   */\n  dup1\n    /* \"#utility.yul\":1599:1611   */\n  revert\n    /* \"#utility.yul\":1623:1740   */\ntag_53:\n    /* \"#utility.yul\":1732:1733   */\n  0x00\n    /* \"#utility.yul\":1729:1730   */\n  dup1\n    /* \"#utility.yul\":1722:1734   */\n  revert\n    /* \"#utility.yul\":1746:2054   */\ntag_54:\n    /* \"#utility.yul\":1808:1812   */\n  0x00\n    /* \"#utility.yul\":1898:1916   */\n  0xffffffffffffffff\n    /* \"#utility.yul\":1890:1896   */\n  dup3\n    /* \"#utility.yul\":1887:1917   */\n  gt\n    /* \"#utility.yul\":1884:1940   */\n  iszero\n  tag_104\n  jumpi\n    /* \"#utility.yul\":1920:1938   */\n  tag_105\n  tag_48\n  jump\t// in\ntag_105:\n    /* \"#utility.yul\":1884:1940   */\ntag_104:\n    /* \"#utility.yul\":1958:1987   */\n  tag_106\n    /* \"#utility.yul\":1980:1986   */\n  dup3\n    /* \"#utility.yul\":1958:1987   */\n  tag_47\n  jump\t// in\ntag_106:\n    /* \"#utility.yul\":1950:1987   */\n  swap1\n  pop\n    /* \"#utility.yul\":2042:2046   */\n  0x20\n    /* \"#utility.yul\":2036:2040   */\n  dup2\n    /* \"#utility.yul\":2032:2047   */\n  add\n    /* \"#utility.yul\":2024:2047   */\n  swap1\n  pop\n    /* \"#utility.yul\":1746:2054   */\n  swap2\n  swap1\n  pop\n  jump\t// out\n    /* \"#utility.yul\":2060:2199   */\ntag_55:\n    /* \"#utility.yul\":2149:2155   */\n  dup3\n    /* \"#utility.yul\":2144:2147   */\n  dup2\n    /* \"#utility.yul\":2139:2142   */\n  dup4\n    /* \"#utility.yul\":2133:2156   */\n  mcopy\n    /* \"#utility.yul\":2190:2191   */\n  0x00\n    /* \"#utility.yul\":2181:2187   */\n  dup4\n    /* \"#utility.yul\":2176:2179   */\n  dup4\n    /* \"#utility.yul\":2172:2188   */\n  add\n    /* \"#utility.yul\":2165:2192   */\n  mstore\n    /* \"#utility.yul\":2060:2199   */\n  pop\n  pop\n  pop\n  jump\t// out\n    /* \"#utility.yul\":2205:2639   */\ntag_56:\n    /* \"#utility.yul\":2294:2299   */\n  0x00\n    /* \"#utility.yul\":2319:2385   */\n  tag_109\n    /* \"#utility.yul\":2335:2384   */\n  tag_110\n    /* \"#utility.yul\":2377:2383   */\n  dup5\n    /* \"#utility.yul\":2335:2384   */\n  tag_54\n  jump\t// in\ntag_110:\n    /* \"#utility.yul\":2319:2385   */\n  tag_50\n  jump\t// in\ntag_109:\n    /* \"#utility.yul\":2310:2385   */\n  swap1\n  pop\n    /* \"#utility.yul\":2408:2414   */\n  dup3\n    /* \"#utility.yul\":2401:2406   */\n  dup2\n    /* \"#utility.yul\":2394:2415   */\n  mstore\n    /* \"#utility.yul\":2446:2450   */\n  0x20\n    /* \"#utility.yul\":2439:2444   */\n  dup2\n    /* \"#utility.yul\":2435:2451   */\n  add\n    /* \"#utility.yul\":2484:2487   */\n  dup5\n    /* \"#utility.yul\":2475:2481   */\n  dup5\n    /* \"#utility.yul\":2470:2473   */\n  dup5\n    /* \"#utility.yul\":2466:2482   */\n  add\n    /* \"#utility.yul\":2463:2488   */\n  gt\n    /* \"#utility.yul\":2460:2572   */\n  iszero\n  tag_111\n  jumpi\n    /* \"#utility.yul\":2491:2570   */\n  tag_112\n  tag_53\n  jump\t// in\ntag_112:\n    /* \"#utility.yul\":2460:2572   */\ntag_111:\n    /* \"#utility.yul\":2581:2633   */\n  tag_113\n    /* \"#utility.yul\":2626:2632   */\n  dup5\n    /* \"#utility.yul\":2621:2624   */\n  dup3\n    /* \"#utility.yul\":2616:2619   */\n  dup6\n    /* \"#utility.yul\":2581:2633   */\n  tag_55\n  jump\t// in\ntag_113:\n    /* \"#utility.yul\":2300:2639   */\n  pop\n    /* \"#utility.yul\":2205:2639   */\n  swap4\n  swap3\n  pop\n  pop\n  pop\n  jump\t// out\n    /* \"#utility.yul\":2659:3014   */\ntag_57:\n    /* \"#utility.yul\":2726:2731   */\n  0x00\n    /* \"#utility.yul\":2775:2778   */\n  dup3\n    /* \"#utility.yul\":2768:2772   */\n  0x1f\n    /* \"#utility.yul\":2760:2766   */\n  dup4\n    /* \"#utility.yul\":2756:2773   */\n  add\n    /* \"#utility.yul\":2752:2779   */\n  slt\n    /* \"#utility.yul\":2742:2864   */\n  tag_115\n  jumpi\n    /* \"#utility.yul\":2783:2862   */\n  tag_116\n  tag_46\n  jump\t// in\ntag_116:\n    /* \"#utility.yul\":2742:2864   */\ntag_115:\n    /* \"#utility.yul\":2893:2899   */\n  dup2\n    /* \"#utility.yul\":2887:2900   */\n  mload\n    /* \"#utility.yul\":2918:3008   */\n  tag_117\n    /* \"#utility.yul\":3004:3007   */\n  dup5\n    /* \"#utility.yul\":2996:3002   */\n  dup3\n    /* \"#utility.yul\":2989:2993   */\n  0x20\n    /* \"#utility.yul\":2981:2987   */\n  dup7\n    /* \"#utility.yul\":2977:2994   */\n  add\n    /* \"#utility.yul\":2918:3008   */\n  tag_56\n  jump\t// in\ntag_117:\n    /* \"#utility.yul\":2909:3008   */\n  swap2\n  pop\n    /* \"#utility.yul\":2732:3014   */\n  pop\n    /* \"#utility.yul\":2659:3014   */\n  swap3\n  swap2\n  pop\n  pop\n  jump\t// out\n    /* \"#utility.yul\":3036:3996   */\ntag_58:\n    /* \"#utility.yul\":3153:3158   */\n  0x00\n    /* \"#utility.yul\":3178:3269   */\n  tag_119\n    /* \"#utility.yul\":3194:3268   */\n  tag_120\n    /* \"#utility.yul\":3261:3267   */\n  dup5\n    /* \"#utility.yul\":3194:3268   */\n  tag_51\n  jump\t// in\ntag_120:\n    /* \"#utility.yul\":3178:3269   */\n  tag_50\n  jump\t// in\ntag_119:\n    /* \"#utility.yul\":3169:3269   */\n  swap1\n  pop\n    /* \"#utility.yul\":3289:3294   */\n  dup1\n    /* \"#utility.yul\":3318:3324   */\n  dup4\n    /* \"#utility.yul\":3311:3316   */\n  dup3\n    /* \"#utility.yul\":3304:3325   */\n  mstore\n    /* \"#utility.yul\":3352:3356   */\n  0x20\n    /* \"#utility.yul\":3345:3350   */\n  dup3\n    /* \"#utility.yul\":3341:3357   */\n  add\n    /* \"#utility.yul\":3334:3357   */\n  swap1\n  pop\n    /* \"#utility.yul\":3405:3409   */\n  0x20\n    /* \"#utility.yul\":3397:3403   */\n  dup5\n    /* \"#utility.yul\":3393:3410   */\n  mul\n    /* \"#utility.yul\":3385:3391   */\n  dup4\n    /* \"#utility.yul\":3381:3411   */\n  add\n    /* \"#utility.yul\":3434:3437   */\n  dup6\n    /* \"#utility.yul\":3426:3432   */\n  dup2\n    /* \"#utility.yul\":3423:3438   */\n  gt\n    /* \"#utility.yul\":3420:3542   */\n  iszero\n  tag_121\n  jumpi\n    /* \"#utility.yul\":3453:3532   */\n  tag_122\n  tag_52\n  jump\t// in\ntag_122:\n    /* \"#utility.yul\":3420:3542   */\ntag_121:\n    /* \"#utility.yul\":3568:3574   */\n  dup4\n    /* \"#utility.yul\":3551:3990   */\ntag_123:\n    /* \"#utility.yul\":3585:3591   */\n  dup2\n    /* \"#utility.yul\":3580:3583   */\n  dup2\n    /* \"#utility.yul\":3577:3592   */\n  lt\n    /* \"#utility.yul\":3551:3990   */\n  iszero\n  tag_125\n  jumpi\n    /* \"#utility.yul\":3667:3670   */\n  dup1\n    /* \"#utility.yul\":3661:3671   */\n  mload\n    /* \"#utility.yul\":3703:3721   */\n  0xffffffffffffffff\n    /* \"#utility.yul\":3690:3701   */\n  dup2\n    /* \"#utility.yul\":3687:3722   */\n  gt\n    /* \"#utility.yul\":3684:3806   */\n  iszero\n  tag_126\n  jumpi\n    /* \"#utility.yul\":3725:3804   */\n  tag_127\n  tag_46\n  jump\t// in\ntag_127:\n    /* \"#utility.yul\":3684:3806   */\ntag_126:\n    /* \"#utility.yul\":3849:3860   */\n  dup1\n    /* \"#utility.yul\":3841:3847   */\n  dup7\n    /* \"#utility.yul\":3837:3861   */\n  add\n    /* \"#utility.yul\":3887:3945   */\n  tag_128\n    /* \"#utility.yul\":3941:3944   */\n  dup10\n    /* \"#utility.yul\":3929:3939   */\n  dup3\n    /* \"#utility.yul\":3887:3945   */\n  tag_57\n  jump\t// in\ntag_128:\n    /* \"#utility.yul\":3882:3885   */\n  dup6\n    /* \"#utility.yul\":3875:3946   */\n  mstore\n    /* \"#utility.yul\":3975:3979   */\n  0x20\n    /* \"#utility.yul\":3970:3973   */\n  dup6\n    /* \"#utility.yul\":3966:3980   */\n  add\n    /* \"#utility.yul\":3959:3980   */\n  swap5\n  pop\n    /* \"#utility.yul\":3627:3990   */\n  pop\n  pop\n    /* \"#utility.yul\":3611:3615   */\n  0x20\n    /* \"#utility.yul\":3606:3609   */\n  dup2\n    /* \"#utility.yul\":3602:3616   */\n  add\n    /* \"#utility.yul\":3595:3616   */\n  swap1\n  pop\n    /* \"#utility.yul\":3551:3990   */\n  jump(tag_123)\ntag_125:\n    /* \"#utility.yul\":3555:3576   */\n  pop\n    /* \"#utility.yul\":3159:3996   */\n  pop\n  pop\n    /* \"#utility.yul\":3036:3996   */\n  swap4\n  swap3\n  pop\n  pop\n  pop\n  jump\t// out\n    /* \"#utility.yul\":4018:4423   */\ntag_59:\n    /* \"#utility.yul\":4110:4115   */\n  0x00\n    /* \"#utility.yul\":4159:4162   */\n  dup3\n    /* \"#utility.yul\":4152:4156   */\n  0x1f\n    /* \"#utility.yul\":4144:4150   */\n  dup4\n    /* \"#utility.yul\":4140:4157   */\n  add\n    /* \"#utility.yul\":4136:4163   */\n  slt\n    /* \"#utility.yul\":4126:4248   */\n  tag_130\n  jumpi\n    /* \"#utility.yul\":4167:4246   */\n  tag_131\n  tag_46\n  jump\t// in\ntag_131:\n    /* \"#utility.yul\":4126:4248   */\ntag_130:\n    /* \"#utility.yul\":4277:4283   */\n  dup2\n    /* \"#utility.yul\":4271:4284   */\n  mload\n    /* \"#utility.yul\":4302:4417   */\n  tag_132\n    /* \"#utility.yul\":4413:4416   */\n  dup5\n    /* \"#utility.yul\":4405:4411   */\n  dup3\n    /* \"#utility.yul\":4398:4402   */\n  0x20\n    /* \"#utility.yul\":4390:4396   */\n  dup7\n    /* \"#utility.yul\":4386:4403   */\n  add\n    /* \"#utility.yul\":4302:4417   */\n  tag_58\n  jump\t// in\ntag_132:\n    /* \"#utility.yul\":4293:4417   */\n  swap2\n  pop\n    /* \"#utility.yul\":4116:4423   */\n  pop\n    /* \"#utility.yul\":4018:4423   */\n  swap3\n  swap2\n  pop\n  pop\n  jump\t// out\n    /* \"#utility.yul\":4429:4738   */\ntag_60:\n    /* \"#utility.yul\":4504:4508   */\n  0x00\n    /* \"#utility.yul\":4594:4612   */\n  0xffffffffffffffff\n    /* \"#utility.yul\":4586:4592   */\n  dup3\n    /* \"#utility.yul\":4583:4613   */\n  gt\n    /* \"#utility.yul\":4580:4636   */\n  iszero\n  tag_134\n  jumpi\n    /* \"#utility.yul\":4616:4634   */\n  tag_135\n  tag_48\n  jump\t// in\ntag_135:\n    /* \"#utility.yul\":4580:4636   */\ntag_134:\n    /* \"#utility.yul\":4666:4670   */\n  0x20\n    /* \"#utility.yul\":4658:4664   */\n  dup3\n    /* \"#utility.yul\":4654:4671   */\n  mul\n    /* \"#utility.yul\":4646:4671   */\n  swap1\n  pop\n    /* \"#utility.yul\":4726:4730   */\n  0x20\n    /* \"#utility.yul\":4720:4724   */\n  dup2\n    /* \"#utility.yul\":4716:4731   */\n  add\n    /* \"#utility.yul\":4708:4731   */\n  swap1\n  pop\n    /* \"#utility.yul\":4429:4738   */\n  swap2\n  swap1\n  pop\n  jump\t// out\n    /* \"#utility.yul\":4744:4830   */\ntag_61:\n    /* \"#utility.yul\":4779:4786   */\n  0x00\n    /* \"#utility.yul\":4819:4823   */\n  0xff\n    /* \"#utility.yul\":4812:4817   */\n  dup3\n    /* \"#utility.yul\":4808:4824   */\n  and\n    /* \"#utility.yul\":4797:4824   */\n  swap1\n  pop\n    /* \"#utility.yul\":4744:4830   */\n  swap2\n  swap1\n  pop\n  jump\t// out\n    /* \"#utility.yul\":4836:4954   */\ntag_62:\n    /* \"#utility.yul\":4907:4929   */\n  tag_138\n    /* \"#utility.yul\":4923:4928   */\n  dup2\n    /* \"#utility.yul\":4907:4929   */\n  tag_61\n  jump\t// in\ntag_138:\n    /* \"#utility.yul\":4900:4905   */\n  dup2\n    /* \"#utility.yul\":4897:4930   */\n  eq\n    /* \"#utility.yul\":4887:4948   */\n  tag_139\n  jumpi\n    /* \"#utility.yul\":4944:4945   */\n  0x00\n    /* \"#utility.yul\":4941:4942   */\n  dup1\n    /* \"#utility.yul\":4934:4946   */\n  revert\n    /* \"#utility.yul\":4887:4948   */\ntag_139:\n    /* \"#utility.yul\":4836:4954   */\n  pop\n  jump\t// out\n    /* \"#utility.yul\":4960:5099   */\ntag_63:\n    /* \"#utility.yul\":5015:5020   */\n  0x00\n    /* \"#utility.yul\":5046:5052   */\n  dup2\n    /* \"#utility.yul\":5040:5053   */\n  mload\n    /* \"#utility.yul\":5031:5053   */\n  swap1\n  pop\n    /* \"#utility.yul\":5062:5093   */\n  tag_141\n    /* \"#utility.yul\":5087:5092   */\n  dup2\n    /* \"#utility.yul\":5062:5093   */\n  tag_62\n  jump\t// in\ntag_141:\n    /* \"#utility.yul\":4960:5099   */\n  swap3\n  swap2\n  pop\n  pop\n  jump\t// out\n    /* \"#utility.yul\":5120:5846   */\ntag_64:\n    /* \"#utility.yul\":5225:5230   */\n  0x00\n    /* \"#utility.yul\":5250:5329   */\n  tag_143\n    /* \"#utility.yul\":5266:5328   */\n  tag_144\n    /* \"#utility.yul\":5321:5327   */\n  dup5\n    /* \"#utility.yul\":5266:5328   */\n  tag_60\n  jump\t// in\ntag_144:\n    /* \"#utility.yul\":5250:5329   */\n  tag_50\n  jump\t// in\ntag_143:\n    /* \"#utility.yul\":5241:5329   */\n  swap1\n  pop\n    /* \"#utility.yul\":5349:5354   */\n  dup1\n    /* \"#utility.yul\":5378:5384   */\n  dup4\n    /* \"#utility.yul\":5371:5376   */\n  dup3\n    /* \"#utility.yul\":5364:5385   */\n  mstore\n    /* \"#utility.yul\":5412:5416   */\n  0x20\n    /* \"#utility.yul\":5405:5410   */\n  dup3\n    /* \"#utility.yul\":5401:5417   */\n  add\n    /* \"#utility.yul\":5394:5417   */\n  swap1\n  pop\n    /* \"#utility.yul\":5465:5469   */\n  0x20\n    /* \"#utility.yul\":5457:5463   */\n  dup5\n    /* \"#utility.yul\":5453:5470   */\n  mul\n    /* \"#utility.yul\":5445:5451   */\n  dup4\n    /* \"#utility.yul\":5441:5471   */\n  add\n    /* \"#utility.yul\":5494:5497   */\n  dup6\n    /* \"#utility.yul\":5486:5492   */\n  dup2\n    /* \"#utility.yul\":5483:5498   */\n  gt\n    /* \"#utility.yul\":5480:5602   */\n  iszero\n  tag_145\n  jumpi\n    /* \"#utility.yul\":5513:5592   */\n  tag_146\n  tag_52\n  jump\t// in\ntag_146:\n    /* \"#utility.yul\":5480:5602   */\ntag_145:\n    /* \"#utility.yul\":5628:5634   */\n  dup4\n    /* \"#utility.yul\":5611:5840   */\ntag_147:\n    /* \"#utility.yul\":5645:5651   */\n  dup2\n    /* \"#utility.yul\":5640:5643   */\n  dup2\n    /* \"#utility.yul\":5637:5652   */\n  lt\n    /* \"#utility.yul\":5611:5840   */\n  iszero\n  tag_149\n  jumpi\n    /* \"#utility.yul\":5720:5723   */\n  dup1\n    /* \"#utility.yul\":5749:5795   */\n  tag_150\n    /* \"#utility.yul\":5791:5794   */\n  dup9\n    /* \"#utility.yul\":5779:5789   */\n  dup3\n    /* \"#utility.yul\":5749:5795   */\n  tag_63\n  jump\t// in\ntag_150:\n    /* \"#utility.yul\":5744:5747   */\n  dup5\n    /* \"#utility.yul\":5737:5796   */\n  mstore\n    /* \"#utility.yul\":5825:5829   */\n  0x20\n    /* \"#utility.yul\":5820:5823   */\n  dup5\n    /* \"#utility.yul\":5816:5830   */\n  add\n    /* \"#utility.yul\":5809:5830   */\n  swap4\n  pop\n    /* \"#utility.yul\":5687:5840   */\n  pop\n    /* \"#utility.yul\":5671:5675   */\n  0x20\n    /* \"#utility.yul\":5666:5669   */\n  dup2\n    /* \"#utility.yul\":5662:5676   */\n  add\n    /* \"#utility.yul\":5655:5676   */\n  swap1\n  pop\n    /* \"#utility.yul\":5611:5840   */\n  jump(tag_147)\ntag_149:\n    /* \"#utility.yul\":5615:5636   */\n  pop\n    /* \"#utility.yul\":5231:5846   */\n  pop\n  pop\n    /* \"#utility.yul\":5120:5846   */\n  swap4\n  swap3\n  pop\n  pop\n  pop\n  jump\t// out\n    /* \"#utility.yul\":5867:6248   */\ntag_65:\n    /* \"#utility.yul\":5947:5952   */\n  0x00\n    /* \"#utility.yul\":5996:5999   */\n  dup3\n    /* \"#utility.yul\":5989:5993   */\n  0x1f\n    /* \"#utility.yul\":5981:5987   */\n  dup4\n    /* \"#utility.yul\":5977:5994   */\n  add\n    /* \"#utility.yul\":5973:6000   */\n  slt\n    /* \"#utility.yul\":5963:6085   */\n  tag_152\n  jumpi\n    /* \"#utility.yul\":6004:6083   */\n  tag_153\n  tag_46\n  jump\t// in\ntag_153:\n    /* \"#utility.yul\":5963:6085   */\ntag_152:\n    /* \"#utility.yul\":6114:6120   */\n  dup2\n    /* \"#utility.yul\":6108:6121   */\n  mload\n    /* \"#utility.yul\":6139:6242   */\n  tag_154\n    /* \"#utility.yul\":6238:6241   */\n  dup5\n    /* \"#utility.yul\":6230:6236   */\n  dup3\n    /* \"#utility.yul\":6223:6227   */\n  0x20\n    /* \"#utility.yul\":6215:6221   */\n  dup7\n    /* \"#utility.yul\":6211:6228   */\n  add\n    /* \"#utility.yul\":6139:6242   */\n  tag_64\n  jump\t// in\ntag_154:\n    /* \"#utility.yul\":6130:6242   */\n  swap2\n  pop\n    /* \"#utility.yul\":5953:6248   */\n  pop\n    /* \"#utility.yul\":5867:6248   */\n  swap3\n  swap2\n  pop\n  pop\n  jump\t// out\n    /* \"#utility.yul\":6254:7183   */\ntag_3:\n    /* \"#utility.yul\":6391:6397   */\n  0x00\n    /* \"#utility.yul\":6399:6405   */\n  dup1\n    /* \"#utility.yul\":6448:6450   */\n  0x40\n    /* \"#utility.yul\":6436:6445   */\n  dup4\n    /* \"#utility.yul\":6427:6434   */\n  dup6\n    /* \"#utility.yul\":6423:6446   */\n  sub\n    /* \"#utility.yul\":6419:6451   */\n  slt\n    /* \"#utility.yul\":6416:6535   */\n  iszero\n  tag_156\n  jumpi\n    /* \"#utility.yul\":6454:6533   */\n  tag_157\n  tag_44\n  jump\t// in\ntag_157:\n    /* \"#utility.yul\":6416:6535   */\ntag_156:\n    /* \"#utility.yul\":6595:6596   */\n  0x00\n    /* \"#utility.yul\":6584:6593   */\n  dup4\n    /* \"#utility.yul\":6580:6597   */\n  add\n    /* \"#utility.yul\":6574:6598   */\n  mload\n    /* \"#utility.yul\":6625:6643   */\n  0xffffffffffffffff\n    /* \"#utility.yul\":6617:6623   */\n  dup2\n    /* \"#utility.yul\":6614:6644   */\n  gt\n    /* \"#utility.yul\":6611:6728   */\n  iszero\n  tag_158\n  jumpi\n    /* \"#utility.yul\":6647:6726   */\n  tag_159\n  tag_45\n  jump\t// in\ntag_159:\n    /* \"#utility.yul\":6611:6728   */\ntag_158:\n    /* \"#utility.yul\":6752:6851   */\n  tag_160\n    /* \"#utility.yul\":6843:6850   */\n  dup6\n    /* \"#utility.yul\":6834:6840   */\n  dup3\n    /* \"#utility.yul\":6823:6832   */\n  dup7\n    /* \"#utility.yul\":6819:6841   */\n  add\n    /* \"#utility.yul\":6752:6851   */\n  tag_59\n  jump\t// in\ntag_160:\n    /* \"#utility.yul\":6742:6851   */\n  swap3\n  pop\n    /* \"#utility.yul\":6545:6861   */\n  pop\n    /* \"#utility.yul\":6921:6923   */\n  0x20\n    /* \"#utility.yul\":6910:6919   */\n  dup4\n    /* \"#utility.yul\":6906:6924   */\n  add\n    /* \"#utility.yul\":6900:6925   */\n  mload\n    /* \"#utility.yul\":6952:6970   */\n  0xffffffffffffffff\n    /* \"#utility.yul\":6944:6950   */\n  dup2\n    /* \"#utility.yul\":6941:6971   */\n  gt\n    /* \"#utility.yul\":6938:7055   */\n  iszero\n  tag_161\n  jumpi\n    /* \"#utility.yul\":6974:7053   */\n  tag_162\n  tag_45\n  jump\t// in\ntag_162:\n    /* \"#utility.yul\":6938:7055   */\ntag_161:\n    /* \"#utility.yul\":7079:7166   */\n  tag_163\n    /* \"#utility.yul\":7158:7165   */\n  dup6\n    /* \"#utility.yul\":7149:7155   */\n  dup3\n    /* \"#utility.yul\":7138:7147   */\n  dup7\n    /* \"#utility.yul\":7134:7156   */\n  add\n    /* \"#utility.yul\":7079:7166   */\n  tag_65\n  jump\t// in\ntag_163:\n    /* \"#utility.yul\":7069:7166   */\n  swap2\n  pop\n    /* \"#utility.yul\":6871:7176   */\n  pop\n    /* \"#utility.yul\":6254:7183   */\n  swap3\n  pop\n  swap3\n  swap1\n  pop\n  jump\t// out\n    /* \"#utility.yul\":7189:7288   */\ntag_66:\n    /* \"#utility.yul\":7241:7247   */\n  0x00\n    /* \"#utility.yul\":7275:7280   */\n  dup2\n    /* \"#utility.yul\":7269:7281   */\n  mload\n    /* \"#utility.yul\":7259:7281   */\n  swap1\n  pop\n    /* \"#utility.yul\":7189:7288   */\n  swap2\n  swap1\n  pop\n  jump\t// out\n    /* \"#utility.yul\":7294:7474   */\ntag_67:\n    /* \"#utility.yul\":7342:7419   */\n  0x4e487b7100000000000000000000000000000000000000000000000000000000\n    /* \"#utility.yul\":7339:7340   */\n  0x00\n    /* \"#utility.yul\":7332:7420   */\n  mstore\n    /* \"#utility.yul\":7439:7443   */\n  0x22\n    /* \"#utility.yul\":7436:7437   */\n  0x04\n    /* \"#utility.yul\":7429:7444   */\n  mstore\n    /* \"#utility.yul\":7463:7467   */\n  0x24\n    /* \"#utility.yul\":7460:7461   */\n  0x00\n    /* \"#utility.yul\":7453:7468   */\n  revert\n    /* \"#utility.yul\":7480:7800   */\ntag_39:\n    /* \"#utility.yul\":7524:7530   */\n  0x00\n    /* \"#utility.yul\":7561:7562   */\n  0x02\n    /* \"#utility.yul\":7555:7559   */\n  dup3\n    /* \"#utility.yul\":7551:7563   */\n  div\n    /* \"#utility.yul\":7541:7563   */\n  swap1\n  pop\n    /* \"#utility.yul\":7608:7609   */\n  0x01\n    /* \"#utility.yul\":7602:7606   */\n  dup3\n    /* \"#utility.yul\":7598:7610   */\n  and\n    /* \"#utility.yul\":7629:7647   */\n  dup1\n    /* \"#utility.yul\":7619:7700   */\n  tag_167\n  jumpi\n    /* \"#utility.yul\":7685:7689   */\n  0x7f\n    /* \"#utility.yul\":7677:7683   */\n  dup3\n    /* \"#utility.yul\":7673:7690   */\n  and\n    /* \"#utility.yul\":7663:7690   */\n  swap2\n  pop\n    /* \"#utility.yul\":7619:7700   */\ntag_167:\n    /* \"#utility.yul\":7747:7749   */\n  0x20\n    /* \"#utility.yul\":7739:7745   */\n  dup3\n    /* \"#utility.yul\":7736:7750   */\n  lt\n    /* \"#utility.yul\":7716:7734   */\n  dup2\n    /* \"#utility.yul\":7713:7751   */\n  sub\n    /* \"#utility.yul\":7710:7794   */\n  tag_168\n  jumpi\n    /* \"#utility.yul\":7766:7784   */\n  tag_169\n  tag_67\n  jump\t// in\ntag_169:\n    /* \"#utility.yul\":7710:7794   */\ntag_168:\n    /* \"#utility.yul\":7531:7800   */\n  pop\n    /* \"#utility.yul\":7480:7800   */\n  swap2\n  swap1\n  pop\n  jump\t// out\n    /* \"#utility.yul\":7806:7947   */\ntag_68:\n    /* \"#utility.yul\":7855:7859   */\n  0x00\n    /* \"#utility.yul\":7878:7881   */\n  dup2\n    /* \"#utility.yul\":7870:7881   */\n  swap1\n  pop\n    /* \"#utility.yul\":7901:7904   */\n  dup2\n    /* \"#utility.yul\":7898:7899   */\n  0x00\n    /* \"#utility.yul\":7891:7905   */\n  mstore\n    /* \"#utility.yul\":7935:7939   */\n  0x20\n    /* \"#utility.yul\":7932:7933   */\n  0x00\n    /* \"#utility.yul\":7922:7940   */\n  keccak256\n    /* \"#utility.yul\":7914:7940   */\n  swap1\n  pop\n    /* \"#utility.yul\":7806:7947   */\n  swap2\n  swap1\n  pop\n  jump\t// out\n    /* \"#utility.yul\":7953:8046   */\ntag_69:\n    /* \"#utility.yul\":7990:7996   */\n  0x00\n    /* \"#utility.yul\":8037:8039   */\n  0x20\n    /* \"#utility.yul\":8032:8034   */\n  0x1f\n    /* \"#utility.yul\":8025:8030   */\n  dup4\n    /* \"#utility.yul\":8021:8035   */\n  add\n    /* \"#utility.yul\":8017:8040   */\n  div\n    /* \"#utility.yul\":8007:8040   */\n  swap1\n  pop\n    /* \"#utility.yul\":7953:8046   */\n  swap2\n  swap1\n  pop\n  jump\t// out\n    /* \"#utility.yul\":8052:8159   */\ntag_70:\n    /* \"#utility.yul\":8096:8104   */\n  0x00\n    /* \"#utility.yul\":8146:8151   */\n  dup3\n    /* \"#utility.yul\":8140:8144   */\n  dup3\n    /* \"#utility.yul\":8136:8152   */\n  shl\n    /* \"#utility.yul\":8115:8152   */\n  swap1\n  pop\n    /* \"#utility.yul\":8052:8159   */\n  swap3\n  swap2\n  pop\n  pop\n  jump\t// out\n    /* \"#utility.yul\":8165:8558   */\ntag_71:\n    /* \"#utility.yul\":8234:8240   */\n  0x00\n    /* \"#utility.yul\":8284:8285   */\n  0x08\n    /* \"#utility.yul\":8272:8282   */\n  dup4\n    /* \"#utility.yul\":8268:8286   */\n  mul\n    /* \"#utility.yul\":8307:8404   */\n  tag_174\n    /* \"#utility.yul\":8337:8403   */\n  0xffffffffffffffffffffffffffffffffffffffffffffffffffffffffffffffff\n    /* \"#utility.yul\":8326:8335   */\n  dup3\n    /* \"#utility.yul\":8307:8404   */\n  tag_70\n  jump\t// in\ntag_174:\n    /* \"#utility.yul\":8425:8464   */\n  tag_175\n    /* \"#utility.yul\":8455:8463   */\n  dup7\n    /* \"#utility.yul\":8444:8453   */\n  dup4\n    /* \"#utility.yul\":8425:8464   */\n  tag_70\n  jump\t// in\ntag_175:\n    /* \"#utility.yul\":8413:8464   */\n  swap6\n  pop\n    /* \"#utility.yul\":8497:8501   */\n  dup1\n    /* \"#utility.yul\":8493:8502   */\n  not\n    /* \"#utility.yul\":8486:8491   */\n  dup5\n    /* \"#utility.yul\":8482:8503   */\n  and\n    /* \"#utility.yul\":8473:8503   */\n  swap4\n  pop\n    /* \"#utility.yul\":8546:8550   */\n  dup1\n    /* \"#utility.yul\":8536:8544   */\n  dup7\n    /* \"#utility.yul\":8532:8551   */\n  and\n    /* \"#utility.yul\":8525:8530   */\n  dup5\n    /* \"#utility.yul\":8522:8552   */\n  or\n    /* \"#utility.yul\":8512:8552   */\n  swap3\n  pop\n    /* \"#utility.yul\":8241:8558   */\n  pop\n  pop\n    /* \"#utility.yul\":8165:8558   */\n  swap4\n  swap3\n  pop\n  pop\n  pop\n  jump\t// out\n    /* \"#utility.yul\":8564:8641   */\ntag_72:\n    /* \"#utility.yul\":8601:8608   */\n  0x00\n    /* \"#utility.yul\":8630:8635   */\n  dup2\n    /* \"#utility.yul\":8619:8635   */\n  swap1\n  pop\n    /* \"#utility.yul\":8564:8641   */\n  swap2\n  swap1\n  pop\n  jump\t// out\n    /* \"#utility.yul\":8647:8707   */\ntag_73:\n    /* \"#utility.yul\":8675:8678   */\n  0x00\n    /* \"#utility.yul\":8696:8701   */\n  dup2\n    /* \"#utility.yul\":8689:8701   */\n  swap1\n  pop\n    /* \"#utility.yul\":8647:8707   */\n  swap2\n  swap1\n  pop\n  jump\t// out\n    /* \"#utility.yul\":8713:8855   */\ntag_74:\n    /* \"#utility.yul\":8763:8772   */\n  0x00\n    /* \"#utility.yul\":8796:8849   */\n  tag_179\n    /* \"#utility.yul\":8814:8848   */\n  tag_180\n    /* \"#utility.yul\":8823:8847   */\n  tag_181\n    /* \"#utility.yul\":8841:8846   */\n  dup5\n    /* \"#utility.yul\":8823:8847   */\n  tag_72\n  jump\t// in\ntag_181:\n    /* \"#utility.yul\":8814:8848   */\n  tag_73\n  jump\t// in\ntag_180:\n    /* \"#utility.yul\":8796:8849   */\n  tag_72\n  jump\t// in\ntag_179:\n    /* \"#utility.yul\":8783:8849   */\n  swap1\n  pop\n    /* \"#utility.yul\":8713:8855   */\n  swap2\n  swap1\n  pop\n  jump\t// out\n    /* \"#utility.yul\":8861:8936   */\ntag_75:\n    /* \"#utility.yul\":8904:8907   */\n  0x00\n    /* \"#utility.yul\":8925:8930   */\n  dup2\n    /* \"#utility.yul\":8918:8930   */\n  swap1\n  pop\n    /* \"#utility.yul\":8861:8936   */\n  swap2\n  swap1\n  pop\n  jump\t// out\n    /* \"#utility.yul\":8942:9211   */\ntag_76:\n    /* \"#utility.yul\":9052:9091   */\n  tag_184\n    /* \"#utility.yul\":9083:9090   */\n  dup4\n    /* \"#utility.yul\":9052:9091   */\n  tag_74\n  jump\t// in\ntag_184:\n    /* \"#utility.yul\":9113:9204   */\n  tag_185\n    /* \"#utility.yul\":9162:9203   */\n  tag_186\n    /* \"#utility.yul\":9186:9202   */\n  dup3\n    /* \"#utility.yul\":9162:9203   */\n  tag_75\n  jump\t// in\ntag_186:\n    /* \"#utility.yul\":9154:9160   */\n  dup5\n    /* \"#utility.yul\":9147:9151   */\n  dup5\n    /* \"#utility.yul\":9141:9152   */\n  sload\n    /* \"#utility.yul\":9113:9204   */\n  tag_71\n  jump\t// in\ntag_185:\n    /* \"#utility.yul\":9107:9111   */\n  dup3\n    /* \"#utility.yul\":9100:9205   */\n  sstore\n    /* \"#utility.yul\":9018:9211   */\n  pop\n    /* \"#utility.yul\":8942:9211   */\n  pop\n  pop\n  pop\n  jump\t// out\n    /* \"#utility.yul\":9217:9290   */\ntag_77:\n    /* \"#utility.yul\":9262:9265   */\n  0x00\n    /* \"#utility.yul\":9217:9290   */\n  swap1\n  jump\t// out\n    /* \"#utility.yul\":9296:9485   */\ntag_78:\n    /* \"#utility.yul\":9373:9405   */\n  tag_189\n  tag_77\n  jump\t// in\ntag_189:\n    /* \"#utility.yul\":9414:9479   */\n  tag_190\n    /* \"#utility.yul\":9472:9478   */\n  dup2\n    /* \"#utility.yul\":9464:9470   */\n  dup5\n    /* \"#utility.yul\":9458:9462   */\n  dup5\n    /* \"#utility.yul\":9414:9479   */\n  tag_76\n  jump\t// in\ntag_190:\n    /* \"#utility.yul\":9349:9485   */\n  pop\n    /* \"#utility.yul\":9296:9485   */\n  pop\n  pop\n  jump\t// out\n    /* \"#utility.yul\":9491:9677   */\ntag_79:\n    /* \"#utility.yul\":9551:9671   */\ntag_192:\n    /* \"#utility.yul\":9568:9571   */\n  dup2\n    /* \"#utility.yul\":9561:9566   */\n  dup2\n    /* \"#utility.yul\":9558:9572   */\n  lt\n    /* \"#utility.yul\":9551:9671   */\n  iszero\n  tag_194\n  jumpi\n    /* \"#utility.yul\":9622:9661   */\n  tag_195\n    /* \"#utility.yul\":9659:9660   */\n  0x00\n    /* \"#utility.yul\":9652:9657   */\n  dup3\n    /* \"#utility.yul\":9622:9661   */\n  tag_78\n  jump\t// in\ntag_195:\n    /* \"#utility.yul\":9595:9596   */\n  0x01\n    /* \"#utility.yul\":9588:9593   */\n  dup2\n    /* \"#utility.yul\":9584:9597   */\n  add\n    /* \"#utility.yul\":9575:9597   */\n  swap1\n  pop\n    /* \"#utility.yul\":9551:9671   */\n  jump(tag_192)\ntag_194:\n    /* \"#utility.yul\":9491:9677   */\n  pop\n  pop\n  jump\t// out\n    /* \"#utility.yul\":9683:10226   */\ntag_80:\n    /* \"#utility.yul\":9784:9786   */\n  0x1f\n    /* \"#utility.yul\":9779:9782   */\n  dup3\n    /* \"#utility.yul\":9776:9787   */\n  gt\n    /* \"#utility.yul\":9773:10219   */\n  iszero\n  tag_197\n  jumpi\n    /* \"#utility.yul\":9818:9856   */\n  tag_198\n    /* \"#utility.yul\":9850:9855   */\n  dup2\n    /* \"#utility.yul\":9818:9856   */\n  tag_68\n  jump\t// in\ntag_198:\n    /* \"#utility.yul\":9902:9931   */\n  tag_199\n    /* \"#utility.yul\":9920:9930   */\n  dup5\n    /* \"#utility.yul\":9902:9931   */\n  tag_69\n  jump\t// in\ntag_199:\n    /* \"#utility.yul\":9892:9900   */\n  dup2\n    /* \"#utility.yul\":9888:9932   */\n  add\n    /* \"#utility.yul\":10085:10087   */\n  0x20\n    /* \"#utility.yul\":10073:10083   */\n  dup6\n    /* \"#utility.yul\":10070:10088   */\n  lt\n    /* \"#utility.yul\":10067:10116   */\n  iszero\n  tag_200\n  jumpi\n    /* \"#utility.yul\":10106:10114   */\n  dup2\n    /* \"#utility.yul\":10091:10114   */\n  swap1\n  pop\n    /* \"#utility.yul\":10067:10116   */\ntag_200:\n    /* \"#utility.yul\":10129:10209   */\n  tag_201\n    /* \"#utility.yul\":10185:10207   */\n  tag_202\n    /* \"#utility.yul\":10203:10206   */\n  dup6\n    /* \"#utility.yul\":10185:10207   */\n  tag_69\n  jump\t// in\ntag_202:\n    /* \"#utility.yul\":10175:10183   */\n  dup4\n    /* \"#utility.yul\":10171:10208   */\n  add\n    /* \"#utility.yul\":10158:10169   */\n  dup3\n    /* \"#utility.yul\":10129:10209   */\n  tag_79\n  jump\t// in\ntag_201:\n    /* \"#utility.yul\":9788:10219   */\n  pop\n  pop\n    /* \"#utility.yul\":9773:10219   */\ntag_197:\n    /* \"#utility.yul\":9683:10226   */\n  pop\n  pop\n  pop\n  jump\t// out\n    /* \"#utility.yul\":10232:10349   */\ntag_81:\n    /* \"#utility.yul\":10286:10294   */\n  0x00\n    /* \"#utility.yul\":10336:10341   */\n  dup3\n    /* \"#utility.yul\":10330:10334   */\n  dup3\n    /* \"#utility.yul\":10326:10342   */\n  shr\n    /* \"#utility.yul\":10305:10342   */\n  swap1\n  pop\n    /* \"#utility.yul\":10232:10349   */\n  swap3\n  swap2\n  pop\n  pop\n  jump\t// out\n    /* \"#utility.yul\":10355:10524   */\ntag_82:\n    /* \"#utility.yul\":10399:10405   */\n  0x00\n    /* \"#utility.yul\":10432:10483   */\n  tag_205\n    /* \"#utility.yul\":10480:10481   */\n  0x00\n    /* \"#utility.yul\":10476:10482   */\n  not\n    /* \"#utility.yul\":10468:10473   */\n  dup5\n    /* \"#utility.yul\":10465:10466   */\n  0x08\n    /* \"#utility.yul\":10461:10474   */\n  mul\n    /* \"#utility.yul\":10432:10483   */\n  tag_81\n  jump\t// in\ntag_205:\n    /* \"#utility.yul\":10428:10484   */\n  not\n    /* \"#utility.yul\":10513:10517   */\n  dup1\n    /* \"#utility.yul\":10507:10511   */\n  dup4\n    /* \"#utility.yul\":10503:10518   */\n  and\n    /* \"#utility.yul\":10493:10518   */\n  swap2\n  pop\n    /* \"#utility.yul\":10406:10524   */\n  pop\n    /* \"#utility.yul\":10355:10524   */\n  swap3\n  swap2\n  pop\n  pop\n  jump\t// out\n    /* \"#utility.yul\":10529:10824   */\ntag_83:\n    /* \"#utility.yul\":10605:10609   */\n  0x00\n    /* \"#utility.yul\":10751:10780   */\n  tag_207\n    /* \"#utility.yul\":10776:10779   */\n  dup4\n    /* \"#utility.yul\":10770:10774   */\n  dup4\n    /* \"#utility.yul\":10751:10780   */\n  tag_82\n  jump\t// in\ntag_207:\n    /* \"#utility.yul\":10743:10780   */\n  swap2\n  pop\n    /* \"#utility.yul\":10813:10816   */\n  dup3\n    /* \"#utility.yul\":10810:10811   */\n  0x02\n    /* \"#utility.yul\":10806:10817   */\n  mul\n    /* \"#utility.yul\":10800:10804   */\n  dup3\n    /* \"#utility.yul\":10797:10818   */\n  or\n    /* \"#utility.yul\":10789:10818   */\n  swap1\n  pop\n    /* \"#utility.yul\":10529:10824   */\n  swap3\n  swap2\n  pop\n  pop\n  jump\t// out\n    /* \"#utility.yul\":10829:12224   */\ntag_18:\n    /* \"#utility.yul\":10946:10983   */\n  tag_209\n    /* \"#utility.yul\":10979:10982   */\n  dup3\n    /* \"#utility.yul\":10946:10983   */\n  tag_66\n  jump\t// in\ntag_209:\n    /* \"#utility.yul\":11048:11066   */\n  0xffffffffffffffff\n    /* \"#utility.yul\":11040:11046   */\n  dup2\n    /* \"#utility.yul\":11037:11067   */\n  gt\n    /* \"#utility.yul\":11034:11090   */\n  iszero\n  tag_210\n  jumpi\n    /* \"#utility.yul\":11070:11088   */\n  tag_211\n  tag_48\n  jump\t// in\ntag_211:\n    /* \"#utility.yul\":11034:11090   */\ntag_210:\n    /* \"#utility.yul\":11114:11152   */\n  tag_212\n    /* \"#utility.yul\":11146:11150   */\n  dup3\n    /* \"#utility.yul\":11140:11151   */\n  sload\n    /* \"#utility.yul\":11114:11152   */\n  tag_39\n  jump\t// in\ntag_212:\n    /* \"#utility.yul\":11199:11266   */\n  tag_213\n    /* \"#utility.yul\":11259:11265   */\n  dup3\n    /* \"#utility.yul\":11251:11257   */\n  dup3\n    /* \"#utility.yul\":11245:11249   */\n  dup6\n    /* \"#utility.yul\":11199:11266   */\n  tag_80\n  jump\t// in\ntag_213:\n    /* \"#utility.yul\":11293:11294   */\n  0x00\n    /* \"#utility.yul\":11317:11321   */\n  0x20\n    /* \"#utility.yul\":11304:11321   */\n  swap1\n  pop\n    /* \"#utility.yul\":11349:11351   */\n  0x1f\n    /* \"#utility.yul\":11341:11347   */\n  dup4\n    /* \"#utility.yul\":11338:11352   */\n  gt\n    /* \"#utility.yul\":11366:11367   */\n  0x01\n    /* \"#utility.yul\":11361:11979   */\n  dup2\n  eq\n  tag_215\n  jumpi\n    /* \"#utility.yul\":12023:12024   */\n  0x00\n    /* \"#utility.yul\":12040:12046   */\n  dup5\n    /* \"#utility.yul\":12037:12114   */\n  iszero\n  tag_216\n  jumpi\n    /* \"#utility.yul\":12089:12098   */\n  dup3\n    /* \"#utility.yul\":12084:12087   */\n  dup8\n    /* \"#utility.yul\":12080:12099   */\n  add\n    /* \"#utility.yul\":12074:12100   */\n  mload\n    /* \"#utility.yul\":12065:12100   */\n  swap1\n  pop\n    /* \"#utility.yul\":12037:12114   */\ntag_216:\n    /* \"#utility.yul\":12140:12207   */\n  tag_217\n    /* \"#utility.yul\":12200:12206   */\n  dup6\n    /* \"#utility.yul\":12193:12198   */\n  dup3\n    /* \"#utility.yul\":12140:12207   */\n  tag_83\n  jump\t// in\ntag_217:\n    /* \"#utility.yul\":12134:12138   */\n  dup7\n    /* \"#utility.yul\":12127:12208   */\n  sstore\n    /* \"#utility.yul\":11996:12218   */\n  pop\n    /* \"#utility.yul\":11331:12218   */\n  jump(tag_214)\n    /* \"#utility.yul\":11361:11979   */\ntag_215:\n    /* \"#utility.yul\":11413:11417   */\n  0x1f\n    /* \"#utility.yul\":11409:11418   */\n  not\n    /* \"#utility.yul\":11401:11407   */\n  dup5\n    /* \"#utility.yul\":11397:11419   */\n  and\n    /* \"#utility.yul\":11447:11484   */\n  tag_218\n    /* \"#utility.yul\":11479:11483   */\n  dup7\n    /* \"#utility.yul\":11447:11484   */\n  tag_68\n  jump\t// in\ntag_218:\n    /* \"#utility.yul\":11506:11507   */\n  0x00\n    /* \"#utility.yul\":11520:11728   */\ntag_219:\n    /* \"#utility.yul\":11534:11541   */\n  dup3\n    /* \"#utility.yul\":11531:11532   */\n  dup2\n    /* \"#utility.yul\":11528:11542   */\n  lt\n    /* \"#utility.yul\":11520:11728   */\n  iszero\n  tag_221\n  jumpi\n    /* \"#utility.yul\":11613:11622   */\n  dup5\n    /* \"#utility.yul\":11608:11611   */\n  dup10\n    /* \"#utility.yul\":11604:11623   */\n  add\n    /* \"#utility.yul\":11598:11624   */\n  mload\n    /* \"#utility.yul\":11590:11596   */\n  dup3\n    /* \"#utility.yul\":11583:11625   */\n  sstore\n    /* \"#utility.yul\":11664:11665   */\n  0x01\n    /* \"#utility.yul\":11656:11662   */\n  dup3\n    /* \"#utility.yul\":11652:11666   */\n  add\n    /* \"#utility.yul\":11642:11666   */\n  swap2\n  pop\n    /* \"#utility.yul\":11711:11713   */\n  0x20\n    /* \"#utility.yul\":11700:11709   */\n  dup6\n    /* \"#utility.yul\":11696:11714   */\n  add\n    /* \"#utility.yul\":11683:11714   */\n  swap5\n  pop\n    /* \"#utility.yul\":11557:11561   */\n  0x20\n    /* \"#utility.yul\":11554:11555   */\n  dup2\n    /* \"#utility.yul\":11550:11562   */\n  add\n    /* \"#utility.yul\":11545:11562   */\n  swap1\n  pop\n    /* \"#utility.yul\":11520:11728   */\n  jump(tag_219)\ntag_221:\n    /* \"#utility.yul\":11756:11762   */\n  dup7\n    /* \"#utility.yul\":11747:11754   */\n  dup4\n    /* \"#utility.yul\":11744:11763   */\n  lt\n    /* \"#utility.yul\":11741:11920   */\n  iszero\n  tag_222\n  jumpi\n    /* \"#utility.yul\":11814:11823   */\n  dup5\n    /* \"#utility.yul\":11809:11812   */\n  dup10\n    /* \"#utility.yul\":11805:11824   */\n  add\n    /* \"#utility.yul\":11799:11825   */\n  mload\n    /* \"#utility.yul\":11857:11905   */\n  tag_223\n    /* \"#utility.yul\":11899:11903   */\n  0x1f\n    /* \"#utility.yul\":11891:11897   */\n  dup10\n    /* \"#utility.yul\":11887:11904   */\n  and\n    /* \"#utility.yul\":11876:11885   */\n  dup3\n    /* \"#utility.yul\":11857:11905   */\n  tag_82\n  jump\t// in\ntag_223:\n    /* \"#utility.yul\":11849:11855   */\n  dup4\n    /* \"#utility.yul\":11842:11906   */\n  sstore\n    /* \"#utility.yul\":11764:11920   */\n  pop\n    /* \"#utility.yul\":11741:11920   */\ntag_222:\n    /* \"#utility.yul\":11966:11967   */\n  0x01\n    /* \"#utility.yul\":11962:11963   */\n  0x02\n    /* \"#utility.yul\":11954:11960   */\n  dup9\n    /* \"#utility.yul\":11950:11964   */\n  mul\n    /* \"#utility.yul\":11946:11968   */\n  add\n    /* \"#utility.yul\":11940:11944   */\n  dup9\n    /* \"#utility.yul\":11933:11969   */\n  sstore\n    /* \"#utility.yul\":11368:11979   */\n  pop\n  pop\n  pop\n    /* \"#utility.yul\":11331:12218   */\ntag_214:\n  pop\n    /* \"#utility.yul\":10921:12224   */\n  pop\n  pop\n  pop\n    /* \"#utility.yul\":10829:12224   */\n  pop\n  pop\n  jump\t// out\n    /* \"tutor.sol\":60:2244  contract TutorContract {... */\ntag_13:\n  dataSize(sub_0)\n  dup1\n  dataOffset(sub_0)\n  0x00\n  codecopy\n  0x00\n  return\nstop\n\nsub_0: assembly {\n        /* \"tutor.sol\":60:2244  contract TutorContract {... */\n      mstore(0x40, 0x80)\n      callvalue\n      dup1\n      iszero\n      tag_1\n      jumpi\n      0x00\n      dup1\n      revert\n    tag_1:\n      pop\n      jumpi(tag_2, lt(calldatasize, 0x04))\n      shr(0xe0, calldataload(0x00))\n      dup1\n      0x2525146b\n      eq\n      tag_3\n      jumpi\n      dup1\n      0x42fba3fb\n      eq\n      tag_4\n      jumpi\n      dup1\n      0x734ba396\n      eq\n      tag_5\n      jumpi\n    tag_2:\n      0x00\n      dup1\n      revert\n        /* \"tutor.sol\":1642:2239  function answer(uint8 a, address payable to) public  {... */\n    tag_3:\n      tag_6\n      0x04\n      dup1\n      calldatasize\n      sub\n      dup2\n      add\n      swap1\n      tag_7\n      swap2\n      swap1\n      tag_8\n      jump\t// in\n    tag_7:\n      tag_9\n      jump\t// in\n    tag_6:\n      stop\n        /* \"tutor.sol\":1423:1524  function calculate_grade() public view returns (fxp) {... */\n    tag_4:\n      tag_10\n      tag_11\n      jump\t// in\n    tag_10:\n      mload(0x40)\n      tag_12\n      swap2\n      swap1\n      tag_13\n      jump\t// in\n    tag_12:\n      mload(0x40)\n      dup1\n      swap2\n      sub\n      swap1\n      return\n        /* \"tutor.sol\":1528:1635  function get_current_question() public view returns (string memory) {... */\n    tag_5:\n      tag_14\n      tag_15\n      jump\t// in\n    tag_14:\n      mload(0x40)\n      tag_16\n      swap2\n      swap1\n      tag_17\n      jump\t// in\n    tag_16:\n      mload(0x40)\n      dup1\n      swap2\n      sub\n      swap1\n      return\n        /* \"tutor.sol\":1642:2239  function answer(uint8 a, address payable to) public  {... */\n    tag_9:\n        /* \"tutor.sol\":1712:1719  answers */\n      0x01\n        /* \"tutor.sol\":1720:1728  progress */\n      0x04\n      0x00\n      swap1\n      sload\n      swap1\n      0x0100\n      exp\n      swap1\n      div\n      0xff\n      and\n        /* \"tutor.sol\":1712:1729  answers[progress] */\n      0xff\n      and\n      dup2\n      sload\n      dup2\n      lt\n      tag_19\n      jumpi\n      tag_20\n      tag_21\n      jump\t// in\n    tag_20:\n    tag_19:\n      swap1\n      0x00\n      mstore\n      keccak256(0x00, 0x20)\n      swap1\n      0x20\n      swap2\n      dup3\n      dup3\n      div\n      add\n      swap2\n      swap1\n      mod\n      swap1\n      sload\n      swap1\n      0x0100\n      exp\n      swap1\n      div\n      0xff\n      and\n        /* \"tutor.sol\":1707:1729  a != answers[progress] */\n      0xff\n      and\n        /* \"tutor.sol\":1707:1708  a */\n      dup3\n        /* \"tutor.sol\":1707:1729  a != answers[progress] */\n      0xff\n      and\n      eq\n        /* \"tutor.sol\":1703:1840  if (a != answers[progress]) {... */\n      tag_23\n      jumpi\n        /* \"tutor.sol\":1747:1785  push_front(points, fxp.wrap(-2000000)) */\n      tag_24\n        /* \"tutor.sol\":1758:1764  points */\n      0x03\n        /* \"tutor.sol\":1747:1785  push_front(points, fxp.wrap(-2000000)) */\n      dup1\n      sload\n      dup1\n      0x20\n      mul\n      0x20\n      add\n      mload(0x40)\n      swap1\n      dup2\n      add\n      0x40\n      mstore\n      dup1\n      swap3\n      swap2\n      swap1\n      dup2\n      dup2\n      mstore\n      0x20\n      add\n      dup3\n      dup1\n      sload\n      dup1\n      iszero\n      tag_25\n      jumpi\n      0x20\n      mul\n      dup3\n      add\n      swap2\n      swap1\n      0x00\n      mstore\n      keccak256(0x00, 0x20)\n      swap1\n      0x00\n      swap1\n    tag_26:\n      dup3\n      dup3\n      swap1\n      sload\n      swap1\n      0x0100\n      exp\n      swap1\n      div\n      0x07\n      signextend\n      0x07\n      signextend\n      dup2\n      mstore\n      0x20\n      add\n      swap1\n      0x08\n      add\n      swap1\n      0x20\n      dup3\n      0x07\n      add\n      div\n      swap3\n      dup4\n      add\n      swap3\n      0x01\n      sub\n      dup3\n      mul\n      swap2\n      pop\n      dup1\n      dup5\n      gt\n      tag_26\n      jumpi\n      swap1\n      pop\n    tag_25:\n      pop\n      pop\n      pop\n      pop\n      pop\n        /* \"tutor.sol\":1775:1783  -2000000 */\n      0xffffffffffffffffffffffffffffffffffffffffffffffffffffffffffe17b80\n        /* \"tutor.sol\":1747:1757  push_front */\n      tag_27\n        /* \"tutor.sol\":1747:1785  push_front(points, fxp.wrap(-2000000)) */\n      jump\t// in\n    tag_24:\n        /* \"tutor.sol\":1738:1744  points */\n      0x03\n        /* \"tutor.sol\":1738:1785  points = push_front(points, fxp.wrap(-2000000)) */\n      swap1\n      dup1\n      mload\n      swap1\n      0x20\n      add\n      swap1\n      tag_28\n      swap3\n      swap2\n      swap1\n      tag_29\n      jump\t// in\n    tag_28:\n      pop\n        /* \"tutor.sol\":1792:1798  points */\n      0x03\n        /* \"tutor.sol\":1792:1804  points.pop() */\n      dup1\n      sload\n      dup1\n      tag_30\n      jumpi\n      tag_31\n      tag_32\n      jump\t// in\n    tag_31:\n    tag_30:\n      0x01\n      swap1\n      sub\n      dup2\n      dup2\n      swap1\n      0x00\n      mstore\n      keccak256(0x00, 0x20)\n      swap1\n      0x04\n      swap2\n      dup3\n      dup3\n      div\n      add\n      swap2\n      swap1\n      mod\n      0x08\n      mul\n      0x0100\n      exp\n      dup2\n      sload\n      swap1\n      0xffffffffffffffff\n      mul\n      not\n      and\n      swap1\n      sstore\n      swap1\n      sstore\n        /* \"tutor.sol\":1816:1831  Answered(false) */\n      0x22b1cee616b1fdc88183479e67fbdd2d87e3bb10fa86d8eccea07b189c6d17eb\n        /* \"tutor.sol\":1825:1830  false */\n      0x00\n        /* \"tutor.sol\":1816:1831  Answered(false) */\n      mload(0x40)\n      tag_34\n      swap2\n      swap1\n      tag_35\n      jump\t// in\n    tag_34:\n      mload(0x40)\n      dup1\n      swap2\n      sub\n      swap1\n      log1\n        /* \"tutor.sol\":1703:1840  if (a != answers[progress]) {... */\n    tag_23:\n        /* \"tutor.sol\":1880:1888  progress */\n      0x04\n      0x00\n        /* \"tutor.sol\":1880:1890  progress++ */\n      dup2\n      dup2\n      swap1\n      sload\n      swap1\n      0x0100\n      exp\n      swap1\n      div\n      0xff\n      and\n      dup1\n      swap3\n      swap2\n      swap1\n      tag_36\n      swap1\n      tag_37\n      jump\t// in\n    tag_36:\n      swap2\n      swap1\n      0x0100\n      exp\n      dup2\n      sload\n      dup2\n      0xff\n      mul\n      not\n      and\n      swap1\n      dup4\n      0xff\n      and\n      mul\n      or\n      swap1\n      sstore\n      pop\n      pop\n        /* \"tutor.sol\":1907:1944  push_front(points, fxp.wrap(2000000)) */\n      tag_38\n        /* \"tutor.sol\":1918:1924  points */\n      0x03\n        /* \"tutor.sol\":1907:1944  push_front(points, fxp.wrap(2000000)) */\n      dup1\n      sload\n      dup1\n      0x20\n      mul\n      0x20\n      add\n      mload(0x40)\n      swap1\n      dup2\n      add\n      0x40\n      mstore\n      dup1\n      swap3\n      swap2\n      swap1\n      dup2\n      dup2\n      mstore\n      0x20\n      add\n      dup3\n      dup1\n      sload\n      dup1\n      iszero\n      tag_39\n      jumpi\n      0x20\n      mul\n      dup3\n      add\n      swap2\n      swap1\n      0x00\n      mstore\n      keccak256(0x00, 0x20)\n      swap1\n      0x00\n      swap1\n    tag_40:\n      dup3\n      dup3\n      swap1\n      sload\n      swap1\n      0x0100\n      exp\n      swap1\n      div\n      0x07\n      signextend\n      0x07\n      signextend\n      dup2\n      mstore\n      0x20\n      add\n      swap1\n      0x08\n      add\n      swap1\n      0x20\n      dup3\n      0x07\n      add\n      div\n      swap3\n      dup4\n      add\n      swap3\n      0x01\n      sub\n      dup3\n      mul\n      swap2\n      pop\n      dup1\n      dup5\n      gt\n      tag_40\n      jumpi\n      swap1\n      pop\n    tag_39:\n      pop\n      pop\n      pop\n      pop\n      pop\n        /* \"tutor.sol\":1935:1942  2000000 */\n      0x1e8480\n        /* \"tutor.sol\":1907:1917  push_front */\n      tag_27\n        /* \"tutor.sol\":1907:1944  push_front(points, fxp.wrap(2000000)) */\n      jump\t// in\n    tag_38:\n        /* \"tutor.sol\":1898:1904  points */\n      0x03\n        /* \"tutor.sol\":1898:1944  points = push_front(points, fxp.wrap(2000000)) */\n      swap1\n      dup1\n      mload\n      swap1\n      0x20\n      add\n      swap1\n      tag_41\n      swap3\n      swap2\n      swap1\n      tag_29\n      jump\t// in\n    tag_41:\n      pop\n        /* \"tutor.sol\":1952:1958  points */\n      0x03\n        /* \"tutor.sol\":1952:1964  points.pop() */\n      dup1\n      sload\n      dup1\n      tag_42\n      jumpi\n      tag_43\n      tag_32\n      jump\t// in\n    tag_43:\n    tag_42:\n      0x01\n      swap1\n      sub\n      dup2\n      dup2\n      swap1\n      0x00\n      mstore\n      keccak256(0x00, 0x20)\n      swap1\n      0x04\n      swap2\n      dup3\n      dup3\n      div\n      add\n      swap2\n      swap1\n      mod\n      0x08\n      mul\n      0x0100\n      exp\n      dup2\n      sload\n      swap1\n      0xffffffffffffffff\n      mul\n      not\n      and\n      swap1\n      sstore\n      swap1\n      sstore\n        /* \"tutor.sol\":1988:1997  questions */\n      0x00\n        /* \"tutor.sol\":1988:2004  questions.length */\n      dup1\n      sload\n      swap1\n      pop\n        /* \"tutor.sol\":1977:1985  progress */\n      0x04\n      0x00\n      swap1\n      sload\n      swap1\n      0x0100\n      exp\n      swap1\n      div\n      0xff\n      and\n        /* \"tutor.sol\":1977:2004  progress > questions.length */\n      0xff\n      and\n      gt\n        /* \"tutor.sol\":1973:2037  if (progress > questions.length) {... */\n      iszero\n      tag_45\n      jumpi\n        /* \"tutor.sol\":2027:2028  0 */\n      0x00\n        /* \"tutor.sol\":2016:2024  progress */\n      0x04\n      0x00\n        /* \"tutor.sol\":2016:2028  progress = 0 */\n      0x0100\n      exp\n      dup2\n      sload\n      dup2\n      0xff\n      mul\n      not\n      and\n      swap1\n      dup4\n      0xff\n      and\n      mul\n      or\n      swap1\n      sstore\n      pop\n        /* \"tutor.sol\":1973:2037  if (progress > questions.length) {... */\n    tag_45:\n        /* \"tutor.sol\":2053:2070  calculate_grade() */\n      tag_46\n        /* \"tutor.sol\":2053:2068  calculate_grade */\n      tag_11\n        /* \"tutor.sol\":2053:2070  calculate_grade() */\n      jump\t// in\n    tag_46:\n        /* \"tutor.sol\":2045:2050  grade */\n      0x04\n      0x01\n        /* \"tutor.sol\":2045:2070  grade = calculate_grade() */\n      0x0100\n      exp\n      dup2\n      sload\n      dup2\n      0xffffffffffffffff\n      mul\n      not\n      and\n      swap1\n      dup4\n      0x07\n      signextend\n      0xffffffffffffffff\n      and\n      mul\n      or\n      swap1\n      sstore\n      pop\n        /* \"tutor.sol\":2103:2109  975000 */\n      0x0ee098\n        /* \"tutor.sol\":2094:2099  grade */\n      0x04\n      0x01\n      swap1\n      sload\n      swap1\n      0x0100\n      exp\n      swap1\n      div\n      0x07\n      signextend\n        /* \"tutor.sol\":2083:2109  fxp.unwrap(grade) > 975000 */\n      0x07\n      signextend\n      sgt\n        /* \"tutor.sol\":2079:2233  if (fxp.unwrap(grade) > 975000) {... */\n      iszero\n      tag_47\n      jumpi\n        /* \"tutor.sol\":2122:2131  bool sent */\n      0x00\n        /* \"tutor.sol\":2133:2150  bytes memory data */\n      dup1\n        /* \"tutor.sol\":2154:2156  to */\n      dup3\n        /* \"tutor.sol\":2154:2161  to.call */\n      0xffffffffffffffffffffffffffffffffffffffff\n      and\n        /* \"tutor.sol\":2169:2172  500 */\n      0x01f4\n        /* \"tutor.sol\":2154:2177  to.call{value: 500}(\"\") */\n      mload(0x40)\n      tag_48\n      swap1\n      tag_49\n      jump\t// in\n    tag_48:\n      0x00\n      mload(0x40)\n      dup1\n      dup4\n      sub\n      dup2\n      dup6\n      dup8\n      gas\n      call\n      swap3\n      pop\n      pop\n      pop\n      returndatasize\n      dup1\n      0x00\n      dup2\n      eq\n      tag_52\n      jumpi\n      mload(0x40)\n      swap2\n      pop\n      and(add(returndatasize, 0x3f), not(0x1f))\n      dup3\n      add\n      0x40\n      mstore\n      returndatasize\n      dup3\n      mstore\n      returndatasize\n      0x00\n      0x20\n      dup5\n      add\n      returndatacopy\n      jump(tag_51)\n    tag_52:\n      0x60\n      swap2\n      pop\n    tag_51:\n      pop\n        /* \"tutor.sol\":2121:2177  (bool sent, bytes memory data) = to.call{value: 500}(\"\") */\n      swap2\n      pop\n      swap2\n      pop\n        /* \"tutor.sol\":2195:2199  sent */\n      dup2\n        /* \"tutor.sol\":2187:2224  require(sent, \"Failed to send Ether\") */\n      tag_53\n      jumpi\n      mload(0x40)\n      0x08c379a000000000000000000000000000000000000000000000000000000000\n      dup2\n      mstore\n      0x04\n      add\n      tag_54\n      swap1\n      tag_55\n      jump\t// in\n    tag_54:\n      mload(0x40)\n      dup1\n      swap2\n      sub\n      swap1\n      revert\n    tag_53:\n        /* \"tutor.sol\":2111:2233  {... */\n      pop\n      pop\n        /* \"tutor.sol\":2079:2233  if (fxp.unwrap(grade) > 975000) {... */\n    tag_47:\n        /* \"tutor.sol\":1642:2239  function answer(uint8 a, address payable to) public  {... */\n      pop\n      pop\n      jump\t// out\n        /* \"tutor.sol\":1423:1524  function calculate_grade() public view returns (fxp) {... */\n    tag_11:\n        /* \"tutor.sol\":1471:1474  fxp */\n      0x00\n        /* \"tutor.sol\":1491:1519  dot_product(weights, points) */\n      tag_57\n        /* \"tutor.sol\":1503:1510  weights */\n      0x02\n        /* \"tutor.sol\":1491:1519  dot_product(weights, points) */\n      dup1\n      sload\n      dup1\n      0x20\n      mul\n      0x20\n      add\n      mload(0x40)\n      swap1\n      dup2\n      add\n      0x40\n      mstore\n      dup1\n      swap3\n      swap2\n      swap1\n      dup2\n      dup2\n      mstore\n      0x20\n      add\n      dup3\n      dup1\n      sload\n      dup1\n      iszero\n      tag_58\n      jumpi\n      0x20\n      mul\n      dup3\n      add\n      swap2\n      swap1\n      0x00\n      mstore\n      keccak256(0x00, 0x20)\n      swap1\n      0x00\n      swap1\n    tag_59:\n      dup3\n      dup3\n      swap1\n      sload\n      swap1\n      0x0100\n      exp\n      swap1\n      div\n      0x07\n      signextend\n      0x07\n      signextend\n      dup2\n      mstore\n      0x20\n      add\n      swap1\n      0x08\n      add\n      swap1\n      0x20\n      dup3\n      0x07\n      add\n      div\n      swap3\n      dup4\n      add\n      swap3\n      0x01\n      sub\n      dup3\n      mul\n      swap2\n      pop\n      dup1\n      dup5\n      gt\n      tag_59\n      jumpi\n      swap1\n      pop\n    tag_58:\n      pop\n      pop\n      pop\n      pop\n      pop\n        /* \"tutor.sol\":1512:1518  points */\n      0x03\n        /* \"tutor.sol\":1491:1519  dot_product(weights, points) */\n      dup1\n      sload\n      dup1\n      0x20\n      mul\n      0x20\n      add\n      mload(0x40)\n      swap1\n      dup2\n      add\n      0x40\n      mstore\n      dup1\n      swap3\n      swap2\n      swap1\n      dup2\n      dup2\n      mstore\n      0x20\n      add\n      dup3\n      dup1\n      sload\n      dup1\n      iszero\n      tag_60\n      jumpi\n      0x20\n      mul\n      dup3\n      add\n      swap2\n      swap1\n      0x00\n      mstore\n      keccak256(0x00, 0x20)\n      swap1\n      0x00\n      swap1\n    tag_61:\n      dup3\n      dup3\n      swap1\n      sload\n      swap1\n      0x0100\n      exp\n      swap1\n      div\n      0x07\n      signextend\n      0x07\n      signextend\n      dup2\n      mstore\n      0x20\n      add\n      swap1\n      0x08\n      add\n      swap1\n      0x20\n      dup3\n      0x07\n      add\n      div\n      swap3\n      dup4\n      add\n      swap3\n      0x01\n      sub\n      dup3\n      mul\n      swap2\n      pop\n      dup1\n      dup5\n      gt\n      tag_61\n      jumpi\n      swap1\n      pop\n    tag_60:\n      pop\n      pop\n      pop\n      pop\n      pop\n        /* \"tutor.sol\":1491:1502  dot_product */\n      tag_62\n        /* \"tutor.sol\":1491:1519  dot_product(weights, points) */\n      jump\t// in\n    tag_57:\n        /* \"tutor.sol\":1484:1519  return dot_product(weights, points) */\n      swap1\n      pop\n        /* \"tutor.sol\":1423:1524  function calculate_grade() public view returns (fxp) {... */\n      swap1\n      jump\t// out\n        /* \"tutor.sol\":1528:1635  function get_current_question() public view returns (string memory) {... */\n    tag_15:\n        /* \"tutor.sol\":1581:1594  string memory */\n      0x60\n        /* \"tutor.sol\":1611:1620  questions */\n      0x00\n        /* \"tutor.sol\":1621:1629  progress */\n      0x04\n      0x00\n      swap1\n      sload\n      swap1\n      0x0100\n      exp\n      swap1\n      div\n      0xff\n      and\n        /* \"tutor.sol\":1611:1630  questions[progress] */\n      0xff\n      and\n      dup2\n      sload\n      dup2\n      lt\n      tag_64\n      jumpi\n      tag_65\n      tag_21\n      jump\t// in\n    tag_65:\n    tag_64:\n      swap1\n      0x00\n      mstore\n      keccak256(0x00, 0x20)\n      add\n        /* \"tutor.sol\":1604:1630  return questions[progress] */\n      dup1\n      sload\n      tag_67\n      swap1\n      tag_68\n      jump\t// in\n    tag_67:\n      dup1\n      0x1f\n      add\n      0x20\n      dup1\n      swap2\n      div\n      mul\n      0x20\n      add\n      mload(0x40)\n      swap1\n      dup2\n      add\n      0x40\n      mstore\n      dup1\n      swap3\n      swap2\n      swap1\n      dup2\n      dup2\n      mstore\n      0x20\n      add\n      dup3\n      dup1\n      sload\n      tag_69\n      swap1\n      tag_68\n      jump\t// in\n    tag_69:\n      dup1\n      iszero\n      tag_70\n      jumpi\n      dup1\n      0x1f\n      lt\n      tag_71\n      jumpi\n      0x0100\n      dup1\n      dup4\n      sload\n      div\n      mul\n      dup4\n      mstore\n      swap2\n      0x20\n      add\n      swap2\n      jump(tag_70)\n    tag_71:\n      dup3\n      add\n      swap2\n      swap1\n      0x00\n      mstore\n      keccak256(0x00, 0x20)\n      swap1\n    tag_72:\n      dup2\n      sload\n      dup2\n      mstore\n      swap1\n      0x01\n      add\n      swap1\n      0x20\n      add\n      dup1\n      dup4\n      gt\n      tag_72\n      jumpi\n      dup3\n      swap1\n      sub\n      0x1f\n      and\n      dup3\n      add\n      swap2\n    tag_70:\n      pop\n      pop\n      pop\n      pop\n      pop\n      swap1\n      pop\n        /* \"tutor.sol\":1528:1635  function get_current_question() public view returns (string memory) {... */\n      swap1\n      jump\t// out\n        /* \"tutor.sol\":1176:1419  function push_front(fxp[] memory xs, fxp x) private pure returns (fxp[] memory) {... */\n    tag_27:\n        /* \"tutor.sol\":1242:1254  fxp[] memory */\n      0x60\n        /* \"tutor.sol\":1262:1277  fxp[] memory ys */\n      0x00\n        /* \"tutor.sol\":1302:1303  1 */\n      0x01\n        /* \"tutor.sol\":1290:1292  xs */\n      dup5\n        /* \"tutor.sol\":1290:1299  xs.length */\n      mload\n        /* \"tutor.sol\":1290:1303  xs.length + 1 */\n      tag_74\n      swap2\n      swap1\n      tag_75\n      jump\t// in\n    tag_74:\n        /* \"tutor.sol\":1280:1304  new fxp[](xs.length + 1) */\n      0xffffffffffffffff\n      dup2\n      gt\n      iszero\n      tag_76\n      jumpi\n      tag_77\n      tag_78\n      jump\t// in\n    tag_77:\n    tag_76:\n      mload(0x40)\n      swap1\n      dup1\n      dup3\n      mstore\n      dup1\n      0x20\n      mul\n      0x20\n      add\n      dup3\n      add\n      0x40\n      mstore\n      dup1\n      iszero\n      tag_79\n      jumpi\n      dup2\n      0x20\n      add\n      0x20\n      dup3\n      mul\n      dup1\n      calldatasize\n      dup4\n      calldatacopy\n      dup1\n      dup3\n      add\n      swap2\n      pop\n      pop\n      swap1\n      pop\n    tag_79:\n      pop\n        /* \"tutor.sol\":1262:1304  fxp[] memory ys = new fxp[](xs.length + 1) */\n      swap1\n      pop\n        /* \"tutor.sol\":1316:1325  uint256 i */\n      0x00\n        /* \"tutor.sol\":1311:1384  for (uint256 i = 0; i < xs.length; i++) {... */\n    tag_80:\n        /* \"tutor.sol\":1335:1337  xs */\n      dup5\n        /* \"tutor.sol\":1335:1344  xs.length */\n      mload\n        /* \"tutor.sol\":1331:1332  i */\n      dup2\n        /* \"tutor.sol\":1331:1344  i < xs.length */\n      lt\n        /* \"tutor.sol\":1311:1384  for (uint256 i = 0; i < xs.length; i++) {... */\n      iszero\n      tag_81\n      jumpi\n        /* \"tutor.sol\":1371:1373  xs */\n      dup5\n        /* \"tutor.sol\":1374:1375  i */\n      dup2\n        /* \"tutor.sol\":1371:1376  xs[i] */\n      dup2\n      mload\n      dup2\n      lt\n      tag_83\n      jumpi\n      tag_84\n      tag_21\n      jump\t// in\n    tag_84:\n    tag_83:\n      0x20\n      mul\n      0x20\n      add\n      add\n      mload\n        /* \"tutor.sol\":1361:1363  ys */\n      dup3\n        /* \"tutor.sol\":1366:1367  1 */\n      0x01\n        /* \"tutor.sol\":1364:1365  i */\n      dup4\n        /* \"tutor.sol\":1364:1367  i+1 */\n      tag_85\n      swap2\n      swap1\n      tag_75\n      jump\t// in\n    tag_85:\n        /* \"tutor.sol\":1361:1368  ys[i+1] */\n      dup2\n      mload\n      dup2\n      lt\n      tag_86\n      jumpi\n      tag_87\n      tag_21\n      jump\t// in\n    tag_87:\n    tag_86:\n      0x20\n      mul\n      0x20\n      add\n      add\n        /* \"tutor.sol\":1361:1376  ys[i+1] = xs[i] */\n      swap1\n      0x07\n      signextend\n      swap1\n      dup2\n      0x07\n      signextend\n      dup2\n      mstore\n      pop\n      pop\n        /* \"tutor.sol\":1346:1349  i++ */\n      dup1\n      dup1\n      0x01\n      add\n      swap2\n      pop\n      pop\n        /* \"tutor.sol\":1311:1384  for (uint256 i = 0; i < xs.length; i++) {... */\n      jump(tag_80)\n    tag_81:\n      pop\n        /* \"tutor.sol\":1397:1398  x */\n      dup3\n        /* \"tutor.sol\":1389:1391  ys */\n      dup2\n        /* \"tutor.sol\":1392:1393  0 */\n      0x00\n        /* \"tutor.sol\":1389:1394  ys[0] */\n      dup2\n      mload\n      dup2\n      lt\n      tag_88\n      jumpi\n      tag_89\n      tag_21\n      jump\t// in\n    tag_89:\n    tag_88:\n      0x20\n      mul\n      0x20\n      add\n      add\n        /* \"tutor.sol\":1389:1398  ys[0] = x */\n      swap1\n      0x07\n      signextend\n      swap1\n      dup2\n      0x07\n      signextend\n      dup2\n      mstore\n      pop\n      pop\n        /* \"tutor.sol\":1412:1414  ys */\n      dup1\n        /* \"tutor.sol\":1405:1414  return ys */\n      swap2\n      pop\n      pop\n        /* \"tutor.sol\":1176:1419  function push_front(fxp[] memory xs, fxp x) private pure returns (fxp[] memory) {... */\n      swap3\n      swap2\n      pop\n      pop\n      jump\t// out\n        /* \"tutor.sol\":883:1172  function dot_product(fxp[] memory xs, fxp[] memory ys) private pure returns (fxp) {... */\n    tag_62:\n        /* \"tutor.sol\":960:963  fxp */\n      0x00\n        /* \"tutor.sol\":993:995  ys */\n      dup2\n        /* \"tutor.sol\":993:1002  ys.length */\n      mload\n        /* \"tutor.sol\":980:982  xs */\n      dup4\n        /* \"tutor.sol\":980:989  xs.length */\n      mload\n        /* \"tutor.sol\":980:1002  xs.length == ys.length */\n      eq\n        /* \"tutor.sol\":973:1003  assert(xs.length == ys.length) */\n      tag_91\n      jumpi\n      tag_92\n      tag_93\n      jump\t// in\n    tag_92:\n    tag_91:\n        /* \"tutor.sol\":1011:1024  int64 product */\n      0x00\n        /* \"tutor.sol\":1041:1048  uint8 i */\n      dup1\n        /* \"tutor.sol\":1036:1136  for (uint8 i = 0; i < xs.length; i++) {... */\n    tag_94:\n        /* \"tutor.sol\":1058:1060  xs */\n      dup5\n        /* \"tutor.sol\":1058:1067  xs.length */\n      mload\n        /* \"tutor.sol\":1054:1055  i */\n      dup2\n        /* \"tutor.sol\":1054:1067  i < xs.length */\n      0xff\n      and\n      lt\n        /* \"tutor.sol\":1036:1136  for (uint8 i = 0; i < xs.length; i++) {... */\n      iszero\n      tag_95\n      jumpi\n        /* \"tutor.sol\":1105:1126  fxp_mul(xs[i], ys[i]) */\n      tag_97\n        /* \"tutor.sol\":1113:1115  xs */\n      dup6\n        /* \"tutor.sol\":1116:1117  i */\n      dup3\n        /* \"tutor.sol\":1113:1118  xs[i] */\n      0xff\n      and\n      dup2\n      mload\n      dup2\n      lt\n      tag_98\n      jumpi\n      tag_99\n      tag_21\n      jump\t// in\n    tag_99:\n    tag_98:\n      0x20\n      mul\n      0x20\n      add\n      add\n      mload\n        /* \"tutor.sol\":1120:1122  ys */\n      dup6\n        /* \"tutor.sol\":1123:1124  i */\n      dup4\n        /* \"tutor.sol\":1120:1125  ys[i] */\n      0xff\n      and\n      dup2\n      mload\n      dup2\n      lt\n      tag_100\n      jumpi\n      tag_101\n      tag_21\n      jump\t// in\n    tag_101:\n    tag_100:\n      0x20\n      mul\n      0x20\n      add\n      add\n      mload\n        /* \"tutor.sol\":1105:1112  fxp_mul */\n      tag_102\n        /* \"tutor.sol\":1105:1126  fxp_mul(xs[i], ys[i]) */\n      jump\t// in\n    tag_97:\n        /* \"tutor.sol\":1083:1127  product += fxp.unwrap(fxp_mul(xs[i], ys[i])) */\n      dup3\n      tag_103\n      swap2\n      swap1\n      tag_104\n      jump\t// in\n    tag_103:\n      swap2\n      pop\n        /* \"tutor.sol\":1069:1072  i++ */\n      dup1\n      dup1\n      tag_105\n      swap1\n      tag_37\n      jump\t// in\n    tag_105:\n      swap2\n      pop\n      pop\n        /* \"tutor.sol\":1036:1136  for (uint8 i = 0; i < xs.length; i++) {... */\n      jump(tag_94)\n    tag_95:\n      pop\n        /* \"tutor.sol\":1159:1166  product */\n      dup1\n        /* \"tutor.sol\":1143:1167  return fxp.wrap(product) */\n      swap2\n      pop\n      pop\n        /* \"tutor.sol\":883:1172  function dot_product(fxp[] memory xs, fxp[] memory ys) private pure returns (fxp) {... */\n      swap3\n      swap2\n      pop\n      pop\n      jump\t// out\n        /* \"tutor.sol\":752:879  function fxp_mul(fxp x, fxp y) private pure returns (fxp) {... */\n    tag_102:\n        /* \"tutor.sol\":805:808  fxp */\n      0x00\n        /* \"tutor.sol\":866:873  1000000 */\n      0x0f4240\n        /* \"tutor.sol\":861:862  y */\n      dup3\n        /* \"tutor.sol\":845:846  x */\n      dup5\n        /* \"tutor.sol\":834:863  fxp.unwrap(x) * fxp.unwrap(y) */\n      tag_107\n      swap2\n      swap1\n      tag_108\n      jump\t// in\n    tag_107:\n        /* \"tutor.sol\":834:873  fxp.unwrap(x) * fxp.unwrap(y) / 1000000 */\n      tag_109\n      swap2\n      swap1\n      tag_110\n      jump\t// in\n    tag_109:\n        /* \"tutor.sol\":818:874  return fxp.wrap(fxp.unwrap(x) * fxp.unwrap(y) / 1000000) */\n      swap1\n      pop\n        /* \"tutor.sol\":752:879  function fxp_mul(fxp x, fxp y) private pure returns (fxp) {... */\n      swap3\n      swap2\n      pop\n      pop\n      jump\t// out\n    tag_29:\n      dup3\n      dup1\n      sload\n      dup3\n      dup3\n      sstore\n      swap1\n      0x00\n      mstore\n      keccak256(0x00, 0x20)\n      swap1\n      0x03\n      add\n      0x04\n      swap1\n      div\n      dup2\n      add\n      swap3\n      dup3\n      iszero\n      tag_111\n      jumpi\n      swap2\n      0x20\n      mul\n      dup3\n      add\n      0x00\n    tag_112:\n      dup4\n      dup3\n      gt\n      iszero\n      tag_113\n      jumpi\n      dup4\n      mload\n      dup4\n      dup3\n      0x0100\n      exp\n      dup2\n      sload\n      dup2\n      0xffffffffffffffff\n      mul\n      not\n      and\n      swap1\n      dup4\n      0x07\n      signextend\n      0xffffffffffffffff\n      and\n      mul\n      or\n      swap1\n      sstore\n      pop\n      swap3\n      0x20\n      add\n      swap3\n      0x08\n      add\n      0x20\n      dup2\n      0x07\n      add\n      div\n      swap3\n      dup4\n      add\n      swap3\n      0x01\n      sub\n      mul\n      jump(tag_112)\n    tag_113:\n      dup1\n      iszero\n      tag_114\n      jumpi\n      dup3\n      dup2\n      0x0100\n      exp\n      dup2\n      sload\n      swap1\n      0xffffffffffffffff\n      mul\n      not\n      and\n      swap1\n      sstore\n      0x08\n      add\n      0x20\n      dup2\n      0x07\n      add\n      div\n      swap3\n      dup4\n      add\n      swap3\n      0x01\n      sub\n      mul\n      jump(tag_113)\n    tag_114:\n      pop\n    tag_111:\n      pop\n      swap1\n      pop\n      tag_115\n      swap2\n      swap1\n      tag_116\n      jump\t// in\n    tag_115:\n      pop\n      swap1\n      jump\t// out\n    tag_116:\n    tag_117:\n      dup1\n      dup3\n      gt\n      iszero\n      tag_118\n      jumpi\n      0x00\n      dup2\n      0x00\n      swap1\n      sstore\n      pop\n      0x01\n      add\n      jump(tag_117)\n    tag_118:\n      pop\n      swap1\n      jump\t// out\n        /* \"#utility.yul\":88:205   */\n    tag_120:\n        /* \"#utility.yul\":197:198   */\n      0x00\n        /* \"#utility.yul\":194:195   */\n      dup1\n        /* \"#utility.yul\":187:199   */\n      revert\n        /* \"#utility.yul\":334:420   */\n    tag_122:\n        /* \"#utility.yul\":369:376   */\n      0x00\n        /* \"#utility.yul\":409:413   */\n      0xff\n        /* \"#utility.yul\":402:407   */\n      dup3\n        /* \"#utility.yul\":398:414   */\n      and\n        /* \"#utility.yul\":387:414   */\n      swap1\n      pop\n        /* \"#utility.yul\":334:420   */\n      swap2\n      swap1\n      pop\n      jump\t// out\n        /* \"#utility.yul\":426:544   */\n    tag_123:\n        /* \"#utility.yul\":497:519   */\n      tag_155\n        /* \"#utility.yul\":513:518   */\n      dup2\n        /* \"#utility.yul\":497:519   */\n      tag_122\n      jump\t// in\n    tag_155:\n        /* \"#utility.yul\":490:495   */\n      dup2\n        /* \"#utility.yul\":487:520   */\n      eq\n        /* \"#utility.yul\":477:538   */\n      tag_156\n      jumpi\n        /* \"#utility.yul\":534:535   */\n      0x00\n        /* \"#utility.yul\":531:532   */\n      dup1\n        /* \"#utility.yul\":524:536   */\n      revert\n        /* \"#utility.yul\":477:538   */\n    tag_156:\n        /* \"#utility.yul\":426:544   */\n      pop\n      jump\t// out\n        /* \"#utility.yul\":550:685   */\n    tag_124:\n        /* \"#utility.yul\":594:599   */\n      0x00\n        /* \"#utility.yul\":632:638   */\n      dup2\n        /* \"#utility.yul\":619:639   */\n      calldataload\n        /* \"#utility.yul\":610:639   */\n      swap1\n      pop\n        /* \"#utility.yul\":648:679   */\n      tag_158\n        /* \"#utility.yul\":673:678   */\n      dup2\n        /* \"#utility.yul\":648:679   */\n      tag_123\n      jump\t// in\n    tag_158:\n        /* \"#utility.yul\":550:685   */\n      swap3\n      swap2\n      pop\n      pop\n      jump\t// out\n        /* \"#utility.yul\":691:817   */\n    tag_125:\n        /* \"#utility.yul\":728:735   */\n      0x00\n        /* \"#utility.yul\":768:810   */\n      0xffffffffffffffffffffffffffffffffffffffff\n        /* \"#utility.yul\":761:766   */\n      dup3\n        /* \"#utility.yul\":757:811   */\n      and\n        /* \"#utility.yul\":746:811   */\n      swap1\n      pop\n        /* \"#utility.yul\":691:817   */\n      swap2\n      swap1\n      pop\n      jump\t// out\n        /* \"#utility.yul\":823:927   */\n    tag_126:\n        /* \"#utility.yul\":868:875   */\n      0x00\n        /* \"#utility.yul\":897:921   */\n      tag_161\n        /* \"#utility.yul\":915:920   */\n      dup3\n        /* \"#utility.yul\":897:921   */\n      tag_125\n      jump\t// in\n    tag_161:\n        /* \"#utility.yul\":886:921   */\n      swap1\n      pop\n        /* \"#utility.yul\":823:927   */\n      swap2\n      swap1\n      pop\n      jump\t// out\n        /* \"#utility.yul\":933:1071   */\n    tag_127:\n        /* \"#utility.yul\":1014:1046   */\n      tag_163\n        /* \"#utility.yul\":1040:1045   */\n      dup2\n        /* \"#utility.yul\":1014:1046   */\n      tag_126\n      jump\t// in\n    tag_163:\n        /* \"#utility.yul\":1007:1012   */\n      dup2\n        /* \"#utility.yul\":1004:1047   */\n      eq\n        /* \"#utility.yul\":994:1065   */\n      tag_164\n      jumpi\n        /* \"#utility.yul\":1061:1062   */\n      0x00\n        /* \"#utility.yul\":1058:1059   */\n      dup1\n        /* \"#utility.yul\":1051:1063   */\n      revert\n        /* \"#utility.yul\":994:1065   */\n    tag_164:\n        /* \"#utility.yul\":933:1071   */\n      pop\n      jump\t// out\n        /* \"#utility.yul\":1077:1232   */\n    tag_128:\n        /* \"#utility.yul\":1131:1136   */\n      0x00\n        /* \"#utility.yul\":1169:1175   */\n      dup2\n        /* \"#utility.yul\":1156:1176   */\n      calldataload\n        /* \"#utility.yul\":1147:1176   */\n      swap1\n      pop\n        /* \"#utility.yul\":1185:1226   */\n      tag_166\n        /* \"#utility.yul\":1220:1225   */\n      dup2\n        /* \"#utility.yul\":1185:1226   */\n      tag_127\n      jump\t// in\n    tag_166:\n        /* \"#utility.yul\":1077:1232   */\n      swap3\n      swap2\n      pop\n      pop\n      jump\t// out\n        /* \"#utility.yul\":1238:1724   */\n    tag_8:\n        /* \"#utility.yul\":1312:1318   */\n      0x00\n        /* \"#utility.yul\":1320:1326   */\n      dup1\n        /* \"#utility.yul\":1369:1371   */\n      0x40\n        /* \"#utility.yul\":1357:1366   */\n      dup4\n        /* \"#utility.yul\":1348:1355   */\n      dup6\n        /* \"#utility.yul\":1344:1367   */\n      sub\n        /* \"#utility.yul\":1340:1372   */\n      slt\n        /* \"#utility.yul\":1337:1456   */\n      iszero\n      tag_168\n      jumpi\n        /* \"#utility.yul\":1375:1454   */\n      tag_169\n      tag_120\n      jump\t// in\n    tag_169:\n        /* \"#utility.yul\":1337:1456   */\n    tag_168:\n        /* \"#utility.yul\":1495:1496   */\n      0x00\n        /* \"#utility.yul\":1520:1571   */\n      tag_170\n        /* \"#utility.yul\":1563:1570   */\n      dup6\n        /* \"#utility.yul\":1554:1560   */\n      dup3\n        /* \"#utility.yul\":1543:1552   */\n      dup7\n        /* \"#utility.yul\":1539:1561   */\n      add\n        /* \"#utility.yul\":1520:1571   */\n      tag_124\n      jump\t// in\n    tag_170:\n        /* \"#utility.yul\":1510:1571   */\n      swap3\n      pop\n        /* \"#utility.yul\":1466:1581   */\n      pop\n        /* \"#utility.yul\":1620:1622   */\n      0x20\n        /* \"#utility.yul\":1646:1707   */\n      tag_171\n        /* \"#utility.yul\":1699:1706   */\n      dup6\n        /* \"#utility.yul\":1690:1696   */\n      dup3\n        /* \"#utility.yul\":1679:1688   */\n      dup7\n        /* \"#utility.yul\":1675:1697   */\n      add\n        /* \"#utility.yul\":1646:1707   */\n      tag_128\n      jump\t// in\n    tag_171:\n        /* \"#utility.yul\":1636:1707   */\n      swap2\n      pop\n        /* \"#utility.yul\":1591:1717   */\n      pop\n        /* \"#utility.yul\":1238:1724   */\n      swap3\n      pop\n      swap3\n      swap1\n      pop\n      jump\t// out\n        /* \"#utility.yul\":1730:1820   */\n    tag_129:\n        /* \"#utility.yul\":1765:1772   */\n      0x00\n        /* \"#utility.yul\":1808:1813   */\n      dup2\n        /* \"#utility.yul\":1805:1806   */\n      0x07\n        /* \"#utility.yul\":1794:1814   */\n      signextend\n        /* \"#utility.yul\":1783:1814   */\n      swap1\n      pop\n        /* \"#utility.yul\":1730:1820   */\n      swap2\n      swap1\n      pop\n      jump\t// out\n        /* \"#utility.yul\":1826:1886   */\n    tag_130:\n        /* \"#utility.yul\":1854:1857   */\n      0x00\n        /* \"#utility.yul\":1875:1880   */\n      dup2\n        /* \"#utility.yul\":1868:1880   */\n      swap1\n      pop\n        /* \"#utility.yul\":1826:1886   */\n      swap2\n      swap1\n      pop\n      jump\t// out\n        /* \"#utility.yul\":1892:2026   */\n    tag_131:\n        /* \"#utility.yul\":1938:1947   */\n      0x00\n        /* \"#utility.yul\":1971:2020   */\n      tag_175\n        /* \"#utility.yul\":1987:2019   */\n      tag_176\n        /* \"#utility.yul\":1996:2018   */\n      tag_177\n        /* \"#utility.yul\":2012:2017   */\n      dup5\n        /* \"#utility.yul\":1996:2018   */\n      tag_129\n      jump\t// in\n    tag_177:\n        /* \"#utility.yul\":1987:2019   */\n      tag_130\n      jump\t// in\n    tag_176:\n        /* \"#utility.yul\":1971:2020   */\n      tag_129\n      jump\t// in\n    tag_175:\n        /* \"#utility.yul\":1958:2020   */\n      swap1\n      pop\n        /* \"#utility.yul\":1892:2026   */\n      swap2\n      swap1\n      pop\n      jump\t// out\n        /* \"#utility.yul\":2032:2178   */\n    tag_132:\n        /* \"#utility.yul\":2138:2171   */\n      tag_179\n        /* \"#utility.yul\":2165:2170   */\n      dup2\n        /* \"#utility.yul\":2138:2171   */\n      tag_131\n      jump\t// in\n    tag_179:\n        /* \"#utility.yul\":2133:2136   */\n      dup3\n        /* \"#utility.yul\":2126:2172   */\n      mstore\n        /* \"#utility.yul\":2032:2178   */\n      pop\n      pop\n      jump\t// out\n        /* \"#utility.yul\":2184:2444   */\n    tag_13:\n        /* \"#utility.yul\":2296:2300   */\n      0x00\n        /* \"#utility.yul\":2334:2336   */\n      0x20\n        /* \"#utility.yul\":2323:2332   */\n      dup3\n        /* \"#utility.yul\":2319:2337   */\n      add\n        /* \"#utility.yul\":2311:2337   */\n      swap1\n      pop\n        /* \"#utility.yul\":2347:2437   */\n      tag_181\n        /* \"#utility.yul\":2434:2435   */\n      0x00\n        /* \"#utility.yul\":2423:2432   */\n      dup4\n        /* \"#utility.yul\":2419:2436   */\n      add\n        /* \"#utility.yul\":2410:2416   */\n      dup5\n        /* \"#utility.yul\":2347:2437   */\n      tag_132\n      jump\t// in\n    tag_181:\n        /* \"#utility.yul\":2184:2444   */\n      swap3\n      swap2\n      pop\n      pop\n      jump\t// out\n        /* \"#utility.yul\":2450:2549   */\n    tag_133:\n        /* \"#utility.yul\":2502:2508   */\n      0x00\n        /* \"#utility.yul\":2536:2541   */\n      dup2\n        /* \"#utility.yul\":2530:2542   */\n      mload\n        /* \"#utility.yul\":2520:2542   */\n      swap1\n      pop\n        /* \"#utility.yul\":2450:2549   */\n      swap2\n      swap1\n      pop\n      jump\t// out\n        /* \"#utility.yul\":2555:2724   */\n    tag_134:\n        /* \"#utility.yul\":2639:2650   */\n      0x00\n        /* \"#utility.yul\":2673:2679   */\n      dup3\n        /* \"#utility.yul\":2668:2671   */\n      dup3\n        /* \"#utility.yul\":2661:2680   */\n      mstore\n        /* \"#utility.yul\":2713:2717   */\n      0x20\n        /* \"#utility.yul\":2708:2711   */\n      dup3\n        /* \"#utility.yul\":2704:2718   */\n      add\n        /* \"#utility.yul\":2689:2718   */\n      swap1\n      pop\n        /* \"#utility.yul\":2555:2724   */\n      swap3\n      swap2\n      pop\n      pop\n      jump\t// out\n        /* \"#utility.yul\":2730:2869   */\n    tag_135:\n        /* \"#utility.yul\":2819:2825   */\n      dup3\n        /* \"#utility.yul\":2814:2817   */\n      dup2\n        /* \"#utility.yul\":2809:2812   */\n      dup4\n        /* \"#utility.yul\":2803:2826   */\n      mcopy\n        /* \"#utility.yul\":2860:2861   */\n      0x00\n        /* \"#utility.yul\":2851:2857   */\n      dup4\n        /* \"#utility.yul\":2846:2849   */\n      dup4\n        /* \"#utility.yul\":2842:2858   */\n      add\n        /* \"#utility.yul\":2835:2862   */\n      mstore\n        /* \"#utility.yul\":2730:2869   */\n      pop\n      pop\n      pop\n      jump\t// out\n        /* \"#utility.yul\":2875:2977   */\n    tag_136:\n        /* \"#utility.yul\":2916:2922   */\n      0x00\n        /* \"#utility.yul\":2967:2969   */\n      0x1f\n        /* \"#utility.yul\":2963:2970   */\n      not\n        /* \"#utility.yul\":2958:2960   */\n      0x1f\n        /* \"#utility.yul\":2951:2956   */\n      dup4\n        /* \"#utility.yul\":2947:2961   */\n      add\n        /* \"#utility.yul\":2943:2971   */\n      and\n        /* \"#utility.yul\":2933:2971   */\n      swap1\n      pop\n        /* \"#utility.yul\":2875:2977   */\n      swap2\n      swap1\n      pop\n      jump\t// out\n        /* \"#utility.yul\":2983:3360   */\n    tag_137:\n        /* \"#utility.yul\":3071:3074   */\n      0x00\n        /* \"#utility.yul\":3099:3138   */\n      tag_187\n        /* \"#utility.yul\":3132:3137   */\n      dup3\n        /* \"#utility.yul\":3099:3138   */\n      tag_133\n      jump\t// in\n    tag_187:\n        /* \"#utility.yul\":3154:3225   */\n      tag_188\n        /* \"#utility.yul\":3218:3224   */\n      dup2\n        /* \"#utility.yul\":3213:3216   */\n      dup6\n        /* \"#utility.yul\":3154:3225   */\n      tag_134\n      jump\t// in\n    tag_188:\n        /* \"#utility.yul\":3147:3225   */\n      swap4\n      pop\n        /* \"#utility.yul\":3234:3299   */\n      tag_189\n        /* \"#utility.yul\":3292:3298   */\n      dup2\n        /* \"#utility.yul\":3287:3290   */\n      dup6\n        /* \"#utility.yul\":3280:3284   */\n      0x20\n        /* \"#utility.yul\":3273:3278   */\n      dup7\n        /* \"#utility.yul\":3269:3285   */\n      add\n        /* \"#utility.yul\":3234:3299   */\n      tag_135\n      jump\t// in\n    tag_189:\n        /* \"#utility.yul\":3324:3353   */\n      tag_190\n        /* \"#utility.yul\":3346:3352   */\n      dup2\n        /* \"#utility.yul\":3324:3353   */\n      tag_136\n      jump\t// in\n    tag_190:\n        /* \"#utility.yul\":3319:3322   */\n      dup5\n        /* \"#utility.yul\":3315:3354   */\n      add\n        /* \"#utility.yul\":3308:3354   */\n      swap2\n      pop\n        /* \"#utility.yul\":3075:3360   */\n      pop\n        /* \"#utility.yul\":2983:3360   */\n      swap3\n      swap2\n      pop\n      pop\n      jump\t// out\n        /* \"#utility.yul\":3366:3679   */\n    tag_17:\n        /* \"#utility.yul\":3479:3483   */\n      0x00\n        /* \"#utility.yul\":3517:3519   */\n      0x20\n        /* \"#utility.yul\":3506:3515   */\n      dup3\n        /* \"#utility.yul\":3502:3520   */\n      add\n        /* \"#utility.yul\":3494:3520   */\n      swap1\n      pop\n        /* \"#utility.yul\":3566:3575   */\n      dup2\n        /* \"#utility.yul\":3560:3564   */\n      dup2\n        /* \"#utility.yul\":3556:3576   */\n      sub\n        /* \"#utility.yul\":3552:3553   */\n      0x00\n        /* \"#utility.yul\":3541:3550   */\n      dup4\n        /* \"#utility.yul\":3537:3554   */\n      add\n        /* \"#utility.yul\":3530:3577   */\n      mstore\n        /* \"#utility.yul\":3594:3672   */\n      tag_192\n        /* \"#utility.yul\":3667:3671   */\n      dup2\n        /* \"#utility.yul\":3658:3664   */\n      dup5\n        /* \"#utility.yul\":3594:3672   */\n      tag_137\n      jump\t// in\n    tag_192:\n        /* \"#utility.yul\":3586:3672   */\n      swap1\n      pop\n        /* \"#utility.yul\":3366:3679   */\n      swap3\n      swap2\n      pop\n      pop\n      jump\t// out\n        /* \"#utility.yul\":3685:3865   */\n    tag_21:\n        /* \"#utility.yul\":3733:3810   */\n      0x4e487b7100000000000000000000000000000000000000000000000000000000\n        /* \"#utility.yul\":3730:3731   */\n      0x00\n        /* \"#utility.yul\":3723:3811   */\n      mstore\n        /* \"#utility.yul\":3830:3834   */\n      0x32\n        /* \"#utility.yul\":3827:3828   */\n      0x04\n        /* \"#utility.yul\":3820:3835   */\n      mstore\n        /* \"#utility.yul\":3854:3858   */\n      0x24\n        /* \"#utility.yul\":3851:3852   */\n      0x00\n        /* \"#utility.yul\":3844:3859   */\n      revert\n        /* \"#utility.yul\":3871:4051   */\n    tag_32:\n        /* \"#utility.yul\":3919:3996   */\n      0x4e487b7100000000000000000000000000000000000000000000000000000000\n        /* \"#utility.yul\":3916:3917   */\n      0x00\n        /* \"#utility.yul\":3909:3997   */\n      mstore\n        /* \"#utility.yul\":4016:4020   */\n      0x31\n        /* \"#utility.yul\":4013:4014   */\n      0x04\n        /* \"#utility.yul\":4006:4021   */\n      mstore\n        /* \"#utility.yul\":4040:4044   */\n      0x24\n        /* \"#utility.yul\":4037:4038   */\n      0x00\n        /* \"#utility.yul\":4030:4045   */\n      revert\n        /* \"#utility.yul\":4057:4147   */\n    tag_138:\n        /* \"#utility.yul\":4091:4098   */\n      0x00\n        /* \"#utility.yul\":4134:4139   */\n      dup2\n        /* \"#utility.yul\":4127:4140   */\n      iszero\n        /* \"#utility.yul\":4120:4141   */\n      iszero\n        /* \"#utility.yul\":4109:4141   */\n      swap1\n      pop\n        /* \"#utility.yul\":4057:4147   */\n      swap2\n      swap1\n      pop\n      jump\t// out\n        /* \"#utility.yul\":4153:4262   */\n    tag_139:\n        /* \"#utility.yul\":4234:4255   */\n      tag_197\n        /* \"#utility.yul\":4249:4254   */\n      dup2\n        /* \"#utility.yul\":4234:4255   */\n      tag_138\n      jump\t// in\n    tag_197:\n        /* \"#utility.yul\":4229:4232   */\n      dup3\n        /* \"#utility.yul\":4222:4256   */\n      mstore\n        /* \"#utility.yul\":4153:4262   */\n      pop\n      pop\n      jump\t// out\n        /* \"#utility.yul\":4268:4478   */\n    tag_35:\n        /* \"#utility.yul\":4355:4359   */\n      0x00\n        /* \"#utility.yul\":4393:4395   */\n      0x20\n        /* \"#utility.yul\":4382:4391   */\n      dup3\n        /* \"#utility.yul\":4378:4396   */\n      add\n        /* \"#utility.yul\":4370:4396   */\n      swap1\n      pop\n        /* \"#utility.yul\":4406:4471   */\n      tag_199\n        /* \"#utility.yul\":4468:4469   */\n      0x00\n        /* \"#utility.yul\":4457:4466   */\n      dup4\n        /* \"#utility.yul\":4453:4470   */\n      add\n        /* \"#utility.yul\":4444:4450   */\n      dup5\n        /* \"#utility.yul\":4406:4471   */\n      tag_139\n      jump\t// in\n    tag_199:\n        /* \"#utility.yul\":4268:4478   */\n      swap3\n      swap2\n      pop\n      pop\n      jump\t// out\n        /* \"#utility.yul\":4484:4664   */\n    tag_140:\n        /* \"#utility.yul\":4532:4609   */\n      0x4e487b7100000000000000000000000000000000000000000000000000000000\n        /* \"#utility.yul\":4529:4530   */\n      0x00\n        /* \"#utility.yul\":4522:4610   */\n      mstore\n        /* \"#utility.yul\":4629:4633   */\n      0x11\n        /* \"#utility.yul\":4626:4627   */\n      0x04\n        /* \"#utility.yul\":4619:4634   */\n      mstore\n        /* \"#utility.yul\":4653:4657   */\n      0x24\n        /* \"#utility.yul\":4650:4651   */\n      0x00\n        /* \"#utility.yul\":4643:4658   */\n      revert\n        /* \"#utility.yul\":4670:4837   */\n    tag_37:\n        /* \"#utility.yul\":4707:4710   */\n      0x00\n        /* \"#utility.yul\":4730:4752   */\n      tag_202\n        /* \"#utility.yul\":4746:4751   */\n      dup3\n        /* \"#utility.yul\":4730:4752   */\n      tag_122\n      jump\t// in\n    tag_202:\n        /* \"#utility.yul\":4721:4752   */\n      swap2\n      pop\n        /* \"#utility.yul\":4774:4778   */\n      0xff\n        /* \"#utility.yul\":4767:4772   */\n      dup3\n        /* \"#utility.yul\":4764:4779   */\n      sub\n        /* \"#utility.yul\":4761:4802   */\n      tag_203\n      jumpi\n        /* \"#utility.yul\":4782:4800   */\n      tag_204\n      tag_140\n      jump\t// in\n    tag_204:\n        /* \"#utility.yul\":4761:4802   */\n    tag_203:\n        /* \"#utility.yul\":4829:4830   */\n      0x01\n        /* \"#utility.yul\":4822:4827   */\n      dup3\n        /* \"#utility.yul\":4818:4831   */\n      add\n        /* \"#utility.yul\":4811:4831   */\n      swap1\n      pop\n        /* \"#utility.yul\":4670:4837   */\n      swap2\n      swap1\n      pop\n      jump\t// out\n        /* \"#utility.yul\":4843:4990   */\n    tag_141:\n        /* \"#utility.yul\":4944:4955   */\n      0x00\n        /* \"#utility.yul\":4981:4984   */\n      dup2\n        /* \"#utility.yul\":4966:4984   */\n      swap1\n      pop\n        /* \"#utility.yul\":4843:4990   */\n      swap3\n      swap2\n      pop\n      pop\n      jump\t// out\n        /* \"#utility.yul\":4996:5110   */\n    tag_142:\n      pop\n      jump\t// out\n        /* \"#utility.yul\":5116:5514   */\n    tag_143:\n        /* \"#utility.yul\":5275:5278   */\n      0x00\n        /* \"#utility.yul\":5296:5379   */\n      tag_208\n        /* \"#utility.yul\":5377:5378   */\n      0x00\n        /* \"#utility.yul\":5372:5375   */\n      dup4\n        /* \"#utility.yul\":5296:5379   */\n      tag_141\n      jump\t// in\n    tag_208:\n        /* \"#utility.yul\":5289:5379   */\n      swap2\n      pop\n        /* \"#utility.yul\":5388:5481   */\n      tag_209\n        /* \"#utility.yul\":5477:5480   */\n      dup3\n        /* \"#utility.yul\":5388:5481   */\n      tag_142\n      jump\t// in\n    tag_209:\n        /* \"#utility.yul\":5506:5507   */\n      0x00\n        /* \"#utility.yul\":5501:5504   */\n      dup3\n        /* \"#utility.yul\":5497:5508   */\n      add\n        /* \"#utility.yul\":5490:5508   */\n      swap1\n      pop\n        /* \"#utility.yul\":5116:5514   */\n      swap2\n      swap1\n      pop\n      jump\t// out\n        /* \"#utility.yul\":5520:5899   */\n    tag_49:\n        /* \"#utility.yul\":5704:5707   */\n      0x00\n        /* \"#utility.yul\":5726:5873   */\n      tag_211\n        /* \"#utility.yul\":5869:5872   */\n      dup3\n        /* \"#utility.yul\":5726:5873   */\n      tag_143\n      jump\t// in\n    tag_211:\n        /* \"#utility.yul\":5719:5873   */\n      swap2\n      pop\n        /* \"#utility.yul\":5890:5893   */\n      dup2\n        /* \"#utility.yul\":5883:5893   */\n      swap1\n      pop\n        /* \"#utility.yul\":5520:5899   */\n      swap2\n      swap1\n      pop\n      jump\t// out\n        /* \"#utility.yul\":5905:6075   */\n    tag_144:\n        /* \"#utility.yul\":6045:6067   */\n      0x4661696c656420746f2073656e64204574686572000000000000000000000000\n        /* \"#utility.yul\":6041:6042   */\n      0x00\n        /* \"#utility.yul\":6033:6039   */\n      dup3\n        /* \"#utility.yul\":6029:6043   */\n      add\n        /* \"#utility.yul\":6022:6068   */\n      mstore\n        /* \"#utility.yul\":5905:6075   */\n      pop\n      jump\t// out\n        /* \"#utility.yul\":6081:6447   */\n    tag_145:\n        /* \"#utility.yul\":6223:6226   */\n      0x00\n        /* \"#utility.yul\":6244:6311   */\n      tag_214\n        /* \"#utility.yul\":6308:6310   */\n      0x14\n        /* \"#utility.yul\":6303:6306   */\n      dup4\n        /* \"#utility.yul\":6244:6311   */\n      tag_134\n      jump\t// in\n    tag_214:\n        /* \"#utility.yul\":6237:6311   */\n      swap2\n      pop\n        /* \"#utility.yul\":6320:6413   */\n      tag_215\n        /* \"#utility.yul\":6409:6412   */\n      dup3\n        /* \"#utility.yul\":6320:6413   */\n      tag_144\n      jump\t// in\n    tag_215:\n        /* \"#utility.yul\":6438:6440   */\n      0x20\n        /* \"#utility.yul\":6433:6436   */\n      dup3\n        /* \"#utility.yul\":6429:6441   */\n      add\n        /* \"#utility.yul\":6422:6441   */\n      swap1\n      pop\n        /* \"#utility.yul\":6081:6447   */\n      swap2\n      swap1\n      pop\n      jump\t// out\n        /* \"#utility.yul\":6453:6872   */\n    tag_55:\n        /* \"#utility.yul\":6619:6623   */\n      0x00\n        /* \"#utility.yul\":6657:6659   */\n      0x20\n        /* \"#utility.yul\":6646:6655   */\n      dup3\n        /* \"#utility.yul\":6642:6660   */\n      add\n        /* \"#utility.yul\":6634:6660   */\n      swap1\n      pop\n        /* \"#utility.yul\":6706:6715   */\n      dup2\n        /* \"#utility.yul\":6700:6704   */\n      dup2\n        /* \"#utility.yul\":6696:6716   */\n      sub\n        /* \"#utility.yul\":6692:6693   */\n      0x00\n        /* \"#utility.yul\":6681:6690   */\n      dup4\n        /* \"#utility.yul\":6677:6694   */\n      add\n        /* \"#utility.yul\":6670:6717   */\n      mstore\n        /* \"#utility.yul\":6734:6865   */\n      tag_217\n        /* \"#utility.yul\":6860:6864   */\n      dup2\n        /* \"#utility.yul\":6734:6865   */\n      tag_145\n      jump\t// in\n    tag_217:\n        /* \"#utility.yul\":6726:6865   */\n      swap1\n      pop\n        /* \"#utility.yul\":6453:6872   */\n      swap2\n      swap1\n      pop\n      jump\t// out\n        /* \"#utility.yul\":6878:7058   */\n    tag_146:\n        /* \"#utility.yul\":6926:7003   */\n      0x4e487b7100000000000000000000000000000000000000000000000000000000\n        /* \"#utility.yul\":6923:6924   */\n      0x00\n        /* \"#utility.yul\":6916:7004   */\n      mstore\n        /* \"#utility.yul\":7023:7027   */\n      0x22\n        /* \"#utility.yul\":7020:7021   */\n      0x04\n        /* \"#utility.yul\":7013:7028   */\n      mstore\n        /* \"#utility.yul\":7047:7051   */\n      0x24\n        /* \"#utility.yul\":7044:7045   */\n      0x00\n        /* \"#utility.yul\":7037:7052   */\n      revert\n        /* \"#utility.yul\":7064:7384   */\n    tag_68:\n        /* \"#utility.yul\":7108:7114   */\n      0x00\n        /* \"#utility.yul\":7145:7146   */\n      0x02\n        /* \"#utility.yul\":7139:7143   */\n      dup3\n        /* \"#utility.yul\":7135:7147   */\n      div\n        /* \"#utility.yul\":7125:7147   */\n      swap1\n      pop\n        /* \"#utility.yul\":7192:7193   */\n      0x01\n        /* \"#utility.yul\":7186:7190   */\n      dup3\n        /* \"#utility.yul\":7182:7194   */\n      and\n        /* \"#utility.yul\":7213:7231   */\n      dup1\n        /* \"#utility.yul\":7203:7284   */\n      tag_220\n      jumpi\n        /* \"#utility.yul\":7269:7273   */\n      0x7f\n        /* \"#utility.yul\":7261:7267   */\n      dup3\n        /* \"#utility.yul\":7257:7274   */\n      and\n        /* \"#utility.yul\":7247:7274   */\n      swap2\n      pop\n        /* \"#utility.yul\":7203:7284   */\n    tag_220:\n        /* \"#utility.yul\":7331:7333   */\n      0x20\n        /* \"#utility.yul\":7323:7329   */\n      dup3\n        /* \"#utility.yul\":7320:7334   */\n      lt\n        /* \"#utility.yul\":7300:7318   */\n      dup2\n        /* \"#utility.yul\":7297:7335   */\n      sub\n        /* \"#utility.yul\":7294:7378   */\n      tag_221\n      jumpi\n        /* \"#utility.yul\":7350:7368   */\n      tag_222\n      tag_146\n      jump\t// in\n    tag_222:\n        /* \"#utility.yul\":7294:7378   */\n    tag_221:\n        /* \"#utility.yul\":7115:7384   */\n      pop\n        /* \"#utility.yul\":7064:7384   */\n      swap2\n      swap1\n      pop\n      jump\t// out\n        /* \"#utility.yul\":7390:7467   */\n    tag_147:\n        /* \"#utility.yul\":7427:7434   */\n      0x00\n        /* \"#utility.yul\":7456:7461   */\n      dup2\n        /* \"#utility.yul\":7445:7461   */\n      swap1\n      pop\n        /* \"#utility.yul\":7390:7467   */\n      swap2\n      swap1\n      pop\n      jump\t// out\n        /* \"#utility.yul\":7473:7664   */\n    tag_75:\n        /* \"#utility.yul\":7513:7516   */\n      0x00\n        /* \"#utility.yul\":7532:7552   */\n      tag_225\n        /* \"#utility.yul\":7550:7551   */\n      dup3\n        /* \"#utility.yul\":7532:7552   */\n      tag_147\n      jump\t// in\n    tag_225:\n        /* \"#utility.yul\":7527:7552   */\n      swap2\n      pop\n        /* \"#utility.yul\":7566:7586   */\n      tag_226\n        /* \"#utility.yul\":7584:7585   */\n      dup4\n        /* \"#utility.yul\":7566:7586   */\n      tag_147\n      jump\t// in\n    tag_226:\n        /* \"#utility.yul\":7561:7586   */\n      swap3\n      pop\n        /* \"#utility.yul\":7609:7610   */\n      dup3\n        /* \"#utility.yul\":7606:7607   */\n      dup3\n        /* \"#utility.yul\":7602:7611   */\n      add\n        /* \"#utility.yul\":7595:7611   */\n      swap1\n      pop\n        /* \"#utility.yul\":7630:7633   */\n      dup1\n        /* \"#utility.yul\":7627:7628   */\n      dup3\n        /* \"#utility.yul\":7624:7634   */\n      gt\n        /* \"#utility.yul\":7621:7657   */\n      iszero\n      tag_227\n      jumpi\n        /* \"#utility.yul\":7637:7655   */\n      tag_228\n      tag_140\n      jump\t// in\n    tag_228:\n        /* \"#utility.yul\":7621:7657   */\n    tag_227:\n        /* \"#utility.yul\":7473:7664   */\n      swap3\n      swap2\n      pop\n      pop\n      jump\t// out\n        /* \"#utility.yul\":7670:7850   */\n    tag_78:\n        /* \"#utility.yul\":7718:7795   */\n      0x4e487b7100000000000000000000000000000000000000000000000000000000\n        /* \"#utility.yul\":7715:7716   */\n      0x00\n        /* \"#utility.yul\":7708:7796   */\n      mstore\n        /* \"#utility.yul\":7815:7819   */\n      0x41\n        /* \"#utility.yul\":7812:7813   */\n      0x04\n        /* \"#utility.yul\":7805:7820   */\n      mstore\n        /* \"#utility.yul\":7839:7843   */\n      0x24\n        /* \"#utility.yul\":7836:7837   */\n      0x00\n        /* \"#utility.yul\":7829:7844   */\n      revert\n        /* \"#utility.yul\":7856:8036   */\n    tag_93:\n        /* \"#utility.yul\":7904:7981   */\n      0x4e487b7100000000000000000000000000000000000000000000000000000000\n        /* \"#utility.yul\":7901:7902   */\n      0x00\n        /* \"#utility.yul\":7894:7982   */\n      mstore\n        /* \"#utility.yul\":8001:8005   */\n      0x01\n        /* \"#utility.yul\":7998:7999   */\n      0x04\n        /* \"#utility.yul\":7991:8006   */\n      mstore\n        /* \"#utility.yul\":8025:8029   */\n      0x24\n        /* \"#utility.yul\":8022:8023   */\n      0x00\n        /* \"#utility.yul\":8015:8030   */\n      revert\n        /* \"#utility.yul\":8042:8361   */\n    tag_104:\n        /* \"#utility.yul\":8080:8083   */\n      0x00\n        /* \"#utility.yul\":8099:8117   */\n      tag_232\n        /* \"#utility.yul\":8115:8116   */\n      dup3\n        /* \"#utility.yul\":8099:8117   */\n      tag_129\n      jump\t// in\n    tag_232:\n        /* \"#utility.yul\":8094:8117   */\n      swap2\n      pop\n        /* \"#utility.yul\":8131:8149   */\n      tag_233\n        /* \"#utility.yul\":8147:8148   */\n      dup4\n        /* \"#utility.yul\":8131:8149   */\n      tag_129\n      jump\t// in\n    tag_233:\n        /* \"#utility.yul\":8126:8149   */\n      swap3\n      pop\n        /* \"#utility.yul\":8172:8173   */\n      dup3\n        /* \"#utility.yul\":8169:8170   */\n      dup3\n        /* \"#utility.yul\":8165:8174   */\n      add\n        /* \"#utility.yul\":8158:8174   */\n      swap1\n      pop\n        /* \"#utility.yul\":8254:8320   */\n      0xffffffffffffffffffffffffffffffffffffffffffffffff8000000000000000\n        /* \"#utility.yul\":8249:8252   */\n      dup2\n        /* \"#utility.yul\":8245:8321   */\n      slt\n        /* \"#utility.yul\":8212:8230   */\n      0x7fffffffffffffff\n        /* \"#utility.yul\":8207:8210   */\n      dup3\n        /* \"#utility.yul\":8203:8231   */\n      sgt\n        /* \"#utility.yul\":8187:8331   */\n      or\n        /* \"#utility.yul\":8184:8354   */\n      iszero\n      tag_234\n      jumpi\n        /* \"#utility.yul\":8334:8352   */\n      tag_235\n      tag_140\n      jump\t// in\n    tag_235:\n        /* \"#utility.yul\":8184:8354   */\n    tag_234:\n        /* \"#utility.yul\":8042:8361   */\n      swap3\n      swap2\n      pop\n      pop\n      jump\t// out\n        /* \"#utility.yul\":8367:8638   */\n    tag_108:\n        /* \"#utility.yul\":8405:8412   */\n      0x00\n        /* \"#utility.yul\":8428:8446   */\n      tag_237\n        /* \"#utility.yul\":8444:8445   */\n      dup3\n        /* \"#utility.yul\":8428:8446   */\n      tag_129\n      jump\t// in\n    tag_237:\n        /* \"#utility.yul\":8423:8446   */\n      swap2\n      pop\n        /* \"#utility.yul\":8460:8478   */\n      tag_238\n        /* \"#utility.yul\":8476:8477   */\n      dup4\n        /* \"#utility.yul\":8460:8478   */\n      tag_129\n      jump\t// in\n    tag_238:\n        /* \"#utility.yul\":8455:8478   */\n      swap3\n      pop\n        /* \"#utility.yul\":8513:8514   */\n      dup3\n        /* \"#utility.yul\":8510:8511   */\n      dup3\n        /* \"#utility.yul\":8506:8515   */\n      mul\n        /* \"#utility.yul\":8535:8563   */\n      tag_239\n        /* \"#utility.yul\":8551:8562   */\n      dup2\n        /* \"#utility.yul\":8535:8563   */\n      tag_129\n      jump\t// in\n    tag_239:\n        /* \"#utility.yul\":8524:8563   */\n      swap2\n      pop\n        /* \"#utility.yul\":8595:8606   */\n      dup1\n        /* \"#utility.yul\":8586:8593   */\n      dup3\n        /* \"#utility.yul\":8583:8607   */\n      eq\n        /* \"#utility.yul\":8573:8631   */\n      tag_240\n      jumpi\n        /* \"#utility.yul\":8611:8629   */\n      tag_241\n      tag_140\n      jump\t// in\n    tag_241:\n        /* \"#utility.yul\":8573:8631   */\n    tag_240:\n        /* \"#utility.yul\":8413:8638   */\n      pop\n        /* \"#utility.yul\":8367:8638   */\n      swap3\n      swap2\n      pop\n      pop\n      jump\t// out\n        /* \"#utility.yul\":8644:8824   */\n    tag_148:\n        /* \"#utility.yul\":8692:8769   */\n      0x4e487b7100000000000000000000000000000000000000000000000000000000\n        /* \"#utility.yul\":8689:8690   */\n      0x00\n        /* \"#utility.yul\":8682:8770   */\n      mstore\n        /* \"#utility.yul\":8789:8793   */\n      0x12\n        /* \"#utility.yul\":8786:8787   */\n      0x04\n        /* \"#utility.yul\":8779:8794   */\n      mstore\n        /* \"#utility.yul\":8813:8817   */\n      0x24\n        /* \"#utility.yul\":8810:8811   */\n      0x00\n        /* \"#utility.yul\":8803:8818   */\n      revert\n        /* \"#utility.yul\":8830:9212   */\n    tag_110:\n        /* \"#utility.yul\":8868:8869   */\n      0x00\n        /* \"#utility.yul\":8885:8903   */\n      tag_244\n        /* \"#utility.yul\":8901:8902   */\n      dup3\n        /* \"#utility.yul\":8885:8903   */\n      tag_129\n      jump\t// in\n    tag_244:\n        /* \"#utility.yul\":8880:8903   */\n      swap2\n      pop\n        /* \"#utility.yul\":8917:8935   */\n      tag_245\n        /* \"#utility.yul\":8933:8934   */\n      dup4\n        /* \"#utility.yul\":8917:8935   */\n      tag_129\n      jump\t// in\n    tag_245:\n        /* \"#utility.yul\":8912:8935   */\n      swap3\n      pop\n        /* \"#utility.yul\":8954:8955   */\n      dup3\n        /* \"#utility.yul\":8944:8979   */\n      tag_246\n      jumpi\n        /* \"#utility.yul\":8959:8977   */\n      tag_247\n      tag_148\n      jump\t// in\n    tag_247:\n        /* \"#utility.yul\":8944:8979   */\n    tag_246:\n        /* \"#utility.yul\":9145:9146   */\n      0x01\n        /* \"#utility.yul\":9142:9143   */\n      0x00\n        /* \"#utility.yul\":9138:9147   */\n      sub\n        /* \"#utility.yul\":9135:9136   */\n      dup4\n        /* \"#utility.yul\":9132:9148   */\n      eq\n        /* \"#utility.yul\":9051:9117   */\n      0xffffffffffffffffffffffffffffffffffffffffffffffff8000000000000000\n        /* \"#utility.yul\":9048:9049   */\n      dup4\n        /* \"#utility.yul\":9045:9118   */\n      eq\n        /* \"#utility.yul\":9028:9158   */\n      and\n        /* \"#utility.yul\":9025:9181   */\n      iszero\n      tag_248\n      jumpi\n        /* \"#utility.yul\":9161:9179   */\n      tag_249\n      tag_140\n      jump\t// in\n    tag_249:\n        /* \"#utility.yul\":9025:9181   */\n    tag_248:\n        /* \"#utility.yul\":9204:9205   */\n      dup3\n        /* \"#utility.yul\":9201:9202   */\n      dup3\n        /* \"#utility.yul\":9196:9206   */\n      sdiv\n        /* \"#utility.yul\":9191:9206   */\n      swap1\n      pop\n        /* \"#utility.yul\":8830:9212   */\n      swap3\n      swap2\n      pop\n      pop\n      jump\t// out\n\n    auxdata: 0xa26469706673582212205d1fd45998daec869e5edac6e2321ceabd87e37f7dd0841d7278280ca92b2c3b64736f6c634300081a0033\n}\n",
				"bytecode": {
					"linkReferences": {},
					"object": "608060405234801561000f575f80fd5b50604051611861380380611861833981810160405281019061003191906106ca565b815f9080519060200190610046929190610175565b50806001908051906020019061005d9291906101cc565b506040518060a00160405280621e848060070b60070b81526020016216e36060070b60070b8152602001620dbba060070b60070b815260200162061a8060070b60070b815260200162030d4060070b60070b81525060029060056100c292919061026e565b506040518060a00160405280620f424060070b60070b8152602001620f424060070b60070b8152602001620f424060070b60070b8152602001620f424060070b60070b8152602001620f424060070b60070b815250600390600561012792919061026e565b505f60045f6101000a81548160ff021916908360ff1602179055505f600460016101000a81548167ffffffffffffffff021916908360070b67ffffffffffffffff1602179055505050610a1c565b828054828255905f5260205f209081019282156101bb579160200282015b828111156101ba5782518290816101aa919061094d565b5091602001919060010190610193565b5b5090506101c8919061032a565b5090565b828054828255905f5260205f2090601f0160209004810192821561025d579160200282015f5b8382111561022f57835183826101000a81548160ff021916908360ff16021790555092602001926001016020815f010492830192600103026101f2565b801561025b5782816101000a81549060ff02191690556001016020815f0104928301926001030261022f565b505b50905061026a919061034d565b5090565b828054828255905f5260205f2090600301600490048101928215610319579160200282015f5b838211156102e357835183826101000a81548167ffffffffffffffff021916908360070b67ffffffffffffffff1602179055509260200192600801602081600701049283019260010302610294565b80156103175782816101000a81549067ffffffffffffffff02191690556008016020816007010492830192600103026102e3565b505b509050610326919061034d565b5090565b5b80821115610349575f81816103409190610368565b5060010161032b565b5090565b5b80821115610364575f815f90555060010161034e565b5090565b50805461037490610777565b5f825580601f1061038557506103a2565b601f0160209004905f5260205f20908101906103a1919061034d565b5b50565b5f604051905090565b5f80fd5b5f80fd5b5f80fd5b5f601f19601f8301169050919050565b7f4e487b71000000000000000000000000000000000000000000000000000000005f52604160045260245ffd5b610400826103ba565b810181811067ffffffffffffffff8211171561041f5761041e6103ca565b5b80604052505050565b5f6104316103a5565b905061043d82826103f7565b919050565b5f67ffffffffffffffff82111561045c5761045b6103ca565b5b602082029050602081019050919050565b5f80fd5b5f80fd5b5f67ffffffffffffffff82111561048f5761048e6103ca565b5b610498826103ba565b9050602081019050919050565b8281835e5f83830152505050565b5f6104c56104c084610475565b610428565b9050828152602081018484840111156104e1576104e0610471565b5b6104ec8482856104a5565b509392505050565b5f82601f830112610508576105076103b6565b5b81516105188482602086016104b3565b91505092915050565b5f61053361052e84610442565b610428565b905080838252602082019050602084028301858111156105565761055561046d565b5b835b8181101561059d57805167ffffffffffffffff81111561057b5761057a6103b6565b5b80860161058889826104f4565b85526020850194505050602081019050610558565b5050509392505050565b5f82601f8301126105bb576105ba6103b6565b5b81516105cb848260208601610521565b91505092915050565b5f67ffffffffffffffff8211156105ee576105ed6103ca565b5b602082029050602081019050919050565b5f60ff82169050919050565b610614816105ff565b811461061e575f80fd5b50565b5f8151905061062f8161060b565b92915050565b5f610647610642846105d4565b610428565b9050808382526020820190506020840283018581111561066a5761066961046d565b5b835b81811015610693578061067f8882610621565b84526020840193505060208101905061066c565b5050509392505050565b5f82601f8301126106b1576106b06103b6565b5b81516106c1848260208601610635565b91505092915050565b5f80604083850312156106e0576106df6103ae565b5b5f83015167ffffffffffffffff8111156106fd576106fc6103b2565b5b610709858286016105a7565b925050602083015167ffffffffffffffff81111561072a576107296103b2565b5b6107368582860161069d565b9150509250929050565b5f81519050919050565b7f4e487b71000000000000000000000000000000000000000000000000000000005f52602260045260245ffd5b5f600282049050600182168061078e57607f821691505b6020821081036107a1576107a061074a565b5b50919050565b5f819050815f5260205f209050919050565b5f6020601f8301049050919050565b5f82821b905092915050565b5f600883026108037fffffffffffffffffffffffffffffffffffffffffffffffffffffffffffffffff826107c8565b61080d86836107c8565b95508019841693508086168417925050509392505050565b5f819050919050565b5f819050919050565b5f61085161084c61084784610825565b61082e565b610825565b9050919050565b5f819050919050565b61086a83610837565b61087e61087682610858565b8484546107d4565b825550505050565b5f90565b610892610886565b61089d818484610861565b505050565b5b818110156108c0576108b55f8261088a565b6001810190506108a3565b5050565b601f821115610905576108d6816107a7565b6108df846107b9565b810160208510156108ee578190505b6109026108fa856107b9565b8301826108a2565b50505b505050565b5f82821c905092915050565b5f6109255f198460080261090a565b1980831691505092915050565b5f61093d8383610916565b9150826002028217905092915050565b61095682610740565b67ffffffffffffffff81111561096f5761096e6103ca565b5b6109798254610777565b6109848282856108c4565b5f60209050601f8311600181146109b5575f84156109a3578287015190505b6109ad8582610932565b865550610a14565b601f1984166109c3866107a7565b5f5b828110156109ea578489015182556001820191506020850194506020810190506109c5565b86831015610a075784890151610a03601f891682610916565b8355505b6001600288020188555050505b505050505050565b610e3880610a295f395ff3fe608060405234801561000f575f80fd5b506004361061003f575f3560e01c80632525146b1461004357806342fba3fb1461005f578063734ba3961461007d575b5f80fd5b61005d60048036038101906100589190610928565b61009b565b005b610067610465565b60405161007491906109ab565b60405180910390f35b61008561055b565b6040516100929190610a34565b60405180910390f35b600160045f9054906101000a900460ff1660ff16815481106100c0576100bf610a54565b5b905f5260205f2090602091828204019190069054906101000a900460ff1660ff168260ff161461021957610187600380548060200260200160405190810160405280929190818152602001828054801561015c57602002820191905f5260205f20905f905b82829054906101000a900460070b60070b815260200190600801906020826007010492830192600103820291508084116101255790505b50505050507fffffffffffffffffffffffffffffffffffffffffffffffffffffffffffe17b80610615565b6003908051906020019061019c9291906107bd565b5060038054806101af576101ae610a81565b5b600190038181905f5260205f2090600491828204019190066008026101000a81549067ffffffffffffffff021916905590557f22b1cee616b1fdc88183479e67fbdd2d87e3bb10fa86d8eccea07b189c6d17eb5f6040516102109190610ac8565b60405180910390a15b60045f81819054906101000a900460ff168092919061023790610b0e565b91906101000a81548160ff021916908360ff160217905550506102d060038054806020026020016040519081016040528092919081815260200182805480156102c257602002820191905f5260205f20905f905b82829054906101000a900460070b60070b8152602001906008019060208260070104928301926001038202915080841161028b5790505b5050505050621e8480610615565b600390805190602001906102e59291906107bd565b5060038054806102f8576102f7610a81565b5b600190038181905f5260205f2090600491828204019190066008026101000a81549067ffffffffffffffff021916905590555f8054905060045f9054906101000a900460ff1660ff161115610362575f60045f6101000a81548160ff021916908360ff1602179055505b61036a610465565b600460016101000a81548167ffffffffffffffff021916908360070b67ffffffffffffffff160217905550620ee098600460019054906101000a900460070b60070b1315610461575f808273ffffffffffffffffffffffffffffffffffffffff166101f46040516103da90610b63565b5f6040518083038185875af1925050503d805f8114610414576040519150601f19603f3d011682016040523d82523d5f602084013e610419565b606091505b50915091508161045e576040517f08c379a000000000000000000000000000000000000000000000000000000000815260040161045590610bc1565b60405180910390fd5b50505b5050565b5f61055660028054806020026020016040519081016040528092919081815260200182805480156104d857602002820191905f5260205f20905f905b82829054906101000a900460070b60070b815260200190600801906020826007010492830192600103820291508084116104a15790505b5050505050600380548060200260200160405190810160405280929190818152602001828054801561054c57602002820191905f5260205f20905f905b82829054906101000a900460070b60070b815260200190600801906020826007010492830192600103820291508084116105155790505b5050505050610709565b905090565b60605f60045f9054906101000a900460ff1660ff168154811061058157610580610a54565b5b905f5260205f2001805461059490610c0c565b80601f01602080910402602001604051908101604052809291908181526020018280546105c090610c0c565b801561060b5780601f106105e25761010080835404028352916020019161060b565b820191905f5260205f20905b8154815290600101906020018083116105ee57829003601f168201915b5050505050905090565b60605f600184516106269190610c45565b67ffffffffffffffff81111561063f5761063e610c78565b5b60405190808252806020026020018201604052801561066d5781602001602082028036833780820191505090505b5090505f5b84518110156106d65784818151811061068e5761068d610a54565b5b6020026020010151826001836106a49190610c45565b815181106106b5576106b4610a54565b5b602002602001019060070b908160070b815250508080600101915050610672565b5082815f815181106106eb576106ea610a54565b5b602002602001019060070b908160070b815250508091505092915050565b5f815183511461071c5761071b610ca5565b5b5f805b84518160ff16101561078f5761076f858260ff168151811061074457610743610a54565b5b6020026020010151858360ff168151811061076257610761610a54565b5b602002602001015161079a565b8261077a9190610cd2565b9150808061078790610b0e565b91505061071f565b508091505092915050565b5f620f424082846107ab9190610d31565b6107b59190610d9a565b905092915050565b828054828255905f5260205f2090600301600490048101928215610868579160200282015f5b8382111561083257835183826101000a81548167ffffffffffffffff021916908360070b67ffffffffffffffff16021790555092602001926008016020816007010492830192600103026107e3565b80156108665782816101000a81549067ffffffffffffffff0219169055600801602081600701049283019260010302610832565b505b5090506108759190610879565b5090565b5b80821115610890575f815f90555060010161087a565b5090565b5f80fd5b5f60ff82169050919050565b6108ad81610898565b81146108b7575f80fd5b50565b5f813590506108c8816108a4565b92915050565b5f73ffffffffffffffffffffffffffffffffffffffff82169050919050565b5f6108f7826108ce565b9050919050565b610907816108ed565b8114610911575f80fd5b50565b5f81359050610922816108fe565b92915050565b5f806040838503121561093e5761093d610894565b5b5f61094b858286016108ba565b925050602061095c85828601610914565b9150509250929050565b5f8160070b9050919050565b5f819050919050565b5f61099561099061098b84610966565b610972565b610966565b9050919050565b6109a58161097b565b82525050565b5f6020820190506109be5f83018461099c565b92915050565b5f81519050919050565b5f82825260208201905092915050565b8281835e5f83830152505050565b5f601f19601f8301169050919050565b5f610a06826109c4565b610a1081856109ce565b9350610a208185602086016109de565b610a29816109ec565b840191505092915050565b5f6020820190508181035f830152610a4c81846109fc565b905092915050565b7f4e487b71000000000000000000000000000000000000000000000000000000005f52603260045260245ffd5b7f4e487b71000000000000000000000000000000000000000000000000000000005f52603160045260245ffd5b5f8115159050919050565b610ac281610aae565b82525050565b5f602082019050610adb5f830184610ab9565b92915050565b7f4e487b71000000000000000000000000000000000000000000000000000000005f52601160045260245ffd5b5f610b1882610898565b915060ff8203610b2b57610b2a610ae1565b5b600182019050919050565b5f81905092915050565b50565b5f610b4e5f83610b36565b9150610b5982610b40565b5f82019050919050565b5f610b6d82610b43565b9150819050919050565b7f4661696c656420746f2073656e642045746865720000000000000000000000005f82015250565b5f610bab6014836109ce565b9150610bb682610b77565b602082019050919050565b5f6020820190508181035f830152610bd881610b9f565b9050919050565b7f4e487b71000000000000000000000000000000000000000000000000000000005f52602260045260245ffd5b5f6002820490506001821680610c2357607f821691505b602082108103610c3657610c35610bdf565b5b50919050565b5f819050919050565b5f610c4f82610c3c565b9150610c5a83610c3c565b9250828201905080821115610c7257610c71610ae1565b5b92915050565b7f4e487b71000000000000000000000000000000000000000000000000000000005f52604160045260245ffd5b7f4e487b71000000000000000000000000000000000000000000000000000000005f52600160045260245ffd5b5f610cdc82610966565b9150610ce783610966565b925082820190507fffffffffffffffffffffffffffffffffffffffffffffffff80000000000000008112677fffffffffffffff82131715610d2b57610d2a610ae1565b5b92915050565b5f610d3b82610966565b9150610d4683610966565b9250828202610d5481610966565b9150808214610d6657610d65610ae1565b5b5092915050565b7f4e487b71000000000000000000000000000000000000000000000000000000005f52601260045260245ffd5b5f610da482610966565b9150610daf83610966565b925082610dbf57610dbe610d6d565b5b60015f0383147fffffffffffffffffffffffffffffffffffffffffffffffff800000000000000083141615610df757610df6610ae1565b5b82820590509291505056fea26469706673582212205d1fd45998daec869e5edac6e2321ceabd87e37f7dd0841d7278280ca92b2c3b64736f6c634300081a0033",
					"opcodes": "PUSH1 0x80 PUSH1 0x40 MSTORE CALLVALUE DUP1 ISZERO PUSH2 0xF JUMPI PUSH0 DUP1 REVERT JUMPDEST POP PUSH1 0x40 MLOAD PUSH2 0x1861 CODESIZE SUB DUP1 PUSH2 0x1861 DUP4 CODECOPY DUP2 DUP2 ADD PUSH1 0x40 MSTORE DUP2 ADD SWAP1 PUSH2 0x31 SWAP2 SWAP1 PUSH2 0x6CA JUMP JUMPDEST DUP2 PUSH0 SWAP1 DUP1 MLOAD SWAP1 PUSH1 0x20 ADD SWAP1 PUSH2 0x46 SWAP3 SWAP2 SWAP1 PUSH2 0x175 JUMP JUMPDEST POP DUP1 PUSH1 0x1 SWAP1 DUP1 MLOAD SWAP1 PUSH1 0x20 ADD SWAP1 PUSH2 0x5D SWAP3 SWAP2 SWAP1 PUSH2 0x1CC JUMP JUMPDEST POP PUSH1 0x40 MLOAD DUP1 PUSH1 0xA0 ADD PUSH1 0x40 MSTORE DUP1 PUSH3 0x1E8480 PUSH1 0x7 SIGNEXTEND PUSH1 0x7 SIGNEXTEND DUP2 MSTORE PUSH1 0x20 ADD PUSH3 0x16E360 PUSH1 0x7 SIGNEXTEND PUSH1 0x7 SIGNEXTEND DUP2 MSTORE PUSH1 0x20 ADD PUSH3 0xDBBA0 PUSH1 0x7 SIGNEXTEND PUSH1 0x7 SIGNEXTEND DUP2 MSTORE PUSH1 0x20 ADD PUSH3 0x61A80 PUSH1 0x7 SIGNEXTEND PUSH1 0x7 SIGNEXTEND DUP2 MSTORE PUSH1 0x20 ADD PUSH3 0x30D40 PUSH1 0x7 SIGNEXTEND PUSH1 0x7 SIGNEXTEND DUP2 MSTORE POP PUSH1 0x2 SWAP1 PUSH1 0x5 PUSH2 0xC2 SWAP3 SWAP2 SWAP1 PUSH2 0x26E JUMP JUMPDEST POP PUSH1 0x40 MLOAD DUP1 PUSH1 0xA0 ADD PUSH1 0x40 MSTORE DUP1 PUSH3 0xF4240 PUSH1 0x7 SIGNEXTEND PUSH1 0x7 SIGNEXTEND DUP2 MSTORE PUSH1 0x20 ADD PUSH3 0xF4240 PUSH1 0x7 SIGNEXTEND PUSH1 0x7 SIGNEXTEND DUP2 MSTORE PUSH1 0x20 ADD PUSH3 0xF4240 PUSH1 0x7 SIGNEXTEND PUSH1 0x7 SIGNEXTEND DUP2 MSTORE PUSH1 0x20 ADD PUSH3 0xF4240 PUSH1 0x7 SIGNEXTEND PUSH1 0x7 SIGNEXTEND DUP2 MSTORE PUSH1 0x20 ADD PUSH3 0xF4240 PUSH1 0x7 SIGNEXTEND PUSH1 0x7 SIGNEXTEND DUP2 MSTORE POP PUSH1 0x3 SWAP1 PUSH1 0x5 PUSH2 0x127 SWAP3 SWAP2 SWAP1 PUSH2 0x26E JUMP JUMPDEST POP PUSH0 PUSH1 0x4 PUSH0 PUSH2 0x100 EXP DUP2 SLOAD DUP2 PUSH1 0xFF MUL NOT AND SWAP1 DUP4 PUSH1 0xFF AND MUL OR SWAP1 SSTORE POP PUSH0 PUSH1 0x4 PUSH1 0x1 PUSH2 0x100 EXP DUP2 SLOAD DUP2 PUSH8 0xFFFFFFFFFFFFFFFF MUL NOT AND SWAP1 DUP4 PUSH1 0x7 SIGNEXTEND PUSH8 0xFFFFFFFFFFFFFFFF AND MUL OR SWAP1 SSTORE POP POP POP PUSH2 0xA1C JUMP JUMPDEST DUP3 DUP1 SLOAD DUP3 DUP3 SSTORE SWAP1 PUSH0 MSTORE PUSH1 0x20 PUSH0 KECCAK256 SWAP1 DUP2 ADD SWAP3 DUP3 ISZERO PUSH2 0x1BB JUMPI SWAP2 PUSH1 0x20 MUL DUP3 ADD JUMPDEST DUP3 DUP2 GT ISZERO PUSH2 0x1BA JUMPI DUP3 MLOAD DUP3 SWAP1 DUP2 PUSH2 0x1AA SWAP2 SWAP1 PUSH2 0x94D JUMP JUMPDEST POP SWAP2 PUSH1 0x20 ADD SWAP2 SWAP1 PUSH1 0x1 ADD SWAP1 PUSH2 0x193 JUMP JUMPDEST JUMPDEST POP SWAP1 POP PUSH2 0x1C8 SWAP2 SWAP1 PUSH2 0x32A JUMP JUMPDEST POP SWAP1 JUMP JUMPDEST DUP3 DUP1 SLOAD DUP3 DUP3 SSTORE SWAP1 PUSH0 MSTORE PUSH1 0x20 PUSH0 KECCAK256 SWAP1 PUSH1 0x1F ADD PUSH1 0x20 SWAP1 DIV DUP2 ADD SWAP3 DUP3 ISZERO PUSH2 0x25D JUMPI SWAP2 PUSH1 0x20 MUL DUP3 ADD PUSH0 JUMPDEST DUP4 DUP3 GT ISZERO PUSH2 0x22F JUMPI DUP4 MLOAD DUP4 DUP3 PUSH2 0x100 EXP DUP2 SLOAD DUP2 PUSH1 0xFF MUL NOT AND SWAP1 DUP4 PUSH1 0xFF AND MUL OR SWAP1 SSTORE POP SWAP3 PUSH1 0x20 ADD SWAP3 PUSH1 0x1 ADD PUSH1 0x20 DUP2 PUSH0 ADD DIV SWAP3 DUP4 ADD SWAP3 PUSH1 0x1 SUB MUL PUSH2 0x1F2 JUMP JUMPDEST DUP1 ISZERO PUSH2 0x25B JUMPI DUP3 DUP2 PUSH2 0x100 EXP DUP2 SLOAD SWAP1 PUSH1 0xFF MUL NOT AND SWAP1 SSTORE PUSH1 0x1 ADD PUSH1 0x20 DUP2 PUSH0 ADD DIV SWAP3 DUP4 ADD SWAP3 PUSH1 0x1 SUB MUL PUSH2 0x22F JUMP JUMPDEST POP JUMPDEST POP SWAP1 POP PUSH2 0x26A SWAP2 SWAP1 PUSH2 0x34D JUMP JUMPDEST POP SWAP1 JUMP JUMPDEST DUP3 DUP1 SLOAD DUP3 DUP3 SSTORE SWAP1 PUSH0 MSTORE PUSH1 0x20 PUSH0 KECCAK256 SWAP1 PUSH1 0x3 ADD PUSH1 0x4 SWAP1 DIV DUP2 ADD SWAP3 DUP3 ISZERO PUSH2 0x319 JUMPI SWAP2 PUSH1 0x20 MUL DUP3 ADD PUSH0 JUMPDEST DUP4 DUP3 GT ISZERO PUSH2 0x2E3 JUMPI DUP4 MLOAD DUP4 DUP3 PUSH2 0x100 EXP DUP2 SLOAD DUP2 PUSH8 0xFFFFFFFFFFFFFFFF MUL NOT AND SWAP1 DUP4 PUSH1 0x7 SIGNEXTEND PUSH8 0xFFFFFFFFFFFFFFFF AND MUL OR SWAP1 SSTORE POP SWAP3 PUSH1 0x20 ADD SWAP3 PUSH1 0x8 ADD PUSH1 0x20 DUP2 PUSH1 0x7 ADD DIV SWAP3 DUP4 ADD SWAP3 PUSH1 0x1 SUB MUL PUSH2 0x294 JUMP JUMPDEST DUP1 ISZERO PUSH2 0x317 JUMPI DUP3 DUP2 PUSH2 0x100 EXP DUP2 SLOAD SWAP1 PUSH8 0xFFFFFFFFFFFFFFFF MUL NOT AND SWAP1 SSTORE PUSH1 0x8 ADD PUSH1 0x20 DUP2 PUSH1 0x7 ADD DIV SWAP3 DUP4 ADD SWAP3 PUSH1 0x1 SUB MUL PUSH2 0x2E3 JUMP JUMPDEST POP JUMPDEST POP SWAP1 POP PUSH2 0x326 SWAP2 SWAP1 PUSH2 0x34D JUMP JUMPDEST POP SWAP1 JUMP JUMPDEST JUMPDEST DUP1 DUP3 GT ISZERO PUSH2 0x349 JUMPI PUSH0 DUP2 DUP2 PUSH2 0x340 SWAP2 SWAP1 PUSH2 0x368 JUMP JUMPDEST POP PUSH1 0x1 ADD PUSH2 0x32B JUMP JUMPDEST POP SWAP1 JUMP JUMPDEST JUMPDEST DUP1 DUP3 GT ISZERO PUSH2 0x364 JUMPI PUSH0 DUP2 PUSH0 SWAP1 SSTORE POP PUSH1 0x1 ADD PUSH2 0x34E JUMP JUMPDEST POP SWAP1 JUMP JUMPDEST POP DUP1 SLOAD PUSH2 0x374 SWAP1 PUSH2 0x777 JUMP JUMPDEST PUSH0 DUP3 SSTORE DUP1 PUSH1 0x1F LT PUSH2 0x385 JUMPI POP PUSH2 0x3A2 JUMP JUMPDEST PUSH1 0x1F ADD PUSH1 0x20 SWAP1 DIV SWAP1 PUSH0 MSTORE PUSH1 0x20 PUSH0 KECCAK256 SWAP1 DUP2 ADD SWAP1 PUSH2 0x3A1 SWAP2 SWAP1 PUSH2 0x34D JUMP JUMPDEST JUMPDEST POP JUMP JUMPDEST PUSH0 PUSH1 0x40 MLOAD SWAP1 POP SWAP1 JUMP JUMPDEST PUSH0 DUP1 REVERT JUMPDEST PUSH0 DUP1 REVERT JUMPDEST PUSH0 DUP1 REVERT JUMPDEST PUSH0 PUSH1 0x1F NOT PUSH1 0x1F DUP4 ADD AND SWAP1 POP SWAP2 SWAP1 POP JUMP JUMPDEST PUSH32 0x4E487B7100000000000000000000000000000000000000000000000000000000 PUSH0 MSTORE PUSH1 0x41 PUSH1 0x4 MSTORE PUSH1 0x24 PUSH0 REVERT JUMPDEST PUSH2 0x400 DUP3 PUSH2 0x3BA JUMP JUMPDEST DUP2 ADD DUP2 DUP2 LT PUSH8 0xFFFFFFFFFFFFFFFF DUP3 GT OR ISZERO PUSH2 0x41F JUMPI PUSH2 0x41E PUSH2 0x3CA JUMP JUMPDEST JUMPDEST DUP1 PUSH1 0x40 MSTORE POP POP POP JUMP JUMPDEST PUSH0 PUSH2 0x431 PUSH2 0x3A5 JUMP JUMPDEST SWAP1 POP PUSH2 0x43D DUP3 DUP3 PUSH2 0x3F7 JUMP JUMPDEST SWAP2 SWAP1 POP JUMP JUMPDEST PUSH0 PUSH8 0xFFFFFFFFFFFFFFFF DUP3 GT ISZERO PUSH2 0x45C JUMPI PUSH2 0x45B PUSH2 0x3CA JUMP JUMPDEST JUMPDEST PUSH1 0x20 DUP3 MUL SWAP1 POP PUSH1 0x20 DUP2 ADD SWAP1 POP SWAP2 SWAP1 POP JUMP JUMPDEST PUSH0 DUP1 REVERT JUMPDEST PUSH0 DUP1 REVERT JUMPDEST PUSH0 PUSH8 0xFFFFFFFFFFFFFFFF DUP3 GT ISZERO PUSH2 0x48F JUMPI PUSH2 0x48E PUSH2 0x3CA JUMP JUMPDEST JUMPDEST PUSH2 0x498 DUP3 PUSH2 0x3BA JUMP JUMPDEST SWAP1 POP PUSH1 0x20 DUP2 ADD SWAP1 POP SWAP2 SWAP1 POP JUMP JUMPDEST DUP3 DUP2 DUP4 MCOPY PUSH0 DUP4 DUP4 ADD MSTORE POP POP POP JUMP JUMPDEST PUSH0 PUSH2 0x4C5 PUSH2 0x4C0 DUP5 PUSH2 0x475 JUMP JUMPDEST PUSH2 0x428 JUMP JUMPDEST SWAP1 POP DUP3 DUP2 MSTORE PUSH1 0x20 DUP2 ADD DUP5 DUP5 DUP5 ADD GT ISZERO PUSH2 0x4E1 JUMPI PUSH2 0x4E0 PUSH2 0x471 JUMP JUMPDEST JUMPDEST PUSH2 0x4EC DUP5 DUP3 DUP6 PUSH2 0x4A5 JUMP JUMPDEST POP SWAP4 SWAP3 POP POP POP JUMP JUMPDEST PUSH0 DUP3 PUSH1 0x1F DUP4 ADD SLT PUSH2 0x508 JUMPI PUSH2 0x507 PUSH2 0x3B6 JUMP JUMPDEST JUMPDEST DUP2 MLOAD PUSH2 0x518 DUP5 DUP3 PUSH1 0x20 DUP7 ADD PUSH2 0x4B3 JUMP JUMPDEST SWAP2 POP POP SWAP3 SWAP2 POP POP JUMP JUMPDEST PUSH0 PUSH2 0x533 PUSH2 0x52E DUP5 PUSH2 0x442 JUMP JUMPDEST PUSH2 0x428 JUMP JUMPDEST SWAP1 POP DUP1 DUP4 DUP3 MSTORE PUSH1 0x20 DUP3 ADD SWAP1 POP PUSH1 0x20 DUP5 MUL DUP4 ADD DUP6 DUP2 GT ISZERO PUSH2 0x556 JUMPI PUSH2 0x555 PUSH2 0x46D JUMP JUMPDEST JUMPDEST DUP4 JUMPDEST DUP2 DUP2 LT ISZERO PUSH2 0x59D JUMPI DUP1 MLOAD PUSH8 0xFFFFFFFFFFFFFFFF DUP2 GT ISZERO PUSH2 0x57B JUMPI PUSH2 0x57A PUSH2 0x3B6 JUMP JUMPDEST JUMPDEST DUP1 DUP7 ADD PUSH2 0x588 DUP10 DUP3 PUSH2 0x4F4 JUMP JUMPDEST DUP6 MSTORE PUSH1 0x20 DUP6 ADD SWAP5 POP POP POP PUSH1 0x20 DUP2 ADD SWAP1 POP PUSH2 0x558 JUMP JUMPDEST POP POP POP SWAP4 SWAP3 POP POP POP JUMP JUMPDEST PUSH0 DUP3 PUSH1 0x1F DUP4 ADD SLT PUSH2 0x5BB JUMPI PUSH2 0x5BA PUSH2 0x3B6 JUMP JUMPDEST JUMPDEST DUP2 MLOAD PUSH2 0x5CB DUP5 DUP3 PUSH1 0x20 DUP7 ADD PUSH2 0x521 JUMP JUMPDEST SWAP2 POP POP SWAP3 SWAP2 POP POP JUMP JUMPDEST PUSH0 PUSH8 0xFFFFFFFFFFFFFFFF DUP3 GT ISZERO PUSH2 0x5EE JUMPI PUSH2 0x5ED PUSH2 0x3CA JUMP JUMPDEST JUMPDEST PUSH1 0x20 DUP3 MUL SWAP1 POP PUSH1 0x20 DUP2 ADD SWAP1 POP SWAP2 SWAP1 POP JUMP JUMPDEST PUSH0 PUSH1 0xFF DUP3 AND SWAP1 POP SWAP2 SWAP1 POP JUMP JUMPDEST PUSH2 0x614 DUP2 PUSH2 0x5FF JUMP JUMPDEST DUP2 EQ PUSH2 0x61E JUMPI PUSH0 DUP1 REVERT JUMPDEST POP JUMP JUMPDEST PUSH0 DUP2 MLOAD SWAP1 POP PUSH2 0x62F DUP2 PUSH2 0x60B JUMP JUMPDEST SWAP3 SWAP2 POP POP JUMP JUMPDEST PUSH0 PUSH2 0x647 PUSH2 0x642 DUP5 PUSH2 0x5D4 JUMP JUMPDEST PUSH2 0x428 JUMP JUMPDEST SWAP1 POP DUP1 DUP4 DUP3 MSTORE PUSH1 0x20 DUP3 ADD SWAP1 POP PUSH1 0x20 DUP5 MUL DUP4 ADD DUP6 DUP2 GT ISZERO PUSH2 0x66A JUMPI PUSH2 0x669 PUSH2 0x46D JUMP JUMPDEST JUMPDEST DUP4 JUMPDEST DUP2 DUP2 LT ISZERO PUSH2 0x693 JUMPI DUP1 PUSH2 0x67F DUP9 DUP3 PUSH2 0x621 JUMP JUMPDEST DUP5 MSTORE PUSH1 0x20 DUP5 ADD SWAP4 POP POP PUSH1 0x20 DUP2 ADD SWAP1 POP PUSH2 0x66C JUMP JUMPDEST POP POP POP SWAP4 SWAP3 POP POP POP JUMP JUMPDEST PUSH0 DUP3 PUSH1 0x1F DUP4 ADD SLT PUSH2 0x6B1 JUMPI PUSH2 0x6B0 PUSH2 0x3B6 JUMP JUMPDEST JUMPDEST DUP2 MLOAD PUSH2 0x6C1 DUP5 DUP3 PUSH1 0x20 DUP7 ADD PUSH2 0x635 JUMP JUMPDEST SWAP2 POP POP SWAP3 SWAP2 POP POP JUMP JUMPDEST PUSH0 DUP1 PUSH1 0x40 DUP4 DUP6 SUB SLT ISZERO PUSH2 0x6E0 JUMPI PUSH2 0x6DF PUSH2 0x3AE JUMP JUMPDEST JUMPDEST PUSH0 DUP4 ADD MLOAD PUSH8 0xFFFFFFFFFFFFFFFF DUP2 GT ISZERO PUSH2 0x6FD JUMPI PUSH2 0x6FC PUSH2 0x3B2 JUMP JUMPDEST JUMPDEST PUSH2 0x709 DUP6 DUP3 DUP7 ADD PUSH2 0x5A7 JUMP JUMPDEST SWAP3 POP POP PUSH1 0x20 DUP4 ADD MLOAD PUSH8 0xFFFFFFFFFFFFFFFF DUP2 GT ISZERO PUSH2 0x72A JUMPI PUSH2 0x729 PUSH2 0x3B2 JUMP JUMPDEST JUMPDEST PUSH2 0x736 DUP6 DUP3 DUP7 ADD PUSH2 0x69D JUMP JUMPDEST SWAP2 POP POP SWAP3 POP SWAP3 SWAP1 POP JUMP JUMPDEST PUSH0 DUP2 MLOAD SWAP1 POP SWAP2 SWAP1 POP JUMP JUMPDEST PUSH32 0x4E487B7100000000000000000000000000000000000000000000000000000000 PUSH0 MSTORE PUSH1 0x22 PUSH1 0x4 MSTORE PUSH1 0x24 PUSH0 REVERT JUMPDEST PUSH0 PUSH1 0x2 DUP3 DIV SWAP1 POP PUSH1 0x1 DUP3 AND DUP1 PUSH2 0x78E JUMPI PUSH1 0x7F DUP3 AND SWAP2 POP JUMPDEST PUSH1 0x20 DUP3 LT DUP2 SUB PUSH2 0x7A1 JUMPI PUSH2 0x7A0 PUSH2 0x74A JUMP JUMPDEST JUMPDEST POP SWAP2 SWAP1 POP JUMP JUMPDEST PUSH0 DUP2 SWAP1 POP DUP2 PUSH0 MSTORE PUSH1 0x20 PUSH0 KECCAK256 SWAP1 POP SWAP2 SWAP1 POP JUMP JUMPDEST PUSH0 PUSH1 0x20 PUSH1 0x1F DUP4 ADD DIV SWAP1 POP SWAP2 SWAP1 POP JUMP JUMPDEST PUSH0 DUP3 DUP3 SHL SWAP1 POP SWAP3 SWAP2 POP POP JUMP JUMPDEST PUSH0 PUSH1 0x8 DUP4 MUL PUSH2 0x803 PUSH32 0xFFFFFFFFFFFFFFFFFFFFFFFFFFFFFFFFFFFFFFFFFFFFFFFFFFFFFFFFFFFFFFFF DUP3 PUSH2 0x7C8 JUMP JUMPDEST PUSH2 0x80D DUP7 DUP4 PUSH2 0x7C8 JUMP JUMPDEST SWAP6 POP DUP1 NOT DUP5 AND SWAP4 POP DUP1 DUP7 AND DUP5 OR SWAP3 POP POP POP SWAP4 SWAP3 POP POP POP JUMP JUMPDEST PUSH0 DUP2 SWAP1 POP SWAP2 SWAP1 POP JUMP JUMPDEST PUSH0 DUP2 SWAP1 POP SWAP2 SWAP1 POP JUMP JUMPDEST PUSH0 PUSH2 0x851 PUSH2 0x84C PUSH2 0x847 DUP5 PUSH2 0x825 JUMP JUMPDEST PUSH2 0x82E JUMP JUMPDEST PUSH2 0x825 JUMP JUMPDEST SWAP1 POP SWAP2 SWAP1 POP JUMP JUMPDEST PUSH0 DUP2 SWAP1 POP SWAP2 SWAP1 POP JUMP JUMPDEST PUSH2 0x86A DUP4 PUSH2 0x837 JUMP JUMPDEST PUSH2 0x87E PUSH2 0x876 DUP3 PUSH2 0x858 JUMP JUMPDEST DUP5 DUP5 SLOAD PUSH2 0x7D4 JUMP JUMPDEST DUP3 SSTORE POP POP POP POP JUMP JUMPDEST PUSH0 SWAP1 JUMP JUMPDEST PUSH2 0x892 PUSH2 0x886 JUMP JUMPDEST PUSH2 0x89D DUP2 DUP5 DUP5 PUSH2 0x861 JUMP JUMPDEST POP POP POP JUMP JUMPDEST JUMPDEST DUP2 DUP2 LT ISZERO PUSH2 0x8C0 JUMPI PUSH2 0x8B5 PUSH0 DUP3 PUSH2 0x88A JUMP JUMPDEST PUSH1 0x1 DUP2 ADD SWAP1 POP PUSH2 0x8A3 JUMP JUMPDEST POP POP JUMP JUMPDEST PUSH1 0x1F DUP3 GT ISZERO PUSH2 0x905 JUMPI PUSH2 0x8D6 DUP2 PUSH2 0x7A7 JUMP JUMPDEST PUSH2 0x8DF DUP5 PUSH2 0x7B9 JUMP JUMPDEST DUP2 ADD PUSH1 0x20 DUP6 LT ISZERO PUSH2 0x8EE JUMPI DUP2 SWAP1 POP JUMPDEST PUSH2 0x902 PUSH2 0x8FA DUP6 PUSH2 0x7B9 JUMP JUMPDEST DUP4 ADD DUP3 PUSH2 0x8A2 JUMP JUMPDEST POP POP JUMPDEST POP POP POP JUMP JUMPDEST PUSH0 DUP3 DUP3 SHR SWAP1 POP SWAP3 SWAP2 POP POP JUMP JUMPDEST PUSH0 PUSH2 0x925 PUSH0 NOT DUP5 PUSH1 0x8 MUL PUSH2 0x90A JUMP JUMPDEST NOT DUP1 DUP4 AND SWAP2 POP POP SWAP3 SWAP2 POP POP JUMP JUMPDEST PUSH0 PUSH2 0x93D DUP4 DUP4 PUSH2 0x916 JUMP JUMPDEST SWAP2 POP DUP3 PUSH1 0x2 MUL DUP3 OR SWAP1 POP SWAP3 SWAP2 POP POP JUMP JUMPDEST PUSH2 0x956 DUP3 PUSH2 0x740 JUMP JUMPDEST PUSH8 0xFFFFFFFFFFFFFFFF DUP2 GT ISZERO PUSH2 0x96F JUMPI PUSH2 0x96E PUSH2 0x3CA JUMP JUMPDEST JUMPDEST PUSH2 0x979 DUP3 SLOAD PUSH2 0x777 JUMP JUMPDEST PUSH2 0x984 DUP3 DUP3 DUP6 PUSH2 0x8C4 JUMP JUMPDEST PUSH0 PUSH1 0x20 SWAP1 POP PUSH1 0x1F DUP4 GT PUSH1 0x1 DUP2 EQ PUSH2 0x9B5 JUMPI PUSH0 DUP5 ISZERO PUSH2 0x9A3 JUMPI DUP3 DUP8 ADD MLOAD SWAP1 POP JUMPDEST PUSH2 0x9AD DUP6 DUP3 PUSH2 0x932 JUMP JUMPDEST DUP7 SSTORE POP PUSH2 0xA14 JUMP JUMPDEST PUSH1 0x1F NOT DUP5 AND PUSH2 0x9C3 DUP7 PUSH2 0x7A7 JUMP JUMPDEST PUSH0 JUMPDEST DUP3 DUP2 LT ISZERO PUSH2 0x9EA JUMPI DUP5 DUP10 ADD MLOAD DUP3 SSTORE PUSH1 0x1 DUP3 ADD SWAP2 POP PUSH1 0x20 DUP6 ADD SWAP5 POP PUSH1 0x20 DUP2 ADD SWAP1 POP PUSH2 0x9C5 JUMP JUMPDEST DUP7 DUP4 LT ISZERO PUSH2 0xA07 JUMPI DUP5 DUP10 ADD MLOAD PUSH2 0xA03 PUSH1 0x1F DUP10 AND DUP3 PUSH2 0x916 JUMP JUMPDEST DUP4 SSTORE POP JUMPDEST PUSH1 0x1 PUSH1 0x2 DUP9 MUL ADD DUP9 SSTORE POP POP POP JUMPDEST POP POP POP POP POP POP JUMP JUMPDEST PUSH2 0xE38 DUP1 PUSH2 0xA29 PUSH0 CODECOPY PUSH0 RETURN INVALID PUSH1 0x80 PUSH1 0x40 MSTORE CALLVALUE DUP1 ISZERO PUSH2 0xF JUMPI PUSH0 DUP1 REVERT JUMPDEST POP PUSH1 0x4 CALLDATASIZE LT PUSH2 0x3F JUMPI PUSH0 CALLDATALOAD PUSH1 0xE0 SHR DUP1 PUSH4 0x2525146B EQ PUSH2 0x43 JUMPI DUP1 PUSH4 0x42FBA3FB EQ PUSH2 0x5F JUMPI DUP1 PUSH4 0x734BA396 EQ PUSH2 0x7D JUMPI JUMPDEST PUSH0 DUP1 REVERT JUMPDEST PUSH2 0x5D PUSH1 0x4 DUP1 CALLDATASIZE SUB DUP2 ADD SWAP1 PUSH2 0x58 SWAP2 SWAP1 PUSH2 0x928 JUMP JUMPDEST PUSH2 0x9B JUMP JUMPDEST STOP JUMPDEST PUSH2 0x67 PUSH2 0x465 JUMP JUMPDEST PUSH1 0x40 MLOAD PUSH2 0x74 SWAP2 SWAP1 PUSH2 0x9AB JUMP JUMPDEST PUSH1 0x40 MLOAD DUP1 SWAP2 SUB SWAP1 RETURN JUMPDEST PUSH2 0x85 PUSH2 0x55B JUMP JUMPDEST PUSH1 0x40 MLOAD PUSH2 0x92 SWAP2 SWAP1 PUSH2 0xA34 JUMP JUMPDEST PUSH1 0x40 MLOAD DUP1 SWAP2 SUB SWAP1 RETURN JUMPDEST PUSH1 0x1 PUSH1 0x4 PUSH0 SWAP1 SLOAD SWAP1 PUSH2 0x100 EXP SWAP1 DIV PUSH1 0xFF AND PUSH1 0xFF AND DUP2 SLOAD DUP2 LT PUSH2 0xC0 JUMPI PUSH2 0xBF PUSH2 0xA54 JUMP JUMPDEST JUMPDEST SWAP1 PUSH0 MSTORE PUSH1 0x20 PUSH0 KECCAK256 SWAP1 PUSH1 0x20 SWAP2 DUP3 DUP3 DIV ADD SWAP2 SWAP1 MOD SWAP1 SLOAD SWAP1 PUSH2 0x100 EXP SWAP1 DIV PUSH1 0xFF AND PUSH1 0xFF AND DUP3 PUSH1 0xFF AND EQ PUSH2 0x219 JUMPI PUSH2 0x187 PUSH1 0x3 DUP1 SLOAD DUP1 PUSH1 0x20 MUL PUSH1 0x20 ADD PUSH1 0x40 MLOAD SWAP1 DUP2 ADD PUSH1 0x40 MSTORE DUP1 SWAP3 SWAP2 SWAP1 DUP2 DUP2 MSTORE PUSH1 0x20 ADD DUP3 DUP1 SLOAD DUP1 ISZERO PUSH2 0x15C JUMPI PUSH1 0x20 MUL DUP3 ADD SWAP2 SWAP1 PUSH0 MSTORE PUSH1 0x20 PUSH0 KECCAK256 SWAP1 PUSH0 SWAP1 JUMPDEST DUP3 DUP3 SWAP1 SLOAD SWAP1 PUSH2 0x100 EXP SWAP1 DIV PUSH1 0x7 SIGNEXTEND PUSH1 0x7 SIGNEXTEND DUP2 MSTORE PUSH1 0x20 ADD SWAP1 PUSH1 0x8 ADD SWAP1 PUSH1 0x20 DUP3 PUSH1 0x7 ADD DIV SWAP3 DUP4 ADD SWAP3 PUSH1 0x1 SUB DUP3 MUL SWAP2 POP DUP1 DUP5 GT PUSH2 0x125 JUMPI SWAP1 POP JUMPDEST POP POP POP POP POP PUSH32 0xFFFFFFFFFFFFFFFFFFFFFFFFFFFFFFFFFFFFFFFFFFFFFFFFFFFFFFFFFFE17B80 PUSH2 0x615 JUMP JUMPDEST PUSH1 0x3 SWAP1 DUP1 MLOAD SWAP1 PUSH1 0x20 ADD SWAP1 PUSH2 0x19C SWAP3 SWAP2 SWAP1 PUSH2 0x7BD JUMP JUMPDEST POP PUSH1 0x3 DUP1 SLOAD DUP1 PUSH2 0x1AF JUMPI PUSH2 0x1AE PUSH2 0xA81 JUMP JUMPDEST JUMPDEST PUSH1 0x1 SWAP1 SUB DUP2 DUP2 SWAP1 PUSH0 MSTORE PUSH1 0x20 PUSH0 KECCAK256 SWAP1 PUSH1 0x4 SWAP2 DUP3 DUP3 DIV ADD SWAP2 SWAP1 MOD PUSH1 0x8 MUL PUSH2 0x100 EXP DUP2 SLOAD SWAP1 PUSH8 0xFFFFFFFFFFFFFFFF MUL NOT AND SWAP1 SSTORE SWAP1 SSTORE PUSH32 0x22B1CEE616B1FDC88183479E67FBDD2D87E3BB10FA86D8ECCEA07B189C6D17EB PUSH0 PUSH1 0x40 MLOAD PUSH2 0x210 SWAP2 SWAP1 PUSH2 0xAC8 JUMP JUMPDEST PUSH1 0x40 MLOAD DUP1 SWAP2 SUB SWAP1 LOG1 JUMPDEST PUSH1 0x4 PUSH0 DUP2 DUP2 SWAP1 SLOAD SWAP1 PUSH2 0x100 EXP SWAP1 DIV PUSH1 0xFF AND DUP1 SWAP3 SWAP2 SWAP1 PUSH2 0x237 SWAP1 PUSH2 0xB0E JUMP JUMPDEST SWAP2 SWAP1 PUSH2 0x100 EXP DUP2 SLOAD DUP2 PUSH1 0xFF MUL NOT AND SWAP1 DUP4 PUSH1 0xFF AND MUL OR SWAP1 SSTORE POP POP PUSH2 0x2D0 PUSH1 0x3 DUP1 SLOAD DUP1 PUSH1 0x20 MUL PUSH1 0x20 ADD PUSH1 0x40 MLOAD SWAP1 DUP2 ADD PUSH1 0x40 MSTORE DUP1 SWAP3 SWAP2 SWAP1 DUP2 DUP2 MSTORE PUSH1 0x20 ADD DUP3 DUP1 SLOAD DUP1 ISZERO PUSH2 0x2C2 JUMPI PUSH1 0x20 MUL DUP3 ADD SWAP2 SWAP1 PUSH0 MSTORE PUSH1 0x20 PUSH0 KECCAK256 SWAP1 PUSH0 SWAP1 JUMPDEST DUP3 DUP3 SWAP1 SLOAD SWAP1 PUSH2 0x100 EXP SWAP1 DIV PUSH1 0x7 SIGNEXTEND PUSH1 0x7 SIGNEXTEND DUP2 MSTORE PUSH1 0x20 ADD SWAP1 PUSH1 0x8 ADD SWAP1 PUSH1 0x20 DUP3 PUSH1 0x7 ADD DIV SWAP3 DUP4 ADD SWAP3 PUSH1 0x1 SUB DUP3 MUL SWAP2 POP DUP1 DUP5 GT PUSH2 0x28B JUMPI SWAP1 POP JUMPDEST POP POP POP POP POP PUSH3 0x1E8480 PUSH2 0x615 JUMP JUMPDEST PUSH1 0x3 SWAP1 DUP1 MLOAD SWAP1 PUSH1 0x20 ADD SWAP1 PUSH2 0x2E5 SWAP3 SWAP2 SWAP1 PUSH2 0x7BD JUMP JUMPDEST POP PUSH1 0x3 DUP1 SLOAD DUP1 PUSH2 0x2F8 JUMPI PUSH2 0x2F7 PUSH2 0xA81 JUMP JUMPDEST JUMPDEST PUSH1 0x1 SWAP1 SUB DUP2 DUP2 SWAP1 PUSH0 MSTORE PUSH1 0x20 PUSH0 KECCAK256 SWAP1 PUSH1 0x4 SWAP2 DUP3 DUP3 DIV ADD SWAP2 SWAP1 MOD PUSH1 0x8 MUL PUSH2 0x100 EXP DUP2 SLOAD SWAP1 PUSH8 0xFFFFFFFFFFFFFFFF MUL NOT AND SWAP1 SSTORE SWAP1 SSTORE PUSH0 DUP1 SLOAD SWAP1 POP PUSH1 0x4 PUSH0 SWAP1 SLOAD SWAP1 PUSH2 0x100 EXP SWAP1 DIV PUSH1 0xFF AND PUSH1 0xFF AND GT ISZERO PUSH2 0x362 JUMPI PUSH0 PUSH1 0x4 PUSH0 PUSH2 0x100 EXP DUP2 SLOAD DUP2 PUSH1 0xFF MUL NOT AND SWAP1 DUP4 PUSH1 0xFF AND MUL OR SWAP1 SSTORE POP JUMPDEST PUSH2 0x36A PUSH2 0x465 JUMP JUMPDEST PUSH1 0x4 PUSH1 0x1 PUSH2 0x100 EXP DUP2 SLOAD DUP2 PUSH8 0xFFFFFFFFFFFFFFFF MUL NOT AND SWAP1 DUP4 PUSH1 0x7 SIGNEXTEND PUSH8 0xFFFFFFFFFFFFFFFF AND MUL OR SWAP1 SSTORE POP PUSH3 0xEE098 PUSH1 0x4 PUSH1 0x1 SWAP1 SLOAD SWAP1 PUSH2 0x100 EXP SWAP1 DIV PUSH1 0x7 SIGNEXTEND PUSH1 0x7 SIGNEXTEND SGT ISZERO PUSH2 0x461 JUMPI PUSH0 DUP1 DUP3 PUSH20 0xFFFFFFFFFFFFFFFFFFFFFFFFFFFFFFFFFFFFFFFF AND PUSH2 0x1F4 PUSH1 0x40 MLOAD PUSH2 0x3DA SWAP1 PUSH2 0xB63 JUMP JUMPDEST PUSH0 PUSH1 0x40 MLOAD DUP1 DUP4 SUB DUP2 DUP6 DUP8 GAS CALL SWAP3 POP POP POP RETURNDATASIZE DUP1 PUSH0 DUP2 EQ PUSH2 0x414 JUMPI PUSH1 0x40 MLOAD SWAP2 POP PUSH1 0x1F NOT PUSH1 0x3F RETURNDATASIZE ADD AND DUP3 ADD PUSH1 0x40 MSTORE RETURNDATASIZE DUP3 MSTORE RETURNDATASIZE PUSH0 PUSH1 0x20 DUP5 ADD RETURNDATACOPY PUSH2 0x419 JUMP JUMPDEST PUSH1 0x60 SWAP2 POP JUMPDEST POP SWAP2 POP SWAP2 POP DUP2 PUSH2 0x45E JUMPI PUSH1 0x40 MLOAD PUSH32 0x8C379A000000000000000000000000000000000000000000000000000000000 DUP2 MSTORE PUSH1 0x4 ADD PUSH2 0x455 SWAP1 PUSH2 0xBC1 JUMP JUMPDEST PUSH1 0x40 MLOAD DUP1 SWAP2 SUB SWAP1 REVERT JUMPDEST POP POP JUMPDEST POP POP JUMP JUMPDEST PUSH0 PUSH2 0x556 PUSH1 0x2 DUP1 SLOAD DUP1 PUSH1 0x20 MUL PUSH1 0x20 ADD PUSH1 0x40 MLOAD SWAP1 DUP2 ADD PUSH1 0x40 MSTORE DUP1 SWAP3 SWAP2 SWAP1 DUP2 DUP2 MSTORE PUSH1 0x20 ADD DUP3 DUP1 SLOAD DUP1 ISZERO PUSH2 0x4D8 JUMPI PUSH1 0x20 MUL DUP3 ADD SWAP2 SWAP1 PUSH0 MSTORE PUSH1 0x20 PUSH0 KECCAK256 SWAP1 PUSH0 SWAP1 JUMPDEST DUP3 DUP3 SWAP1 SLOAD SWAP1 PUSH2 0x100 EXP SWAP1 DIV PUSH1 0x7 SIGNEXTEND PUSH1 0x7 SIGNEXTEND DUP2 MSTORE PUSH1 0x20 ADD SWAP1 PUSH1 0x8 ADD SWAP1 PUSH1 0x20 DUP3 PUSH1 0x7 ADD DIV SWAP3 DUP4 ADD SWAP3 PUSH1 0x1 SUB DUP3 MUL SWAP2 POP DUP1 DUP5 GT PUSH2 0x4A1 JUMPI SWAP1 POP JUMPDEST POP POP POP POP POP PUSH1 0x3 DUP1 SLOAD DUP1 PUSH1 0x20 MUL PUSH1 0x20 ADD PUSH1 0x40 MLOAD SWAP1 DUP2 ADD PUSH1 0x40 MSTORE DUP1 SWAP3 SWAP2 SWAP1 DUP2 DUP2 MSTORE PUSH1 0x20 ADD DUP3 DUP1 SLOAD DUP1 ISZERO PUSH2 0x54C JUMPI PUSH1 0x20 MUL DUP3 ADD SWAP2 SWAP1 PUSH0 MSTORE PUSH1 0x20 PUSH0 KECCAK256 SWAP1 PUSH0 SWAP1 JUMPDEST DUP3 DUP3 SWAP1 SLOAD SWAP1 PUSH2 0x100 EXP SWAP1 DIV PUSH1 0x7 SIGNEXTEND PUSH1 0x7 SIGNEXTEND DUP2 MSTORE PUSH1 0x20 ADD SWAP1 PUSH1 0x8 ADD SWAP1 PUSH1 0x20 DUP3 PUSH1 0x7 ADD DIV SWAP3 DUP4 ADD SWAP3 PUSH1 0x1 SUB DUP3 MUL SWAP2 POP DUP1 DUP5 GT PUSH2 0x515 JUMPI SWAP1 POP JUMPDEST POP POP POP POP POP PUSH2 0x709 JUMP JUMPDEST SWAP1 POP SWAP1 JUMP JUMPDEST PUSH1 0x60 PUSH0 PUSH1 0x4 PUSH0 SWAP1 SLOAD SWAP1 PUSH2 0x100 EXP SWAP1 DIV PUSH1 0xFF AND PUSH1 0xFF AND DUP2 SLOAD DUP2 LT PUSH2 0x581 JUMPI PUSH2 0x580 PUSH2 0xA54 JUMP JUMPDEST JUMPDEST SWAP1 PUSH0 MSTORE PUSH1 0x20 PUSH0 KECCAK256 ADD DUP1 SLOAD PUSH2 0x594 SWAP1 PUSH2 0xC0C JUMP JUMPDEST DUP1 PUSH1 0x1F ADD PUSH1 0x20 DUP1 SWAP2 DIV MUL PUSH1 0x20 ADD PUSH1 0x40 MLOAD SWAP1 DUP2 ADD PUSH1 0x40 MSTORE DUP1 SWAP3 SWAP2 SWAP1 DUP2 DUP2 MSTORE PUSH1 0x20 ADD DUP3 DUP1 SLOAD PUSH2 0x5C0 SWAP1 PUSH2 0xC0C JUMP JUMPDEST DUP1 ISZERO PUSH2 0x60B JUMPI DUP1 PUSH1 0x1F LT PUSH2 0x5E2 JUMPI PUSH2 0x100 DUP1 DUP4 SLOAD DIV MUL DUP4 MSTORE SWAP2 PUSH1 0x20 ADD SWAP2 PUSH2 0x60B JUMP JUMPDEST DUP3 ADD SWAP2 SWAP1 PUSH0 MSTORE PUSH1 0x20 PUSH0 KECCAK256 SWAP1 JUMPDEST DUP2 SLOAD DUP2 MSTORE SWAP1 PUSH1 0x1 ADD SWAP1 PUSH1 0x20 ADD DUP1 DUP4 GT PUSH2 0x5EE JUMPI DUP3 SWAP1 SUB PUSH1 0x1F AND DUP3 ADD SWAP2 JUMPDEST POP POP POP POP POP SWAP1 POP SWAP1 JUMP JUMPDEST PUSH1 0x60 PUSH0 PUSH1 0x1 DUP5 MLOAD PUSH2 0x626 SWAP2 SWAP1 PUSH2 0xC45 JUMP JUMPDEST PUSH8 0xFFFFFFFFFFFFFFFF DUP2 GT ISZERO PUSH2 0x63F JUMPI PUSH2 0x63E PUSH2 0xC78 JUMP JUMPDEST JUMPDEST PUSH1 0x40 MLOAD SWAP1 DUP1 DUP3 MSTORE DUP1 PUSH1 0x20 MUL PUSH1 0x20 ADD DUP3 ADD PUSH1 0x40 MSTORE DUP1 ISZERO PUSH2 0x66D JUMPI DUP2 PUSH1 0x20 ADD PUSH1 0x20 DUP3 MUL DUP1 CALLDATASIZE DUP4 CALLDATACOPY DUP1 DUP3 ADD SWAP2 POP POP SWAP1 POP JUMPDEST POP SWAP1 POP PUSH0 JUMPDEST DUP5 MLOAD DUP2 LT ISZERO PUSH2 0x6D6 JUMPI DUP5 DUP2 DUP2 MLOAD DUP2 LT PUSH2 0x68E JUMPI PUSH2 0x68D PUSH2 0xA54 JUMP JUMPDEST JUMPDEST PUSH1 0x20 MUL PUSH1 0x20 ADD ADD MLOAD DUP3 PUSH1 0x1 DUP4 PUSH2 0x6A4 SWAP2 SWAP1 PUSH2 0xC45 JUMP JUMPDEST DUP2 MLOAD DUP2 LT PUSH2 0x6B5 JUMPI PUSH2 0x6B4 PUSH2 0xA54 JUMP JUMPDEST JUMPDEST PUSH1 0x20 MUL PUSH1 0x20 ADD ADD SWAP1 PUSH1 0x7 SIGNEXTEND SWAP1 DUP2 PUSH1 0x7 SIGNEXTEND DUP2 MSTORE POP POP DUP1 DUP1 PUSH1 0x1 ADD SWAP2 POP POP PUSH2 0x672 JUMP JUMPDEST POP DUP3 DUP2 PUSH0 DUP2 MLOAD DUP2 LT PUSH2 0x6EB JUMPI PUSH2 0x6EA PUSH2 0xA54 JUMP JUMPDEST JUMPDEST PUSH1 0x20 MUL PUSH1 0x20 ADD ADD SWAP1 PUSH1 0x7 SIGNEXTEND SWAP1 DUP2 PUSH1 0x7 SIGNEXTEND DUP2 MSTORE POP POP DUP1 SWAP2 POP POP SWAP3 SWAP2 POP POP JUMP JUMPDEST PUSH0 DUP2 MLOAD DUP4 MLOAD EQ PUSH2 0x71C JUMPI PUSH2 0x71B PUSH2 0xCA5 JUMP JUMPDEST JUMPDEST PUSH0 DUP1 JUMPDEST DUP5 MLOAD DUP2 PUSH1 0xFF AND LT ISZERO PUSH2 0x78F JUMPI PUSH2 0x76F DUP6 DUP3 PUSH1 0xFF AND DUP2 MLOAD DUP2 LT PUSH2 0x744 JUMPI PUSH2 0x743 PUSH2 0xA54 JUMP JUMPDEST JUMPDEST PUSH1 0x20 MUL PUSH1 0x20 ADD ADD MLOAD DUP6 DUP4 PUSH1 0xFF AND DUP2 MLOAD DUP2 LT PUSH2 0x762 JUMPI PUSH2 0x761 PUSH2 0xA54 JUMP JUMPDEST JUMPDEST PUSH1 0x20 MUL PUSH1 0x20 ADD ADD MLOAD PUSH2 0x79A JUMP JUMPDEST DUP3 PUSH2 0x77A SWAP2 SWAP1 PUSH2 0xCD2 JUMP JUMPDEST SWAP2 POP DUP1 DUP1 PUSH2 0x787 SWAP1 PUSH2 0xB0E JUMP JUMPDEST SWAP2 POP POP PUSH2 0x71F JUMP JUMPDEST POP DUP1 SWAP2 POP POP SWAP3 SWAP2 POP POP JUMP JUMPDEST PUSH0 PUSH3 0xF4240 DUP3 DUP5 PUSH2 0x7AB SWAP2 SWAP1 PUSH2 0xD31 JUMP JUMPDEST PUSH2 0x7B5 SWAP2 SWAP1 PUSH2 0xD9A JUMP JUMPDEST SWAP1 POP SWAP3 SWAP2 POP POP JUMP JUMPDEST DUP3 DUP1 SLOAD DUP3 DUP3 SSTORE SWAP1 PUSH0 MSTORE PUSH1 0x20 PUSH0 KECCAK256 SWAP1 PUSH1 0x3 ADD PUSH1 0x4 SWAP1 DIV DUP2 ADD SWAP3 DUP3 ISZERO PUSH2 0x868 JUMPI SWAP2 PUSH1 0x20 MUL DUP3 ADD PUSH0 JUMPDEST DUP4 DUP3 GT ISZERO PUSH2 0x832 JUMPI DUP4 MLOAD DUP4 DUP3 PUSH2 0x100 EXP DUP2 SLOAD DUP2 PUSH8 0xFFFFFFFFFFFFFFFF MUL NOT AND SWAP1 DUP4 PUSH1 0x7 SIGNEXTEND PUSH8 0xFFFFFFFFFFFFFFFF AND MUL OR SWAP1 SSTORE POP SWAP3 PUSH1 0x20 ADD SWAP3 PUSH1 0x8 ADD PUSH1 0x20 DUP2 PUSH1 0x7 ADD DIV SWAP3 DUP4 ADD SWAP3 PUSH1 0x1 SUB MUL PUSH2 0x7E3 JUMP JUMPDEST DUP1 ISZERO PUSH2 0x866 JUMPI DUP3 DUP2 PUSH2 0x100 EXP DUP2 SLOAD SWAP1 PUSH8 0xFFFFFFFFFFFFFFFF MUL NOT AND SWAP1 SSTORE PUSH1 0x8 ADD PUSH1 0x20 DUP2 PUSH1 0x7 ADD DIV SWAP3 DUP4 ADD SWAP3 PUSH1 0x1 SUB MUL PUSH2 0x832 JUMP JUMPDEST POP JUMPDEST POP SWAP1 POP PUSH2 0x875 SWAP2 SWAP1 PUSH2 0x879 JUMP JUMPDEST POP SWAP1 JUMP JUMPDEST JUMPDEST DUP1 DUP3 GT ISZERO PUSH2 0x890 JUMPI PUSH0 DUP2 PUSH0 SWAP1 SSTORE POP PUSH1 0x1 ADD PUSH2 0x87A JUMP JUMPDEST POP SWAP1 JUMP JUMPDEST PUSH0 DUP1 REVERT JUMPDEST PUSH0 PUSH1 0xFF DUP3 AND SWAP1 POP SWAP2 SWAP1 POP JUMP JUMPDEST PUSH2 0x8AD DUP2 PUSH2 0x898 JUMP JUMPDEST DUP2 EQ PUSH2 0x8B7 JUMPI PUSH0 DUP1 REVERT JUMPDEST POP JUMP JUMPDEST PUSH0 DUP2 CALLDATALOAD SWAP1 POP PUSH2 0x8C8 DUP2 PUSH2 0x8A4 JUMP JUMPDEST SWAP3 SWAP2 POP POP JUMP JUMPDEST PUSH0 PUSH20 0xFFFFFFFFFFFFFFFFFFFFFFFFFFFFFFFFFFFFFFFF DUP3 AND SWAP1 POP SWAP2 SWAP1 POP JUMP JUMPDEST PUSH0 PUSH2 0x8F7 DUP3 PUSH2 0x8CE JUMP JUMPDEST SWAP1 POP SWAP2 SWAP1 POP JUMP JUMPDEST PUSH2 0x907 DUP2 PUSH2 0x8ED JUMP JUMPDEST DUP2 EQ PUSH2 0x911 JUMPI PUSH0 DUP1 REVERT JUMPDEST POP JUMP JUMPDEST PUSH0 DUP2 CALLDATALOAD SWAP1 POP PUSH2 0x922 DUP2 PUSH2 0x8FE JUMP JUMPDEST SWAP3 SWAP2 POP POP JUMP JUMPDEST PUSH0 DUP1 PUSH1 0x40 DUP4 DUP6 SUB SLT ISZERO PUSH2 0x93E JUMPI PUSH2 0x93D PUSH2 0x894 JUMP JUMPDEST JUMPDEST PUSH0 PUSH2 0x94B DUP6 DUP3 DUP7 ADD PUSH2 0x8BA JUMP JUMPDEST SWAP3 POP POP PUSH1 0x20 PUSH2 0x95C DUP6 DUP3 DUP7 ADD PUSH2 0x914 JUMP JUMPDEST SWAP2 POP POP SWAP3 POP SWAP3 SWAP1 POP JUMP JUMPDEST PUSH0 DUP2 PUSH1 0x7 SIGNEXTEND SWAP1 POP SWAP2 SWAP1 POP JUMP JUMPDEST PUSH0 DUP2 SWAP1 POP SWAP2 SWAP1 POP JUMP JUMPDEST PUSH0 PUSH2 0x995 PUSH2 0x990 PUSH2 0x98B DUP5 PUSH2 0x966 JUMP JUMPDEST PUSH2 0x972 JUMP JUMPDEST PUSH2 0x966 JUMP JUMPDEST SWAP1 POP SWAP2 SWAP1 POP JUMP JUMPDEST PUSH2 0x9A5 DUP2 PUSH2 0x97B JUMP JUMPDEST DUP3 MSTORE POP POP JUMP JUMPDEST PUSH0 PUSH1 0x20 DUP3 ADD SWAP1 POP PUSH2 0x9BE PUSH0 DUP4 ADD DUP5 PUSH2 0x99C JUMP JUMPDEST SWAP3 SWAP2 POP POP JUMP JUMPDEST PUSH0 DUP2 MLOAD SWAP1 POP SWAP2 SWAP1 POP JUMP JUMPDEST PUSH0 DUP3 DUP3 MSTORE PUSH1 0x20 DUP3 ADD SWAP1 POP SWAP3 SWAP2 POP POP JUMP JUMPDEST DUP3 DUP2 DUP4 MCOPY PUSH0 DUP4 DUP4 ADD MSTORE POP POP POP JUMP JUMPDEST PUSH0 PUSH1 0x1F NOT PUSH1 0x1F DUP4 ADD AND SWAP1 POP SWAP2 SWAP1 POP JUMP JUMPDEST PUSH0 PUSH2 0xA06 DUP3 PUSH2 0x9C4 JUMP JUMPDEST PUSH2 0xA10 DUP2 DUP6 PUSH2 0x9CE JUMP JUMPDEST SWAP4 POP PUSH2 0xA20 DUP2 DUP6 PUSH1 0x20 DUP7 ADD PUSH2 0x9DE JUMP JUMPDEST PUSH2 0xA29 DUP2 PUSH2 0x9EC JUMP JUMPDEST DUP5 ADD SWAP2 POP POP SWAP3 SWAP2 POP POP JUMP JUMPDEST PUSH0 PUSH1 0x20 DUP3 ADD SWAP1 POP DUP2 DUP2 SUB PUSH0 DUP4 ADD MSTORE PUSH2 0xA4C DUP2 DUP5 PUSH2 0x9FC JUMP JUMPDEST SWAP1 POP SWAP3 SWAP2 POP POP JUMP JUMPDEST PUSH32 0x4E487B7100000000000000000000000000000000000000000000000000000000 PUSH0 MSTORE PUSH1 0x32 PUSH1 0x4 MSTORE PUSH1 0x24 PUSH0 REVERT JUMPDEST PUSH32 0x4E487B7100000000000000000000000000000000000000000000000000000000 PUSH0 MSTORE PUSH1 0x31 PUSH1 0x4 MSTORE PUSH1 0x24 PUSH0 REVERT JUMPDEST PUSH0 DUP2 ISZERO ISZERO SWAP1 POP SWAP2 SWAP1 POP JUMP JUMPDEST PUSH2 0xAC2 DUP2 PUSH2 0xAAE JUMP JUMPDEST DUP3 MSTORE POP POP JUMP JUMPDEST PUSH0 PUSH1 0x20 DUP3 ADD SWAP1 POP PUSH2 0xADB PUSH0 DUP4 ADD DUP5 PUSH2 0xAB9 JUMP JUMPDEST SWAP3 SWAP2 POP POP JUMP JUMPDEST PUSH32 0x4E487B7100000000000000000000000000000000000000000000000000000000 PUSH0 MSTORE PUSH1 0x11 PUSH1 0x4 MSTORE PUSH1 0x24 PUSH0 REVERT JUMPDEST PUSH0 PUSH2 0xB18 DUP3 PUSH2 0x898 JUMP JUMPDEST SWAP2 POP PUSH1 0xFF DUP3 SUB PUSH2 0xB2B JUMPI PUSH2 0xB2A PUSH2 0xAE1 JUMP JUMPDEST JUMPDEST PUSH1 0x1 DUP3 ADD SWAP1 POP SWAP2 SWAP1 POP JUMP JUMPDEST PUSH0 DUP2 SWAP1 POP SWAP3 SWAP2 POP POP JUMP JUMPDEST POP JUMP JUMPDEST PUSH0 PUSH2 0xB4E PUSH0 DUP4 PUSH2 0xB36 JUMP JUMPDEST SWAP2 POP PUSH2 0xB59 DUP3 PUSH2 0xB40 JUMP JUMPDEST PUSH0 DUP3 ADD SWAP1 POP SWAP2 SWAP1 POP JUMP JUMPDEST PUSH0 PUSH2 0xB6D DUP3 PUSH2 0xB43 JUMP JUMPDEST SWAP2 POP DUP2 SWAP1 POP SWAP2 SWAP1 POP JUMP JUMPDEST PUSH32 0x4661696C656420746F2073656E64204574686572000000000000000000000000 PUSH0 DUP3 ADD MSTORE POP JUMP JUMPDEST PUSH0 PUSH2 0xBAB PUSH1 0x14 DUP4 PUSH2 0x9CE JUMP JUMPDEST SWAP2 POP PUSH2 0xBB6 DUP3 PUSH2 0xB77 JUMP JUMPDEST PUSH1 0x20 DUP3 ADD SWAP1 POP SWAP2 SWAP1 POP JUMP JUMPDEST PUSH0 PUSH1 0x20 DUP3 ADD SWAP1 POP DUP2 DUP2 SUB PUSH0 DUP4 ADD MSTORE PUSH2 0xBD8 DUP2 PUSH2 0xB9F JUMP JUMPDEST SWAP1 POP SWAP2 SWAP1 POP JUMP JUMPDEST PUSH32 0x4E487B7100000000000000000000000000000000000000000000000000000000 PUSH0 MSTORE PUSH1 0x22 PUSH1 0x4 MSTORE PUSH1 0x24 PUSH0 REVERT JUMPDEST PUSH0 PUSH1 0x2 DUP3 DIV SWAP1 POP PUSH1 0x1 DUP3 AND DUP1 PUSH2 0xC23 JUMPI PUSH1 0x7F DUP3 AND SWAP2 POP JUMPDEST PUSH1 0x20 DUP3 LT DUP2 SUB PUSH2 0xC36 JUMPI PUSH2 0xC35 PUSH2 0xBDF JUMP JUMPDEST JUMPDEST POP SWAP2 SWAP1 POP JUMP JUMPDEST PUSH0 DUP2 SWAP1 POP SWAP2 SWAP1 POP JUMP JUMPDEST PUSH0 PUSH2 0xC4F DUP3 PUSH2 0xC3C JUMP JUMPDEST SWAP2 POP PUSH2 0xC5A DUP4 PUSH2 0xC3C JUMP JUMPDEST SWAP3 POP DUP3 DUP3 ADD SWAP1 POP DUP1 DUP3 GT ISZERO PUSH2 0xC72 JUMPI PUSH2 0xC71 PUSH2 0xAE1 JUMP JUMPDEST JUMPDEST SWAP3 SWAP2 POP POP JUMP JUMPDEST PUSH32 0x4E487B7100000000000000000000000000000000000000000000000000000000 PUSH0 MSTORE PUSH1 0x41 PUSH1 0x4 MSTORE PUSH1 0x24 PUSH0 REVERT JUMPDEST PUSH32 0x4E487B7100000000000000000000000000000000000000000000000000000000 PUSH0 MSTORE PUSH1 0x1 PUSH1 0x4 MSTORE PUSH1 0x24 PUSH0 REVERT JUMPDEST PUSH0 PUSH2 0xCDC DUP3 PUSH2 0x966 JUMP JUMPDEST SWAP2 POP PUSH2 0xCE7 DUP4 PUSH2 0x966 JUMP JUMPDEST SWAP3 POP DUP3 DUP3 ADD SWAP1 POP PUSH32 0xFFFFFFFFFFFFFFFFFFFFFFFFFFFFFFFFFFFFFFFFFFFFFFFF8000000000000000 DUP2 SLT PUSH8 0x7FFFFFFFFFFFFFFF DUP3 SGT OR ISZERO PUSH2 0xD2B JUMPI PUSH2 0xD2A PUSH2 0xAE1 JUMP JUMPDEST JUMPDEST SWAP3 SWAP2 POP POP JUMP JUMPDEST PUSH0 PUSH2 0xD3B DUP3 PUSH2 0x966 JUMP JUMPDEST SWAP2 POP PUSH2 0xD46 DUP4 PUSH2 0x966 JUMP JUMPDEST SWAP3 POP DUP3 DUP3 MUL PUSH2 0xD54 DUP2 PUSH2 0x966 JUMP JUMPDEST SWAP2 POP DUP1 DUP3 EQ PUSH2 0xD66 JUMPI PUSH2 0xD65 PUSH2 0xAE1 JUMP JUMPDEST JUMPDEST POP SWAP3 SWAP2 POP POP JUMP JUMPDEST PUSH32 0x4E487B7100000000000000000000000000000000000000000000000000000000 PUSH0 MSTORE PUSH1 0x12 PUSH1 0x4 MSTORE PUSH1 0x24 PUSH0 REVERT JUMPDEST PUSH0 PUSH2 0xDA4 DUP3 PUSH2 0x966 JUMP JUMPDEST SWAP2 POP PUSH2 0xDAF DUP4 PUSH2 0x966 JUMP JUMPDEST SWAP3 POP DUP3 PUSH2 0xDBF JUMPI PUSH2 0xDBE PUSH2 0xD6D JUMP JUMPDEST JUMPDEST PUSH1 0x1 PUSH0 SUB DUP4 EQ PUSH32 0xFFFFFFFFFFFFFFFFFFFFFFFFFFFFFFFFFFFFFFFFFFFFFFFF8000000000000000 DUP4 EQ AND ISZERO PUSH2 0xDF7 JUMPI PUSH2 0xDF6 PUSH2 0xAE1 JUMP JUMPDEST JUMPDEST DUP3 DUP3 SDIV SWAP1 POP SWAP3 SWAP2 POP POP JUMP INVALID LOG2 PUSH5 0x6970667358 0x22 SLT KECCAK256 TSTORE 0x1F 0xD4 MSIZE SWAP9 0xDA 0xEC DUP7 SWAP15 MCOPY 0xDA 0xC6 0xE2 ORIGIN SHR 0xEA 0xBD DUP8 0xE3 PUSH32 0x7DD0841D7278280CA92B2C3B64736F6C634300081A0033000000000000000000 "
				},
				"gasEstimates": {
					"creation": {
						"codeDepositCost": "728000",
						"executionCost": "infinite",
						"totalCost": "infinite"
					},
					"external": {
						"answer(uint8,address)": "infinite",
						"calculate_grade()": "infinite",
						"get_current_question()": "infinite"
					},
					"internal": {
						"dot_product(TutorContract.fxp[] memory,TutorContract.fxp[] memory)": "infinite",
						"fxp_mul(TutorContract.fxp,TutorContract.fxp)": "infinite",
						"push_front(TutorContract.fxp[] memory,TutorContract.fxp)": "infinite"
					}
				},
				"methodIdentifiers": {
					"answer(uint8,address)": "2525146b",
					"calculate_grade()": "42fba3fb",
					"get_current_question()": "734ba396"
				}
			},
			"storageLayout": {
				"storage": [
					{
						"astId": 6,
						"contract": "tutor.sol:TutorContract",
						"label": "questions",
						"offset": 0,
						"slot": "0",
						"type": "t_array(t_string_storage)dyn_storage"
					},
					{
						"astId": 9,
						"contract": "tutor.sol:TutorContract",
						"label": "answers",
						"offset": 0,
						"slot": "1",
						"type": "t_array(t_uint8)dyn_storage"
					},
					{
						"astId": 13,
						"contract": "tutor.sol:TutorContract",
						"label": "weights",
						"offset": 0,
						"slot": "2",
						"type": "t_array(t_userDefinedValueType(fxp)3)dyn_storage"
					},
					{
						"astId": 17,
						"contract": "tutor.sol:TutorContract",
						"label": "points",
						"offset": 0,
						"slot": "3",
						"type": "t_array(t_userDefinedValueType(fxp)3)dyn_storage"
					},
					{
						"astId": 19,
						"contract": "tutor.sol:TutorContract",
						"label": "progress",
						"offset": 0,
						"slot": "4",
						"type": "t_uint8"
					},
					{
						"astId": 22,
						"contract": "tutor.sol:TutorContract",
						"label": "grade",
						"offset": 1,
						"slot": "4",
						"type": "t_userDefinedValueType(fxp)3"
					}
				],
				"types": {
					"t_array(t_string_storage)dyn_storage": {
						"base": "t_string_storage",
						"encoding": "dynamic_array",
						"label": "string[]",
						"numberOfBytes": "32"
					},
					"t_array(t_uint8)dyn_storage": {
						"base": "t_uint8",
						"encoding": "dynamic_array",
						"label": "uint8[]",
						"numberOfBytes": "32"
					},
					"t_array(t_userDefinedValueType(fxp)3)dyn_storage": {
						"base": "t_userDefinedValueType(fxp)3",
						"encoding": "dynamic_array",
						"label": "TutorContract.fxp[]",
						"numberOfBytes": "32"
					},
					"t_string_storage": {
						"encoding": "bytes",
						"label": "string",
						"numberOfBytes": "32"
					},
					"t_uint8": {
						"encoding": "inplace",
						"label": "uint8",
						"numberOfBytes": "1"
					},
					"t_userDefinedValueType(fxp)3": {
						"encoding": "inplace",
						"label": "TutorContract.fxp",
						"numberOfBytes": "8"
					}
				}
			},
			"userdoc": {
				"kind": "user",
				"methods": {},
				"version": 1
			}
		}
	}
}