{
	"tutor.sol": {
		"TutorContract": {
			"abi": [
				{
					"inputs": [
						{
							"internalType": "address",
							"name": "OracleAddress",
							"type": "address"
						}
					],
					"stateMutability": "payable",
					"type": "constructor"
				},
				{
					"anonymous": false,
					"inputs": [
						{
							"indexed": false,
							"internalType": "bool",
							"name": "correct",
							"type": "bool"
						}
					],
					"name": "Answered",
					"type": "event"
				},
				{
					"inputs": [
						{
							"internalType": "uint8",
							"name": "a",
							"type": "uint8"
						},
						{
							"internalType": "address payable",
							"name": "to",
							"type": "address"
						}
					],
					"name": "answer",
					"outputs": [],
					"stateMutability": "payable",
					"type": "function"
				},
				{
					"inputs": [],
					"name": "calculate_grade",
					"outputs": [
						{
							"internalType": "TutorContract.fxp",
							"name": "",
							"type": "int64"
						}
					],
					"stateMutability": "view",
					"type": "function"
				},
				{
					"inputs": [],
					"name": "get_current_question",
					"outputs": [
						{
							"internalType": "string",
							"name": "",
							"type": "string"
						}
					],
					"stateMutability": "view",
					"type": "function"
				},
				{
					"inputs": [],
					"name": "get_progress",
					"outputs": [
						{
							"internalType": "uint8",
							"name": "",
							"type": "uint8"
						}
					],
					"stateMutability": "view",
					"type": "function"
				}
			],
			"devdoc": {
				"kind": "dev",
				"methods": {},
				"version": 1
			},
			"evm": {
				"assembly": "    /* \"tutor.sol\":356:2721  contract TutorContract {... */\n  mstore(0x40, 0x80)\n    /* \"tutor.sol\":598:1096  constructor(address OracleAddress) payable {... */\n  mload(0x40)\n  sub(codesize, bytecodeSize)\n  dup1\n  bytecodeSize\n  dup4\n  codecopy\n  dup2\n  dup2\n  add\n  0x40\n  mstore\n  dup2\n  add\n  swap1\n  tag_1\n  swap2\n  swap1\n  tag_2\n  jump\t// in\ntag_1:\n    /* \"tutor.sol\":670:683  OracleAddress */\n  dup1\n    /* \"tutor.sol\":649:660  TutorOracle */\n  0x00\n  dup1\n    /* \"tutor.sol\":649:684  TutorOracle = Oracle(OracleAddress) */\n  0x0100\n  exp\n  dup2\n  sload\n  dup2\n  0xffffffffffffffffffffffffffffffffffffffff\n  mul\n  not\n  and\n  swap1\n  dup4\n  0xffffffffffffffffffffffffffffffffffffffff\n  and\n  mul\n  or\n  swap1\n  sstore\n  pop\n    /* \"tutor.sol\":692:756  questions = [TutorOracle.questions(0), TutorOracle.questions(1)] */\n  mload(0x40)\n  dup1\n  0x40\n  add\n  0x40\n  mstore\n  dup1\n    /* \"tutor.sol\":705:716  TutorOracle */\n  0x00\n  dup1\n  sload\n  swap1\n  0x0100\n  exp\n  swap1\n  div\n  0xffffffffffffffffffffffffffffffffffffffff\n  and\n    /* \"tutor.sol\":705:726  TutorOracle.questions */\n  0xffffffffffffffffffffffffffffffffffffffff\n  and\n  0x31b1b978\n    /* \"tutor.sol\":727:728  0 */\n  0x00\n    /* \"tutor.sol\":705:729  TutorOracle.questions(0) */\n  mload(0x40)\n  dup3\n  0xffffffff\n  and\n  0xe0\n  shl\n  dup2\n  mstore\n  0x04\n  add\n  tag_5\n  swap2\n  swap1\n  tag_6\n  jump\t// in\ntag_5:\n  0x00\n  mload(0x40)\n  dup1\n  dup4\n  sub\n  dup2\n  dup7\n  gas\n  staticcall\n  iszero\n  dup1\n  iszero\n  tag_8\n  jumpi\n  returndatasize\n  0x00\n  dup1\n  returndatacopy\n  revert(0x00, returndatasize)\ntag_8:\n  pop\n  pop\n  pop\n  pop\n  mload(0x40)\n  returndatasize\n  0x00\n  dup3\n  returndatacopy\n  returndatasize\n  not(0x1f)\n  0x1f\n  dup3\n  add\n  and\n  dup3\n  add\n  dup1\n  0x40\n  mstore\n  pop\n  dup2\n  add\n  swap1\n  tag_9\n  swap2\n  swap1\n  tag_10\n  jump\t// in\ntag_9:\n    /* \"tutor.sol\":692:756  questions = [TutorOracle.questions(0), TutorOracle.questions(1)] */\n  dup2\n  mstore\n  0x20\n  add\n    /* \"tutor.sol\":731:742  TutorOracle */\n  0x00\n  dup1\n  sload\n  swap1\n  0x0100\n  exp\n  swap1\n  div\n  0xffffffffffffffffffffffffffffffffffffffff\n  and\n    /* \"tutor.sol\":731:752  TutorOracle.questions */\n  0xffffffffffffffffffffffffffffffffffffffff\n  and\n  0x31b1b978\n    /* \"tutor.sol\":753:754  1 */\n  0x01\n    /* \"tutor.sol\":731:755  TutorOracle.questions(1) */\n  mload(0x40)\n  dup3\n  0xffffffff\n  and\n  0xe0\n  shl\n  dup2\n  mstore\n  0x04\n  add\n  tag_11\n  swap2\n  swap1\n  tag_12\n  jump\t// in\ntag_11:\n  0x00\n  mload(0x40)\n  dup1\n  dup4\n  sub\n  dup2\n  dup7\n  gas\n  staticcall\n  iszero\n  dup1\n  iszero\n  tag_14\n  jumpi\n  returndatasize\n  0x00\n  dup1\n  returndatacopy\n  revert(0x00, returndatasize)\ntag_14:\n  pop\n  pop\n  pop\n  pop\n  mload(0x40)\n  returndatasize\n  0x00\n  dup3\n  returndatacopy\n  returndatasize\n  not(0x1f)\n  0x1f\n  dup3\n  add\n  and\n  dup3\n  add\n  dup1\n  0x40\n  mstore\n  pop\n  dup2\n  add\n  swap1\n  tag_15\n  swap2\n  swap1\n  tag_10\n  jump\t// in\ntag_15:\n    /* \"tutor.sol\":692:756  questions = [TutorOracle.questions(0), TutorOracle.questions(1)] */\n  dup2\n  mstore\n  pop\n    /* \"tutor.sol\":692:701  questions */\n  0x01\n    /* \"tutor.sol\":692:756  questions = [TutorOracle.questions(0), TutorOracle.questions(1)] */\n  swap1\n  0x02\n  tag_16\n  swap3\n  swap2\n  swap1\n  tag_17\n  jump\t// in\ntag_16:\n  pop\n    /* \"tutor.sol\":764:822  answers = [TutorOracle.answers(0), TutorOracle.answers(1)] */\n  mload(0x40)\n  dup1\n  0x40\n  add\n  0x40\n  mstore\n  dup1\n    /* \"tutor.sol\":775:786  TutorOracle */\n  0x00\n  dup1\n  sload\n  swap1\n  0x0100\n  exp\n  swap1\n  div\n  0xffffffffffffffffffffffffffffffffffffffff\n  and\n    /* \"tutor.sol\":775:794  TutorOracle.answers */\n  0xffffffffffffffffffffffffffffffffffffffff\n  and\n  0x17599cc5\n    /* \"tutor.sol\":795:796  0 */\n  0x00\n    /* \"tutor.sol\":775:797  TutorOracle.answers(0) */\n  mload(0x40)\n  dup3\n  0xffffffff\n  and\n  0xe0\n  shl\n  dup2\n  mstore\n  0x04\n  add\n  tag_18\n  swap2\n  swap1\n  tag_6\n  jump\t// in\ntag_18:\n  0x20\n  mload(0x40)\n  dup1\n  dup4\n  sub\n  dup2\n  dup7\n  gas\n  staticcall\n  iszero\n  dup1\n  iszero\n  tag_20\n  jumpi\n  returndatasize\n  0x00\n  dup1\n  returndatacopy\n  revert(0x00, returndatasize)\ntag_20:\n  pop\n  pop\n  pop\n  pop\n  mload(0x40)\n  returndatasize\n  not(0x1f)\n  0x1f\n  dup3\n  add\n  and\n  dup3\n  add\n  dup1\n  0x40\n  mstore\n  pop\n  dup2\n  add\n  swap1\n  tag_21\n  swap2\n  swap1\n  tag_22\n  jump\t// in\ntag_21:\n    /* \"tutor.sol\":764:822  answers = [TutorOracle.answers(0), TutorOracle.answers(1)] */\n  0xff\n  and\n  0xff\n  and\n  dup2\n  mstore\n  0x20\n  add\n    /* \"tutor.sol\":799:810  TutorOracle */\n  0x00\n  dup1\n  sload\n  swap1\n  0x0100\n  exp\n  swap1\n  div\n  0xffffffffffffffffffffffffffffffffffffffff\n  and\n    /* \"tutor.sol\":799:818  TutorOracle.answers */\n  0xffffffffffffffffffffffffffffffffffffffff\n  and\n  0x17599cc5\n    /* \"tutor.sol\":819:820  1 */\n  0x01\n    /* \"tutor.sol\":799:821  TutorOracle.answers(1) */\n  mload(0x40)\n  dup3\n  0xffffffff\n  and\n  0xe0\n  shl\n  dup2\n  mstore\n  0x04\n  add\n  tag_23\n  swap2\n  swap1\n  tag_12\n  jump\t// in\ntag_23:\n  0x20\n  mload(0x40)\n  dup1\n  dup4\n  sub\n  dup2\n  dup7\n  gas\n  staticcall\n  iszero\n  dup1\n  iszero\n  tag_25\n  jumpi\n  returndatasize\n  0x00\n  dup1\n  returndatacopy\n  revert(0x00, returndatasize)\ntag_25:\n  pop\n  pop\n  pop\n  pop\n  mload(0x40)\n  returndatasize\n  not(0x1f)\n  0x1f\n  dup3\n  add\n  and\n  dup3\n  add\n  dup1\n  0x40\n  mstore\n  pop\n  dup2\n  add\n  swap1\n  tag_26\n  swap2\n  swap1\n  tag_22\n  jump\t// in\ntag_26:\n    /* \"tutor.sol\":764:822  answers = [TutorOracle.answers(0), TutorOracle.answers(1)] */\n  0xff\n  and\n  0xff\n  and\n  dup2\n  mstore\n  pop\n    /* \"tutor.sol\":764:771  answers */\n  0x02\n    /* \"tutor.sol\":764:822  answers = [TutorOracle.answers(0), TutorOracle.answers(1)] */\n  swap1\n  0x02\n  tag_27\n  swap3\n  swap2\n  swap1\n  tag_28\n  jump\t// in\ntag_27:\n  pop\n    /* \"tutor.sol\":830:932  weights = [fxp.wrap(2000000), fxp.wrap(1500000), fxp.wrap(900000), fxp.wrap(400000), fxp.wrap(200000)] */\n  mload(0x40)\n  dup1\n  0xa0\n  add\n  0x40\n  mstore\n  dup1\n    /* \"tutor.sol\":850:857  2000000 */\n  0x1e8480\n    /* \"tutor.sol\":830:932  weights = [fxp.wrap(2000000), fxp.wrap(1500000), fxp.wrap(900000), fxp.wrap(400000), fxp.wrap(200000)] */\n  0x07\n  signextend\n  0x07\n  signextend\n  dup2\n  mstore\n  0x20\n  add\n    /* \"tutor.sol\":869:876  1500000 */\n  0x16e360\n    /* \"tutor.sol\":830:932  weights = [fxp.wrap(2000000), fxp.wrap(1500000), fxp.wrap(900000), fxp.wrap(400000), fxp.wrap(200000)] */\n  0x07\n  signextend\n  0x07\n  signextend\n  dup2\n  mstore\n  0x20\n  add\n    /* \"tutor.sol\":888:894  900000 */\n  0x0dbba0\n    /* \"tutor.sol\":830:932  weights = [fxp.wrap(2000000), fxp.wrap(1500000), fxp.wrap(900000), fxp.wrap(400000), fxp.wrap(200000)] */\n  0x07\n  signextend\n  0x07\n  signextend\n  dup2\n  mstore\n  0x20\n  add\n    /* \"tutor.sol\":906:912  400000 */\n  0x061a80\n    /* \"tutor.sol\":830:932  weights = [fxp.wrap(2000000), fxp.wrap(1500000), fxp.wrap(900000), fxp.wrap(400000), fxp.wrap(200000)] */\n  0x07\n  signextend\n  0x07\n  signextend\n  dup2\n  mstore\n  0x20\n  add\n    /* \"tutor.sol\":924:930  200000 */\n  0x030d40\n    /* \"tutor.sol\":830:932  weights = [fxp.wrap(2000000), fxp.wrap(1500000), fxp.wrap(900000), fxp.wrap(400000), fxp.wrap(200000)] */\n  0x07\n  signextend\n  0x07\n  signextend\n  dup2\n  mstore\n  pop\n    /* \"tutor.sol\":830:837  weights */\n  0x03\n    /* \"tutor.sol\":830:932  weights = [fxp.wrap(2000000), fxp.wrap(1500000), fxp.wrap(900000), fxp.wrap(400000), fxp.wrap(200000)] */\n  swap1\n  0x05\n  tag_29\n  swap3\n  swap2\n  swap1\n  tag_30\n  jump\t// in\ntag_29:\n  pop\n    /* \"tutor.sol\":940:1044  points = [fxp.wrap(1000000), fxp.wrap(1000000), fxp.wrap(1000000), fxp.wrap(1000000), fxp.wrap(1000000)] */\n  mload(0x40)\n  dup1\n  0xa0\n  add\n  0x40\n  mstore\n  dup1\n    /* \"tutor.sol\":959:966  1000000 */\n  0x0f4240\n    /* \"tutor.sol\":940:1044  points = [fxp.wrap(1000000), fxp.wrap(1000000), fxp.wrap(1000000), fxp.wrap(1000000), fxp.wrap(1000000)] */\n  0x07\n  signextend\n  0x07\n  signextend\n  dup2\n  mstore\n  0x20\n  add\n    /* \"tutor.sol\":978:985  1000000 */\n  0x0f4240\n    /* \"tutor.sol\":940:1044  points = [fxp.wrap(1000000), fxp.wrap(1000000), fxp.wrap(1000000), fxp.wrap(1000000), fxp.wrap(1000000)] */\n  0x07\n  signextend\n  0x07\n  signextend\n  dup2\n  mstore\n  0x20\n  add\n    /* \"tutor.sol\":997:1004  1000000 */\n  0x0f4240\n    /* \"tutor.sol\":940:1044  points = [fxp.wrap(1000000), fxp.wrap(1000000), fxp.wrap(1000000), fxp.wrap(1000000), fxp.wrap(1000000)] */\n  0x07\n  signextend\n  0x07\n  signextend\n  dup2\n  mstore\n  0x20\n  add\n    /* \"tutor.sol\":1016:1023  1000000 */\n  0x0f4240\n    /* \"tutor.sol\":940:1044  points = [fxp.wrap(1000000), fxp.wrap(1000000), fxp.wrap(1000000), fxp.wrap(1000000), fxp.wrap(1000000)] */\n  0x07\n  signextend\n  0x07\n  signextend\n  dup2\n  mstore\n  0x20\n  add\n    /* \"tutor.sol\":1035:1042  1000000 */\n  0x0f4240\n    /* \"tutor.sol\":940:1044  points = [fxp.wrap(1000000), fxp.wrap(1000000), fxp.wrap(1000000), fxp.wrap(1000000), fxp.wrap(1000000)] */\n  0x07\n  signextend\n  0x07\n  signextend\n  dup2\n  mstore\n  pop\n    /* \"tutor.sol\":940:946  points */\n  0x04\n    /* \"tutor.sol\":940:1044  points = [fxp.wrap(1000000), fxp.wrap(1000000), fxp.wrap(1000000), fxp.wrap(1000000), fxp.wrap(1000000)] */\n  swap1\n  0x05\n  tag_31\n  swap3\n  swap2\n  swap1\n  tag_30\n  jump\t// in\ntag_31:\n  pop\n    /* \"tutor.sol\":1063:1064  0 */\n  0x00\n    /* \"tutor.sol\":1052:1060  progress */\n  0x05\n  0x00\n    /* \"tutor.sol\":1052:1064  progress = 0 */\n  0x0100\n  exp\n  dup2\n  sload\n  dup2\n  0xff\n  mul\n  not\n  and\n  swap1\n  dup4\n  0xff\n  and\n  mul\n  or\n  swap1\n  sstore\n  pop\n    /* \"tutor.sol\":1089:1090  0 */\n  0x00\n    /* \"tutor.sol\":1072:1077  grade */\n  0x05\n  0x01\n    /* \"tutor.sol\":1072:1091  grade = fxp.wrap(0) */\n  0x0100\n  exp\n  dup2\n  sload\n  dup2\n  0xffffffffffffffff\n  mul\n  not\n  and\n  swap1\n  dup4\n  0x07\n  signextend\n  0xffffffffffffffff\n  and\n  mul\n  or\n  swap1\n  sstore\n  pop\n    /* \"tutor.sol\":598:1096  constructor(address OracleAddress) payable {... */\n  pop\n    /* \"tutor.sol\":356:2721  contract TutorContract {... */\n  jump(tag_32)\ntag_17:\n  dup3\n  dup1\n  sload\n  dup3\n  dup3\n  sstore\n  swap1\n  0x00\n  mstore\n  keccak256(0x00, 0x20)\n  swap1\n  dup2\n  add\n  swap3\n  dup3\n  iszero\n  tag_33\n  jumpi\n  swap2\n  0x20\n  mul\n  dup3\n  add\ntag_34:\n  dup3\n  dup2\n  gt\n  iszero\n  tag_35\n  jumpi\n  dup3\n  mload\n  dup3\n  swap1\n  dup2\n  tag_36\n  swap2\n  swap1\n  tag_37\n  jump\t// in\ntag_36:\n  pop\n  swap2\n  0x20\n  add\n  swap2\n  swap1\n  0x01\n  add\n  swap1\n  jump(tag_34)\ntag_35:\ntag_33:\n  pop\n  swap1\n  pop\n  tag_38\n  swap2\n  swap1\n  tag_39\n  jump\t// in\ntag_38:\n  pop\n  swap1\n  jump\t// out\ntag_28:\n  dup3\n  dup1\n  sload\n  dup3\n  dup3\n  sstore\n  swap1\n  0x00\n  mstore\n  keccak256(0x00, 0x20)\n  swap1\n  0x1f\n  add\n  0x20\n  swap1\n  div\n  dup2\n  add\n  swap3\n  dup3\n  iszero\n  tag_40\n  jumpi\n  swap2\n  0x20\n  mul\n  dup3\n  add\n  0x00\ntag_41:\n  dup4\n  dup3\n  gt\n  iszero\n  tag_42\n  jumpi\n  dup4\n  mload\n  dup4\n  dup3\n  0x0100\n  exp\n  dup2\n  sload\n  dup2\n  0xff\n  mul\n  not\n  and\n  swap1\n  dup4\n  0xff\n  and\n  mul\n  or\n  swap1\n  sstore\n  pop\n  swap3\n  0x20\n  add\n  swap3\n  0x01\n  add\n  0x20\n  dup2\n  0x00\n  add\n  div\n  swap3\n  dup4\n  add\n  swap3\n  0x01\n  sub\n  mul\n  jump(tag_41)\ntag_42:\n  dup1\n  iszero\n  tag_43\n  jumpi\n  dup3\n  dup2\n  0x0100\n  exp\n  dup2\n  sload\n  swap1\n  0xff\n  mul\n  not\n  and\n  swap1\n  sstore\n  0x01\n  add\n  0x20\n  dup2\n  0x00\n  add\n  div\n  swap3\n  dup4\n  add\n  swap3\n  0x01\n  sub\n  mul\n  jump(tag_42)\ntag_43:\n  pop\ntag_40:\n  pop\n  swap1\n  pop\n  tag_44\n  swap2\n  swap1\n  tag_45\n  jump\t// in\ntag_44:\n  pop\n  swap1\n  jump\t// out\ntag_30:\n  dup3\n  dup1\n  sload\n  dup3\n  dup3\n  sstore\n  swap1\n  0x00\n  mstore\n  keccak256(0x00, 0x20)\n  swap1\n  0x03\n  add\n  0x04\n  swap1\n  div\n  dup2\n  add\n  swap3\n  dup3\n  iszero\n  tag_46\n  jumpi\n  swap2\n  0x20\n  mul\n  dup3\n  add\n  0x00\ntag_47:\n  dup4\n  dup3\n  gt\n  iszero\n  tag_48\n  jumpi\n  dup4\n  mload\n  dup4\n  dup3\n  0x0100\n  exp\n  dup2\n  sload\n  dup2\n  0xffffffffffffffff\n  mul\n  not\n  and\n  swap1\n  dup4\n  0x07\n  signextend\n  0xffffffffffffffff\n  and\n  mul\n  or\n  swap1\n  sstore\n  pop\n  swap3\n  0x20\n  add\n  swap3\n  0x08\n  add\n  0x20\n  dup2\n  0x07\n  add\n  div\n  swap3\n  dup4\n  add\n  swap3\n  0x01\n  sub\n  mul\n  jump(tag_47)\ntag_48:\n  dup1\n  iszero\n  tag_49\n  jumpi\n  dup3\n  dup2\n  0x0100\n  exp\n  dup2\n  sload\n  swap1\n  0xffffffffffffffff\n  mul\n  not\n  and\n  swap1\n  sstore\n  0x08\n  add\n  0x20\n  dup2\n  0x07\n  add\n  div\n  swap3\n  dup4\n  add\n  swap3\n  0x01\n  sub\n  mul\n  jump(tag_48)\ntag_49:\n  pop\ntag_46:\n  pop\n  swap1\n  pop\n  tag_50\n  swap2\n  swap1\n  tag_45\n  jump\t// in\ntag_50:\n  pop\n  swap1\n  jump\t// out\ntag_39:\ntag_51:\n  dup1\n  dup3\n  gt\n  iszero\n  tag_52\n  jumpi\n  0x00\n  dup2\n  dup2\n  tag_53\n  swap2\n  swap1\n  tag_54\n  jump\t// in\ntag_53:\n  pop\n  0x01\n  add\n  jump(tag_51)\ntag_52:\n  pop\n  swap1\n  jump\t// out\ntag_45:\ntag_55:\n  dup1\n  dup3\n  gt\n  iszero\n  tag_56\n  jumpi\n  0x00\n  dup2\n  0x00\n  swap1\n  sstore\n  pop\n  0x01\n  add\n  jump(tag_55)\ntag_56:\n  pop\n  swap1\n  jump\t// out\ntag_54:\n  pop\n  dup1\n  sload\n  tag_57\n  swap1\n  tag_58\n  jump\t// in\ntag_57:\n  0x00\n  dup3\n  sstore\n  dup1\n  0x1f\n  lt\n  tag_60\n  jumpi\n  pop\n  jump(tag_59)\ntag_60:\n  0x1f\n  add\n  0x20\n  swap1\n  div\n  swap1\n  0x00\n  mstore\n  keccak256(0x00, 0x20)\n  swap1\n  dup2\n  add\n  swap1\n  tag_61\n  swap2\n  swap1\n  tag_45\n  jump\t// in\ntag_61:\ntag_59:\n  pop\n  jump\t// out\n    /* \"#utility.yul\":7:82   */\ntag_62:\n    /* \"#utility.yul\":40:46   */\n  0x00\n    /* \"#utility.yul\":73:75   */\n  0x40\n    /* \"#utility.yul\":67:76   */\n  mload\n    /* \"#utility.yul\":57:76   */\n  swap1\n  pop\n    /* \"#utility.yul\":7:82   */\n  swap1\n  jump\t// out\n    /* \"#utility.yul\":88:205   */\ntag_63:\n    /* \"#utility.yul\":197:198   */\n  0x00\n    /* \"#utility.yul\":194:195   */\n  dup1\n    /* \"#utility.yul\":187:199   */\n  revert\n    /* \"#utility.yul\":211:328   */\ntag_64:\n    /* \"#utility.yul\":320:321   */\n  0x00\n    /* \"#utility.yul\":317:318   */\n  dup1\n    /* \"#utility.yul\":310:322   */\n  revert\n    /* \"#utility.yul\":334:460   */\ntag_65:\n    /* \"#utility.yul\":371:378   */\n  0x00\n    /* \"#utility.yul\":411:453   */\n  0xffffffffffffffffffffffffffffffffffffffff\n    /* \"#utility.yul\":404:409   */\n  dup3\n    /* \"#utility.yul\":400:454   */\n  and\n    /* \"#utility.yul\":389:454   */\n  swap1\n  pop\n    /* \"#utility.yul\":334:460   */\n  swap2\n  swap1\n  pop\n  jump\t// out\n    /* \"#utility.yul\":466:562   */\ntag_66:\n    /* \"#utility.yul\":503:510   */\n  0x00\n    /* \"#utility.yul\":532:556   */\n  tag_112\n    /* \"#utility.yul\":550:555   */\n  dup3\n    /* \"#utility.yul\":532:556   */\n  tag_65\n  jump\t// in\ntag_112:\n    /* \"#utility.yul\":521:556   */\n  swap1\n  pop\n    /* \"#utility.yul\":466:562   */\n  swap2\n  swap1\n  pop\n  jump\t// out\n    /* \"#utility.yul\":568:690   */\ntag_67:\n    /* \"#utility.yul\":641:665   */\n  tag_114\n    /* \"#utility.yul\":659:664   */\n  dup2\n    /* \"#utility.yul\":641:665   */\n  tag_66\n  jump\t// in\ntag_114:\n    /* \"#utility.yul\":634:639   */\n  dup2\n    /* \"#utility.yul\":631:666   */\n  eq\n    /* \"#utility.yul\":621:684   */\n  tag_115\n  jumpi\n    /* \"#utility.yul\":680:681   */\n  0x00\n    /* \"#utility.yul\":677:678   */\n  dup1\n    /* \"#utility.yul\":670:682   */\n  revert\n    /* \"#utility.yul\":621:684   */\ntag_115:\n    /* \"#utility.yul\":568:690   */\n  pop\n  jump\t// out\n    /* \"#utility.yul\":696:839   */\ntag_68:\n    /* \"#utility.yul\":753:758   */\n  0x00\n    /* \"#utility.yul\":784:790   */\n  dup2\n    /* \"#utility.yul\":778:791   */\n  mload\n    /* \"#utility.yul\":769:791   */\n  swap1\n  pop\n    /* \"#utility.yul\":800:833   */\n  tag_117\n    /* \"#utility.yul\":827:832   */\n  dup2\n    /* \"#utility.yul\":800:833   */\n  tag_67\n  jump\t// in\ntag_117:\n    /* \"#utility.yul\":696:839   */\n  swap3\n  swap2\n  pop\n  pop\n  jump\t// out\n    /* \"#utility.yul\":845:1196   */\ntag_2:\n    /* \"#utility.yul\":915:921   */\n  0x00\n    /* \"#utility.yul\":964:966   */\n  0x20\n    /* \"#utility.yul\":952:961   */\n  dup3\n    /* \"#utility.yul\":943:950   */\n  dup5\n    /* \"#utility.yul\":939:962   */\n  sub\n    /* \"#utility.yul\":935:967   */\n  slt\n    /* \"#utility.yul\":932:1051   */\n  iszero\n  tag_119\n  jumpi\n    /* \"#utility.yul\":970:1049   */\n  tag_120\n  tag_63\n  jump\t// in\ntag_120:\n    /* \"#utility.yul\":932:1051   */\ntag_119:\n    /* \"#utility.yul\":1090:1091   */\n  0x00\n    /* \"#utility.yul\":1115:1179   */\n  tag_121\n    /* \"#utility.yul\":1171:1178   */\n  dup5\n    /* \"#utility.yul\":1162:1168   */\n  dup3\n    /* \"#utility.yul\":1151:1160   */\n  dup6\n    /* \"#utility.yul\":1147:1169   */\n  add\n    /* \"#utility.yul\":1115:1179   */\n  tag_68\n  jump\t// in\ntag_121:\n    /* \"#utility.yul\":1105:1179   */\n  swap2\n  pop\n    /* \"#utility.yul\":1061:1189   */\n  pop\n    /* \"#utility.yul\":845:1196   */\n  swap3\n  swap2\n  pop\n  pop\n  jump\t// out\n    /* \"#utility.yul\":1202:1287   */\ntag_69:\n    /* \"#utility.yul\":1247:1254   */\n  0x00\n    /* \"#utility.yul\":1276:1281   */\n  dup2\n    /* \"#utility.yul\":1265:1281   */\n  swap1\n  pop\n    /* \"#utility.yul\":1202:1287   */\n  swap2\n  swap1\n  pop\n  jump\t// out\n    /* \"#utility.yul\":1293:1370   */\ntag_70:\n    /* \"#utility.yul\":1330:1337   */\n  0x00\n    /* \"#utility.yul\":1359:1364   */\n  dup2\n    /* \"#utility.yul\":1348:1364   */\n  swap1\n  pop\n    /* \"#utility.yul\":1293:1370   */\n  swap2\n  swap1\n  pop\n  jump\t// out\n    /* \"#utility.yul\":1376:1436   */\ntag_71:\n    /* \"#utility.yul\":1404:1407   */\n  0x00\n    /* \"#utility.yul\":1425:1430   */\n  dup2\n    /* \"#utility.yul\":1418:1430   */\n  swap1\n  pop\n    /* \"#utility.yul\":1376:1436   */\n  swap2\n  swap1\n  pop\n  jump\t// out\n    /* \"#utility.yul\":1442:1600   */\ntag_72:\n    /* \"#utility.yul\":1500:1509   */\n  0x00\n    /* \"#utility.yul\":1533:1594   */\n  tag_126\n    /* \"#utility.yul\":1551:1593   */\n  tag_127\n    /* \"#utility.yul\":1560:1592   */\n  tag_128\n    /* \"#utility.yul\":1586:1591   */\n  dup5\n    /* \"#utility.yul\":1560:1592   */\n  tag_69\n  jump\t// in\ntag_128:\n    /* \"#utility.yul\":1551:1593   */\n  tag_71\n  jump\t// in\ntag_127:\n    /* \"#utility.yul\":1533:1594   */\n  tag_70\n  jump\t// in\ntag_126:\n    /* \"#utility.yul\":1520:1594   */\n  swap1\n  pop\n    /* \"#utility.yul\":1442:1600   */\n  swap2\n  swap1\n  pop\n  jump\t// out\n    /* \"#utility.yul\":1606:1753   */\ntag_73:\n    /* \"#utility.yul\":1701:1746   */\n  tag_130\n    /* \"#utility.yul\":1740:1745   */\n  dup2\n    /* \"#utility.yul\":1701:1746   */\n  tag_72\n  jump\t// in\ntag_130:\n    /* \"#utility.yul\":1696:1699   */\n  dup3\n    /* \"#utility.yul\":1689:1747   */\n  mstore\n    /* \"#utility.yul\":1606:1753   */\n  pop\n  pop\n  jump\t// out\n    /* \"#utility.yul\":1759:1997   */\ntag_6:\n    /* \"#utility.yul\":1860:1864   */\n  0x00\n    /* \"#utility.yul\":1898:1900   */\n  0x20\n    /* \"#utility.yul\":1887:1896   */\n  dup3\n    /* \"#utility.yul\":1883:1901   */\n  add\n    /* \"#utility.yul\":1875:1901   */\n  swap1\n  pop\n    /* \"#utility.yul\":1911:1990   */\n  tag_132\n    /* \"#utility.yul\":1987:1988   */\n  0x00\n    /* \"#utility.yul\":1976:1985   */\n  dup4\n    /* \"#utility.yul\":1972:1989   */\n  add\n    /* \"#utility.yul\":1963:1969   */\n  dup5\n    /* \"#utility.yul\":1911:1990   */\n  tag_73\n  jump\t// in\ntag_132:\n    /* \"#utility.yul\":1759:1997   */\n  swap3\n  swap2\n  pop\n  pop\n  jump\t// out\n    /* \"#utility.yul\":2003:2120   */\ntag_74:\n    /* \"#utility.yul\":2112:2113   */\n  0x00\n    /* \"#utility.yul\":2109:2110   */\n  dup1\n    /* \"#utility.yul\":2102:2114   */\n  revert\n    /* \"#utility.yul\":2126:2243   */\ntag_75:\n    /* \"#utility.yul\":2235:2236   */\n  0x00\n    /* \"#utility.yul\":2232:2233   */\n  dup1\n    /* \"#utility.yul\":2225:2237   */\n  revert\n    /* \"#utility.yul\":2249:2351   */\ntag_76:\n    /* \"#utility.yul\":2290:2296   */\n  0x00\n    /* \"#utility.yul\":2341:2343   */\n  0x1f\n    /* \"#utility.yul\":2337:2344   */\n  not\n    /* \"#utility.yul\":2332:2334   */\n  0x1f\n    /* \"#utility.yul\":2325:2330   */\n  dup4\n    /* \"#utility.yul\":2321:2335   */\n  add\n    /* \"#utility.yul\":2317:2345   */\n  and\n    /* \"#utility.yul\":2307:2345   */\n  swap1\n  pop\n    /* \"#utility.yul\":2249:2351   */\n  swap2\n  swap1\n  pop\n  jump\t// out\n    /* \"#utility.yul\":2357:2537   */\ntag_77:\n    /* \"#utility.yul\":2405:2482   */\n  0x4e487b7100000000000000000000000000000000000000000000000000000000\n    /* \"#utility.yul\":2402:2403   */\n  0x00\n    /* \"#utility.yul\":2395:2483   */\n  mstore\n    /* \"#utility.yul\":2502:2506   */\n  0x41\n    /* \"#utility.yul\":2499:2500   */\n  0x04\n    /* \"#utility.yul\":2492:2507   */\n  mstore\n    /* \"#utility.yul\":2526:2530   */\n  0x24\n    /* \"#utility.yul\":2523:2524   */\n  0x00\n    /* \"#utility.yul\":2516:2531   */\n  revert\n    /* \"#utility.yul\":2543:2824   */\ntag_78:\n    /* \"#utility.yul\":2626:2653   */\n  tag_138\n    /* \"#utility.yul\":2648:2652   */\n  dup3\n    /* \"#utility.yul\":2626:2653   */\n  tag_76\n  jump\t// in\ntag_138:\n    /* \"#utility.yul\":2618:2624   */\n  dup2\n    /* \"#utility.yul\":2614:2654   */\n  add\n    /* \"#utility.yul\":2756:2762   */\n  dup2\n    /* \"#utility.yul\":2744:2754   */\n  dup2\n    /* \"#utility.yul\":2741:2763   */\n  lt\n    /* \"#utility.yul\":2720:2738   */\n  0xffffffffffffffff\n    /* \"#utility.yul\":2708:2718   */\n  dup3\n    /* \"#utility.yul\":2705:2739   */\n  gt\n    /* \"#utility.yul\":2702:2764   */\n  or\n    /* \"#utility.yul\":2699:2787   */\n  iszero\n  tag_139\n  jumpi\n    /* \"#utility.yul\":2767:2785   */\n  tag_140\n  tag_77\n  jump\t// in\ntag_140:\n    /* \"#utility.yul\":2699:2787   */\ntag_139:\n    /* \"#utility.yul\":2807:2817   */\n  dup1\n    /* \"#utility.yul\":2803:2805   */\n  0x40\n    /* \"#utility.yul\":2796:2818   */\n  mstore\n    /* \"#utility.yul\":2586:2824   */\n  pop\n    /* \"#utility.yul\":2543:2824   */\n  pop\n  pop\n  jump\t// out\n    /* \"#utility.yul\":2830:2959   */\ntag_79:\n    /* \"#utility.yul\":2864:2870   */\n  0x00\n    /* \"#utility.yul\":2891:2911   */\n  tag_142\n  tag_62\n  jump\t// in\ntag_142:\n    /* \"#utility.yul\":2881:2911   */\n  swap1\n  pop\n    /* \"#utility.yul\":2920:2953   */\n  tag_143\n    /* \"#utility.yul\":2948:2952   */\n  dup3\n    /* \"#utility.yul\":2940:2946   */\n  dup3\n    /* \"#utility.yul\":2920:2953   */\n  tag_78\n  jump\t// in\ntag_143:\n    /* \"#utility.yul\":2830:2959   */\n  swap2\n  swap1\n  pop\n  jump\t// out\n    /* \"#utility.yul\":2965:3273   */\ntag_80:\n    /* \"#utility.yul\":3027:3031   */\n  0x00\n    /* \"#utility.yul\":3117:3135   */\n  0xffffffffffffffff\n    /* \"#utility.yul\":3109:3115   */\n  dup3\n    /* \"#utility.yul\":3106:3136   */\n  gt\n    /* \"#utility.yul\":3103:3159   */\n  iszero\n  tag_145\n  jumpi\n    /* \"#utility.yul\":3139:3157   */\n  tag_146\n  tag_77\n  jump\t// in\ntag_146:\n    /* \"#utility.yul\":3103:3159   */\ntag_145:\n    /* \"#utility.yul\":3177:3206   */\n  tag_147\n    /* \"#utility.yul\":3199:3205   */\n  dup3\n    /* \"#utility.yul\":3177:3206   */\n  tag_76\n  jump\t// in\ntag_147:\n    /* \"#utility.yul\":3169:3206   */\n  swap1\n  pop\n    /* \"#utility.yul\":3261:3265   */\n  0x20\n    /* \"#utility.yul\":3255:3259   */\n  dup2\n    /* \"#utility.yul\":3251:3266   */\n  add\n    /* \"#utility.yul\":3243:3266   */\n  swap1\n  pop\n    /* \"#utility.yul\":2965:3273   */\n  swap2\n  swap1\n  pop\n  jump\t// out\n    /* \"#utility.yul\":3279:3418   */\ntag_81:\n    /* \"#utility.yul\":3368:3374   */\n  dup3\n    /* \"#utility.yul\":3363:3366   */\n  dup2\n    /* \"#utility.yul\":3358:3361   */\n  dup4\n    /* \"#utility.yul\":3352:3375   */\n  mcopy\n    /* \"#utility.yul\":3409:3410   */\n  0x00\n    /* \"#utility.yul\":3400:3406   */\n  dup4\n    /* \"#utility.yul\":3395:3398   */\n  dup4\n    /* \"#utility.yul\":3391:3407   */\n  add\n    /* \"#utility.yul\":3384:3411   */\n  mstore\n    /* \"#utility.yul\":3279:3418   */\n  pop\n  pop\n  pop\n  jump\t// out\n    /* \"#utility.yul\":3424:3858   */\ntag_82:\n    /* \"#utility.yul\":3513:3518   */\n  0x00\n    /* \"#utility.yul\":3538:3604   */\n  tag_150\n    /* \"#utility.yul\":3554:3603   */\n  tag_151\n    /* \"#utility.yul\":3596:3602   */\n  dup5\n    /* \"#utility.yul\":3554:3603   */\n  tag_80\n  jump\t// in\ntag_151:\n    /* \"#utility.yul\":3538:3604   */\n  tag_79\n  jump\t// in\ntag_150:\n    /* \"#utility.yul\":3529:3604   */\n  swap1\n  pop\n    /* \"#utility.yul\":3627:3633   */\n  dup3\n    /* \"#utility.yul\":3620:3625   */\n  dup2\n    /* \"#utility.yul\":3613:3634   */\n  mstore\n    /* \"#utility.yul\":3665:3669   */\n  0x20\n    /* \"#utility.yul\":3658:3663   */\n  dup2\n    /* \"#utility.yul\":3654:3670   */\n  add\n    /* \"#utility.yul\":3703:3706   */\n  dup5\n    /* \"#utility.yul\":3694:3700   */\n  dup5\n    /* \"#utility.yul\":3689:3692   */\n  dup5\n    /* \"#utility.yul\":3685:3701   */\n  add\n    /* \"#utility.yul\":3682:3707   */\n  gt\n    /* \"#utility.yul\":3679:3791   */\n  iszero\n  tag_152\n  jumpi\n    /* \"#utility.yul\":3710:3789   */\n  tag_153\n  tag_75\n  jump\t// in\ntag_153:\n    /* \"#utility.yul\":3679:3791   */\ntag_152:\n    /* \"#utility.yul\":3800:3852   */\n  tag_154\n    /* \"#utility.yul\":3845:3851   */\n  dup5\n    /* \"#utility.yul\":3840:3843   */\n  dup3\n    /* \"#utility.yul\":3835:3838   */\n  dup6\n    /* \"#utility.yul\":3800:3852   */\n  tag_81\n  jump\t// in\ntag_154:\n    /* \"#utility.yul\":3519:3858   */\n  pop\n    /* \"#utility.yul\":3424:3858   */\n  swap4\n  swap3\n  pop\n  pop\n  pop\n  jump\t// out\n    /* \"#utility.yul\":3878:4233   */\ntag_83:\n    /* \"#utility.yul\":3945:3950   */\n  0x00\n    /* \"#utility.yul\":3994:3997   */\n  dup3\n    /* \"#utility.yul\":3987:3991   */\n  0x1f\n    /* \"#utility.yul\":3979:3985   */\n  dup4\n    /* \"#utility.yul\":3975:3992   */\n  add\n    /* \"#utility.yul\":3971:3998   */\n  slt\n    /* \"#utility.yul\":3961:4083   */\n  tag_156\n  jumpi\n    /* \"#utility.yul\":4002:4081   */\n  tag_157\n  tag_74\n  jump\t// in\ntag_157:\n    /* \"#utility.yul\":3961:4083   */\ntag_156:\n    /* \"#utility.yul\":4112:4118   */\n  dup2\n    /* \"#utility.yul\":4106:4119   */\n  mload\n    /* \"#utility.yul\":4137:4227   */\n  tag_158\n    /* \"#utility.yul\":4223:4226   */\n  dup5\n    /* \"#utility.yul\":4215:4221   */\n  dup3\n    /* \"#utility.yul\":4208:4212   */\n  0x20\n    /* \"#utility.yul\":4200:4206   */\n  dup7\n    /* \"#utility.yul\":4196:4213   */\n  add\n    /* \"#utility.yul\":4137:4227   */\n  tag_82\n  jump\t// in\ntag_158:\n    /* \"#utility.yul\":4128:4227   */\n  swap2\n  pop\n    /* \"#utility.yul\":3951:4233   */\n  pop\n    /* \"#utility.yul\":3878:4233   */\n  swap3\n  swap2\n  pop\n  pop\n  jump\t// out\n    /* \"#utility.yul\":4239:4763   */\ntag_10:\n    /* \"#utility.yul\":4319:4325   */\n  0x00\n    /* \"#utility.yul\":4368:4370   */\n  0x20\n    /* \"#utility.yul\":4356:4365   */\n  dup3\n    /* \"#utility.yul\":4347:4354   */\n  dup5\n    /* \"#utility.yul\":4343:4366   */\n  sub\n    /* \"#utility.yul\":4339:4371   */\n  slt\n    /* \"#utility.yul\":4336:4455   */\n  iszero\n  tag_160\n  jumpi\n    /* \"#utility.yul\":4374:4453   */\n  tag_161\n  tag_63\n  jump\t// in\ntag_161:\n    /* \"#utility.yul\":4336:4455   */\ntag_160:\n    /* \"#utility.yul\":4515:4516   */\n  0x00\n    /* \"#utility.yul\":4504:4513   */\n  dup3\n    /* \"#utility.yul\":4500:4517   */\n  add\n    /* \"#utility.yul\":4494:4518   */\n  mload\n    /* \"#utility.yul\":4545:4563   */\n  0xffffffffffffffff\n    /* \"#utility.yul\":4537:4543   */\n  dup2\n    /* \"#utility.yul\":4534:4564   */\n  gt\n    /* \"#utility.yul\":4531:4648   */\n  iszero\n  tag_162\n  jumpi\n    /* \"#utility.yul\":4567:4646   */\n  tag_163\n  tag_64\n  jump\t// in\ntag_163:\n    /* \"#utility.yul\":4531:4648   */\ntag_162:\n    /* \"#utility.yul\":4672:4746   */\n  tag_164\n    /* \"#utility.yul\":4738:4745   */\n  dup5\n    /* \"#utility.yul\":4729:4735   */\n  dup3\n    /* \"#utility.yul\":4718:4727   */\n  dup6\n    /* \"#utility.yul\":4714:4736   */\n  add\n    /* \"#utility.yul\":4672:4746   */\n  tag_83\n  jump\t// in\ntag_164:\n    /* \"#utility.yul\":4662:4746   */\n  swap2\n  pop\n    /* \"#utility.yul\":4465:4756   */\n  pop\n    /* \"#utility.yul\":4239:4763   */\n  swap3\n  swap2\n  pop\n  pop\n  jump\t// out\n    /* \"#utility.yul\":4769:4854   */\ntag_84:\n    /* \"#utility.yul\":4814:4821   */\n  0x00\n    /* \"#utility.yul\":4843:4848   */\n  dup2\n    /* \"#utility.yul\":4832:4848   */\n  swap1\n  pop\n    /* \"#utility.yul\":4769:4854   */\n  swap2\n  swap1\n  pop\n  jump\t// out\n    /* \"#utility.yul\":4860:5018   */\ntag_85:\n    /* \"#utility.yul\":4918:4927   */\n  0x00\n    /* \"#utility.yul\":4951:5012   */\n  tag_167\n    /* \"#utility.yul\":4969:5011   */\n  tag_168\n    /* \"#utility.yul\":4978:5010   */\n  tag_169\n    /* \"#utility.yul\":5004:5009   */\n  dup5\n    /* \"#utility.yul\":4978:5010   */\n  tag_84\n  jump\t// in\ntag_169:\n    /* \"#utility.yul\":4969:5011   */\n  tag_71\n  jump\t// in\ntag_168:\n    /* \"#utility.yul\":4951:5012   */\n  tag_70\n  jump\t// in\ntag_167:\n    /* \"#utility.yul\":4938:5012   */\n  swap1\n  pop\n    /* \"#utility.yul\":4860:5018   */\n  swap2\n  swap1\n  pop\n  jump\t// out\n    /* \"#utility.yul\":5024:5171   */\ntag_86:\n    /* \"#utility.yul\":5119:5164   */\n  tag_171\n    /* \"#utility.yul\":5158:5163   */\n  dup2\n    /* \"#utility.yul\":5119:5164   */\n  tag_85\n  jump\t// in\ntag_171:\n    /* \"#utility.yul\":5114:5117   */\n  dup3\n    /* \"#utility.yul\":5107:5165   */\n  mstore\n    /* \"#utility.yul\":5024:5171   */\n  pop\n  pop\n  jump\t// out\n    /* \"#utility.yul\":5177:5415   */\ntag_12:\n    /* \"#utility.yul\":5278:5282   */\n  0x00\n    /* \"#utility.yul\":5316:5318   */\n  0x20\n    /* \"#utility.yul\":5305:5314   */\n  dup3\n    /* \"#utility.yul\":5301:5319   */\n  add\n    /* \"#utility.yul\":5293:5319   */\n  swap1\n  pop\n    /* \"#utility.yul\":5329:5408   */\n  tag_173\n    /* \"#utility.yul\":5405:5406   */\n  0x00\n    /* \"#utility.yul\":5394:5403   */\n  dup4\n    /* \"#utility.yul\":5390:5407   */\n  add\n    /* \"#utility.yul\":5381:5387   */\n  dup5\n    /* \"#utility.yul\":5329:5408   */\n  tag_86\n  jump\t// in\ntag_173:\n    /* \"#utility.yul\":5177:5415   */\n  swap3\n  swap2\n  pop\n  pop\n  jump\t// out\n    /* \"#utility.yul\":5421:5507   */\ntag_87:\n    /* \"#utility.yul\":5456:5463   */\n  0x00\n    /* \"#utility.yul\":5496:5500   */\n  0xff\n    /* \"#utility.yul\":5489:5494   */\n  dup3\n    /* \"#utility.yul\":5485:5501   */\n  and\n    /* \"#utility.yul\":5474:5501   */\n  swap1\n  pop\n    /* \"#utility.yul\":5421:5507   */\n  swap2\n  swap1\n  pop\n  jump\t// out\n    /* \"#utility.yul\":5513:5631   */\ntag_88:\n    /* \"#utility.yul\":5584:5606   */\n  tag_176\n    /* \"#utility.yul\":5600:5605   */\n  dup2\n    /* \"#utility.yul\":5584:5606   */\n  tag_87\n  jump\t// in\ntag_176:\n    /* \"#utility.yul\":5577:5582   */\n  dup2\n    /* \"#utility.yul\":5574:5607   */\n  eq\n    /* \"#utility.yul\":5564:5625   */\n  tag_177\n  jumpi\n    /* \"#utility.yul\":5621:5622   */\n  0x00\n    /* \"#utility.yul\":5618:5619   */\n  dup1\n    /* \"#utility.yul\":5611:5623   */\n  revert\n    /* \"#utility.yul\":5564:5625   */\ntag_177:\n    /* \"#utility.yul\":5513:5631   */\n  pop\n  jump\t// out\n    /* \"#utility.yul\":5637:5776   */\ntag_89:\n    /* \"#utility.yul\":5692:5697   */\n  0x00\n    /* \"#utility.yul\":5723:5729   */\n  dup2\n    /* \"#utility.yul\":5717:5730   */\n  mload\n    /* \"#utility.yul\":5708:5730   */\n  swap1\n  pop\n    /* \"#utility.yul\":5739:5770   */\n  tag_179\n    /* \"#utility.yul\":5764:5769   */\n  dup2\n    /* \"#utility.yul\":5739:5770   */\n  tag_88\n  jump\t// in\ntag_179:\n    /* \"#utility.yul\":5637:5776   */\n  swap3\n  swap2\n  pop\n  pop\n  jump\t// out\n    /* \"#utility.yul\":5782:6129   */\ntag_22:\n    /* \"#utility.yul\":5850:5856   */\n  0x00\n    /* \"#utility.yul\":5899:5901   */\n  0x20\n    /* \"#utility.yul\":5887:5896   */\n  dup3\n    /* \"#utility.yul\":5878:5885   */\n  dup5\n    /* \"#utility.yul\":5874:5897   */\n  sub\n    /* \"#utility.yul\":5870:5902   */\n  slt\n    /* \"#utility.yul\":5867:5986   */\n  iszero\n  tag_181\n  jumpi\n    /* \"#utility.yul\":5905:5984   */\n  tag_182\n  tag_63\n  jump\t// in\ntag_182:\n    /* \"#utility.yul\":5867:5986   */\ntag_181:\n    /* \"#utility.yul\":6025:6026   */\n  0x00\n    /* \"#utility.yul\":6050:6112   */\n  tag_183\n    /* \"#utility.yul\":6104:6111   */\n  dup5\n    /* \"#utility.yul\":6095:6101   */\n  dup3\n    /* \"#utility.yul\":6084:6093   */\n  dup6\n    /* \"#utility.yul\":6080:6102   */\n  add\n    /* \"#utility.yul\":6050:6112   */\n  tag_89\n  jump\t// in\ntag_183:\n    /* \"#utility.yul\":6040:6112   */\n  swap2\n  pop\n    /* \"#utility.yul\":5996:6122   */\n  pop\n    /* \"#utility.yul\":5782:6129   */\n  swap3\n  swap2\n  pop\n  pop\n  jump\t// out\n    /* \"#utility.yul\":6135:6234   */\ntag_90:\n    /* \"#utility.yul\":6187:6193   */\n  0x00\n    /* \"#utility.yul\":6221:6226   */\n  dup2\n    /* \"#utility.yul\":6215:6227   */\n  mload\n    /* \"#utility.yul\":6205:6227   */\n  swap1\n  pop\n    /* \"#utility.yul\":6135:6234   */\n  swap2\n  swap1\n  pop\n  jump\t// out\n    /* \"#utility.yul\":6240:6420   */\ntag_91:\n    /* \"#utility.yul\":6288:6365   */\n  0x4e487b7100000000000000000000000000000000000000000000000000000000\n    /* \"#utility.yul\":6285:6286   */\n  0x00\n    /* \"#utility.yul\":6278:6366   */\n  mstore\n    /* \"#utility.yul\":6385:6389   */\n  0x22\n    /* \"#utility.yul\":6382:6383   */\n  0x04\n    /* \"#utility.yul\":6375:6390   */\n  mstore\n    /* \"#utility.yul\":6409:6413   */\n  0x24\n    /* \"#utility.yul\":6406:6407   */\n  0x00\n    /* \"#utility.yul\":6399:6414   */\n  revert\n    /* \"#utility.yul\":6426:6746   */\ntag_58:\n    /* \"#utility.yul\":6470:6476   */\n  0x00\n    /* \"#utility.yul\":6507:6508   */\n  0x02\n    /* \"#utility.yul\":6501:6505   */\n  dup3\n    /* \"#utility.yul\":6497:6509   */\n  div\n    /* \"#utility.yul\":6487:6509   */\n  swap1\n  pop\n    /* \"#utility.yul\":6554:6555   */\n  0x01\n    /* \"#utility.yul\":6548:6552   */\n  dup3\n    /* \"#utility.yul\":6544:6556   */\n  and\n    /* \"#utility.yul\":6575:6593   */\n  dup1\n    /* \"#utility.yul\":6565:6646   */\n  tag_187\n  jumpi\n    /* \"#utility.yul\":6631:6635   */\n  0x7f\n    /* \"#utility.yul\":6623:6629   */\n  dup3\n    /* \"#utility.yul\":6619:6636   */\n  and\n    /* \"#utility.yul\":6609:6636   */\n  swap2\n  pop\n    /* \"#utility.yul\":6565:6646   */\ntag_187:\n    /* \"#utility.yul\":6693:6695   */\n  0x20\n    /* \"#utility.yul\":6685:6691   */\n  dup3\n    /* \"#utility.yul\":6682:6696   */\n  lt\n    /* \"#utility.yul\":6662:6680   */\n  dup2\n    /* \"#utility.yul\":6659:6697   */\n  sub\n    /* \"#utility.yul\":6656:6740   */\n  tag_188\n  jumpi\n    /* \"#utility.yul\":6712:6730   */\n  tag_189\n  tag_91\n  jump\t// in\ntag_189:\n    /* \"#utility.yul\":6656:6740   */\ntag_188:\n    /* \"#utility.yul\":6477:6746   */\n  pop\n    /* \"#utility.yul\":6426:6746   */\n  swap2\n  swap1\n  pop\n  jump\t// out\n    /* \"#utility.yul\":6752:6893   */\ntag_92:\n    /* \"#utility.yul\":6801:6805   */\n  0x00\n    /* \"#utility.yul\":6824:6827   */\n  dup2\n    /* \"#utility.yul\":6816:6827   */\n  swap1\n  pop\n    /* \"#utility.yul\":6847:6850   */\n  dup2\n    /* \"#utility.yul\":6844:6845   */\n  0x00\n    /* \"#utility.yul\":6837:6851   */\n  mstore\n    /* \"#utility.yul\":6881:6885   */\n  0x20\n    /* \"#utility.yul\":6878:6879   */\n  0x00\n    /* \"#utility.yul\":6868:6886   */\n  keccak256\n    /* \"#utility.yul\":6860:6886   */\n  swap1\n  pop\n    /* \"#utility.yul\":6752:6893   */\n  swap2\n  swap1\n  pop\n  jump\t// out\n    /* \"#utility.yul\":6899:6992   */\ntag_93:\n    /* \"#utility.yul\":6936:6942   */\n  0x00\n    /* \"#utility.yul\":6983:6985   */\n  0x20\n    /* \"#utility.yul\":6978:6980   */\n  0x1f\n    /* \"#utility.yul\":6971:6976   */\n  dup4\n    /* \"#utility.yul\":6967:6981   */\n  add\n    /* \"#utility.yul\":6963:6986   */\n  div\n    /* \"#utility.yul\":6953:6986   */\n  swap1\n  pop\n    /* \"#utility.yul\":6899:6992   */\n  swap2\n  swap1\n  pop\n  jump\t// out\n    /* \"#utility.yul\":6998:7105   */\ntag_94:\n    /* \"#utility.yul\":7042:7050   */\n  0x00\n    /* \"#utility.yul\":7092:7097   */\n  dup3\n    /* \"#utility.yul\":7086:7090   */\n  dup3\n    /* \"#utility.yul\":7082:7098   */\n  shl\n    /* \"#utility.yul\":7061:7098   */\n  swap1\n  pop\n    /* \"#utility.yul\":6998:7105   */\n  swap3\n  swap2\n  pop\n  pop\n  jump\t// out\n    /* \"#utility.yul\":7111:7504   */\ntag_95:\n    /* \"#utility.yul\":7180:7186   */\n  0x00\n    /* \"#utility.yul\":7230:7231   */\n  0x08\n    /* \"#utility.yul\":7218:7228   */\n  dup4\n    /* \"#utility.yul\":7214:7232   */\n  mul\n    /* \"#utility.yul\":7253:7350   */\n  tag_194\n    /* \"#utility.yul\":7283:7349   */\n  0xffffffffffffffffffffffffffffffffffffffffffffffffffffffffffffffff\n    /* \"#utility.yul\":7272:7281   */\n  dup3\n    /* \"#utility.yul\":7253:7350   */\n  tag_94\n  jump\t// in\ntag_194:\n    /* \"#utility.yul\":7371:7410   */\n  tag_195\n    /* \"#utility.yul\":7401:7409   */\n  dup7\n    /* \"#utility.yul\":7390:7399   */\n  dup4\n    /* \"#utility.yul\":7371:7410   */\n  tag_94\n  jump\t// in\ntag_195:\n    /* \"#utility.yul\":7359:7410   */\n  swap6\n  pop\n    /* \"#utility.yul\":7443:7447   */\n  dup1\n    /* \"#utility.yul\":7439:7448   */\n  not\n    /* \"#utility.yul\":7432:7437   */\n  dup5\n    /* \"#utility.yul\":7428:7449   */\n  and\n    /* \"#utility.yul\":7419:7449   */\n  swap4\n  pop\n    /* \"#utility.yul\":7492:7496   */\n  dup1\n    /* \"#utility.yul\":7482:7490   */\n  dup7\n    /* \"#utility.yul\":7478:7497   */\n  and\n    /* \"#utility.yul\":7471:7476   */\n  dup5\n    /* \"#utility.yul\":7468:7498   */\n  or\n    /* \"#utility.yul\":7458:7498   */\n  swap3\n  pop\n    /* \"#utility.yul\":7187:7504   */\n  pop\n  pop\n    /* \"#utility.yul\":7111:7504   */\n  swap4\n  swap3\n  pop\n  pop\n  pop\n  jump\t// out\n    /* \"#utility.yul\":7510:7652   */\ntag_96:\n    /* \"#utility.yul\":7560:7569   */\n  0x00\n    /* \"#utility.yul\":7593:7646   */\n  tag_197\n    /* \"#utility.yul\":7611:7645   */\n  tag_198\n    /* \"#utility.yul\":7620:7644   */\n  tag_199\n    /* \"#utility.yul\":7638:7643   */\n  dup5\n    /* \"#utility.yul\":7620:7644   */\n  tag_70\n  jump\t// in\ntag_199:\n    /* \"#utility.yul\":7611:7645   */\n  tag_71\n  jump\t// in\ntag_198:\n    /* \"#utility.yul\":7593:7646   */\n  tag_70\n  jump\t// in\ntag_197:\n    /* \"#utility.yul\":7580:7646   */\n  swap1\n  pop\n    /* \"#utility.yul\":7510:7652   */\n  swap2\n  swap1\n  pop\n  jump\t// out\n    /* \"#utility.yul\":7658:7733   */\ntag_97:\n    /* \"#utility.yul\":7701:7704   */\n  0x00\n    /* \"#utility.yul\":7722:7727   */\n  dup2\n    /* \"#utility.yul\":7715:7727   */\n  swap1\n  pop\n    /* \"#utility.yul\":7658:7733   */\n  swap2\n  swap1\n  pop\n  jump\t// out\n    /* \"#utility.yul\":7739:8008   */\ntag_98:\n    /* \"#utility.yul\":7849:7888   */\n  tag_202\n    /* \"#utility.yul\":7880:7887   */\n  dup4\n    /* \"#utility.yul\":7849:7888   */\n  tag_96\n  jump\t// in\ntag_202:\n    /* \"#utility.yul\":7910:8001   */\n  tag_203\n    /* \"#utility.yul\":7959:8000   */\n  tag_204\n    /* \"#utility.yul\":7983:7999   */\n  dup3\n    /* \"#utility.yul\":7959:8000   */\n  tag_97\n  jump\t// in\ntag_204:\n    /* \"#utility.yul\":7951:7957   */\n  dup5\n    /* \"#utility.yul\":7944:7948   */\n  dup5\n    /* \"#utility.yul\":7938:7949   */\n  sload\n    /* \"#utility.yul\":7910:8001   */\n  tag_95\n  jump\t// in\ntag_203:\n    /* \"#utility.yul\":7904:7908   */\n  dup3\n    /* \"#utility.yul\":7897:8002   */\n  sstore\n    /* \"#utility.yul\":7815:8008   */\n  pop\n    /* \"#utility.yul\":7739:8008   */\n  pop\n  pop\n  pop\n  jump\t// out\n    /* \"#utility.yul\":8014:8087   */\ntag_99:\n    /* \"#utility.yul\":8059:8062   */\n  0x00\n    /* \"#utility.yul\":8014:8087   */\n  swap1\n  jump\t// out\n    /* \"#utility.yul\":8093:8282   */\ntag_100:\n    /* \"#utility.yul\":8170:8202   */\n  tag_207\n  tag_99\n  jump\t// in\ntag_207:\n    /* \"#utility.yul\":8211:8276   */\n  tag_208\n    /* \"#utility.yul\":8269:8275   */\n  dup2\n    /* \"#utility.yul\":8261:8267   */\n  dup5\n    /* \"#utility.yul\":8255:8259   */\n  dup5\n    /* \"#utility.yul\":8211:8276   */\n  tag_98\n  jump\t// in\ntag_208:\n    /* \"#utility.yul\":8146:8282   */\n  pop\n    /* \"#utility.yul\":8093:8282   */\n  pop\n  pop\n  jump\t// out\n    /* \"#utility.yul\":8288:8474   */\ntag_101:\n    /* \"#utility.yul\":8348:8468   */\ntag_210:\n    /* \"#utility.yul\":8365:8368   */\n  dup2\n    /* \"#utility.yul\":8358:8363   */\n  dup2\n    /* \"#utility.yul\":8355:8369   */\n  lt\n    /* \"#utility.yul\":8348:8468   */\n  iszero\n  tag_212\n  jumpi\n    /* \"#utility.yul\":8419:8458   */\n  tag_213\n    /* \"#utility.yul\":8456:8457   */\n  0x00\n    /* \"#utility.yul\":8449:8454   */\n  dup3\n    /* \"#utility.yul\":8419:8458   */\n  tag_100\n  jump\t// in\ntag_213:\n    /* \"#utility.yul\":8392:8393   */\n  0x01\n    /* \"#utility.yul\":8385:8390   */\n  dup2\n    /* \"#utility.yul\":8381:8394   */\n  add\n    /* \"#utility.yul\":8372:8394   */\n  swap1\n  pop\n    /* \"#utility.yul\":8348:8468   */\n  jump(tag_210)\ntag_212:\n    /* \"#utility.yul\":8288:8474   */\n  pop\n  pop\n  jump\t// out\n    /* \"#utility.yul\":8480:9023   */\ntag_102:\n    /* \"#utility.yul\":8581:8583   */\n  0x1f\n    /* \"#utility.yul\":8576:8579   */\n  dup3\n    /* \"#utility.yul\":8573:8584   */\n  gt\n    /* \"#utility.yul\":8570:9016   */\n  iszero\n  tag_215\n  jumpi\n    /* \"#utility.yul\":8615:8653   */\n  tag_216\n    /* \"#utility.yul\":8647:8652   */\n  dup2\n    /* \"#utility.yul\":8615:8653   */\n  tag_92\n  jump\t// in\ntag_216:\n    /* \"#utility.yul\":8699:8728   */\n  tag_217\n    /* \"#utility.yul\":8717:8727   */\n  dup5\n    /* \"#utility.yul\":8699:8728   */\n  tag_93\n  jump\t// in\ntag_217:\n    /* \"#utility.yul\":8689:8697   */\n  dup2\n    /* \"#utility.yul\":8685:8729   */\n  add\n    /* \"#utility.yul\":8882:8884   */\n  0x20\n    /* \"#utility.yul\":8870:8880   */\n  dup6\n    /* \"#utility.yul\":8867:8885   */\n  lt\n    /* \"#utility.yul\":8864:8913   */\n  iszero\n  tag_218\n  jumpi\n    /* \"#utility.yul\":8903:8911   */\n  dup2\n    /* \"#utility.yul\":8888:8911   */\n  swap1\n  pop\n    /* \"#utility.yul\":8864:8913   */\ntag_218:\n    /* \"#utility.yul\":8926:9006   */\n  tag_219\n    /* \"#utility.yul\":8982:9004   */\n  tag_220\n    /* \"#utility.yul\":9000:9003   */\n  dup6\n    /* \"#utility.yul\":8982:9004   */\n  tag_93\n  jump\t// in\ntag_220:\n    /* \"#utility.yul\":8972:8980   */\n  dup4\n    /* \"#utility.yul\":8968:9005   */\n  add\n    /* \"#utility.yul\":8955:8966   */\n  dup3\n    /* \"#utility.yul\":8926:9006   */\n  tag_101\n  jump\t// in\ntag_219:\n    /* \"#utility.yul\":8585:9016   */\n  pop\n  pop\n    /* \"#utility.yul\":8570:9016   */\ntag_215:\n    /* \"#utility.yul\":8480:9023   */\n  pop\n  pop\n  pop\n  jump\t// out\n    /* \"#utility.yul\":9029:9146   */\ntag_103:\n    /* \"#utility.yul\":9083:9091   */\n  0x00\n    /* \"#utility.yul\":9133:9138   */\n  dup3\n    /* \"#utility.yul\":9127:9131   */\n  dup3\n    /* \"#utility.yul\":9123:9139   */\n  shr\n    /* \"#utility.yul\":9102:9139   */\n  swap1\n  pop\n    /* \"#utility.yul\":9029:9146   */\n  swap3\n  swap2\n  pop\n  pop\n  jump\t// out\n    /* \"#utility.yul\":9152:9321   */\ntag_104:\n    /* \"#utility.yul\":9196:9202   */\n  0x00\n    /* \"#utility.yul\":9229:9280   */\n  tag_223\n    /* \"#utility.yul\":9277:9278   */\n  0x00\n    /* \"#utility.yul\":9273:9279   */\n  not\n    /* \"#utility.yul\":9265:9270   */\n  dup5\n    /* \"#utility.yul\":9262:9263   */\n  0x08\n    /* \"#utility.yul\":9258:9271   */\n  mul\n    /* \"#utility.yul\":9229:9280   */\n  tag_103\n  jump\t// in\ntag_223:\n    /* \"#utility.yul\":9225:9281   */\n  not\n    /* \"#utility.yul\":9310:9314   */\n  dup1\n    /* \"#utility.yul\":9304:9308   */\n  dup4\n    /* \"#utility.yul\":9300:9315   */\n  and\n    /* \"#utility.yul\":9290:9315   */\n  swap2\n  pop\n    /* \"#utility.yul\":9203:9321   */\n  pop\n    /* \"#utility.yul\":9152:9321   */\n  swap3\n  swap2\n  pop\n  pop\n  jump\t// out\n    /* \"#utility.yul\":9326:9621   */\ntag_105:\n    /* \"#utility.yul\":9402:9406   */\n  0x00\n    /* \"#utility.yul\":9548:9577   */\n  tag_225\n    /* \"#utility.yul\":9573:9576   */\n  dup4\n    /* \"#utility.yul\":9567:9571   */\n  dup4\n    /* \"#utility.yul\":9548:9577   */\n  tag_104\n  jump\t// in\ntag_225:\n    /* \"#utility.yul\":9540:9577   */\n  swap2\n  pop\n    /* \"#utility.yul\":9610:9613   */\n  dup3\n    /* \"#utility.yul\":9607:9608   */\n  0x02\n    /* \"#utility.yul\":9603:9614   */\n  mul\n    /* \"#utility.yul\":9597:9601   */\n  dup3\n    /* \"#utility.yul\":9594:9615   */\n  or\n    /* \"#utility.yul\":9586:9615   */\n  swap1\n  pop\n    /* \"#utility.yul\":9326:9621   */\n  swap3\n  swap2\n  pop\n  pop\n  jump\t// out\n    /* \"#utility.yul\":9626:11021   */\ntag_37:\n    /* \"#utility.yul\":9743:9780   */\n  tag_227\n    /* \"#utility.yul\":9776:9779   */\n  dup3\n    /* \"#utility.yul\":9743:9780   */\n  tag_90\n  jump\t// in\ntag_227:\n    /* \"#utility.yul\":9845:9863   */\n  0xffffffffffffffff\n    /* \"#utility.yul\":9837:9843   */\n  dup2\n    /* \"#utility.yul\":9834:9864   */\n  gt\n    /* \"#utility.yul\":9831:9887   */\n  iszero\n  tag_228\n  jumpi\n    /* \"#utility.yul\":9867:9885   */\n  tag_229\n  tag_77\n  jump\t// in\ntag_229:\n    /* \"#utility.yul\":9831:9887   */\ntag_228:\n    /* \"#utility.yul\":9911:9949   */\n  tag_230\n    /* \"#utility.yul\":9943:9947   */\n  dup3\n    /* \"#utility.yul\":9937:9948   */\n  sload\n    /* \"#utility.yul\":9911:9949   */\n  tag_58\n  jump\t// in\ntag_230:\n    /* \"#utility.yul\":9996:10063   */\n  tag_231\n    /* \"#utility.yul\":10056:10062   */\n  dup3\n    /* \"#utility.yul\":10048:10054   */\n  dup3\n    /* \"#utility.yul\":10042:10046   */\n  dup6\n    /* \"#utility.yul\":9996:10063   */\n  tag_102\n  jump\t// in\ntag_231:\n    /* \"#utility.yul\":10090:10091   */\n  0x00\n    /* \"#utility.yul\":10114:10118   */\n  0x20\n    /* \"#utility.yul\":10101:10118   */\n  swap1\n  pop\n    /* \"#utility.yul\":10146:10148   */\n  0x1f\n    /* \"#utility.yul\":10138:10144   */\n  dup4\n    /* \"#utility.yul\":10135:10149   */\n  gt\n    /* \"#utility.yul\":10163:10164   */\n  0x01\n    /* \"#utility.yul\":10158:10776   */\n  dup2\n  eq\n  tag_233\n  jumpi\n    /* \"#utility.yul\":10820:10821   */\n  0x00\n    /* \"#utility.yul\":10837:10843   */\n  dup5\n    /* \"#utility.yul\":10834:10911   */\n  iszero\n  tag_234\n  jumpi\n    /* \"#utility.yul\":10886:10895   */\n  dup3\n    /* \"#utility.yul\":10881:10884   */\n  dup8\n    /* \"#utility.yul\":10877:10896   */\n  add\n    /* \"#utility.yul\":10871:10897   */\n  mload\n    /* \"#utility.yul\":10862:10897   */\n  swap1\n  pop\n    /* \"#utility.yul\":10834:10911   */\ntag_234:\n    /* \"#utility.yul\":10937:11004   */\n  tag_235\n    /* \"#utility.yul\":10997:11003   */\n  dup6\n    /* \"#utility.yul\":10990:10995   */\n  dup3\n    /* \"#utility.yul\":10937:11004   */\n  tag_105\n  jump\t// in\ntag_235:\n    /* \"#utility.yul\":10931:10935   */\n  dup7\n    /* \"#utility.yul\":10924:11005   */\n  sstore\n    /* \"#utility.yul\":10793:11015   */\n  pop\n    /* \"#utility.yul\":10128:11015   */\n  jump(tag_232)\n    /* \"#utility.yul\":10158:10776   */\ntag_233:\n    /* \"#utility.yul\":10210:10214   */\n  0x1f\n    /* \"#utility.yul\":10206:10215   */\n  not\n    /* \"#utility.yul\":10198:10204   */\n  dup5\n    /* \"#utility.yul\":10194:10216   */\n  and\n    /* \"#utility.yul\":10244:10281   */\n  tag_236\n    /* \"#utility.yul\":10276:10280   */\n  dup7\n    /* \"#utility.yul\":10244:10281   */\n  tag_92\n  jump\t// in\ntag_236:\n    /* \"#utility.yul\":10303:10304   */\n  0x00\n    /* \"#utility.yul\":10317:10525   */\ntag_237:\n    /* \"#utility.yul\":10331:10338   */\n  dup3\n    /* \"#utility.yul\":10328:10329   */\n  dup2\n    /* \"#utility.yul\":10325:10339   */\n  lt\n    /* \"#utility.yul\":10317:10525   */\n  iszero\n  tag_239\n  jumpi\n    /* \"#utility.yul\":10410:10419   */\n  dup5\n    /* \"#utility.yul\":10405:10408   */\n  dup10\n    /* \"#utility.yul\":10401:10420   */\n  add\n    /* \"#utility.yul\":10395:10421   */\n  mload\n    /* \"#utility.yul\":10387:10393   */\n  dup3\n    /* \"#utility.yul\":10380:10422   */\n  sstore\n    /* \"#utility.yul\":10461:10462   */\n  0x01\n    /* \"#utility.yul\":10453:10459   */\n  dup3\n    /* \"#utility.yul\":10449:10463   */\n  add\n    /* \"#utility.yul\":10439:10463   */\n  swap2\n  pop\n    /* \"#utility.yul\":10508:10510   */\n  0x20\n    /* \"#utility.yul\":10497:10506   */\n  dup6\n    /* \"#utility.yul\":10493:10511   */\n  add\n    /* \"#utility.yul\":10480:10511   */\n  swap5\n  pop\n    /* \"#utility.yul\":10354:10358   */\n  0x20\n    /* \"#utility.yul\":10351:10352   */\n  dup2\n    /* \"#utility.yul\":10347:10359   */\n  add\n    /* \"#utility.yul\":10342:10359   */\n  swap1\n  pop\n    /* \"#utility.yul\":10317:10525   */\n  jump(tag_237)\ntag_239:\n    /* \"#utility.yul\":10553:10559   */\n  dup7\n    /* \"#utility.yul\":10544:10551   */\n  dup4\n    /* \"#utility.yul\":10541:10560   */\n  lt\n    /* \"#utility.yul\":10538:10717   */\n  iszero\n  tag_240\n  jumpi\n    /* \"#utility.yul\":10611:10620   */\n  dup5\n    /* \"#utility.yul\":10606:10609   */\n  dup10\n    /* \"#utility.yul\":10602:10621   */\n  add\n    /* \"#utility.yul\":10596:10622   */\n  mload\n    /* \"#utility.yul\":10654:10702   */\n  tag_241\n    /* \"#utility.yul\":10696:10700   */\n  0x1f\n    /* \"#utility.yul\":10688:10694   */\n  dup10\n    /* \"#utility.yul\":10684:10701   */\n  and\n    /* \"#utility.yul\":10673:10682   */\n  dup3\n    /* \"#utility.yul\":10654:10702   */\n  tag_104\n  jump\t// in\ntag_241:\n    /* \"#utility.yul\":10646:10652   */\n  dup4\n    /* \"#utility.yul\":10639:10703   */\n  sstore\n    /* \"#utility.yul\":10561:10717   */\n  pop\n    /* \"#utility.yul\":10538:10717   */\ntag_240:\n    /* \"#utility.yul\":10763:10764   */\n  0x01\n    /* \"#utility.yul\":10759:10760   */\n  0x02\n    /* \"#utility.yul\":10751:10757   */\n  dup9\n    /* \"#utility.yul\":10747:10761   */\n  mul\n    /* \"#utility.yul\":10743:10765   */\n  add\n    /* \"#utility.yul\":10737:10741   */\n  dup9\n    /* \"#utility.yul\":10730:10766   */\n  sstore\n    /* \"#utility.yul\":10165:10776   */\n  pop\n  pop\n  pop\n    /* \"#utility.yul\":10128:11015   */\ntag_232:\n  pop\n    /* \"#utility.yul\":9718:11021   */\n  pop\n  pop\n  pop\n    /* \"#utility.yul\":9626:11021   */\n  pop\n  pop\n  jump\t// out\n    /* \"tutor.sol\":356:2721  contract TutorContract {... */\ntag_32:\n  dataSize(sub_0)\n  dup1\n  dataOffset(sub_0)\n  0x00\n  codecopy\n  0x00\n  return\nstop\n\nsub_0: assembly {\n        /* \"tutor.sol\":356:2721  contract TutorContract {... */\n      mstore(0x40, 0x80)\n      jumpi(tag_1, lt(calldatasize, 0x04))\n      shr(0xe0, calldataload(0x00))\n      dup1\n      0x2525146b\n      eq\n      tag_2\n      jumpi\n      dup1\n      0x42fba3fb\n      eq\n      tag_3\n      jumpi\n      dup1\n      0x734ba396\n      eq\n      tag_4\n      jumpi\n      dup1\n      0xe6ae3e6f\n      eq\n      tag_5\n      jumpi\n    tag_1:\n      0x00\n      dup1\n      revert\n        /* \"tutor.sol\":2078:2716  function answer(uint8 a, address payable to) external payable  {... */\n    tag_2:\n      tag_6\n      0x04\n      dup1\n      calldatasize\n      sub\n      dup2\n      add\n      swap1\n      tag_7\n      swap2\n      swap1\n      tag_8\n      jump\t// in\n    tag_7:\n      tag_9\n      jump\t// in\n    tag_6:\n      stop\n        /* \"tutor.sol\":1771:1872  function calculate_grade() public view returns (fxp) {... */\n    tag_3:\n      callvalue\n      dup1\n      iszero\n      tag_10\n      jumpi\n      0x00\n      dup1\n      revert\n    tag_10:\n      pop\n      tag_11\n      tag_12\n      jump\t// in\n    tag_11:\n      mload(0x40)\n      tag_13\n      swap2\n      swap1\n      tag_14\n      jump\t// in\n    tag_13:\n      mload(0x40)\n      dup1\n      swap2\n      sub\n      swap1\n      return\n        /* \"tutor.sol\":1876:1986  function get_current_question() external  view returns (string memory) {... */\n    tag_4:\n      callvalue\n      dup1\n      iszero\n      tag_15\n      jumpi\n      0x00\n      dup1\n      revert\n    tag_15:\n      pop\n      tag_16\n      tag_17\n      jump\t// in\n    tag_16:\n      mload(0x40)\n      tag_18\n      swap2\n      swap1\n      tag_19\n      jump\t// in\n    tag_18:\n      mload(0x40)\n      dup1\n      swap2\n      sub\n      swap1\n      return\n        /* \"tutor.sol\":1991:2074  function get_progress() external  view returns (uint8) {... */\n    tag_5:\n      callvalue\n      dup1\n      iszero\n      tag_20\n      jumpi\n      0x00\n      dup1\n      revert\n    tag_20:\n      pop\n      tag_21\n      tag_22\n      jump\t// in\n    tag_21:\n      mload(0x40)\n      tag_23\n      swap2\n      swap1\n      tag_24\n      jump\t// in\n    tag_23:\n      mload(0x40)\n      dup1\n      swap2\n      sub\n      swap1\n      return\n        /* \"tutor.sol\":2078:2716  function answer(uint8 a, address payable to) external payable  {... */\n    tag_9:\n        /* \"tutor.sol\":2170:2175  0 wei */\n      0x00\n        /* \"tutor.sol\":2157:2166  msg.value */\n      callvalue\n        /* \"tutor.sol\":2157:2175  msg.value == 0 wei */\n      eq\n        /* \"tutor.sol\":2149:2176  require(msg.value == 0 wei) */\n      tag_26\n      jumpi\n      0x00\n      dup1\n      revert\n    tag_26:\n        /* \"tutor.sol\":2194:2201  answers */\n      0x02\n        /* \"tutor.sol\":2202:2210  progress */\n      0x05\n      0x00\n      swap1\n      sload\n      swap1\n      0x0100\n      exp\n      swap1\n      div\n      0xff\n      and\n        /* \"tutor.sol\":2194:2211  answers[progress] */\n      0xff\n      and\n      dup2\n      sload\n      dup2\n      lt\n      tag_27\n      jumpi\n      tag_28\n      tag_29\n      jump\t// in\n    tag_28:\n    tag_27:\n      swap1\n      0x00\n      mstore\n      keccak256(0x00, 0x20)\n      swap1\n      0x20\n      swap2\n      dup3\n      dup3\n      div\n      add\n      swap2\n      swap1\n      mod\n      swap1\n      sload\n      swap1\n      0x0100\n      exp\n      swap1\n      div\n      0xff\n      and\n        /* \"tutor.sol\":2189:2211  a != answers[progress] */\n      0xff\n      and\n        /* \"tutor.sol\":2189:2190  a */\n      dup3\n        /* \"tutor.sol\":2189:2211  a != answers[progress] */\n      0xff\n      and\n      eq\n        /* \"tutor.sol\":2185:2328  if (a != answers[progress]) {... */\n      tag_31\n      jumpi\n        /* \"tutor.sol\":2231:2269  push_front(points, fxp.wrap(-2000000)) */\n      tag_32\n        /* \"tutor.sol\":2242:2248  points */\n      0x04\n        /* \"tutor.sol\":2231:2269  push_front(points, fxp.wrap(-2000000)) */\n      dup1\n      sload\n      dup1\n      0x20\n      mul\n      0x20\n      add\n      mload(0x40)\n      swap1\n      dup2\n      add\n      0x40\n      mstore\n      dup1\n      swap3\n      swap2\n      swap1\n      dup2\n      dup2\n      mstore\n      0x20\n      add\n      dup3\n      dup1\n      sload\n      dup1\n      iszero\n      tag_33\n      jumpi\n      0x20\n      mul\n      dup3\n      add\n      swap2\n      swap1\n      0x00\n      mstore\n      keccak256(0x00, 0x20)\n      swap1\n      0x00\n      swap1\n    tag_34:\n      dup3\n      dup3\n      swap1\n      sload\n      swap1\n      0x0100\n      exp\n      swap1\n      div\n      0x07\n      signextend\n      0x07\n      signextend\n      dup2\n      mstore\n      0x20\n      add\n      swap1\n      0x08\n      add\n      swap1\n      0x20\n      dup3\n      0x07\n      add\n      div\n      swap3\n      dup4\n      add\n      swap3\n      0x01\n      sub\n      dup3\n      mul\n      swap2\n      pop\n      dup1\n      dup5\n      gt\n      tag_34\n      jumpi\n      swap1\n      pop\n    tag_33:\n      pop\n      pop\n      pop\n      pop\n      pop\n        /* \"tutor.sol\":2259:2267  -2000000 */\n      0xffffffffffffffffffffffffffffffffffffffffffffffffffffffffffe17b80\n        /* \"tutor.sol\":2231:2241  push_front */\n      tag_35\n        /* \"tutor.sol\":2231:2269  push_front(points, fxp.wrap(-2000000)) */\n      jump\t// in\n    tag_32:\n        /* \"tutor.sol\":2222:2228  points */\n      0x04\n        /* \"tutor.sol\":2222:2269  points = push_front(points, fxp.wrap(-2000000)) */\n      swap1\n      dup1\n      mload\n      swap1\n      0x20\n      add\n      swap1\n      tag_36\n      swap3\n      swap2\n      swap1\n      tag_37\n      jump\t// in\n    tag_36:\n      pop\n        /* \"tutor.sol\":2278:2284  points */\n      0x04\n        /* \"tutor.sol\":2278:2290  points.pop() */\n      dup1\n      sload\n      dup1\n      tag_38\n      jumpi\n      tag_39\n      tag_40\n      jump\t// in\n    tag_39:\n    tag_38:\n      0x01\n      swap1\n      sub\n      dup2\n      dup2\n      swap1\n      0x00\n      mstore\n      keccak256(0x00, 0x20)\n      swap1\n      0x04\n      swap2\n      dup3\n      dup3\n      div\n      add\n      swap2\n      swap1\n      mod\n      0x08\n      mul\n      0x0100\n      exp\n      dup2\n      sload\n      swap1\n      0xffffffffffffffff\n      mul\n      not\n      and\n      swap1\n      sstore\n      swap1\n      sstore\n        /* \"tutor.sol\":2304:2319  Answered(false) */\n      0x22b1cee616b1fdc88183479e67fbdd2d87e3bb10fa86d8eccea07b189c6d17eb\n        /* \"tutor.sol\":2313:2318  false */\n      0x00\n        /* \"tutor.sol\":2304:2319  Answered(false) */\n      mload(0x40)\n      tag_42\n      swap2\n      swap1\n      tag_43\n      jump\t// in\n    tag_42:\n      mload(0x40)\n      dup1\n      swap2\n      sub\n      swap1\n      log1\n        /* \"tutor.sol\":2185:2328  if (a != answers[progress]) {... */\n    tag_31:\n        /* \"tutor.sol\":2368:2376  progress */\n      0x05\n      0x00\n        /* \"tutor.sol\":2368:2378  progress++ */\n      dup2\n      dup2\n      swap1\n      sload\n      swap1\n      0x0100\n      exp\n      swap1\n      div\n      0xff\n      and\n      dup1\n      swap3\n      swap2\n      swap1\n      tag_44\n      swap1\n      tag_45\n      jump\t// in\n    tag_44:\n      swap2\n      swap1\n      0x0100\n      exp\n      dup2\n      sload\n      dup2\n      0xff\n      mul\n      not\n      and\n      swap1\n      dup4\n      0xff\n      and\n      mul\n      or\n      swap1\n      sstore\n      pop\n      pop\n        /* \"tutor.sol\":2395:2432  push_front(points, fxp.wrap(2000000)) */\n      tag_46\n        /* \"tutor.sol\":2406:2412  points */\n      0x04\n        /* \"tutor.sol\":2395:2432  push_front(points, fxp.wrap(2000000)) */\n      dup1\n      sload\n      dup1\n      0x20\n      mul\n      0x20\n      add\n      mload(0x40)\n      swap1\n      dup2\n      add\n      0x40\n      mstore\n      dup1\n      swap3\n      swap2\n      swap1\n      dup2\n      dup2\n      mstore\n      0x20\n      add\n      dup3\n      dup1\n      sload\n      dup1\n      iszero\n      tag_47\n      jumpi\n      0x20\n      mul\n      dup3\n      add\n      swap2\n      swap1\n      0x00\n      mstore\n      keccak256(0x00, 0x20)\n      swap1\n      0x00\n      swap1\n    tag_48:\n      dup3\n      dup3\n      swap1\n      sload\n      swap1\n      0x0100\n      exp\n      swap1\n      div\n      0x07\n      signextend\n      0x07\n      signextend\n      dup2\n      mstore\n      0x20\n      add\n      swap1\n      0x08\n      add\n      swap1\n      0x20\n      dup3\n      0x07\n      add\n      div\n      swap3\n      dup4\n      add\n      swap3\n      0x01\n      sub\n      dup3\n      mul\n      swap2\n      pop\n      dup1\n      dup5\n      gt\n      tag_48\n      jumpi\n      swap1\n      pop\n    tag_47:\n      pop\n      pop\n      pop\n      pop\n      pop\n        /* \"tutor.sol\":2423:2430  2000000 */\n      0x1e8480\n        /* \"tutor.sol\":2395:2405  push_front */\n      tag_35\n        /* \"tutor.sol\":2395:2432  push_front(points, fxp.wrap(2000000)) */\n      jump\t// in\n    tag_46:\n        /* \"tutor.sol\":2386:2392  points */\n      0x04\n        /* \"tutor.sol\":2386:2432  points = push_front(points, fxp.wrap(2000000)) */\n      swap1\n      dup1\n      mload\n      swap1\n      0x20\n      add\n      swap1\n      tag_49\n      swap3\n      swap2\n      swap1\n      tag_37\n      jump\t// in\n    tag_49:\n      pop\n        /* \"tutor.sol\":2440:2446  points */\n      0x04\n        /* \"tutor.sol\":2440:2452  points.pop() */\n      dup1\n      sload\n      dup1\n      tag_50\n      jumpi\n      tag_51\n      tag_40\n      jump\t// in\n    tag_51:\n    tag_50:\n      0x01\n      swap1\n      sub\n      dup2\n      dup2\n      swap1\n      0x00\n      mstore\n      keccak256(0x00, 0x20)\n      swap1\n      0x04\n      swap2\n      dup3\n      dup3\n      div\n      add\n      swap2\n      swap1\n      mod\n      0x08\n      mul\n      0x0100\n      exp\n      dup2\n      sload\n      swap1\n      0xffffffffffffffff\n      mul\n      not\n      and\n      swap1\n      sstore\n      swap1\n      sstore\n        /* \"tutor.sol\":2477:2486  questions */\n      0x01\n        /* \"tutor.sol\":2477:2493  questions.length */\n      dup1\n      sload\n      swap1\n      pop\n        /* \"tutor.sol\":2465:2473  progress */\n      0x05\n      0x00\n      swap1\n      sload\n      swap1\n      0x0100\n      exp\n      swap1\n      div\n      0xff\n      and\n        /* \"tutor.sol\":2465:2493  progress >= questions.length */\n      0xff\n      and\n      lt\n        /* \"tutor.sol\":2461:2526  if (progress >= questions.length) {... */\n      tag_53\n      jumpi\n        /* \"tutor.sol\":2516:2517  0 */\n      0x00\n        /* \"tutor.sol\":2505:2513  progress */\n      0x05\n      0x00\n        /* \"tutor.sol\":2505:2517  progress = 0 */\n      0x0100\n      exp\n      dup2\n      sload\n      dup2\n      0xff\n      mul\n      not\n      and\n      swap1\n      dup4\n      0xff\n      and\n      mul\n      or\n      swap1\n      sstore\n      pop\n        /* \"tutor.sol\":2461:2526  if (progress >= questions.length) {... */\n    tag_53:\n        /* \"tutor.sol\":2542:2559  calculate_grade() */\n      tag_54\n        /* \"tutor.sol\":2542:2557  calculate_grade */\n      tag_12\n        /* \"tutor.sol\":2542:2559  calculate_grade() */\n      jump\t// in\n    tag_54:\n        /* \"tutor.sol\":2534:2539  grade */\n      0x05\n      0x01\n        /* \"tutor.sol\":2534:2559  grade = calculate_grade() */\n      0x0100\n      exp\n      dup2\n      sload\n      dup2\n      0xffffffffffffffff\n      mul\n      not\n      and\n      swap1\n      dup4\n      0x07\n      signextend\n      0xffffffffffffffff\n      and\n      mul\n      or\n      swap1\n      sstore\n      pop\n        /* \"tutor.sol\":2592:2599  9750000 */\n      0x94c5f0\n        /* \"tutor.sol\":2583:2588  grade */\n      0x05\n      0x01\n      swap1\n      sload\n      swap1\n      0x0100\n      exp\n      swap1\n      div\n      0x07\n      signextend\n        /* \"tutor.sol\":2572:2599  fxp.unwrap(grade) > 9750000 */\n      0x07\n      signextend\n      sgt\n        /* \"tutor.sol\":2568:2710  if (fxp.unwrap(grade) > 9750000) {... */\n      iszero\n      tag_55\n      jumpi\n        /* \"tutor.sol\":2612:2621  bool sent */\n      0x00\n        /* \"tutor.sol\":2627:2629  to */\n      dup2\n        /* \"tutor.sol\":2627:2634  to.call */\n      0xffffffffffffffffffffffffffffffffffffffff\n      and\n        /* \"tutor.sol\":2642:2649  500 wei */\n      0x01f4\n        /* \"tutor.sol\":2627:2654  to.call{value: 500 wei}(\"\") */\n      mload(0x40)\n      tag_56\n      swap1\n      tag_57\n      jump\t// in\n    tag_56:\n      0x00\n      mload(0x40)\n      dup1\n      dup4\n      sub\n      dup2\n      dup6\n      dup8\n      gas\n      call\n      swap3\n      pop\n      pop\n      pop\n      returndatasize\n      dup1\n      0x00\n      dup2\n      eq\n      tag_60\n      jumpi\n      mload(0x40)\n      swap2\n      pop\n      and(add(returndatasize, 0x3f), not(0x1f))\n      dup3\n      add\n      0x40\n      mstore\n      returndatasize\n      dup3\n      mstore\n      returndatasize\n      0x00\n      0x20\n      dup5\n      add\n      returndatacopy\n      jump(tag_59)\n    tag_60:\n      0x60\n      swap2\n      pop\n    tag_59:\n      pop\n        /* \"tutor.sol\":2611:2654  (bool sent, ) = to.call{value: 500 wei}(\"\") */\n      pop\n      swap1\n      pop\n        /* \"tutor.sol\":2672:2676  sent */\n      dup1\n        /* \"tutor.sol\":2664:2701  require(sent, \"Failed to send Ether\") */\n      tag_61\n      jumpi\n      mload(0x40)\n      0x08c379a000000000000000000000000000000000000000000000000000000000\n      dup2\n      mstore\n      0x04\n      add\n      tag_62\n      swap1\n      tag_63\n      jump\t// in\n    tag_62:\n      mload(0x40)\n      dup1\n      swap2\n      sub\n      swap1\n      revert\n    tag_61:\n        /* \"tutor.sol\":2601:2710  {... */\n      pop\n        /* \"tutor.sol\":2568:2710  if (fxp.unwrap(grade) > 9750000) {... */\n    tag_55:\n        /* \"tutor.sol\":2078:2716  function answer(uint8 a, address payable to) external payable  {... */\n      pop\n      pop\n      jump\t// out\n        /* \"tutor.sol\":1771:1872  function calculate_grade() public view returns (fxp) {... */\n    tag_12:\n        /* \"tutor.sol\":1819:1822  fxp */\n      0x00\n        /* \"tutor.sol\":1839:1867  dot_product(weights, points) */\n      tag_65\n        /* \"tutor.sol\":1851:1858  weights */\n      0x03\n        /* \"tutor.sol\":1839:1867  dot_product(weights, points) */\n      dup1\n      sload\n      dup1\n      0x20\n      mul\n      0x20\n      add\n      mload(0x40)\n      swap1\n      dup2\n      add\n      0x40\n      mstore\n      dup1\n      swap3\n      swap2\n      swap1\n      dup2\n      dup2\n      mstore\n      0x20\n      add\n      dup3\n      dup1\n      sload\n      dup1\n      iszero\n      tag_66\n      jumpi\n      0x20\n      mul\n      dup3\n      add\n      swap2\n      swap1\n      0x00\n      mstore\n      keccak256(0x00, 0x20)\n      swap1\n      0x00\n      swap1\n    tag_67:\n      dup3\n      dup3\n      swap1\n      sload\n      swap1\n      0x0100\n      exp\n      swap1\n      div\n      0x07\n      signextend\n      0x07\n      signextend\n      dup2\n      mstore\n      0x20\n      add\n      swap1\n      0x08\n      add\n      swap1\n      0x20\n      dup3\n      0x07\n      add\n      div\n      swap3\n      dup4\n      add\n      swap3\n      0x01\n      sub\n      dup3\n      mul\n      swap2\n      pop\n      dup1\n      dup5\n      gt\n      tag_67\n      jumpi\n      swap1\n      pop\n    tag_66:\n      pop\n      pop\n      pop\n      pop\n      pop\n        /* \"tutor.sol\":1860:1866  points */\n      0x04\n        /* \"tutor.sol\":1839:1867  dot_product(weights, points) */\n      dup1\n      sload\n      dup1\n      0x20\n      mul\n      0x20\n      add\n      mload(0x40)\n      swap1\n      dup2\n      add\n      0x40\n      mstore\n      dup1\n      swap3\n      swap2\n      swap1\n      dup2\n      dup2\n      mstore\n      0x20\n      add\n      dup3\n      dup1\n      sload\n      dup1\n      iszero\n      tag_68\n      jumpi\n      0x20\n      mul\n      dup3\n      add\n      swap2\n      swap1\n      0x00\n      mstore\n      keccak256(0x00, 0x20)\n      swap1\n      0x00\n      swap1\n    tag_69:\n      dup3\n      dup3\n      swap1\n      sload\n      swap1\n      0x0100\n      exp\n      swap1\n      div\n      0x07\n      signextend\n      0x07\n      signextend\n      dup2\n      mstore\n      0x20\n      add\n      swap1\n      0x08\n      add\n      swap1\n      0x20\n      dup3\n      0x07\n      add\n      div\n      swap3\n      dup4\n      add\n      swap3\n      0x01\n      sub\n      dup3\n      mul\n      swap2\n      pop\n      dup1\n      dup5\n      gt\n      tag_69\n      jumpi\n      swap1\n      pop\n    tag_68:\n      pop\n      pop\n      pop\n      pop\n      pop\n        /* \"tutor.sol\":1839:1850  dot_product */\n      tag_70\n        /* \"tutor.sol\":1839:1867  dot_product(weights, points) */\n      jump\t// in\n    tag_65:\n        /* \"tutor.sol\":1832:1867  return dot_product(weights, points) */\n      swap1\n      pop\n        /* \"tutor.sol\":1771:1872  function calculate_grade() public view returns (fxp) {... */\n      swap1\n      jump\t// out\n        /* \"tutor.sol\":1876:1986  function get_current_question() external  view returns (string memory) {... */\n    tag_17:\n        /* \"tutor.sol\":1932:1945  string memory */\n      0x60\n        /* \"tutor.sol\":1962:1971  questions */\n      0x01\n        /* \"tutor.sol\":1972:1980  progress */\n      0x05\n      0x00\n      swap1\n      sload\n      swap1\n      0x0100\n      exp\n      swap1\n      div\n      0xff\n      and\n        /* \"tutor.sol\":1962:1981  questions[progress] */\n      0xff\n      and\n      dup2\n      sload\n      dup2\n      lt\n      tag_72\n      jumpi\n      tag_73\n      tag_29\n      jump\t// in\n    tag_73:\n    tag_72:\n      swap1\n      0x00\n      mstore\n      keccak256(0x00, 0x20)\n      add\n        /* \"tutor.sol\":1955:1981  return questions[progress] */\n      dup1\n      sload\n      tag_75\n      swap1\n      tag_76\n      jump\t// in\n    tag_75:\n      dup1\n      0x1f\n      add\n      0x20\n      dup1\n      swap2\n      div\n      mul\n      0x20\n      add\n      mload(0x40)\n      swap1\n      dup2\n      add\n      0x40\n      mstore\n      dup1\n      swap3\n      swap2\n      swap1\n      dup2\n      dup2\n      mstore\n      0x20\n      add\n      dup3\n      dup1\n      sload\n      tag_77\n      swap1\n      tag_76\n      jump\t// in\n    tag_77:\n      dup1\n      iszero\n      tag_78\n      jumpi\n      dup1\n      0x1f\n      lt\n      tag_79\n      jumpi\n      0x0100\n      dup1\n      dup4\n      sload\n      div\n      mul\n      dup4\n      mstore\n      swap2\n      0x20\n      add\n      swap2\n      jump(tag_78)\n    tag_79:\n      dup3\n      add\n      swap2\n      swap1\n      0x00\n      mstore\n      keccak256(0x00, 0x20)\n      swap1\n    tag_80:\n      dup2\n      sload\n      dup2\n      mstore\n      swap1\n      0x01\n      add\n      swap1\n      0x20\n      add\n      dup1\n      dup4\n      gt\n      tag_80\n      jumpi\n      dup3\n      swap1\n      sub\n      0x1f\n      and\n      dup3\n      add\n      swap2\n    tag_78:\n      pop\n      pop\n      pop\n      pop\n      pop\n      swap1\n      pop\n        /* \"tutor.sol\":1876:1986  function get_current_question() external  view returns (string memory) {... */\n      swap1\n      jump\t// out\n        /* \"tutor.sol\":1991:2074  function get_progress() external  view returns (uint8) {... */\n    tag_22:\n        /* \"tutor.sol\":2039:2044  uint8 */\n      0x00\n        /* \"tutor.sol\":2061:2069  progress */\n      0x05\n      0x00\n      swap1\n      sload\n      swap1\n      0x0100\n      exp\n      swap1\n      div\n      0xff\n      and\n        /* \"tutor.sol\":2054:2069  return progress */\n      swap1\n      pop\n        /* \"tutor.sol\":1991:2074  function get_progress() external  view returns (uint8) {... */\n      swap1\n      jump\t// out\n        /* \"tutor.sol\":1524:1767  function push_front(fxp[] memory xs, fxp x) private pure returns (fxp[] memory) {... */\n    tag_35:\n        /* \"tutor.sol\":1590:1602  fxp[] memory */\n      0x60\n        /* \"tutor.sol\":1610:1625  fxp[] memory ys */\n      0x00\n        /* \"tutor.sol\":1650:1651  1 */\n      0x01\n        /* \"tutor.sol\":1638:1640  xs */\n      dup5\n        /* \"tutor.sol\":1638:1647  xs.length */\n      mload\n        /* \"tutor.sol\":1638:1651  xs.length + 1 */\n      tag_83\n      swap2\n      swap1\n      tag_84\n      jump\t// in\n    tag_83:\n        /* \"tutor.sol\":1628:1652  new fxp[](xs.length + 1) */\n      0xffffffffffffffff\n      dup2\n      gt\n      iszero\n      tag_85\n      jumpi\n      tag_86\n      tag_87\n      jump\t// in\n    tag_86:\n    tag_85:\n      mload(0x40)\n      swap1\n      dup1\n      dup3\n      mstore\n      dup1\n      0x20\n      mul\n      0x20\n      add\n      dup3\n      add\n      0x40\n      mstore\n      dup1\n      iszero\n      tag_88\n      jumpi\n      dup2\n      0x20\n      add\n      0x20\n      dup3\n      mul\n      dup1\n      calldatasize\n      dup4\n      calldatacopy\n      dup1\n      dup3\n      add\n      swap2\n      pop\n      pop\n      swap1\n      pop\n    tag_88:\n      pop\n        /* \"tutor.sol\":1610:1652  fxp[] memory ys = new fxp[](xs.length + 1) */\n      swap1\n      pop\n        /* \"tutor.sol\":1664:1673  uint256 i */\n      0x00\n        /* \"tutor.sol\":1659:1732  for (uint256 i = 0; i < xs.length; i++) {... */\n    tag_89:\n        /* \"tutor.sol\":1683:1685  xs */\n      dup5\n        /* \"tutor.sol\":1683:1692  xs.length */\n      mload\n        /* \"tutor.sol\":1679:1680  i */\n      dup2\n        /* \"tutor.sol\":1679:1692  i < xs.length */\n      lt\n        /* \"tutor.sol\":1659:1732  for (uint256 i = 0; i < xs.length; i++) {... */\n      iszero\n      tag_90\n      jumpi\n        /* \"tutor.sol\":1719:1721  xs */\n      dup5\n        /* \"tutor.sol\":1722:1723  i */\n      dup2\n        /* \"tutor.sol\":1719:1724  xs[i] */\n      dup2\n      mload\n      dup2\n      lt\n      tag_92\n      jumpi\n      tag_93\n      tag_29\n      jump\t// in\n    tag_93:\n    tag_92:\n      0x20\n      mul\n      0x20\n      add\n      add\n      mload\n        /* \"tutor.sol\":1709:1711  ys */\n      dup3\n        /* \"tutor.sol\":1714:1715  1 */\n      0x01\n        /* \"tutor.sol\":1712:1713  i */\n      dup4\n        /* \"tutor.sol\":1712:1715  i+1 */\n      tag_94\n      swap2\n      swap1\n      tag_84\n      jump\t// in\n    tag_94:\n        /* \"tutor.sol\":1709:1716  ys[i+1] */\n      dup2\n      mload\n      dup2\n      lt\n      tag_95\n      jumpi\n      tag_96\n      tag_29\n      jump\t// in\n    tag_96:\n    tag_95:\n      0x20\n      mul\n      0x20\n      add\n      add\n        /* \"tutor.sol\":1709:1724  ys[i+1] = xs[i] */\n      swap1\n      0x07\n      signextend\n      swap1\n      dup2\n      0x07\n      signextend\n      dup2\n      mstore\n      pop\n      pop\n        /* \"tutor.sol\":1694:1697  i++ */\n      dup1\n      dup1\n      0x01\n      add\n      swap2\n      pop\n      pop\n        /* \"tutor.sol\":1659:1732  for (uint256 i = 0; i < xs.length; i++) {... */\n      jump(tag_89)\n    tag_90:\n      pop\n        /* \"tutor.sol\":1745:1746  x */\n      dup3\n        /* \"tutor.sol\":1737:1739  ys */\n      dup2\n        /* \"tutor.sol\":1740:1741  0 */\n      0x00\n        /* \"tutor.sol\":1737:1742  ys[0] */\n      dup2\n      mload\n      dup2\n      lt\n      tag_97\n      jumpi\n      tag_98\n      tag_29\n      jump\t// in\n    tag_98:\n    tag_97:\n      0x20\n      mul\n      0x20\n      add\n      add\n        /* \"tutor.sol\":1737:1746  ys[0] = x */\n      swap1\n      0x07\n      signextend\n      swap1\n      dup2\n      0x07\n      signextend\n      dup2\n      mstore\n      pop\n      pop\n        /* \"tutor.sol\":1760:1762  ys */\n      dup1\n        /* \"tutor.sol\":1753:1762  return ys */\n      swap2\n      pop\n      pop\n        /* \"tutor.sol\":1524:1767  function push_front(fxp[] memory xs, fxp x) private pure returns (fxp[] memory) {... */\n      swap3\n      swap2\n      pop\n      pop\n      jump\t// out\n        /* \"tutor.sol\":1231:1520  function dot_product(fxp[] memory xs, fxp[] memory ys) private pure returns (fxp) {... */\n    tag_70:\n        /* \"tutor.sol\":1308:1311  fxp */\n      0x00\n        /* \"tutor.sol\":1341:1343  ys */\n      dup2\n        /* \"tutor.sol\":1341:1350  ys.length */\n      mload\n        /* \"tutor.sol\":1328:1330  xs */\n      dup4\n        /* \"tutor.sol\":1328:1337  xs.length */\n      mload\n        /* \"tutor.sol\":1328:1350  xs.length == ys.length */\n      eq\n        /* \"tutor.sol\":1321:1351  assert(xs.length == ys.length) */\n      tag_100\n      jumpi\n      tag_101\n      tag_102\n      jump\t// in\n    tag_101:\n    tag_100:\n        /* \"tutor.sol\":1359:1372  int64 product */\n      0x00\n        /* \"tutor.sol\":1389:1396  uint8 i */\n      dup1\n        /* \"tutor.sol\":1384:1484  for (uint8 i = 0; i < xs.length; i++) {... */\n    tag_103:\n        /* \"tutor.sol\":1406:1408  xs */\n      dup5\n        /* \"tutor.sol\":1406:1415  xs.length */\n      mload\n        /* \"tutor.sol\":1402:1403  i */\n      dup2\n        /* \"tutor.sol\":1402:1415  i < xs.length */\n      0xff\n      and\n      lt\n        /* \"tutor.sol\":1384:1484  for (uint8 i = 0; i < xs.length; i++) {... */\n      iszero\n      tag_104\n      jumpi\n        /* \"tutor.sol\":1453:1474  fxp_mul(xs[i], ys[i]) */\n      tag_106\n        /* \"tutor.sol\":1461:1463  xs */\n      dup6\n        /* \"tutor.sol\":1464:1465  i */\n      dup3\n        /* \"tutor.sol\":1461:1466  xs[i] */\n      0xff\n      and\n      dup2\n      mload\n      dup2\n      lt\n      tag_107\n      jumpi\n      tag_108\n      tag_29\n      jump\t// in\n    tag_108:\n    tag_107:\n      0x20\n      mul\n      0x20\n      add\n      add\n      mload\n        /* \"tutor.sol\":1468:1470  ys */\n      dup6\n        /* \"tutor.sol\":1471:1472  i */\n      dup4\n        /* \"tutor.sol\":1468:1473  ys[i] */\n      0xff\n      and\n      dup2\n      mload\n      dup2\n      lt\n      tag_109\n      jumpi\n      tag_110\n      tag_29\n      jump\t// in\n    tag_110:\n    tag_109:\n      0x20\n      mul\n      0x20\n      add\n      add\n      mload\n        /* \"tutor.sol\":1453:1460  fxp_mul */\n      tag_111\n        /* \"tutor.sol\":1453:1474  fxp_mul(xs[i], ys[i]) */\n      jump\t// in\n    tag_106:\n        /* \"tutor.sol\":1431:1475  product += fxp.unwrap(fxp_mul(xs[i], ys[i])) */\n      dup3\n      tag_112\n      swap2\n      swap1\n      tag_113\n      jump\t// in\n    tag_112:\n      swap2\n      pop\n        /* \"tutor.sol\":1417:1420  i++ */\n      dup1\n      dup1\n      tag_114\n      swap1\n      tag_45\n      jump\t// in\n    tag_114:\n      swap2\n      pop\n      pop\n        /* \"tutor.sol\":1384:1484  for (uint8 i = 0; i < xs.length; i++) {... */\n      jump(tag_103)\n    tag_104:\n      pop\n        /* \"tutor.sol\":1507:1514  product */\n      dup1\n        /* \"tutor.sol\":1491:1515  return fxp.wrap(product) */\n      swap2\n      pop\n      pop\n        /* \"tutor.sol\":1231:1520  function dot_product(fxp[] memory xs, fxp[] memory ys) private pure returns (fxp) {... */\n      swap3\n      swap2\n      pop\n      pop\n      jump\t// out\n        /* \"tutor.sol\":1100:1227  function fxp_mul(fxp x, fxp y) private pure returns (fxp) {... */\n    tag_111:\n        /* \"tutor.sol\":1153:1156  fxp */\n      0x00\n        /* \"tutor.sol\":1214:1221  1000000 */\n      0x0f4240\n        /* \"tutor.sol\":1209:1210  y */\n      dup3\n        /* \"tutor.sol\":1193:1194  x */\n      dup5\n        /* \"tutor.sol\":1182:1211  fxp.unwrap(x) * fxp.unwrap(y) */\n      tag_116\n      swap2\n      swap1\n      tag_117\n      jump\t// in\n    tag_116:\n        /* \"tutor.sol\":1182:1221  fxp.unwrap(x) * fxp.unwrap(y) / 1000000 */\n      tag_118\n      swap2\n      swap1\n      tag_119\n      jump\t// in\n    tag_118:\n        /* \"tutor.sol\":1166:1222  return fxp.wrap(fxp.unwrap(x) * fxp.unwrap(y) / 1000000) */\n      swap1\n      pop\n        /* \"tutor.sol\":1100:1227  function fxp_mul(fxp x, fxp y) private pure returns (fxp) {... */\n      swap3\n      swap2\n      pop\n      pop\n      jump\t// out\n    tag_37:\n      dup3\n      dup1\n      sload\n      dup3\n      dup3\n      sstore\n      swap1\n      0x00\n      mstore\n      keccak256(0x00, 0x20)\n      swap1\n      0x03\n      add\n      0x04\n      swap1\n      div\n      dup2\n      add\n      swap3\n      dup3\n      iszero\n      tag_120\n      jumpi\n      swap2\n      0x20\n      mul\n      dup3\n      add\n      0x00\n    tag_121:\n      dup4\n      dup3\n      gt\n      iszero\n      tag_122\n      jumpi\n      dup4\n      mload\n      dup4\n      dup3\n      0x0100\n      exp\n      dup2\n      sload\n      dup2\n      0xffffffffffffffff\n      mul\n      not\n      and\n      swap1\n      dup4\n      0x07\n      signextend\n      0xffffffffffffffff\n      and\n      mul\n      or\n      swap1\n      sstore\n      pop\n      swap3\n      0x20\n      add\n      swap3\n      0x08\n      add\n      0x20\n      dup2\n      0x07\n      add\n      div\n      swap3\n      dup4\n      add\n      swap3\n      0x01\n      sub\n      mul\n      jump(tag_121)\n    tag_122:\n      dup1\n      iszero\n      tag_123\n      jumpi\n      dup3\n      dup2\n      0x0100\n      exp\n      dup2\n      sload\n      swap1\n      0xffffffffffffffff\n      mul\n      not\n      and\n      swap1\n      sstore\n      0x08\n      add\n      0x20\n      dup2\n      0x07\n      add\n      div\n      swap3\n      dup4\n      add\n      swap3\n      0x01\n      sub\n      mul\n      jump(tag_122)\n    tag_123:\n      pop\n    tag_120:\n      pop\n      swap1\n      pop\n      tag_124\n      swap2\n      swap1\n      tag_125\n      jump\t// in\n    tag_124:\n      pop\n      swap1\n      jump\t// out\n    tag_125:\n    tag_126:\n      dup1\n      dup3\n      gt\n      iszero\n      tag_127\n      jumpi\n      0x00\n      dup2\n      0x00\n      swap1\n      sstore\n      pop\n      0x01\n      add\n      jump(tag_126)\n    tag_127:\n      pop\n      swap1\n      jump\t// out\n        /* \"#utility.yul\":88:205   */\n    tag_129:\n        /* \"#utility.yul\":197:198   */\n      0x00\n        /* \"#utility.yul\":194:195   */\n      dup1\n        /* \"#utility.yul\":187:199   */\n      revert\n        /* \"#utility.yul\":334:420   */\n    tag_131:\n        /* \"#utility.yul\":369:376   */\n      0x00\n        /* \"#utility.yul\":409:413   */\n      0xff\n        /* \"#utility.yul\":402:407   */\n      dup3\n        /* \"#utility.yul\":398:414   */\n      and\n        /* \"#utility.yul\":387:414   */\n      swap1\n      pop\n        /* \"#utility.yul\":334:420   */\n      swap2\n      swap1\n      pop\n      jump\t// out\n        /* \"#utility.yul\":426:544   */\n    tag_132:\n        /* \"#utility.yul\":497:519   */\n      tag_165\n        /* \"#utility.yul\":513:518   */\n      dup2\n        /* \"#utility.yul\":497:519   */\n      tag_131\n      jump\t// in\n    tag_165:\n        /* \"#utility.yul\":490:495   */\n      dup2\n        /* \"#utility.yul\":487:520   */\n      eq\n        /* \"#utility.yul\":477:538   */\n      tag_166\n      jumpi\n        /* \"#utility.yul\":534:535   */\n      0x00\n        /* \"#utility.yul\":531:532   */\n      dup1\n        /* \"#utility.yul\":524:536   */\n      revert\n        /* \"#utility.yul\":477:538   */\n    tag_166:\n        /* \"#utility.yul\":426:544   */\n      pop\n      jump\t// out\n        /* \"#utility.yul\":550:685   */\n    tag_133:\n        /* \"#utility.yul\":594:599   */\n      0x00\n        /* \"#utility.yul\":632:638   */\n      dup2\n        /* \"#utility.yul\":619:639   */\n      calldataload\n        /* \"#utility.yul\":610:639   */\n      swap1\n      pop\n        /* \"#utility.yul\":648:679   */\n      tag_168\n        /* \"#utility.yul\":673:678   */\n      dup2\n        /* \"#utility.yul\":648:679   */\n      tag_132\n      jump\t// in\n    tag_168:\n        /* \"#utility.yul\":550:685   */\n      swap3\n      swap2\n      pop\n      pop\n      jump\t// out\n        /* \"#utility.yul\":691:817   */\n    tag_134:\n        /* \"#utility.yul\":728:735   */\n      0x00\n        /* \"#utility.yul\":768:810   */\n      0xffffffffffffffffffffffffffffffffffffffff\n        /* \"#utility.yul\":761:766   */\n      dup3\n        /* \"#utility.yul\":757:811   */\n      and\n        /* \"#utility.yul\":746:811   */\n      swap1\n      pop\n        /* \"#utility.yul\":691:817   */\n      swap2\n      swap1\n      pop\n      jump\t// out\n        /* \"#utility.yul\":823:927   */\n    tag_135:\n        /* \"#utility.yul\":868:875   */\n      0x00\n        /* \"#utility.yul\":897:921   */\n      tag_171\n        /* \"#utility.yul\":915:920   */\n      dup3\n        /* \"#utility.yul\":897:921   */\n      tag_134\n      jump\t// in\n    tag_171:\n        /* \"#utility.yul\":886:921   */\n      swap1\n      pop\n        /* \"#utility.yul\":823:927   */\n      swap2\n      swap1\n      pop\n      jump\t// out\n        /* \"#utility.yul\":933:1071   */\n    tag_136:\n        /* \"#utility.yul\":1014:1046   */\n      tag_173\n        /* \"#utility.yul\":1040:1045   */\n      dup2\n        /* \"#utility.yul\":1014:1046   */\n      tag_135\n      jump\t// in\n    tag_173:\n        /* \"#utility.yul\":1007:1012   */\n      dup2\n        /* \"#utility.yul\":1004:1047   */\n      eq\n        /* \"#utility.yul\":994:1065   */\n      tag_174\n      jumpi\n        /* \"#utility.yul\":1061:1062   */\n      0x00\n        /* \"#utility.yul\":1058:1059   */\n      dup1\n        /* \"#utility.yul\":1051:1063   */\n      revert\n        /* \"#utility.yul\":994:1065   */\n    tag_174:\n        /* \"#utility.yul\":933:1071   */\n      pop\n      jump\t// out\n        /* \"#utility.yul\":1077:1232   */\n    tag_137:\n        /* \"#utility.yul\":1131:1136   */\n      0x00\n        /* \"#utility.yul\":1169:1175   */\n      dup2\n        /* \"#utility.yul\":1156:1176   */\n      calldataload\n        /* \"#utility.yul\":1147:1176   */\n      swap1\n      pop\n        /* \"#utility.yul\":1185:1226   */\n      tag_176\n        /* \"#utility.yul\":1220:1225   */\n      dup2\n        /* \"#utility.yul\":1185:1226   */\n      tag_136\n      jump\t// in\n    tag_176:\n        /* \"#utility.yul\":1077:1232   */\n      swap3\n      swap2\n      pop\n      pop\n      jump\t// out\n        /* \"#utility.yul\":1238:1724   */\n    tag_8:\n        /* \"#utility.yul\":1312:1318   */\n      0x00\n        /* \"#utility.yul\":1320:1326   */\n      dup1\n        /* \"#utility.yul\":1369:1371   */\n      0x40\n        /* \"#utility.yul\":1357:1366   */\n      dup4\n        /* \"#utility.yul\":1348:1355   */\n      dup6\n        /* \"#utility.yul\":1344:1367   */\n      sub\n        /* \"#utility.yul\":1340:1372   */\n      slt\n        /* \"#utility.yul\":1337:1456   */\n      iszero\n      tag_178\n      jumpi\n        /* \"#utility.yul\":1375:1454   */\n      tag_179\n      tag_129\n      jump\t// in\n    tag_179:\n        /* \"#utility.yul\":1337:1456   */\n    tag_178:\n        /* \"#utility.yul\":1495:1496   */\n      0x00\n        /* \"#utility.yul\":1520:1571   */\n      tag_180\n        /* \"#utility.yul\":1563:1570   */\n      dup6\n        /* \"#utility.yul\":1554:1560   */\n      dup3\n        /* \"#utility.yul\":1543:1552   */\n      dup7\n        /* \"#utility.yul\":1539:1561   */\n      add\n        /* \"#utility.yul\":1520:1571   */\n      tag_133\n      jump\t// in\n    tag_180:\n        /* \"#utility.yul\":1510:1571   */\n      swap3\n      pop\n        /* \"#utility.yul\":1466:1581   */\n      pop\n        /* \"#utility.yul\":1620:1622   */\n      0x20\n        /* \"#utility.yul\":1646:1707   */\n      tag_181\n        /* \"#utility.yul\":1699:1706   */\n      dup6\n        /* \"#utility.yul\":1690:1696   */\n      dup3\n        /* \"#utility.yul\":1679:1688   */\n      dup7\n        /* \"#utility.yul\":1675:1697   */\n      add\n        /* \"#utility.yul\":1646:1707   */\n      tag_137\n      jump\t// in\n    tag_181:\n        /* \"#utility.yul\":1636:1707   */\n      swap2\n      pop\n        /* \"#utility.yul\":1591:1717   */\n      pop\n        /* \"#utility.yul\":1238:1724   */\n      swap3\n      pop\n      swap3\n      swap1\n      pop\n      jump\t// out\n        /* \"#utility.yul\":1730:1820   */\n    tag_138:\n        /* \"#utility.yul\":1765:1772   */\n      0x00\n        /* \"#utility.yul\":1808:1813   */\n      dup2\n        /* \"#utility.yul\":1805:1806   */\n      0x07\n        /* \"#utility.yul\":1794:1814   */\n      signextend\n        /* \"#utility.yul\":1783:1814   */\n      swap1\n      pop\n        /* \"#utility.yul\":1730:1820   */\n      swap2\n      swap1\n      pop\n      jump\t// out\n        /* \"#utility.yul\":1826:1886   */\n    tag_139:\n        /* \"#utility.yul\":1854:1857   */\n      0x00\n        /* \"#utility.yul\":1875:1880   */\n      dup2\n        /* \"#utility.yul\":1868:1880   */\n      swap1\n      pop\n        /* \"#utility.yul\":1826:1886   */\n      swap2\n      swap1\n      pop\n      jump\t// out\n        /* \"#utility.yul\":1892:2026   */\n    tag_140:\n        /* \"#utility.yul\":1938:1947   */\n      0x00\n        /* \"#utility.yul\":1971:2020   */\n      tag_185\n        /* \"#utility.yul\":1987:2019   */\n      tag_186\n        /* \"#utility.yul\":1996:2018   */\n      tag_187\n        /* \"#utility.yul\":2012:2017   */\n      dup5\n        /* \"#utility.yul\":1996:2018   */\n      tag_138\n      jump\t// in\n    tag_187:\n        /* \"#utility.yul\":1987:2019   */\n      tag_139\n      jump\t// in\n    tag_186:\n        /* \"#utility.yul\":1971:2020   */\n      tag_138\n      jump\t// in\n    tag_185:\n        /* \"#utility.yul\":1958:2020   */\n      swap1\n      pop\n        /* \"#utility.yul\":1892:2026   */\n      swap2\n      swap1\n      pop\n      jump\t// out\n        /* \"#utility.yul\":2032:2179   */\n    tag_141:\n        /* \"#utility.yul\":2139:2172   */\n      tag_189\n        /* \"#utility.yul\":2166:2171   */\n      dup2\n        /* \"#utility.yul\":2139:2172   */\n      tag_140\n      jump\t// in\n    tag_189:\n        /* \"#utility.yul\":2134:2137   */\n      dup3\n        /* \"#utility.yul\":2127:2173   */\n      mstore\n        /* \"#utility.yul\":2032:2179   */\n      pop\n      pop\n      jump\t// out\n        /* \"#utility.yul\":2185:2447   */\n    tag_14:\n        /* \"#utility.yul\":2298:2302   */\n      0x00\n        /* \"#utility.yul\":2336:2338   */\n      0x20\n        /* \"#utility.yul\":2325:2334   */\n      dup3\n        /* \"#utility.yul\":2321:2339   */\n      add\n        /* \"#utility.yul\":2313:2339   */\n      swap1\n      pop\n        /* \"#utility.yul\":2349:2440   */\n      tag_191\n        /* \"#utility.yul\":2437:2438   */\n      0x00\n        /* \"#utility.yul\":2426:2435   */\n      dup4\n        /* \"#utility.yul\":2422:2439   */\n      add\n        /* \"#utility.yul\":2413:2419   */\n      dup5\n        /* \"#utility.yul\":2349:2440   */\n      tag_141\n      jump\t// in\n    tag_191:\n        /* \"#utility.yul\":2185:2447   */\n      swap3\n      swap2\n      pop\n      pop\n      jump\t// out\n        /* \"#utility.yul\":2453:2552   */\n    tag_142:\n        /* \"#utility.yul\":2505:2511   */\n      0x00\n        /* \"#utility.yul\":2539:2544   */\n      dup2\n        /* \"#utility.yul\":2533:2545   */\n      mload\n        /* \"#utility.yul\":2523:2545   */\n      swap1\n      pop\n        /* \"#utility.yul\":2453:2552   */\n      swap2\n      swap1\n      pop\n      jump\t// out\n        /* \"#utility.yul\":2558:2727   */\n    tag_143:\n        /* \"#utility.yul\":2642:2653   */\n      0x00\n        /* \"#utility.yul\":2676:2682   */\n      dup3\n        /* \"#utility.yul\":2671:2674   */\n      dup3\n        /* \"#utility.yul\":2664:2683   */\n      mstore\n        /* \"#utility.yul\":2716:2720   */\n      0x20\n        /* \"#utility.yul\":2711:2714   */\n      dup3\n        /* \"#utility.yul\":2707:2721   */\n      add\n        /* \"#utility.yul\":2692:2721   */\n      swap1\n      pop\n        /* \"#utility.yul\":2558:2727   */\n      swap3\n      swap2\n      pop\n      pop\n      jump\t// out\n        /* \"#utility.yul\":2733:2872   */\n    tag_144:\n        /* \"#utility.yul\":2822:2828   */\n      dup3\n        /* \"#utility.yul\":2817:2820   */\n      dup2\n        /* \"#utility.yul\":2812:2815   */\n      dup4\n        /* \"#utility.yul\":2806:2829   */\n      mcopy\n        /* \"#utility.yul\":2863:2864   */\n      0x00\n        /* \"#utility.yul\":2854:2860   */\n      dup4\n        /* \"#utility.yul\":2849:2852   */\n      dup4\n        /* \"#utility.yul\":2845:2861   */\n      add\n        /* \"#utility.yul\":2838:2865   */\n      mstore\n        /* \"#utility.yul\":2733:2872   */\n      pop\n      pop\n      pop\n      jump\t// out\n        /* \"#utility.yul\":2878:2980   */\n    tag_145:\n        /* \"#utility.yul\":2919:2925   */\n      0x00\n        /* \"#utility.yul\":2970:2972   */\n      0x1f\n        /* \"#utility.yul\":2966:2973   */\n      not\n        /* \"#utility.yul\":2961:2963   */\n      0x1f\n        /* \"#utility.yul\":2954:2959   */\n      dup4\n        /* \"#utility.yul\":2950:2964   */\n      add\n        /* \"#utility.yul\":2946:2974   */\n      and\n        /* \"#utility.yul\":2936:2974   */\n      swap1\n      pop\n        /* \"#utility.yul\":2878:2980   */\n      swap2\n      swap1\n      pop\n      jump\t// out\n        /* \"#utility.yul\":2986:3363   */\n    tag_146:\n        /* \"#utility.yul\":3074:3077   */\n      0x00\n        /* \"#utility.yul\":3102:3141   */\n      tag_197\n        /* \"#utility.yul\":3135:3140   */\n      dup3\n        /* \"#utility.yul\":3102:3141   */\n      tag_142\n      jump\t// in\n    tag_197:\n        /* \"#utility.yul\":3157:3228   */\n      tag_198\n        /* \"#utility.yul\":3221:3227   */\n      dup2\n        /* \"#utility.yul\":3216:3219   */\n      dup6\n        /* \"#utility.yul\":3157:3228   */\n      tag_143\n      jump\t// in\n    tag_198:\n        /* \"#utility.yul\":3150:3228   */\n      swap4\n      pop\n        /* \"#utility.yul\":3237:3302   */\n      tag_199\n        /* \"#utility.yul\":3295:3301   */\n      dup2\n        /* \"#utility.yul\":3290:3293   */\n      dup6\n        /* \"#utility.yul\":3283:3287   */\n      0x20\n        /* \"#utility.yul\":3276:3281   */\n      dup7\n        /* \"#utility.yul\":3272:3288   */\n      add\n        /* \"#utility.yul\":3237:3302   */\n      tag_144\n      jump\t// in\n    tag_199:\n        /* \"#utility.yul\":3327:3356   */\n      tag_200\n        /* \"#utility.yul\":3349:3355   */\n      dup2\n        /* \"#utility.yul\":3327:3356   */\n      tag_145\n      jump\t// in\n    tag_200:\n        /* \"#utility.yul\":3322:3325   */\n      dup5\n        /* \"#utility.yul\":3318:3357   */\n      add\n        /* \"#utility.yul\":3311:3357   */\n      swap2\n      pop\n        /* \"#utility.yul\":3078:3363   */\n      pop\n        /* \"#utility.yul\":2986:3363   */\n      swap3\n      swap2\n      pop\n      pop\n      jump\t// out\n        /* \"#utility.yul\":3369:3682   */\n    tag_19:\n        /* \"#utility.yul\":3482:3486   */\n      0x00\n        /* \"#utility.yul\":3520:3522   */\n      0x20\n        /* \"#utility.yul\":3509:3518   */\n      dup3\n        /* \"#utility.yul\":3505:3523   */\n      add\n        /* \"#utility.yul\":3497:3523   */\n      swap1\n      pop\n        /* \"#utility.yul\":3569:3578   */\n      dup2\n        /* \"#utility.yul\":3563:3567   */\n      dup2\n        /* \"#utility.yul\":3559:3579   */\n      sub\n        /* \"#utility.yul\":3555:3556   */\n      0x00\n        /* \"#utility.yul\":3544:3553   */\n      dup4\n        /* \"#utility.yul\":3540:3557   */\n      add\n        /* \"#utility.yul\":3533:3580   */\n      mstore\n        /* \"#utility.yul\":3597:3675   */\n      tag_202\n        /* \"#utility.yul\":3670:3674   */\n      dup2\n        /* \"#utility.yul\":3661:3667   */\n      dup5\n        /* \"#utility.yul\":3597:3675   */\n      tag_146\n      jump\t// in\n    tag_202:\n        /* \"#utility.yul\":3589:3675   */\n      swap1\n      pop\n        /* \"#utility.yul\":3369:3682   */\n      swap3\n      swap2\n      pop\n      pop\n      jump\t// out\n        /* \"#utility.yul\":3688:3800   */\n    tag_147:\n        /* \"#utility.yul\":3771:3793   */\n      tag_204\n        /* \"#utility.yul\":3787:3792   */\n      dup2\n        /* \"#utility.yul\":3771:3793   */\n      tag_131\n      jump\t// in\n    tag_204:\n        /* \"#utility.yul\":3766:3769   */\n      dup3\n        /* \"#utility.yul\":3759:3794   */\n      mstore\n        /* \"#utility.yul\":3688:3800   */\n      pop\n      pop\n      jump\t// out\n        /* \"#utility.yul\":3806:4020   */\n    tag_24:\n        /* \"#utility.yul\":3895:3899   */\n      0x00\n        /* \"#utility.yul\":3933:3935   */\n      0x20\n        /* \"#utility.yul\":3922:3931   */\n      dup3\n        /* \"#utility.yul\":3918:3936   */\n      add\n        /* \"#utility.yul\":3910:3936   */\n      swap1\n      pop\n        /* \"#utility.yul\":3946:4013   */\n      tag_206\n        /* \"#utility.yul\":4010:4011   */\n      0x00\n        /* \"#utility.yul\":3999:4008   */\n      dup4\n        /* \"#utility.yul\":3995:4012   */\n      add\n        /* \"#utility.yul\":3986:3992   */\n      dup5\n        /* \"#utility.yul\":3946:4013   */\n      tag_147\n      jump\t// in\n    tag_206:\n        /* \"#utility.yul\":3806:4020   */\n      swap3\n      swap2\n      pop\n      pop\n      jump\t// out\n        /* \"#utility.yul\":4026:4206   */\n    tag_29:\n        /* \"#utility.yul\":4074:4151   */\n      0x4e487b7100000000000000000000000000000000000000000000000000000000\n        /* \"#utility.yul\":4071:4072   */\n      0x00\n        /* \"#utility.yul\":4064:4152   */\n      mstore\n        /* \"#utility.yul\":4171:4175   */\n      0x32\n        /* \"#utility.yul\":4168:4169   */\n      0x04\n        /* \"#utility.yul\":4161:4176   */\n      mstore\n        /* \"#utility.yul\":4195:4199   */\n      0x24\n        /* \"#utility.yul\":4192:4193   */\n      0x00\n        /* \"#utility.yul\":4185:4200   */\n      revert\n        /* \"#utility.yul\":4212:4392   */\n    tag_40:\n        /* \"#utility.yul\":4260:4337   */\n      0x4e487b7100000000000000000000000000000000000000000000000000000000\n        /* \"#utility.yul\":4257:4258   */\n      0x00\n        /* \"#utility.yul\":4250:4338   */\n      mstore\n        /* \"#utility.yul\":4357:4361   */\n      0x31\n        /* \"#utility.yul\":4354:4355   */\n      0x04\n        /* \"#utility.yul\":4347:4362   */\n      mstore\n        /* \"#utility.yul\":4381:4385   */\n      0x24\n        /* \"#utility.yul\":4378:4379   */\n      0x00\n        /* \"#utility.yul\":4371:4386   */\n      revert\n        /* \"#utility.yul\":4398:4488   */\n    tag_148:\n        /* \"#utility.yul\":4432:4439   */\n      0x00\n        /* \"#utility.yul\":4475:4480   */\n      dup2\n        /* \"#utility.yul\":4468:4481   */\n      iszero\n        /* \"#utility.yul\":4461:4482   */\n      iszero\n        /* \"#utility.yul\":4450:4482   */\n      swap1\n      pop\n        /* \"#utility.yul\":4398:4488   */\n      swap2\n      swap1\n      pop\n      jump\t// out\n        /* \"#utility.yul\":4494:4603   */\n    tag_149:\n        /* \"#utility.yul\":4575:4596   */\n      tag_211\n        /* \"#utility.yul\":4590:4595   */\n      dup2\n        /* \"#utility.yul\":4575:4596   */\n      tag_148\n      jump\t// in\n    tag_211:\n        /* \"#utility.yul\":4570:4573   */\n      dup3\n        /* \"#utility.yul\":4563:4597   */\n      mstore\n        /* \"#utility.yul\":4494:4603   */\n      pop\n      pop\n      jump\t// out\n        /* \"#utility.yul\":4609:4819   */\n    tag_43:\n        /* \"#utility.yul\":4696:4700   */\n      0x00\n        /* \"#utility.yul\":4734:4736   */\n      0x20\n        /* \"#utility.yul\":4723:4732   */\n      dup3\n        /* \"#utility.yul\":4719:4737   */\n      add\n        /* \"#utility.yul\":4711:4737   */\n      swap1\n      pop\n        /* \"#utility.yul\":4747:4812   */\n      tag_213\n        /* \"#utility.yul\":4809:4810   */\n      0x00\n        /* \"#utility.yul\":4798:4807   */\n      dup4\n        /* \"#utility.yul\":4794:4811   */\n      add\n        /* \"#utility.yul\":4785:4791   */\n      dup5\n        /* \"#utility.yul\":4747:4812   */\n      tag_149\n      jump\t// in\n    tag_213:\n        /* \"#utility.yul\":4609:4819   */\n      swap3\n      swap2\n      pop\n      pop\n      jump\t// out\n        /* \"#utility.yul\":4825:5005   */\n    tag_150:\n        /* \"#utility.yul\":4873:4950   */\n      0x4e487b7100000000000000000000000000000000000000000000000000000000\n        /* \"#utility.yul\":4870:4871   */\n      0x00\n        /* \"#utility.yul\":4863:4951   */\n      mstore\n        /* \"#utility.yul\":4970:4974   */\n      0x11\n        /* \"#utility.yul\":4967:4968   */\n      0x04\n        /* \"#utility.yul\":4960:4975   */\n      mstore\n        /* \"#utility.yul\":4994:4998   */\n      0x24\n        /* \"#utility.yul\":4991:4992   */\n      0x00\n        /* \"#utility.yul\":4984:4999   */\n      revert\n        /* \"#utility.yul\":5011:5178   */\n    tag_45:\n        /* \"#utility.yul\":5048:5051   */\n      0x00\n        /* \"#utility.yul\":5071:5093   */\n      tag_216\n        /* \"#utility.yul\":5087:5092   */\n      dup3\n        /* \"#utility.yul\":5071:5093   */\n      tag_131\n      jump\t// in\n    tag_216:\n        /* \"#utility.yul\":5062:5093   */\n      swap2\n      pop\n        /* \"#utility.yul\":5115:5119   */\n      0xff\n        /* \"#utility.yul\":5108:5113   */\n      dup3\n        /* \"#utility.yul\":5105:5120   */\n      sub\n        /* \"#utility.yul\":5102:5143   */\n      tag_217\n      jumpi\n        /* \"#utility.yul\":5123:5141   */\n      tag_218\n      tag_150\n      jump\t// in\n    tag_218:\n        /* \"#utility.yul\":5102:5143   */\n    tag_217:\n        /* \"#utility.yul\":5170:5171   */\n      0x01\n        /* \"#utility.yul\":5163:5168   */\n      dup3\n        /* \"#utility.yul\":5159:5172   */\n      add\n        /* \"#utility.yul\":5152:5172   */\n      swap1\n      pop\n        /* \"#utility.yul\":5011:5178   */\n      swap2\n      swap1\n      pop\n      jump\t// out\n        /* \"#utility.yul\":5184:5331   */\n    tag_151:\n        /* \"#utility.yul\":5285:5296   */\n      0x00\n        /* \"#utility.yul\":5322:5325   */\n      dup2\n        /* \"#utility.yul\":5307:5325   */\n      swap1\n      pop\n        /* \"#utility.yul\":5184:5331   */\n      swap3\n      swap2\n      pop\n      pop\n      jump\t// out\n        /* \"#utility.yul\":5337:5451   */\n    tag_152:\n      pop\n      jump\t// out\n        /* \"#utility.yul\":5457:5855   */\n    tag_153:\n        /* \"#utility.yul\":5616:5619   */\n      0x00\n        /* \"#utility.yul\":5637:5720   */\n      tag_222\n        /* \"#utility.yul\":5718:5719   */\n      0x00\n        /* \"#utility.yul\":5713:5716   */\n      dup4\n        /* \"#utility.yul\":5637:5720   */\n      tag_151\n      jump\t// in\n    tag_222:\n        /* \"#utility.yul\":5630:5720   */\n      swap2\n      pop\n        /* \"#utility.yul\":5729:5822   */\n      tag_223\n        /* \"#utility.yul\":5818:5821   */\n      dup3\n        /* \"#utility.yul\":5729:5822   */\n      tag_152\n      jump\t// in\n    tag_223:\n        /* \"#utility.yul\":5847:5848   */\n      0x00\n        /* \"#utility.yul\":5842:5845   */\n      dup3\n        /* \"#utility.yul\":5838:5849   */\n      add\n        /* \"#utility.yul\":5831:5849   */\n      swap1\n      pop\n        /* \"#utility.yul\":5457:5855   */\n      swap2\n      swap1\n      pop\n      jump\t// out\n        /* \"#utility.yul\":5861:6240   */\n    tag_57:\n        /* \"#utility.yul\":6045:6048   */\n      0x00\n        /* \"#utility.yul\":6067:6214   */\n      tag_225\n        /* \"#utility.yul\":6210:6213   */\n      dup3\n        /* \"#utility.yul\":6067:6214   */\n      tag_153\n      jump\t// in\n    tag_225:\n        /* \"#utility.yul\":6060:6214   */\n      swap2\n      pop\n        /* \"#utility.yul\":6231:6234   */\n      dup2\n        /* \"#utility.yul\":6224:6234   */\n      swap1\n      pop\n        /* \"#utility.yul\":5861:6240   */\n      swap2\n      swap1\n      pop\n      jump\t// out\n        /* \"#utility.yul\":6246:6416   */\n    tag_154:\n        /* \"#utility.yul\":6386:6408   */\n      0x4661696c656420746f2073656e64204574686572000000000000000000000000\n        /* \"#utility.yul\":6382:6383   */\n      0x00\n        /* \"#utility.yul\":6374:6380   */\n      dup3\n        /* \"#utility.yul\":6370:6384   */\n      add\n        /* \"#utility.yul\":6363:6409   */\n      mstore\n        /* \"#utility.yul\":6246:6416   */\n      pop\n      jump\t// out\n        /* \"#utility.yul\":6422:6788   */\n    tag_155:\n        /* \"#utility.yul\":6564:6567   */\n      0x00\n        /* \"#utility.yul\":6585:6652   */\n      tag_228\n        /* \"#utility.yul\":6649:6651   */\n      0x14\n        /* \"#utility.yul\":6644:6647   */\n      dup4\n        /* \"#utility.yul\":6585:6652   */\n      tag_143\n      jump\t// in\n    tag_228:\n        /* \"#utility.yul\":6578:6652   */\n      swap2\n      pop\n        /* \"#utility.yul\":6661:6754   */\n      tag_229\n        /* \"#utility.yul\":6750:6753   */\n      dup3\n        /* \"#utility.yul\":6661:6754   */\n      tag_154\n      jump\t// in\n    tag_229:\n        /* \"#utility.yul\":6779:6781   */\n      0x20\n        /* \"#utility.yul\":6774:6777   */\n      dup3\n        /* \"#utility.yul\":6770:6782   */\n      add\n        /* \"#utility.yul\":6763:6782   */\n      swap1\n      pop\n        /* \"#utility.yul\":6422:6788   */\n      swap2\n      swap1\n      pop\n      jump\t// out\n        /* \"#utility.yul\":6794:7213   */\n    tag_63:\n        /* \"#utility.yul\":6960:6964   */\n      0x00\n        /* \"#utility.yul\":6998:7000   */\n      0x20\n        /* \"#utility.yul\":6987:6996   */\n      dup3\n        /* \"#utility.yul\":6983:7001   */\n      add\n        /* \"#utility.yul\":6975:7001   */\n      swap1\n      pop\n        /* \"#utility.yul\":7047:7056   */\n      dup2\n        /* \"#utility.yul\":7041:7045   */\n      dup2\n        /* \"#utility.yul\":7037:7057   */\n      sub\n        /* \"#utility.yul\":7033:7034   */\n      0x00\n        /* \"#utility.yul\":7022:7031   */\n      dup4\n        /* \"#utility.yul\":7018:7035   */\n      add\n        /* \"#utility.yul\":7011:7058   */\n      mstore\n        /* \"#utility.yul\":7075:7206   */\n      tag_231\n        /* \"#utility.yul\":7201:7205   */\n      dup2\n        /* \"#utility.yul\":7075:7206   */\n      tag_155\n      jump\t// in\n    tag_231:\n        /* \"#utility.yul\":7067:7206   */\n      swap1\n      pop\n        /* \"#utility.yul\":6794:7213   */\n      swap2\n      swap1\n      pop\n      jump\t// out\n        /* \"#utility.yul\":7219:7399   */\n    tag_156:\n        /* \"#utility.yul\":7267:7344   */\n      0x4e487b7100000000000000000000000000000000000000000000000000000000\n        /* \"#utility.yul\":7264:7265   */\n      0x00\n        /* \"#utility.yul\":7257:7345   */\n      mstore\n        /* \"#utility.yul\":7364:7368   */\n      0x22\n        /* \"#utility.yul\":7361:7362   */\n      0x04\n        /* \"#utility.yul\":7354:7369   */\n      mstore\n        /* \"#utility.yul\":7388:7392   */\n      0x24\n        /* \"#utility.yul\":7385:7386   */\n      0x00\n        /* \"#utility.yul\":7378:7393   */\n      revert\n        /* \"#utility.yul\":7405:7725   */\n    tag_76:\n        /* \"#utility.yul\":7449:7455   */\n      0x00\n        /* \"#utility.yul\":7486:7487   */\n      0x02\n        /* \"#utility.yul\":7480:7484   */\n      dup3\n        /* \"#utility.yul\":7476:7488   */\n      div\n        /* \"#utility.yul\":7466:7488   */\n      swap1\n      pop\n        /* \"#utility.yul\":7533:7534   */\n      0x01\n        /* \"#utility.yul\":7527:7531   */\n      dup3\n        /* \"#utility.yul\":7523:7535   */\n      and\n        /* \"#utility.yul\":7554:7572   */\n      dup1\n        /* \"#utility.yul\":7544:7625   */\n      tag_234\n      jumpi\n        /* \"#utility.yul\":7610:7614   */\n      0x7f\n        /* \"#utility.yul\":7602:7608   */\n      dup3\n        /* \"#utility.yul\":7598:7615   */\n      and\n        /* \"#utility.yul\":7588:7615   */\n      swap2\n      pop\n        /* \"#utility.yul\":7544:7625   */\n    tag_234:\n        /* \"#utility.yul\":7672:7674   */\n      0x20\n        /* \"#utility.yul\":7664:7670   */\n      dup3\n        /* \"#utility.yul\":7661:7675   */\n      lt\n        /* \"#utility.yul\":7641:7659   */\n      dup2\n        /* \"#utility.yul\":7638:7676   */\n      sub\n        /* \"#utility.yul\":7635:7719   */\n      tag_235\n      jumpi\n        /* \"#utility.yul\":7691:7709   */\n      tag_236\n      tag_156\n      jump\t// in\n    tag_236:\n        /* \"#utility.yul\":7635:7719   */\n    tag_235:\n        /* \"#utility.yul\":7456:7725   */\n      pop\n        /* \"#utility.yul\":7405:7725   */\n      swap2\n      swap1\n      pop\n      jump\t// out\n        /* \"#utility.yul\":7731:7808   */\n    tag_157:\n        /* \"#utility.yul\":7768:7775   */\n      0x00\n        /* \"#utility.yul\":7797:7802   */\n      dup2\n        /* \"#utility.yul\":7786:7802   */\n      swap1\n      pop\n        /* \"#utility.yul\":7731:7808   */\n      swap2\n      swap1\n      pop\n      jump\t// out\n        /* \"#utility.yul\":7814:8005   */\n    tag_84:\n        /* \"#utility.yul\":7854:7857   */\n      0x00\n        /* \"#utility.yul\":7873:7893   */\n      tag_239\n        /* \"#utility.yul\":7891:7892   */\n      dup3\n        /* \"#utility.yul\":7873:7893   */\n      tag_157\n      jump\t// in\n    tag_239:\n        /* \"#utility.yul\":7868:7893   */\n      swap2\n      pop\n        /* \"#utility.yul\":7907:7927   */\n      tag_240\n        /* \"#utility.yul\":7925:7926   */\n      dup4\n        /* \"#utility.yul\":7907:7927   */\n      tag_157\n      jump\t// in\n    tag_240:\n        /* \"#utility.yul\":7902:7927   */\n      swap3\n      pop\n        /* \"#utility.yul\":7950:7951   */\n      dup3\n        /* \"#utility.yul\":7947:7948   */\n      dup3\n        /* \"#utility.yul\":7943:7952   */\n      add\n        /* \"#utility.yul\":7936:7952   */\n      swap1\n      pop\n        /* \"#utility.yul\":7971:7974   */\n      dup1\n        /* \"#utility.yul\":7968:7969   */\n      dup3\n        /* \"#utility.yul\":7965:7975   */\n      gt\n        /* \"#utility.yul\":7962:7998   */\n      iszero\n      tag_241\n      jumpi\n        /* \"#utility.yul\":7978:7996   */\n      tag_242\n      tag_150\n      jump\t// in\n    tag_242:\n        /* \"#utility.yul\":7962:7998   */\n    tag_241:\n        /* \"#utility.yul\":7814:8005   */\n      swap3\n      swap2\n      pop\n      pop\n      jump\t// out\n        /* \"#utility.yul\":8011:8191   */\n    tag_87:\n        /* \"#utility.yul\":8059:8136   */\n      0x4e487b7100000000000000000000000000000000000000000000000000000000\n        /* \"#utility.yul\":8056:8057   */\n      0x00\n        /* \"#utility.yul\":8049:8137   */\n      mstore\n        /* \"#utility.yul\":8156:8160   */\n      0x41\n        /* \"#utility.yul\":8153:8154   */\n      0x04\n        /* \"#utility.yul\":8146:8161   */\n      mstore\n        /* \"#utility.yul\":8180:8184   */\n      0x24\n        /* \"#utility.yul\":8177:8178   */\n      0x00\n        /* \"#utility.yul\":8170:8185   */\n      revert\n        /* \"#utility.yul\":8197:8377   */\n    tag_102:\n        /* \"#utility.yul\":8245:8322   */\n      0x4e487b7100000000000000000000000000000000000000000000000000000000\n        /* \"#utility.yul\":8242:8243   */\n      0x00\n        /* \"#utility.yul\":8235:8323   */\n      mstore\n        /* \"#utility.yul\":8342:8346   */\n      0x01\n        /* \"#utility.yul\":8339:8340   */\n      0x04\n        /* \"#utility.yul\":8332:8347   */\n      mstore\n        /* \"#utility.yul\":8366:8370   */\n      0x24\n        /* \"#utility.yul\":8363:8364   */\n      0x00\n        /* \"#utility.yul\":8356:8371   */\n      revert\n        /* \"#utility.yul\":8383:8702   */\n    tag_113:\n        /* \"#utility.yul\":8421:8424   */\n      0x00\n        /* \"#utility.yul\":8440:8458   */\n      tag_246\n        /* \"#utility.yul\":8456:8457   */\n      dup3\n        /* \"#utility.yul\":8440:8458   */\n      tag_138\n      jump\t// in\n    tag_246:\n        /* \"#utility.yul\":8435:8458   */\n      swap2\n      pop\n        /* \"#utility.yul\":8472:8490   */\n      tag_247\n        /* \"#utility.yul\":8488:8489   */\n      dup4\n        /* \"#utility.yul\":8472:8490   */\n      tag_138\n      jump\t// in\n    tag_247:\n        /* \"#utility.yul\":8467:8490   */\n      swap3\n      pop\n        /* \"#utility.yul\":8513:8514   */\n      dup3\n        /* \"#utility.yul\":8510:8511   */\n      dup3\n        /* \"#utility.yul\":8506:8515   */\n      add\n        /* \"#utility.yul\":8499:8515   */\n      swap1\n      pop\n        /* \"#utility.yul\":8595:8661   */\n      0xffffffffffffffffffffffffffffffffffffffffffffffff8000000000000000\n        /* \"#utility.yul\":8590:8593   */\n      dup2\n        /* \"#utility.yul\":8586:8662   */\n      slt\n        /* \"#utility.yul\":8553:8571   */\n      0x7fffffffffffffff\n        /* \"#utility.yul\":8548:8551   */\n      dup3\n        /* \"#utility.yul\":8544:8572   */\n      sgt\n        /* \"#utility.yul\":8528:8672   */\n      or\n        /* \"#utility.yul\":8525:8695   */\n      iszero\n      tag_248\n      jumpi\n        /* \"#utility.yul\":8675:8693   */\n      tag_249\n      tag_150\n      jump\t// in\n    tag_249:\n        /* \"#utility.yul\":8525:8695   */\n    tag_248:\n        /* \"#utility.yul\":8383:8702   */\n      swap3\n      swap2\n      pop\n      pop\n      jump\t// out\n        /* \"#utility.yul\":8708:8979   */\n    tag_117:\n        /* \"#utility.yul\":8746:8753   */\n      0x00\n        /* \"#utility.yul\":8769:8787   */\n      tag_251\n        /* \"#utility.yul\":8785:8786   */\n      dup3\n        /* \"#utility.yul\":8769:8787   */\n      tag_138\n      jump\t// in\n    tag_251:\n        /* \"#utility.yul\":8764:8787   */\n      swap2\n      pop\n        /* \"#utility.yul\":8801:8819   */\n      tag_252\n        /* \"#utility.yul\":8817:8818   */\n      dup4\n        /* \"#utility.yul\":8801:8819   */\n      tag_138\n      jump\t// in\n    tag_252:\n        /* \"#utility.yul\":8796:8819   */\n      swap3\n      pop\n        /* \"#utility.yul\":8854:8855   */\n      dup3\n        /* \"#utility.yul\":8851:8852   */\n      dup3\n        /* \"#utility.yul\":8847:8856   */\n      mul\n        /* \"#utility.yul\":8876:8904   */\n      tag_253\n        /* \"#utility.yul\":8892:8903   */\n      dup2\n        /* \"#utility.yul\":8876:8904   */\n      tag_138\n      jump\t// in\n    tag_253:\n        /* \"#utility.yul\":8865:8904   */\n      swap2\n      pop\n        /* \"#utility.yul\":8936:8947   */\n      dup1\n        /* \"#utility.yul\":8927:8934   */\n      dup3\n        /* \"#utility.yul\":8924:8948   */\n      eq\n        /* \"#utility.yul\":8914:8972   */\n      tag_254\n      jumpi\n        /* \"#utility.yul\":8952:8970   */\n      tag_255\n      tag_150\n      jump\t// in\n    tag_255:\n        /* \"#utility.yul\":8914:8972   */\n    tag_254:\n        /* \"#utility.yul\":8754:8979   */\n      pop\n        /* \"#utility.yul\":8708:8979   */\n      swap3\n      swap2\n      pop\n      pop\n      jump\t// out\n        /* \"#utility.yul\":8985:9165   */\n    tag_158:\n        /* \"#utility.yul\":9033:9110   */\n      0x4e487b7100000000000000000000000000000000000000000000000000000000\n        /* \"#utility.yul\":9030:9031   */\n      0x00\n        /* \"#utility.yul\":9023:9111   */\n      mstore\n        /* \"#utility.yul\":9130:9134   */\n      0x12\n        /* \"#utility.yul\":9127:9128   */\n      0x04\n        /* \"#utility.yul\":9120:9135   */\n      mstore\n        /* \"#utility.yul\":9154:9158   */\n      0x24\n        /* \"#utility.yul\":9151:9152   */\n      0x00\n        /* \"#utility.yul\":9144:9159   */\n      revert\n        /* \"#utility.yul\":9171:9553   */\n    tag_119:\n        /* \"#utility.yul\":9209:9210   */\n      0x00\n        /* \"#utility.yul\":9226:9244   */\n      tag_258\n        /* \"#utility.yul\":9242:9243   */\n      dup3\n        /* \"#utility.yul\":9226:9244   */\n      tag_138\n      jump\t// in\n    tag_258:\n        /* \"#utility.yul\":9221:9244   */\n      swap2\n      pop\n        /* \"#utility.yul\":9258:9276   */\n      tag_259\n        /* \"#utility.yul\":9274:9275   */\n      dup4\n        /* \"#utility.yul\":9258:9276   */\n      tag_138\n      jump\t// in\n    tag_259:\n        /* \"#utility.yul\":9253:9276   */\n      swap3\n      pop\n        /* \"#utility.yul\":9295:9296   */\n      dup3\n        /* \"#utility.yul\":9285:9320   */\n      tag_260\n      jumpi\n        /* \"#utility.yul\":9300:9318   */\n      tag_261\n      tag_158\n      jump\t// in\n    tag_261:\n        /* \"#utility.yul\":9285:9320   */\n    tag_260:\n        /* \"#utility.yul\":9486:9487   */\n      0x01\n        /* \"#utility.yul\":9483:9484   */\n      0x00\n        /* \"#utility.yul\":9479:9488   */\n      sub\n        /* \"#utility.yul\":9476:9477   */\n      dup4\n        /* \"#utility.yul\":9473:9489   */\n      eq\n        /* \"#utility.yul\":9392:9458   */\n      0xffffffffffffffffffffffffffffffffffffffffffffffff8000000000000000\n        /* \"#utility.yul\":9389:9390   */\n      dup4\n        /* \"#utility.yul\":9386:9459   */\n      eq\n        /* \"#utility.yul\":9369:9499   */\n      and\n        /* \"#utility.yul\":9366:9522   */\n      iszero\n      tag_262\n      jumpi\n        /* \"#utility.yul\":9502:9520   */\n      tag_263\n      tag_150\n      jump\t// in\n    tag_263:\n        /* \"#utility.yul\":9366:9522   */\n    tag_262:\n        /* \"#utility.yul\":9545:9546   */\n      dup3\n        /* \"#utility.yul\":9542:9543   */\n      dup3\n        /* \"#utility.yul\":9537:9547   */\n      sdiv\n        /* \"#utility.yul\":9532:9547   */\n      swap1\n      pop\n        /* \"#utility.yul\":9171:9553   */\n      swap3\n      swap2\n      pop\n      pop\n      jump\t// out\n\n    auxdata: 0xa2646970667358221220d99ce4819f00c1901935636873af6ff310117a65cf9a55949ee765fd74afaaf064736f6c634300081a0033\n}\n",
				"bytecode": {
					"linkReferences": {},
					"object": "6080604052604051611b28380380611b28833981810160405281019061002591906106cd565b805f806101000a81548173ffffffffffffffffffffffffffffffffffffffff021916908373ffffffffffffffffffffffffffffffffffffffff16021790555060405180604001604052805f8054906101000a900473ffffffffffffffffffffffffffffffffffffffff1673ffffffffffffffffffffffffffffffffffffffff166331b1b9785f6040518263ffffffff1660e01b81526004016100c79190610743565b5f60405180830381865afa1580156100e1573d5f803e3d5ffd5b505050506040513d5f823e3d601f19601f820116820180604052508101906101099190610898565b81526020015f8054906101000a900473ffffffffffffffffffffffffffffffffffffffff1673ffffffffffffffffffffffffffffffffffffffff166331b1b97860016040518263ffffffff1660e01b81526004016101679190610918565b5f60405180830381865afa158015610181573d5f803e3d5ffd5b505050506040513d5f823e3d601f19601f820116820180604052508101906101a99190610898565b81525060019060026101bc929190610432565b5060405180604001604052805f8054906101000a900473ffffffffffffffffffffffffffffffffffffffff1673ffffffffffffffffffffffffffffffffffffffff166317599cc55f6040518263ffffffff1660e01b81526004016102209190610743565b602060405180830381865afa15801561023b573d5f803e3d5ffd5b505050506040513d601f19601f8201168201806040525081019061025f9190610967565b60ff1660ff1681526020015f8054906101000a900473ffffffffffffffffffffffffffffffffffffffff1673ffffffffffffffffffffffffffffffffffffffff166317599cc560016040518263ffffffff1660e01b81526004016102c39190610918565b602060405180830381865afa1580156102de573d5f803e3d5ffd5b505050506040513d601f19601f820116820180604052508101906103029190610967565b60ff1660ff16815250600290600261031b929190610489565b506040518060a00160405280621e848060070b60070b81526020016216e36060070b60070b8152602001620dbba060070b60070b815260200162061a8060070b60070b815260200162030d4060070b60070b815250600390600561038092919061052b565b506040518060a00160405280620f424060070b60070b8152602001620f424060070b60070b8152602001620f424060070b60070b8152602001620f424060070b60070b8152602001620f424060070b60070b81525060049060056103e592919061052b565b505f60055f6101000a81548160ff021916908360ff1602179055505f600560016101000a81548167ffffffffffffffff021916908360070b67ffffffffffffffff16021790555050610c5c565b828054828255905f5260205f20908101928215610478579160200282015b828111156104775782518290816104679190610b8d565b5091602001919060010190610450565b5b50905061048591906105e7565b5090565b828054828255905f5260205f2090601f0160209004810192821561051a579160200282015f5b838211156104ec57835183826101000a81548160ff021916908360ff16021790555092602001926001016020815f010492830192600103026104af565b80156105185782816101000a81549060ff02191690556001016020815f010492830192600103026104ec565b505b509050610527919061060a565b5090565b828054828255905f5260205f20906003016004900481019282156105d6579160200282015f5b838211156105a057835183826101000a81548167ffffffffffffffff021916908360070b67ffffffffffffffff1602179055509260200192600801602081600701049283019260010302610551565b80156105d45782816101000a81549067ffffffffffffffff02191690556008016020816007010492830192600103026105a0565b505b5090506105e3919061060a565b5090565b5b80821115610606575f81816105fd9190610625565b506001016105e8565b5090565b5b80821115610621575f815f90555060010161060b565b5090565b508054610631906109c9565b5f825580601f10610642575061065f565b601f0160209004905f5260205f209081019061065e919061060a565b5b50565b5f604051905090565b5f80fd5b5f80fd5b5f73ffffffffffffffffffffffffffffffffffffffff82169050919050565b5f61069c82610673565b9050919050565b6106ac81610692565b81146106b6575f80fd5b50565b5f815190506106c7816106a3565b92915050565b5f602082840312156106e2576106e161066b565b5b5f6106ef848285016106b9565b91505092915050565b5f819050919050565b5f819050919050565b5f819050919050565b5f61072d610728610723846106f8565b61070a565b610701565b9050919050565b61073d81610713565b82525050565b5f6020820190506107565f830184610734565b92915050565b5f80fd5b5f80fd5b5f601f19601f8301169050919050565b7f4e487b71000000000000000000000000000000000000000000000000000000005f52604160045260245ffd5b6107aa82610764565b810181811067ffffffffffffffff821117156107c9576107c8610774565b5b80604052505050565b5f6107db610662565b90506107e782826107a1565b919050565b5f67ffffffffffffffff82111561080657610805610774565b5b61080f82610764565b9050602081019050919050565b8281835e5f83830152505050565b5f61083c610837846107ec565b6107d2565b90508281526020810184848401111561085857610857610760565b5b61086384828561081c565b509392505050565b5f82601f83011261087f5761087e61075c565b5b815161088f84826020860161082a565b91505092915050565b5f602082840312156108ad576108ac61066b565b5b5f82015167ffffffffffffffff8111156108ca576108c961066f565b5b6108d68482850161086b565b91505092915050565b5f819050919050565b5f6109026108fd6108f8846108df565b61070a565b610701565b9050919050565b610912816108e8565b82525050565b5f60208201905061092b5f830184610909565b92915050565b5f60ff82169050919050565b61094681610931565b8114610950575f80fd5b50565b5f815190506109618161093d565b92915050565b5f6020828403121561097c5761097b61066b565b5b5f61098984828501610953565b91505092915050565b5f81519050919050565b7f4e487b71000000000000000000000000000000000000000000000000000000005f52602260045260245ffd5b5f60028204905060018216806109e057607f821691505b6020821081036109f3576109f261099c565b5b50919050565b5f819050815f5260205f209050919050565b5f6020601f8301049050919050565b5f82821b905092915050565b5f60088302610a557fffffffffffffffffffffffffffffffffffffffffffffffffffffffffffffffff82610a1a565b610a5f8683610a1a565b95508019841693508086168417925050509392505050565b5f610a91610a8c610a8784610701565b61070a565b610701565b9050919050565b5f819050919050565b610aaa83610a77565b610abe610ab682610a98565b848454610a26565b825550505050565b5f90565b610ad2610ac6565b610add818484610aa1565b505050565b5b81811015610b0057610af55f82610aca565b600181019050610ae3565b5050565b601f821115610b4557610b16816109f9565b610b1f84610a0b565b81016020851015610b2e578190505b610b42610b3a85610a0b565b830182610ae2565b50505b505050565b5f82821c905092915050565b5f610b655f1984600802610b4a565b1980831691505092915050565b5f610b7d8383610b56565b9150826002028217905092915050565b610b9682610992565b67ffffffffffffffff811115610baf57610bae610774565b5b610bb982546109c9565b610bc4828285610b04565b5f60209050601f831160018114610bf5575f8415610be3578287015190505b610bed8582610b72565b865550610c54565b601f198416610c03866109f9565b5f5b82811015610c2a57848901518255600182019150602085019450602081019050610c05565b86831015610c475784890151610c43601f891682610b56565b8355505b6001600288020188555050505b505050505050565b610ebf80610c695f395ff3fe60806040526004361061003e575f3560e01c80632525146b1461004257806342fba3fb1461005e578063734ba39614610088578063e6ae3e6f146100b2575b5f80fd5b61005c60048036038101906100579190610987565b6100dc565b005b348015610069575f80fd5b506100726104ae565b60405161007f9190610a0a565b60405180910390f35b348015610093575f80fd5b5061009c6105a4565b6040516100a99190610a93565b60405180910390f35b3480156100bd575f80fd5b506100c661065f565b6040516100d39190610ac2565b60405180910390f35b5f34146100e7575f80fd5b600260055f9054906101000a900460ff1660ff168154811061010c5761010b610adb565b5b905f5260205f2090602091828204019190069054906101000a900460ff1660ff168260ff1614610265576101d360048054806020026020016040519081016040528092919081815260200182805480156101a857602002820191905f5260205f20905f905b82829054906101000a900460070b60070b815260200190600801906020826007010492830192600103820291508084116101715790505b50505050507fffffffffffffffffffffffffffffffffffffffffffffffffffffffffffe17b80610674565b600490805190602001906101e892919061081c565b5060048054806101fb576101fa610b08565b5b600190038181905f5260205f2090600491828204019190066008026101000a81549067ffffffffffffffff021916905590557f22b1cee616b1fdc88183479e67fbdd2d87e3bb10fa86d8eccea07b189c6d17eb5f60405161025c9190610b4f565b60405180910390a15b60055f81819054906101000a900460ff168092919061028390610b95565b91906101000a81548160ff021916908360ff1602179055505061031c600480548060200260200160405190810160405280929190818152602001828054801561030e57602002820191905f5260205f20905f905b82829054906101000a900460070b60070b815260200190600801906020826007010492830192600103820291508084116102d75790505b5050505050621e8480610674565b6004908051906020019061033192919061081c565b50600480548061034457610343610b08565b5b600190038181905f5260205f2090600491828204019190066008026101000a81549067ffffffffffffffff0219169055905560018054905060055f9054906101000a900460ff1660ff16106103ae575f60055f6101000a81548160ff021916908360ff1602179055505b6103b66104ae565b600560016101000a81548167ffffffffffffffff021916908360070b67ffffffffffffffff1602179055506294c5f0600560019054906101000a900460070b60070b13156104aa575f8173ffffffffffffffffffffffffffffffffffffffff166101f460405161042590610bea565b5f6040518083038185875af1925050503d805f811461045f576040519150601f19603f3d011682016040523d82523d5f602084013e610464565b606091505b50509050806104a8576040517f08c379a000000000000000000000000000000000000000000000000000000000815260040161049f90610c48565b60405180910390fd5b505b5050565b5f61059f600380548060200260200160405190810160405280929190818152602001828054801561052157602002820191905f5260205f20905f905b82829054906101000a900460070b60070b815260200190600801906020826007010492830192600103820291508084116104ea5790505b5050505050600480548060200260200160405190810160405280929190818152602001828054801561059557602002820191905f5260205f20905f905b82829054906101000a900460070b60070b8152602001906008019060208260070104928301926001038202915080841161055e5790505b5050505050610768565b905090565b6060600160055f9054906101000a900460ff1660ff16815481106105cb576105ca610adb565b5b905f5260205f200180546105de90610c93565b80601f016020809104026020016040519081016040528092919081815260200182805461060a90610c93565b80156106555780601f1061062c57610100808354040283529160200191610655565b820191905f5260205f20905b81548152906001019060200180831161063857829003601f168201915b5050505050905090565b5f60055f9054906101000a900460ff16905090565b60605f600184516106859190610ccc565b67ffffffffffffffff81111561069e5761069d610cff565b5b6040519080825280602002602001820160405280156106cc5781602001602082028036833780820191505090505b5090505f5b8451811015610735578481815181106106ed576106ec610adb565b5b6020026020010151826001836107039190610ccc565b8151811061071457610713610adb565b5b602002602001019060070b908160070b8152505080806001019150506106d1565b5082815f8151811061074a57610749610adb565b5b602002602001019060070b908160070b815250508091505092915050565b5f815183511461077b5761077a610d2c565b5b5f805b84518160ff1610156107ee576107ce858260ff16815181106107a3576107a2610adb565b5b6020026020010151858360ff16815181106107c1576107c0610adb565b5b60200260200101516107f9565b826107d99190610d59565b915080806107e690610b95565b91505061077e565b508091505092915050565b5f620f4240828461080a9190610db8565b6108149190610e21565b905092915050565b828054828255905f5260205f20906003016004900481019282156108c7579160200282015f5b8382111561089157835183826101000a81548167ffffffffffffffff021916908360070b67ffffffffffffffff1602179055509260200192600801602081600701049283019260010302610842565b80156108c55782816101000a81549067ffffffffffffffff0219169055600801602081600701049283019260010302610891565b505b5090506108d491906108d8565b5090565b5b808211156108ef575f815f9055506001016108d9565b5090565b5f80fd5b5f60ff82169050919050565b61090c816108f7565b8114610916575f80fd5b50565b5f8135905061092781610903565b92915050565b5f73ffffffffffffffffffffffffffffffffffffffff82169050919050565b5f6109568261092d565b9050919050565b6109668161094c565b8114610970575f80fd5b50565b5f813590506109818161095d565b92915050565b5f806040838503121561099d5761099c6108f3565b5b5f6109aa85828601610919565b92505060206109bb85828601610973565b9150509250929050565b5f8160070b9050919050565b5f819050919050565b5f6109f46109ef6109ea846109c5565b6109d1565b6109c5565b9050919050565b610a04816109da565b82525050565b5f602082019050610a1d5f8301846109fb565b92915050565b5f81519050919050565b5f82825260208201905092915050565b8281835e5f83830152505050565b5f601f19601f8301169050919050565b5f610a6582610a23565b610a6f8185610a2d565b9350610a7f818560208601610a3d565b610a8881610a4b565b840191505092915050565b5f6020820190508181035f830152610aab8184610a5b565b905092915050565b610abc816108f7565b82525050565b5f602082019050610ad55f830184610ab3565b92915050565b7f4e487b71000000000000000000000000000000000000000000000000000000005f52603260045260245ffd5b7f4e487b71000000000000000000000000000000000000000000000000000000005f52603160045260245ffd5b5f8115159050919050565b610b4981610b35565b82525050565b5f602082019050610b625f830184610b40565b92915050565b7f4e487b71000000000000000000000000000000000000000000000000000000005f52601160045260245ffd5b5f610b9f826108f7565b915060ff8203610bb257610bb1610b68565b5b600182019050919050565b5f81905092915050565b50565b5f610bd55f83610bbd565b9150610be082610bc7565b5f82019050919050565b5f610bf482610bca565b9150819050919050565b7f4661696c656420746f2073656e642045746865720000000000000000000000005f82015250565b5f610c32601483610a2d565b9150610c3d82610bfe565b602082019050919050565b5f6020820190508181035f830152610c5f81610c26565b9050919050565b7f4e487b71000000000000000000000000000000000000000000000000000000005f52602260045260245ffd5b5f6002820490506001821680610caa57607f821691505b602082108103610cbd57610cbc610c66565b5b50919050565b5f819050919050565b5f610cd682610cc3565b9150610ce183610cc3565b9250828201905080821115610cf957610cf8610b68565b5b92915050565b7f4e487b71000000000000000000000000000000000000000000000000000000005f52604160045260245ffd5b7f4e487b71000000000000000000000000000000000000000000000000000000005f52600160045260245ffd5b5f610d63826109c5565b9150610d6e836109c5565b925082820190507fffffffffffffffffffffffffffffffffffffffffffffffff80000000000000008112677fffffffffffffff82131715610db257610db1610b68565b5b92915050565b5f610dc2826109c5565b9150610dcd836109c5565b9250828202610ddb816109c5565b9150808214610ded57610dec610b68565b5b5092915050565b7f4e487b71000000000000000000000000000000000000000000000000000000005f52601260045260245ffd5b5f610e2b826109c5565b9150610e36836109c5565b925082610e4657610e45610df4565b5b60015f0383147fffffffffffffffffffffffffffffffffffffffffffffffff800000000000000083141615610e7e57610e7d610b68565b5b82820590509291505056fea2646970667358221220d99ce4819f00c1901935636873af6ff310117a65cf9a55949ee765fd74afaaf064736f6c634300081a0033",
					"opcodes": "PUSH1 0x80 PUSH1 0x40 MSTORE PUSH1 0x40 MLOAD PUSH2 0x1B28 CODESIZE SUB DUP1 PUSH2 0x1B28 DUP4 CODECOPY DUP2 DUP2 ADD PUSH1 0x40 MSTORE DUP2 ADD SWAP1 PUSH2 0x25 SWAP2 SWAP1 PUSH2 0x6CD JUMP JUMPDEST DUP1 PUSH0 DUP1 PUSH2 0x100 EXP DUP2 SLOAD DUP2 PUSH20 0xFFFFFFFFFFFFFFFFFFFFFFFFFFFFFFFFFFFFFFFF MUL NOT AND SWAP1 DUP4 PUSH20 0xFFFFFFFFFFFFFFFFFFFFFFFFFFFFFFFFFFFFFFFF AND MUL OR SWAP1 SSTORE POP PUSH1 0x40 MLOAD DUP1 PUSH1 0x40 ADD PUSH1 0x40 MSTORE DUP1 PUSH0 DUP1 SLOAD SWAP1 PUSH2 0x100 EXP SWAP1 DIV PUSH20 0xFFFFFFFFFFFFFFFFFFFFFFFFFFFFFFFFFFFFFFFF AND PUSH20 0xFFFFFFFFFFFFFFFFFFFFFFFFFFFFFFFFFFFFFFFF AND PUSH4 0x31B1B978 PUSH0 PUSH1 0x40 MLOAD DUP3 PUSH4 0xFFFFFFFF AND PUSH1 0xE0 SHL DUP2 MSTORE PUSH1 0x4 ADD PUSH2 0xC7 SWAP2 SWAP1 PUSH2 0x743 JUMP JUMPDEST PUSH0 PUSH1 0x40 MLOAD DUP1 DUP4 SUB DUP2 DUP7 GAS STATICCALL ISZERO DUP1 ISZERO PUSH2 0xE1 JUMPI RETURNDATASIZE PUSH0 DUP1 RETURNDATACOPY RETURNDATASIZE PUSH0 REVERT JUMPDEST POP POP POP POP PUSH1 0x40 MLOAD RETURNDATASIZE PUSH0 DUP3 RETURNDATACOPY RETURNDATASIZE PUSH1 0x1F NOT PUSH1 0x1F DUP3 ADD AND DUP3 ADD DUP1 PUSH1 0x40 MSTORE POP DUP2 ADD SWAP1 PUSH2 0x109 SWAP2 SWAP1 PUSH2 0x898 JUMP JUMPDEST DUP2 MSTORE PUSH1 0x20 ADD PUSH0 DUP1 SLOAD SWAP1 PUSH2 0x100 EXP SWAP1 DIV PUSH20 0xFFFFFFFFFFFFFFFFFFFFFFFFFFFFFFFFFFFFFFFF AND PUSH20 0xFFFFFFFFFFFFFFFFFFFFFFFFFFFFFFFFFFFFFFFF AND PUSH4 0x31B1B978 PUSH1 0x1 PUSH1 0x40 MLOAD DUP3 PUSH4 0xFFFFFFFF AND PUSH1 0xE0 SHL DUP2 MSTORE PUSH1 0x4 ADD PUSH2 0x167 SWAP2 SWAP1 PUSH2 0x918 JUMP JUMPDEST PUSH0 PUSH1 0x40 MLOAD DUP1 DUP4 SUB DUP2 DUP7 GAS STATICCALL ISZERO DUP1 ISZERO PUSH2 0x181 JUMPI RETURNDATASIZE PUSH0 DUP1 RETURNDATACOPY RETURNDATASIZE PUSH0 REVERT JUMPDEST POP POP POP POP PUSH1 0x40 MLOAD RETURNDATASIZE PUSH0 DUP3 RETURNDATACOPY RETURNDATASIZE PUSH1 0x1F NOT PUSH1 0x1F DUP3 ADD AND DUP3 ADD DUP1 PUSH1 0x40 MSTORE POP DUP2 ADD SWAP1 PUSH2 0x1A9 SWAP2 SWAP1 PUSH2 0x898 JUMP JUMPDEST DUP2 MSTORE POP PUSH1 0x1 SWAP1 PUSH1 0x2 PUSH2 0x1BC SWAP3 SWAP2 SWAP1 PUSH2 0x432 JUMP JUMPDEST POP PUSH1 0x40 MLOAD DUP1 PUSH1 0x40 ADD PUSH1 0x40 MSTORE DUP1 PUSH0 DUP1 SLOAD SWAP1 PUSH2 0x100 EXP SWAP1 DIV PUSH20 0xFFFFFFFFFFFFFFFFFFFFFFFFFFFFFFFFFFFFFFFF AND PUSH20 0xFFFFFFFFFFFFFFFFFFFFFFFFFFFFFFFFFFFFFFFF AND PUSH4 0x17599CC5 PUSH0 PUSH1 0x40 MLOAD DUP3 PUSH4 0xFFFFFFFF AND PUSH1 0xE0 SHL DUP2 MSTORE PUSH1 0x4 ADD PUSH2 0x220 SWAP2 SWAP1 PUSH2 0x743 JUMP JUMPDEST PUSH1 0x20 PUSH1 0x40 MLOAD DUP1 DUP4 SUB DUP2 DUP7 GAS STATICCALL ISZERO DUP1 ISZERO PUSH2 0x23B JUMPI RETURNDATASIZE PUSH0 DUP1 RETURNDATACOPY RETURNDATASIZE PUSH0 REVERT JUMPDEST POP POP POP POP PUSH1 0x40 MLOAD RETURNDATASIZE PUSH1 0x1F NOT PUSH1 0x1F DUP3 ADD AND DUP3 ADD DUP1 PUSH1 0x40 MSTORE POP DUP2 ADD SWAP1 PUSH2 0x25F SWAP2 SWAP1 PUSH2 0x967 JUMP JUMPDEST PUSH1 0xFF AND PUSH1 0xFF AND DUP2 MSTORE PUSH1 0x20 ADD PUSH0 DUP1 SLOAD SWAP1 PUSH2 0x100 EXP SWAP1 DIV PUSH20 0xFFFFFFFFFFFFFFFFFFFFFFFFFFFFFFFFFFFFFFFF AND PUSH20 0xFFFFFFFFFFFFFFFFFFFFFFFFFFFFFFFFFFFFFFFF AND PUSH4 0x17599CC5 PUSH1 0x1 PUSH1 0x40 MLOAD DUP3 PUSH4 0xFFFFFFFF AND PUSH1 0xE0 SHL DUP2 MSTORE PUSH1 0x4 ADD PUSH2 0x2C3 SWAP2 SWAP1 PUSH2 0x918 JUMP JUMPDEST PUSH1 0x20 PUSH1 0x40 MLOAD DUP1 DUP4 SUB DUP2 DUP7 GAS STATICCALL ISZERO DUP1 ISZERO PUSH2 0x2DE JUMPI RETURNDATASIZE PUSH0 DUP1 RETURNDATACOPY RETURNDATASIZE PUSH0 REVERT JUMPDEST POP POP POP POP PUSH1 0x40 MLOAD RETURNDATASIZE PUSH1 0x1F NOT PUSH1 0x1F DUP3 ADD AND DUP3 ADD DUP1 PUSH1 0x40 MSTORE POP DUP2 ADD SWAP1 PUSH2 0x302 SWAP2 SWAP1 PUSH2 0x967 JUMP JUMPDEST PUSH1 0xFF AND PUSH1 0xFF AND DUP2 MSTORE POP PUSH1 0x2 SWAP1 PUSH1 0x2 PUSH2 0x31B SWAP3 SWAP2 SWAP1 PUSH2 0x489 JUMP JUMPDEST POP PUSH1 0x40 MLOAD DUP1 PUSH1 0xA0 ADD PUSH1 0x40 MSTORE DUP1 PUSH3 0x1E8480 PUSH1 0x7 SIGNEXTEND PUSH1 0x7 SIGNEXTEND DUP2 MSTORE PUSH1 0x20 ADD PUSH3 0x16E360 PUSH1 0x7 SIGNEXTEND PUSH1 0x7 SIGNEXTEND DUP2 MSTORE PUSH1 0x20 ADD PUSH3 0xDBBA0 PUSH1 0x7 SIGNEXTEND PUSH1 0x7 SIGNEXTEND DUP2 MSTORE PUSH1 0x20 ADD PUSH3 0x61A80 PUSH1 0x7 SIGNEXTEND PUSH1 0x7 SIGNEXTEND DUP2 MSTORE PUSH1 0x20 ADD PUSH3 0x30D40 PUSH1 0x7 SIGNEXTEND PUSH1 0x7 SIGNEXTEND DUP2 MSTORE POP PUSH1 0x3 SWAP1 PUSH1 0x5 PUSH2 0x380 SWAP3 SWAP2 SWAP1 PUSH2 0x52B JUMP JUMPDEST POP PUSH1 0x40 MLOAD DUP1 PUSH1 0xA0 ADD PUSH1 0x40 MSTORE DUP1 PUSH3 0xF4240 PUSH1 0x7 SIGNEXTEND PUSH1 0x7 SIGNEXTEND DUP2 MSTORE PUSH1 0x20 ADD PUSH3 0xF4240 PUSH1 0x7 SIGNEXTEND PUSH1 0x7 SIGNEXTEND DUP2 MSTORE PUSH1 0x20 ADD PUSH3 0xF4240 PUSH1 0x7 SIGNEXTEND PUSH1 0x7 SIGNEXTEND DUP2 MSTORE PUSH1 0x20 ADD PUSH3 0xF4240 PUSH1 0x7 SIGNEXTEND PUSH1 0x7 SIGNEXTEND DUP2 MSTORE PUSH1 0x20 ADD PUSH3 0xF4240 PUSH1 0x7 SIGNEXTEND PUSH1 0x7 SIGNEXTEND DUP2 MSTORE POP PUSH1 0x4 SWAP1 PUSH1 0x5 PUSH2 0x3E5 SWAP3 SWAP2 SWAP1 PUSH2 0x52B JUMP JUMPDEST POP PUSH0 PUSH1 0x5 PUSH0 PUSH2 0x100 EXP DUP2 SLOAD DUP2 PUSH1 0xFF MUL NOT AND SWAP1 DUP4 PUSH1 0xFF AND MUL OR SWAP1 SSTORE POP PUSH0 PUSH1 0x5 PUSH1 0x1 PUSH2 0x100 EXP DUP2 SLOAD DUP2 PUSH8 0xFFFFFFFFFFFFFFFF MUL NOT AND SWAP1 DUP4 PUSH1 0x7 SIGNEXTEND PUSH8 0xFFFFFFFFFFFFFFFF AND MUL OR SWAP1 SSTORE POP POP PUSH2 0xC5C JUMP JUMPDEST DUP3 DUP1 SLOAD DUP3 DUP3 SSTORE SWAP1 PUSH0 MSTORE PUSH1 0x20 PUSH0 KECCAK256 SWAP1 DUP2 ADD SWAP3 DUP3 ISZERO PUSH2 0x478 JUMPI SWAP2 PUSH1 0x20 MUL DUP3 ADD JUMPDEST DUP3 DUP2 GT ISZERO PUSH2 0x477 JUMPI DUP3 MLOAD DUP3 SWAP1 DUP2 PUSH2 0x467 SWAP2 SWAP1 PUSH2 0xB8D JUMP JUMPDEST POP SWAP2 PUSH1 0x20 ADD SWAP2 SWAP1 PUSH1 0x1 ADD SWAP1 PUSH2 0x450 JUMP JUMPDEST JUMPDEST POP SWAP1 POP PUSH2 0x485 SWAP2 SWAP1 PUSH2 0x5E7 JUMP JUMPDEST POP SWAP1 JUMP JUMPDEST DUP3 DUP1 SLOAD DUP3 DUP3 SSTORE SWAP1 PUSH0 MSTORE PUSH1 0x20 PUSH0 KECCAK256 SWAP1 PUSH1 0x1F ADD PUSH1 0x20 SWAP1 DIV DUP2 ADD SWAP3 DUP3 ISZERO PUSH2 0x51A JUMPI SWAP2 PUSH1 0x20 MUL DUP3 ADD PUSH0 JUMPDEST DUP4 DUP3 GT ISZERO PUSH2 0x4EC JUMPI DUP4 MLOAD DUP4 DUP3 PUSH2 0x100 EXP DUP2 SLOAD DUP2 PUSH1 0xFF MUL NOT AND SWAP1 DUP4 PUSH1 0xFF AND MUL OR SWAP1 SSTORE POP SWAP3 PUSH1 0x20 ADD SWAP3 PUSH1 0x1 ADD PUSH1 0x20 DUP2 PUSH0 ADD DIV SWAP3 DUP4 ADD SWAP3 PUSH1 0x1 SUB MUL PUSH2 0x4AF JUMP JUMPDEST DUP1 ISZERO PUSH2 0x518 JUMPI DUP3 DUP2 PUSH2 0x100 EXP DUP2 SLOAD SWAP1 PUSH1 0xFF MUL NOT AND SWAP1 SSTORE PUSH1 0x1 ADD PUSH1 0x20 DUP2 PUSH0 ADD DIV SWAP3 DUP4 ADD SWAP3 PUSH1 0x1 SUB MUL PUSH2 0x4EC JUMP JUMPDEST POP JUMPDEST POP SWAP1 POP PUSH2 0x527 SWAP2 SWAP1 PUSH2 0x60A JUMP JUMPDEST POP SWAP1 JUMP JUMPDEST DUP3 DUP1 SLOAD DUP3 DUP3 SSTORE SWAP1 PUSH0 MSTORE PUSH1 0x20 PUSH0 KECCAK256 SWAP1 PUSH1 0x3 ADD PUSH1 0x4 SWAP1 DIV DUP2 ADD SWAP3 DUP3 ISZERO PUSH2 0x5D6 JUMPI SWAP2 PUSH1 0x20 MUL DUP3 ADD PUSH0 JUMPDEST DUP4 DUP3 GT ISZERO PUSH2 0x5A0 JUMPI DUP4 MLOAD DUP4 DUP3 PUSH2 0x100 EXP DUP2 SLOAD DUP2 PUSH8 0xFFFFFFFFFFFFFFFF MUL NOT AND SWAP1 DUP4 PUSH1 0x7 SIGNEXTEND PUSH8 0xFFFFFFFFFFFFFFFF AND MUL OR SWAP1 SSTORE POP SWAP3 PUSH1 0x20 ADD SWAP3 PUSH1 0x8 ADD PUSH1 0x20 DUP2 PUSH1 0x7 ADD DIV SWAP3 DUP4 ADD SWAP3 PUSH1 0x1 SUB MUL PUSH2 0x551 JUMP JUMPDEST DUP1 ISZERO PUSH2 0x5D4 JUMPI DUP3 DUP2 PUSH2 0x100 EXP DUP2 SLOAD SWAP1 PUSH8 0xFFFFFFFFFFFFFFFF MUL NOT AND SWAP1 SSTORE PUSH1 0x8 ADD PUSH1 0x20 DUP2 PUSH1 0x7 ADD DIV SWAP3 DUP4 ADD SWAP3 PUSH1 0x1 SUB MUL PUSH2 0x5A0 JUMP JUMPDEST POP JUMPDEST POP SWAP1 POP PUSH2 0x5E3 SWAP2 SWAP1 PUSH2 0x60A JUMP JUMPDEST POP SWAP1 JUMP JUMPDEST JUMPDEST DUP1 DUP3 GT ISZERO PUSH2 0x606 JUMPI PUSH0 DUP2 DUP2 PUSH2 0x5FD SWAP2 SWAP1 PUSH2 0x625 JUMP JUMPDEST POP PUSH1 0x1 ADD PUSH2 0x5E8 JUMP JUMPDEST POP SWAP1 JUMP JUMPDEST JUMPDEST DUP1 DUP3 GT ISZERO PUSH2 0x621 JUMPI PUSH0 DUP2 PUSH0 SWAP1 SSTORE POP PUSH1 0x1 ADD PUSH2 0x60B JUMP JUMPDEST POP SWAP1 JUMP JUMPDEST POP DUP1 SLOAD PUSH2 0x631 SWAP1 PUSH2 0x9C9 JUMP JUMPDEST PUSH0 DUP3 SSTORE DUP1 PUSH1 0x1F LT PUSH2 0x642 JUMPI POP PUSH2 0x65F JUMP JUMPDEST PUSH1 0x1F ADD PUSH1 0x20 SWAP1 DIV SWAP1 PUSH0 MSTORE PUSH1 0x20 PUSH0 KECCAK256 SWAP1 DUP2 ADD SWAP1 PUSH2 0x65E SWAP2 SWAP1 PUSH2 0x60A JUMP JUMPDEST JUMPDEST POP JUMP JUMPDEST PUSH0 PUSH1 0x40 MLOAD SWAP1 POP SWAP1 JUMP JUMPDEST PUSH0 DUP1 REVERT JUMPDEST PUSH0 DUP1 REVERT JUMPDEST PUSH0 PUSH20 0xFFFFFFFFFFFFFFFFFFFFFFFFFFFFFFFFFFFFFFFF DUP3 AND SWAP1 POP SWAP2 SWAP1 POP JUMP JUMPDEST PUSH0 PUSH2 0x69C DUP3 PUSH2 0x673 JUMP JUMPDEST SWAP1 POP SWAP2 SWAP1 POP JUMP JUMPDEST PUSH2 0x6AC DUP2 PUSH2 0x692 JUMP JUMPDEST DUP2 EQ PUSH2 0x6B6 JUMPI PUSH0 DUP1 REVERT JUMPDEST POP JUMP JUMPDEST PUSH0 DUP2 MLOAD SWAP1 POP PUSH2 0x6C7 DUP2 PUSH2 0x6A3 JUMP JUMPDEST SWAP3 SWAP2 POP POP JUMP JUMPDEST PUSH0 PUSH1 0x20 DUP3 DUP5 SUB SLT ISZERO PUSH2 0x6E2 JUMPI PUSH2 0x6E1 PUSH2 0x66B JUMP JUMPDEST JUMPDEST PUSH0 PUSH2 0x6EF DUP5 DUP3 DUP6 ADD PUSH2 0x6B9 JUMP JUMPDEST SWAP2 POP POP SWAP3 SWAP2 POP POP JUMP JUMPDEST PUSH0 DUP2 SWAP1 POP SWAP2 SWAP1 POP JUMP JUMPDEST PUSH0 DUP2 SWAP1 POP SWAP2 SWAP1 POP JUMP JUMPDEST PUSH0 DUP2 SWAP1 POP SWAP2 SWAP1 POP JUMP JUMPDEST PUSH0 PUSH2 0x72D PUSH2 0x728 PUSH2 0x723 DUP5 PUSH2 0x6F8 JUMP JUMPDEST PUSH2 0x70A JUMP JUMPDEST PUSH2 0x701 JUMP JUMPDEST SWAP1 POP SWAP2 SWAP1 POP JUMP JUMPDEST PUSH2 0x73D DUP2 PUSH2 0x713 JUMP JUMPDEST DUP3 MSTORE POP POP JUMP JUMPDEST PUSH0 PUSH1 0x20 DUP3 ADD SWAP1 POP PUSH2 0x756 PUSH0 DUP4 ADD DUP5 PUSH2 0x734 JUMP JUMPDEST SWAP3 SWAP2 POP POP JUMP JUMPDEST PUSH0 DUP1 REVERT JUMPDEST PUSH0 DUP1 REVERT JUMPDEST PUSH0 PUSH1 0x1F NOT PUSH1 0x1F DUP4 ADD AND SWAP1 POP SWAP2 SWAP1 POP JUMP JUMPDEST PUSH32 0x4E487B7100000000000000000000000000000000000000000000000000000000 PUSH0 MSTORE PUSH1 0x41 PUSH1 0x4 MSTORE PUSH1 0x24 PUSH0 REVERT JUMPDEST PUSH2 0x7AA DUP3 PUSH2 0x764 JUMP JUMPDEST DUP2 ADD DUP2 DUP2 LT PUSH8 0xFFFFFFFFFFFFFFFF DUP3 GT OR ISZERO PUSH2 0x7C9 JUMPI PUSH2 0x7C8 PUSH2 0x774 JUMP JUMPDEST JUMPDEST DUP1 PUSH1 0x40 MSTORE POP POP POP JUMP JUMPDEST PUSH0 PUSH2 0x7DB PUSH2 0x662 JUMP JUMPDEST SWAP1 POP PUSH2 0x7E7 DUP3 DUP3 PUSH2 0x7A1 JUMP JUMPDEST SWAP2 SWAP1 POP JUMP JUMPDEST PUSH0 PUSH8 0xFFFFFFFFFFFFFFFF DUP3 GT ISZERO PUSH2 0x806 JUMPI PUSH2 0x805 PUSH2 0x774 JUMP JUMPDEST JUMPDEST PUSH2 0x80F DUP3 PUSH2 0x764 JUMP JUMPDEST SWAP1 POP PUSH1 0x20 DUP2 ADD SWAP1 POP SWAP2 SWAP1 POP JUMP JUMPDEST DUP3 DUP2 DUP4 MCOPY PUSH0 DUP4 DUP4 ADD MSTORE POP POP POP JUMP JUMPDEST PUSH0 PUSH2 0x83C PUSH2 0x837 DUP5 PUSH2 0x7EC JUMP JUMPDEST PUSH2 0x7D2 JUMP JUMPDEST SWAP1 POP DUP3 DUP2 MSTORE PUSH1 0x20 DUP2 ADD DUP5 DUP5 DUP5 ADD GT ISZERO PUSH2 0x858 JUMPI PUSH2 0x857 PUSH2 0x760 JUMP JUMPDEST JUMPDEST PUSH2 0x863 DUP5 DUP3 DUP6 PUSH2 0x81C JUMP JUMPDEST POP SWAP4 SWAP3 POP POP POP JUMP JUMPDEST PUSH0 DUP3 PUSH1 0x1F DUP4 ADD SLT PUSH2 0x87F JUMPI PUSH2 0x87E PUSH2 0x75C JUMP JUMPDEST JUMPDEST DUP2 MLOAD PUSH2 0x88F DUP5 DUP3 PUSH1 0x20 DUP7 ADD PUSH2 0x82A JUMP JUMPDEST SWAP2 POP POP SWAP3 SWAP2 POP POP JUMP JUMPDEST PUSH0 PUSH1 0x20 DUP3 DUP5 SUB SLT ISZERO PUSH2 0x8AD JUMPI PUSH2 0x8AC PUSH2 0x66B JUMP JUMPDEST JUMPDEST PUSH0 DUP3 ADD MLOAD PUSH8 0xFFFFFFFFFFFFFFFF DUP2 GT ISZERO PUSH2 0x8CA JUMPI PUSH2 0x8C9 PUSH2 0x66F JUMP JUMPDEST JUMPDEST PUSH2 0x8D6 DUP5 DUP3 DUP6 ADD PUSH2 0x86B JUMP JUMPDEST SWAP2 POP POP SWAP3 SWAP2 POP POP JUMP JUMPDEST PUSH0 DUP2 SWAP1 POP SWAP2 SWAP1 POP JUMP JUMPDEST PUSH0 PUSH2 0x902 PUSH2 0x8FD PUSH2 0x8F8 DUP5 PUSH2 0x8DF JUMP JUMPDEST PUSH2 0x70A JUMP JUMPDEST PUSH2 0x701 JUMP JUMPDEST SWAP1 POP SWAP2 SWAP1 POP JUMP JUMPDEST PUSH2 0x912 DUP2 PUSH2 0x8E8 JUMP JUMPDEST DUP3 MSTORE POP POP JUMP JUMPDEST PUSH0 PUSH1 0x20 DUP3 ADD SWAP1 POP PUSH2 0x92B PUSH0 DUP4 ADD DUP5 PUSH2 0x909 JUMP JUMPDEST SWAP3 SWAP2 POP POP JUMP JUMPDEST PUSH0 PUSH1 0xFF DUP3 AND SWAP1 POP SWAP2 SWAP1 POP JUMP JUMPDEST PUSH2 0x946 DUP2 PUSH2 0x931 JUMP JUMPDEST DUP2 EQ PUSH2 0x950 JUMPI PUSH0 DUP1 REVERT JUMPDEST POP JUMP JUMPDEST PUSH0 DUP2 MLOAD SWAP1 POP PUSH2 0x961 DUP2 PUSH2 0x93D JUMP JUMPDEST SWAP3 SWAP2 POP POP JUMP JUMPDEST PUSH0 PUSH1 0x20 DUP3 DUP5 SUB SLT ISZERO PUSH2 0x97C JUMPI PUSH2 0x97B PUSH2 0x66B JUMP JUMPDEST JUMPDEST PUSH0 PUSH2 0x989 DUP5 DUP3 DUP6 ADD PUSH2 0x953 JUMP JUMPDEST SWAP2 POP POP SWAP3 SWAP2 POP POP JUMP JUMPDEST PUSH0 DUP2 MLOAD SWAP1 POP SWAP2 SWAP1 POP JUMP JUMPDEST PUSH32 0x4E487B7100000000000000000000000000000000000000000000000000000000 PUSH0 MSTORE PUSH1 0x22 PUSH1 0x4 MSTORE PUSH1 0x24 PUSH0 REVERT JUMPDEST PUSH0 PUSH1 0x2 DUP3 DIV SWAP1 POP PUSH1 0x1 DUP3 AND DUP1 PUSH2 0x9E0 JUMPI PUSH1 0x7F DUP3 AND SWAP2 POP JUMPDEST PUSH1 0x20 DUP3 LT DUP2 SUB PUSH2 0x9F3 JUMPI PUSH2 0x9F2 PUSH2 0x99C JUMP JUMPDEST JUMPDEST POP SWAP2 SWAP1 POP JUMP JUMPDEST PUSH0 DUP2 SWAP1 POP DUP2 PUSH0 MSTORE PUSH1 0x20 PUSH0 KECCAK256 SWAP1 POP SWAP2 SWAP1 POP JUMP JUMPDEST PUSH0 PUSH1 0x20 PUSH1 0x1F DUP4 ADD DIV SWAP1 POP SWAP2 SWAP1 POP JUMP JUMPDEST PUSH0 DUP3 DUP3 SHL SWAP1 POP SWAP3 SWAP2 POP POP JUMP JUMPDEST PUSH0 PUSH1 0x8 DUP4 MUL PUSH2 0xA55 PUSH32 0xFFFFFFFFFFFFFFFFFFFFFFFFFFFFFFFFFFFFFFFFFFFFFFFFFFFFFFFFFFFFFFFF DUP3 PUSH2 0xA1A JUMP JUMPDEST PUSH2 0xA5F DUP7 DUP4 PUSH2 0xA1A JUMP JUMPDEST SWAP6 POP DUP1 NOT DUP5 AND SWAP4 POP DUP1 DUP7 AND DUP5 OR SWAP3 POP POP POP SWAP4 SWAP3 POP POP POP JUMP JUMPDEST PUSH0 PUSH2 0xA91 PUSH2 0xA8C PUSH2 0xA87 DUP5 PUSH2 0x701 JUMP JUMPDEST PUSH2 0x70A JUMP JUMPDEST PUSH2 0x701 JUMP JUMPDEST SWAP1 POP SWAP2 SWAP1 POP JUMP JUMPDEST PUSH0 DUP2 SWAP1 POP SWAP2 SWAP1 POP JUMP JUMPDEST PUSH2 0xAAA DUP4 PUSH2 0xA77 JUMP JUMPDEST PUSH2 0xABE PUSH2 0xAB6 DUP3 PUSH2 0xA98 JUMP JUMPDEST DUP5 DUP5 SLOAD PUSH2 0xA26 JUMP JUMPDEST DUP3 SSTORE POP POP POP POP JUMP JUMPDEST PUSH0 SWAP1 JUMP JUMPDEST PUSH2 0xAD2 PUSH2 0xAC6 JUMP JUMPDEST PUSH2 0xADD DUP2 DUP5 DUP5 PUSH2 0xAA1 JUMP JUMPDEST POP POP POP JUMP JUMPDEST JUMPDEST DUP2 DUP2 LT ISZERO PUSH2 0xB00 JUMPI PUSH2 0xAF5 PUSH0 DUP3 PUSH2 0xACA JUMP JUMPDEST PUSH1 0x1 DUP2 ADD SWAP1 POP PUSH2 0xAE3 JUMP JUMPDEST POP POP JUMP JUMPDEST PUSH1 0x1F DUP3 GT ISZERO PUSH2 0xB45 JUMPI PUSH2 0xB16 DUP2 PUSH2 0x9F9 JUMP JUMPDEST PUSH2 0xB1F DUP5 PUSH2 0xA0B JUMP JUMPDEST DUP2 ADD PUSH1 0x20 DUP6 LT ISZERO PUSH2 0xB2E JUMPI DUP2 SWAP1 POP JUMPDEST PUSH2 0xB42 PUSH2 0xB3A DUP6 PUSH2 0xA0B JUMP JUMPDEST DUP4 ADD DUP3 PUSH2 0xAE2 JUMP JUMPDEST POP POP JUMPDEST POP POP POP JUMP JUMPDEST PUSH0 DUP3 DUP3 SHR SWAP1 POP SWAP3 SWAP2 POP POP JUMP JUMPDEST PUSH0 PUSH2 0xB65 PUSH0 NOT DUP5 PUSH1 0x8 MUL PUSH2 0xB4A JUMP JUMPDEST NOT DUP1 DUP4 AND SWAP2 POP POP SWAP3 SWAP2 POP POP JUMP JUMPDEST PUSH0 PUSH2 0xB7D DUP4 DUP4 PUSH2 0xB56 JUMP JUMPDEST SWAP2 POP DUP3 PUSH1 0x2 MUL DUP3 OR SWAP1 POP SWAP3 SWAP2 POP POP JUMP JUMPDEST PUSH2 0xB96 DUP3 PUSH2 0x992 JUMP JUMPDEST PUSH8 0xFFFFFFFFFFFFFFFF DUP2 GT ISZERO PUSH2 0xBAF JUMPI PUSH2 0xBAE PUSH2 0x774 JUMP JUMPDEST JUMPDEST PUSH2 0xBB9 DUP3 SLOAD PUSH2 0x9C9 JUMP JUMPDEST PUSH2 0xBC4 DUP3 DUP3 DUP6 PUSH2 0xB04 JUMP JUMPDEST PUSH0 PUSH1 0x20 SWAP1 POP PUSH1 0x1F DUP4 GT PUSH1 0x1 DUP2 EQ PUSH2 0xBF5 JUMPI PUSH0 DUP5 ISZERO PUSH2 0xBE3 JUMPI DUP3 DUP8 ADD MLOAD SWAP1 POP JUMPDEST PUSH2 0xBED DUP6 DUP3 PUSH2 0xB72 JUMP JUMPDEST DUP7 SSTORE POP PUSH2 0xC54 JUMP JUMPDEST PUSH1 0x1F NOT DUP5 AND PUSH2 0xC03 DUP7 PUSH2 0x9F9 JUMP JUMPDEST PUSH0 JUMPDEST DUP3 DUP2 LT ISZERO PUSH2 0xC2A JUMPI DUP5 DUP10 ADD MLOAD DUP3 SSTORE PUSH1 0x1 DUP3 ADD SWAP2 POP PUSH1 0x20 DUP6 ADD SWAP5 POP PUSH1 0x20 DUP2 ADD SWAP1 POP PUSH2 0xC05 JUMP JUMPDEST DUP7 DUP4 LT ISZERO PUSH2 0xC47 JUMPI DUP5 DUP10 ADD MLOAD PUSH2 0xC43 PUSH1 0x1F DUP10 AND DUP3 PUSH2 0xB56 JUMP JUMPDEST DUP4 SSTORE POP JUMPDEST PUSH1 0x1 PUSH1 0x2 DUP9 MUL ADD DUP9 SSTORE POP POP POP JUMPDEST POP POP POP POP POP POP JUMP JUMPDEST PUSH2 0xEBF DUP1 PUSH2 0xC69 PUSH0 CODECOPY PUSH0 RETURN INVALID PUSH1 0x80 PUSH1 0x40 MSTORE PUSH1 0x4 CALLDATASIZE LT PUSH2 0x3E JUMPI PUSH0 CALLDATALOAD PUSH1 0xE0 SHR DUP1 PUSH4 0x2525146B EQ PUSH2 0x42 JUMPI DUP1 PUSH4 0x42FBA3FB EQ PUSH2 0x5E JUMPI DUP1 PUSH4 0x734BA396 EQ PUSH2 0x88 JUMPI DUP1 PUSH4 0xE6AE3E6F EQ PUSH2 0xB2 JUMPI JUMPDEST PUSH0 DUP1 REVERT JUMPDEST PUSH2 0x5C PUSH1 0x4 DUP1 CALLDATASIZE SUB DUP2 ADD SWAP1 PUSH2 0x57 SWAP2 SWAP1 PUSH2 0x987 JUMP JUMPDEST PUSH2 0xDC JUMP JUMPDEST STOP JUMPDEST CALLVALUE DUP1 ISZERO PUSH2 0x69 JUMPI PUSH0 DUP1 REVERT JUMPDEST POP PUSH2 0x72 PUSH2 0x4AE JUMP JUMPDEST PUSH1 0x40 MLOAD PUSH2 0x7F SWAP2 SWAP1 PUSH2 0xA0A JUMP JUMPDEST PUSH1 0x40 MLOAD DUP1 SWAP2 SUB SWAP1 RETURN JUMPDEST CALLVALUE DUP1 ISZERO PUSH2 0x93 JUMPI PUSH0 DUP1 REVERT JUMPDEST POP PUSH2 0x9C PUSH2 0x5A4 JUMP JUMPDEST PUSH1 0x40 MLOAD PUSH2 0xA9 SWAP2 SWAP1 PUSH2 0xA93 JUMP JUMPDEST PUSH1 0x40 MLOAD DUP1 SWAP2 SUB SWAP1 RETURN JUMPDEST CALLVALUE DUP1 ISZERO PUSH2 0xBD JUMPI PUSH0 DUP1 REVERT JUMPDEST POP PUSH2 0xC6 PUSH2 0x65F JUMP JUMPDEST PUSH1 0x40 MLOAD PUSH2 0xD3 SWAP2 SWAP1 PUSH2 0xAC2 JUMP JUMPDEST PUSH1 0x40 MLOAD DUP1 SWAP2 SUB SWAP1 RETURN JUMPDEST PUSH0 CALLVALUE EQ PUSH2 0xE7 JUMPI PUSH0 DUP1 REVERT JUMPDEST PUSH1 0x2 PUSH1 0x5 PUSH0 SWAP1 SLOAD SWAP1 PUSH2 0x100 EXP SWAP1 DIV PUSH1 0xFF AND PUSH1 0xFF AND DUP2 SLOAD DUP2 LT PUSH2 0x10C JUMPI PUSH2 0x10B PUSH2 0xADB JUMP JUMPDEST JUMPDEST SWAP1 PUSH0 MSTORE PUSH1 0x20 PUSH0 KECCAK256 SWAP1 PUSH1 0x20 SWAP2 DUP3 DUP3 DIV ADD SWAP2 SWAP1 MOD SWAP1 SLOAD SWAP1 PUSH2 0x100 EXP SWAP1 DIV PUSH1 0xFF AND PUSH1 0xFF AND DUP3 PUSH1 0xFF AND EQ PUSH2 0x265 JUMPI PUSH2 0x1D3 PUSH1 0x4 DUP1 SLOAD DUP1 PUSH1 0x20 MUL PUSH1 0x20 ADD PUSH1 0x40 MLOAD SWAP1 DUP2 ADD PUSH1 0x40 MSTORE DUP1 SWAP3 SWAP2 SWAP1 DUP2 DUP2 MSTORE PUSH1 0x20 ADD DUP3 DUP1 SLOAD DUP1 ISZERO PUSH2 0x1A8 JUMPI PUSH1 0x20 MUL DUP3 ADD SWAP2 SWAP1 PUSH0 MSTORE PUSH1 0x20 PUSH0 KECCAK256 SWAP1 PUSH0 SWAP1 JUMPDEST DUP3 DUP3 SWAP1 SLOAD SWAP1 PUSH2 0x100 EXP SWAP1 DIV PUSH1 0x7 SIGNEXTEND PUSH1 0x7 SIGNEXTEND DUP2 MSTORE PUSH1 0x20 ADD SWAP1 PUSH1 0x8 ADD SWAP1 PUSH1 0x20 DUP3 PUSH1 0x7 ADD DIV SWAP3 DUP4 ADD SWAP3 PUSH1 0x1 SUB DUP3 MUL SWAP2 POP DUP1 DUP5 GT PUSH2 0x171 JUMPI SWAP1 POP JUMPDEST POP POP POP POP POP PUSH32 0xFFFFFFFFFFFFFFFFFFFFFFFFFFFFFFFFFFFFFFFFFFFFFFFFFFFFFFFFFFE17B80 PUSH2 0x674 JUMP JUMPDEST PUSH1 0x4 SWAP1 DUP1 MLOAD SWAP1 PUSH1 0x20 ADD SWAP1 PUSH2 0x1E8 SWAP3 SWAP2 SWAP1 PUSH2 0x81C JUMP JUMPDEST POP PUSH1 0x4 DUP1 SLOAD DUP1 PUSH2 0x1FB JUMPI PUSH2 0x1FA PUSH2 0xB08 JUMP JUMPDEST JUMPDEST PUSH1 0x1 SWAP1 SUB DUP2 DUP2 SWAP1 PUSH0 MSTORE PUSH1 0x20 PUSH0 KECCAK256 SWAP1 PUSH1 0x4 SWAP2 DUP3 DUP3 DIV ADD SWAP2 SWAP1 MOD PUSH1 0x8 MUL PUSH2 0x100 EXP DUP2 SLOAD SWAP1 PUSH8 0xFFFFFFFFFFFFFFFF MUL NOT AND SWAP1 SSTORE SWAP1 SSTORE PUSH32 0x22B1CEE616B1FDC88183479E67FBDD2D87E3BB10FA86D8ECCEA07B189C6D17EB PUSH0 PUSH1 0x40 MLOAD PUSH2 0x25C SWAP2 SWAP1 PUSH2 0xB4F JUMP JUMPDEST PUSH1 0x40 MLOAD DUP1 SWAP2 SUB SWAP1 LOG1 JUMPDEST PUSH1 0x5 PUSH0 DUP2 DUP2 SWAP1 SLOAD SWAP1 PUSH2 0x100 EXP SWAP1 DIV PUSH1 0xFF AND DUP1 SWAP3 SWAP2 SWAP1 PUSH2 0x283 SWAP1 PUSH2 0xB95 JUMP JUMPDEST SWAP2 SWAP1 PUSH2 0x100 EXP DUP2 SLOAD DUP2 PUSH1 0xFF MUL NOT AND SWAP1 DUP4 PUSH1 0xFF AND MUL OR SWAP1 SSTORE POP POP PUSH2 0x31C PUSH1 0x4 DUP1 SLOAD DUP1 PUSH1 0x20 MUL PUSH1 0x20 ADD PUSH1 0x40 MLOAD SWAP1 DUP2 ADD PUSH1 0x40 MSTORE DUP1 SWAP3 SWAP2 SWAP1 DUP2 DUP2 MSTORE PUSH1 0x20 ADD DUP3 DUP1 SLOAD DUP1 ISZERO PUSH2 0x30E JUMPI PUSH1 0x20 MUL DUP3 ADD SWAP2 SWAP1 PUSH0 MSTORE PUSH1 0x20 PUSH0 KECCAK256 SWAP1 PUSH0 SWAP1 JUMPDEST DUP3 DUP3 SWAP1 SLOAD SWAP1 PUSH2 0x100 EXP SWAP1 DIV PUSH1 0x7 SIGNEXTEND PUSH1 0x7 SIGNEXTEND DUP2 MSTORE PUSH1 0x20 ADD SWAP1 PUSH1 0x8 ADD SWAP1 PUSH1 0x20 DUP3 PUSH1 0x7 ADD DIV SWAP3 DUP4 ADD SWAP3 PUSH1 0x1 SUB DUP3 MUL SWAP2 POP DUP1 DUP5 GT PUSH2 0x2D7 JUMPI SWAP1 POP JUMPDEST POP POP POP POP POP PUSH3 0x1E8480 PUSH2 0x674 JUMP JUMPDEST PUSH1 0x4 SWAP1 DUP1 MLOAD SWAP1 PUSH1 0x20 ADD SWAP1 PUSH2 0x331 SWAP3 SWAP2 SWAP1 PUSH2 0x81C JUMP JUMPDEST POP PUSH1 0x4 DUP1 SLOAD DUP1 PUSH2 0x344 JUMPI PUSH2 0x343 PUSH2 0xB08 JUMP JUMPDEST JUMPDEST PUSH1 0x1 SWAP1 SUB DUP2 DUP2 SWAP1 PUSH0 MSTORE PUSH1 0x20 PUSH0 KECCAK256 SWAP1 PUSH1 0x4 SWAP2 DUP3 DUP3 DIV ADD SWAP2 SWAP1 MOD PUSH1 0x8 MUL PUSH2 0x100 EXP DUP2 SLOAD SWAP1 PUSH8 0xFFFFFFFFFFFFFFFF MUL NOT AND SWAP1 SSTORE SWAP1 SSTORE PUSH1 0x1 DUP1 SLOAD SWAP1 POP PUSH1 0x5 PUSH0 SWAP1 SLOAD SWAP1 PUSH2 0x100 EXP SWAP1 DIV PUSH1 0xFF AND PUSH1 0xFF AND LT PUSH2 0x3AE JUMPI PUSH0 PUSH1 0x5 PUSH0 PUSH2 0x100 EXP DUP2 SLOAD DUP2 PUSH1 0xFF MUL NOT AND SWAP1 DUP4 PUSH1 0xFF AND MUL OR SWAP1 SSTORE POP JUMPDEST PUSH2 0x3B6 PUSH2 0x4AE JUMP JUMPDEST PUSH1 0x5 PUSH1 0x1 PUSH2 0x100 EXP DUP2 SLOAD DUP2 PUSH8 0xFFFFFFFFFFFFFFFF MUL NOT AND SWAP1 DUP4 PUSH1 0x7 SIGNEXTEND PUSH8 0xFFFFFFFFFFFFFFFF AND MUL OR SWAP1 SSTORE POP PUSH3 0x94C5F0 PUSH1 0x5 PUSH1 0x1 SWAP1 SLOAD SWAP1 PUSH2 0x100 EXP SWAP1 DIV PUSH1 0x7 SIGNEXTEND PUSH1 0x7 SIGNEXTEND SGT ISZERO PUSH2 0x4AA JUMPI PUSH0 DUP2 PUSH20 0xFFFFFFFFFFFFFFFFFFFFFFFFFFFFFFFFFFFFFFFF AND PUSH2 0x1F4 PUSH1 0x40 MLOAD PUSH2 0x425 SWAP1 PUSH2 0xBEA JUMP JUMPDEST PUSH0 PUSH1 0x40 MLOAD DUP1 DUP4 SUB DUP2 DUP6 DUP8 GAS CALL SWAP3 POP POP POP RETURNDATASIZE DUP1 PUSH0 DUP2 EQ PUSH2 0x45F JUMPI PUSH1 0x40 MLOAD SWAP2 POP PUSH1 0x1F NOT PUSH1 0x3F RETURNDATASIZE ADD AND DUP3 ADD PUSH1 0x40 MSTORE RETURNDATASIZE DUP3 MSTORE RETURNDATASIZE PUSH0 PUSH1 0x20 DUP5 ADD RETURNDATACOPY PUSH2 0x464 JUMP JUMPDEST PUSH1 0x60 SWAP2 POP JUMPDEST POP POP SWAP1 POP DUP1 PUSH2 0x4A8 JUMPI PUSH1 0x40 MLOAD PUSH32 0x8C379A000000000000000000000000000000000000000000000000000000000 DUP2 MSTORE PUSH1 0x4 ADD PUSH2 0x49F SWAP1 PUSH2 0xC48 JUMP JUMPDEST PUSH1 0x40 MLOAD DUP1 SWAP2 SUB SWAP1 REVERT JUMPDEST POP JUMPDEST POP POP JUMP JUMPDEST PUSH0 PUSH2 0x59F PUSH1 0x3 DUP1 SLOAD DUP1 PUSH1 0x20 MUL PUSH1 0x20 ADD PUSH1 0x40 MLOAD SWAP1 DUP2 ADD PUSH1 0x40 MSTORE DUP1 SWAP3 SWAP2 SWAP1 DUP2 DUP2 MSTORE PUSH1 0x20 ADD DUP3 DUP1 SLOAD DUP1 ISZERO PUSH2 0x521 JUMPI PUSH1 0x20 MUL DUP3 ADD SWAP2 SWAP1 PUSH0 MSTORE PUSH1 0x20 PUSH0 KECCAK256 SWAP1 PUSH0 SWAP1 JUMPDEST DUP3 DUP3 SWAP1 SLOAD SWAP1 PUSH2 0x100 EXP SWAP1 DIV PUSH1 0x7 SIGNEXTEND PUSH1 0x7 SIGNEXTEND DUP2 MSTORE PUSH1 0x20 ADD SWAP1 PUSH1 0x8 ADD SWAP1 PUSH1 0x20 DUP3 PUSH1 0x7 ADD DIV SWAP3 DUP4 ADD SWAP3 PUSH1 0x1 SUB DUP3 MUL SWAP2 POP DUP1 DUP5 GT PUSH2 0x4EA JUMPI SWAP1 POP JUMPDEST POP POP POP POP POP PUSH1 0x4 DUP1 SLOAD DUP1 PUSH1 0x20 MUL PUSH1 0x20 ADD PUSH1 0x40 MLOAD SWAP1 DUP2 ADD PUSH1 0x40 MSTORE DUP1 SWAP3 SWAP2 SWAP1 DUP2 DUP2 MSTORE PUSH1 0x20 ADD DUP3 DUP1 SLOAD DUP1 ISZERO PUSH2 0x595 JUMPI PUSH1 0x20 MUL DUP3 ADD SWAP2 SWAP1 PUSH0 MSTORE PUSH1 0x20 PUSH0 KECCAK256 SWAP1 PUSH0 SWAP1 JUMPDEST DUP3 DUP3 SWAP1 SLOAD SWAP1 PUSH2 0x100 EXP SWAP1 DIV PUSH1 0x7 SIGNEXTEND PUSH1 0x7 SIGNEXTEND DUP2 MSTORE PUSH1 0x20 ADD SWAP1 PUSH1 0x8 ADD SWAP1 PUSH1 0x20 DUP3 PUSH1 0x7 ADD DIV SWAP3 DUP4 ADD SWAP3 PUSH1 0x1 SUB DUP3 MUL SWAP2 POP DUP1 DUP5 GT PUSH2 0x55E JUMPI SWAP1 POP JUMPDEST POP POP POP POP POP PUSH2 0x768 JUMP JUMPDEST SWAP1 POP SWAP1 JUMP JUMPDEST PUSH1 0x60 PUSH1 0x1 PUSH1 0x5 PUSH0 SWAP1 SLOAD SWAP1 PUSH2 0x100 EXP SWAP1 DIV PUSH1 0xFF AND PUSH1 0xFF AND DUP2 SLOAD DUP2 LT PUSH2 0x5CB JUMPI PUSH2 0x5CA PUSH2 0xADB JUMP JUMPDEST JUMPDEST SWAP1 PUSH0 MSTORE PUSH1 0x20 PUSH0 KECCAK256 ADD DUP1 SLOAD PUSH2 0x5DE SWAP1 PUSH2 0xC93 JUMP JUMPDEST DUP1 PUSH1 0x1F ADD PUSH1 0x20 DUP1 SWAP2 DIV MUL PUSH1 0x20 ADD PUSH1 0x40 MLOAD SWAP1 DUP2 ADD PUSH1 0x40 MSTORE DUP1 SWAP3 SWAP2 SWAP1 DUP2 DUP2 MSTORE PUSH1 0x20 ADD DUP3 DUP1 SLOAD PUSH2 0x60A SWAP1 PUSH2 0xC93 JUMP JUMPDEST DUP1 ISZERO PUSH2 0x655 JUMPI DUP1 PUSH1 0x1F LT PUSH2 0x62C JUMPI PUSH2 0x100 DUP1 DUP4 SLOAD DIV MUL DUP4 MSTORE SWAP2 PUSH1 0x20 ADD SWAP2 PUSH2 0x655 JUMP JUMPDEST DUP3 ADD SWAP2 SWAP1 PUSH0 MSTORE PUSH1 0x20 PUSH0 KECCAK256 SWAP1 JUMPDEST DUP2 SLOAD DUP2 MSTORE SWAP1 PUSH1 0x1 ADD SWAP1 PUSH1 0x20 ADD DUP1 DUP4 GT PUSH2 0x638 JUMPI DUP3 SWAP1 SUB PUSH1 0x1F AND DUP3 ADD SWAP2 JUMPDEST POP POP POP POP POP SWAP1 POP SWAP1 JUMP JUMPDEST PUSH0 PUSH1 0x5 PUSH0 SWAP1 SLOAD SWAP1 PUSH2 0x100 EXP SWAP1 DIV PUSH1 0xFF AND SWAP1 POP SWAP1 JUMP JUMPDEST PUSH1 0x60 PUSH0 PUSH1 0x1 DUP5 MLOAD PUSH2 0x685 SWAP2 SWAP1 PUSH2 0xCCC JUMP JUMPDEST PUSH8 0xFFFFFFFFFFFFFFFF DUP2 GT ISZERO PUSH2 0x69E JUMPI PUSH2 0x69D PUSH2 0xCFF JUMP JUMPDEST JUMPDEST PUSH1 0x40 MLOAD SWAP1 DUP1 DUP3 MSTORE DUP1 PUSH1 0x20 MUL PUSH1 0x20 ADD DUP3 ADD PUSH1 0x40 MSTORE DUP1 ISZERO PUSH2 0x6CC JUMPI DUP2 PUSH1 0x20 ADD PUSH1 0x20 DUP3 MUL DUP1 CALLDATASIZE DUP4 CALLDATACOPY DUP1 DUP3 ADD SWAP2 POP POP SWAP1 POP JUMPDEST POP SWAP1 POP PUSH0 JUMPDEST DUP5 MLOAD DUP2 LT ISZERO PUSH2 0x735 JUMPI DUP5 DUP2 DUP2 MLOAD DUP2 LT PUSH2 0x6ED JUMPI PUSH2 0x6EC PUSH2 0xADB JUMP JUMPDEST JUMPDEST PUSH1 0x20 MUL PUSH1 0x20 ADD ADD MLOAD DUP3 PUSH1 0x1 DUP4 PUSH2 0x703 SWAP2 SWAP1 PUSH2 0xCCC JUMP JUMPDEST DUP2 MLOAD DUP2 LT PUSH2 0x714 JUMPI PUSH2 0x713 PUSH2 0xADB JUMP JUMPDEST JUMPDEST PUSH1 0x20 MUL PUSH1 0x20 ADD ADD SWAP1 PUSH1 0x7 SIGNEXTEND SWAP1 DUP2 PUSH1 0x7 SIGNEXTEND DUP2 MSTORE POP POP DUP1 DUP1 PUSH1 0x1 ADD SWAP2 POP POP PUSH2 0x6D1 JUMP JUMPDEST POP DUP3 DUP2 PUSH0 DUP2 MLOAD DUP2 LT PUSH2 0x74A JUMPI PUSH2 0x749 PUSH2 0xADB JUMP JUMPDEST JUMPDEST PUSH1 0x20 MUL PUSH1 0x20 ADD ADD SWAP1 PUSH1 0x7 SIGNEXTEND SWAP1 DUP2 PUSH1 0x7 SIGNEXTEND DUP2 MSTORE POP POP DUP1 SWAP2 POP POP SWAP3 SWAP2 POP POP JUMP JUMPDEST PUSH0 DUP2 MLOAD DUP4 MLOAD EQ PUSH2 0x77B JUMPI PUSH2 0x77A PUSH2 0xD2C JUMP JUMPDEST JUMPDEST PUSH0 DUP1 JUMPDEST DUP5 MLOAD DUP2 PUSH1 0xFF AND LT ISZERO PUSH2 0x7EE JUMPI PUSH2 0x7CE DUP6 DUP3 PUSH1 0xFF AND DUP2 MLOAD DUP2 LT PUSH2 0x7A3 JUMPI PUSH2 0x7A2 PUSH2 0xADB JUMP JUMPDEST JUMPDEST PUSH1 0x20 MUL PUSH1 0x20 ADD ADD MLOAD DUP6 DUP4 PUSH1 0xFF AND DUP2 MLOAD DUP2 LT PUSH2 0x7C1 JUMPI PUSH2 0x7C0 PUSH2 0xADB JUMP JUMPDEST JUMPDEST PUSH1 0x20 MUL PUSH1 0x20 ADD ADD MLOAD PUSH2 0x7F9 JUMP JUMPDEST DUP3 PUSH2 0x7D9 SWAP2 SWAP1 PUSH2 0xD59 JUMP JUMPDEST SWAP2 POP DUP1 DUP1 PUSH2 0x7E6 SWAP1 PUSH2 0xB95 JUMP JUMPDEST SWAP2 POP POP PUSH2 0x77E JUMP JUMPDEST POP DUP1 SWAP2 POP POP SWAP3 SWAP2 POP POP JUMP JUMPDEST PUSH0 PUSH3 0xF4240 DUP3 DUP5 PUSH2 0x80A SWAP2 SWAP1 PUSH2 0xDB8 JUMP JUMPDEST PUSH2 0x814 SWAP2 SWAP1 PUSH2 0xE21 JUMP JUMPDEST SWAP1 POP SWAP3 SWAP2 POP POP JUMP JUMPDEST DUP3 DUP1 SLOAD DUP3 DUP3 SSTORE SWAP1 PUSH0 MSTORE PUSH1 0x20 PUSH0 KECCAK256 SWAP1 PUSH1 0x3 ADD PUSH1 0x4 SWAP1 DIV DUP2 ADD SWAP3 DUP3 ISZERO PUSH2 0x8C7 JUMPI SWAP2 PUSH1 0x20 MUL DUP3 ADD PUSH0 JUMPDEST DUP4 DUP3 GT ISZERO PUSH2 0x891 JUMPI DUP4 MLOAD DUP4 DUP3 PUSH2 0x100 EXP DUP2 SLOAD DUP2 PUSH8 0xFFFFFFFFFFFFFFFF MUL NOT AND SWAP1 DUP4 PUSH1 0x7 SIGNEXTEND PUSH8 0xFFFFFFFFFFFFFFFF AND MUL OR SWAP1 SSTORE POP SWAP3 PUSH1 0x20 ADD SWAP3 PUSH1 0x8 ADD PUSH1 0x20 DUP2 PUSH1 0x7 ADD DIV SWAP3 DUP4 ADD SWAP3 PUSH1 0x1 SUB MUL PUSH2 0x842 JUMP JUMPDEST DUP1 ISZERO PUSH2 0x8C5 JUMPI DUP3 DUP2 PUSH2 0x100 EXP DUP2 SLOAD SWAP1 PUSH8 0xFFFFFFFFFFFFFFFF MUL NOT AND SWAP1 SSTORE PUSH1 0x8 ADD PUSH1 0x20 DUP2 PUSH1 0x7 ADD DIV SWAP3 DUP4 ADD SWAP3 PUSH1 0x1 SUB MUL PUSH2 0x891 JUMP JUMPDEST POP JUMPDEST POP SWAP1 POP PUSH2 0x8D4 SWAP2 SWAP1 PUSH2 0x8D8 JUMP JUMPDEST POP SWAP1 JUMP JUMPDEST JUMPDEST DUP1 DUP3 GT ISZERO PUSH2 0x8EF JUMPI PUSH0 DUP2 PUSH0 SWAP1 SSTORE POP PUSH1 0x1 ADD PUSH2 0x8D9 JUMP JUMPDEST POP SWAP1 JUMP JUMPDEST PUSH0 DUP1 REVERT JUMPDEST PUSH0 PUSH1 0xFF DUP3 AND SWAP1 POP SWAP2 SWAP1 POP JUMP JUMPDEST PUSH2 0x90C DUP2 PUSH2 0x8F7 JUMP JUMPDEST DUP2 EQ PUSH2 0x916 JUMPI PUSH0 DUP1 REVERT JUMPDEST POP JUMP JUMPDEST PUSH0 DUP2 CALLDATALOAD SWAP1 POP PUSH2 0x927 DUP2 PUSH2 0x903 JUMP JUMPDEST SWAP3 SWAP2 POP POP JUMP JUMPDEST PUSH0 PUSH20 0xFFFFFFFFFFFFFFFFFFFFFFFFFFFFFFFFFFFFFFFF DUP3 AND SWAP1 POP SWAP2 SWAP1 POP JUMP JUMPDEST PUSH0 PUSH2 0x956 DUP3 PUSH2 0x92D JUMP JUMPDEST SWAP1 POP SWAP2 SWAP1 POP JUMP JUMPDEST PUSH2 0x966 DUP2 PUSH2 0x94C JUMP JUMPDEST DUP2 EQ PUSH2 0x970 JUMPI PUSH0 DUP1 REVERT JUMPDEST POP JUMP JUMPDEST PUSH0 DUP2 CALLDATALOAD SWAP1 POP PUSH2 0x981 DUP2 PUSH2 0x95D JUMP JUMPDEST SWAP3 SWAP2 POP POP JUMP JUMPDEST PUSH0 DUP1 PUSH1 0x40 DUP4 DUP6 SUB SLT ISZERO PUSH2 0x99D JUMPI PUSH2 0x99C PUSH2 0x8F3 JUMP JUMPDEST JUMPDEST PUSH0 PUSH2 0x9AA DUP6 DUP3 DUP7 ADD PUSH2 0x919 JUMP JUMPDEST SWAP3 POP POP PUSH1 0x20 PUSH2 0x9BB DUP6 DUP3 DUP7 ADD PUSH2 0x973 JUMP JUMPDEST SWAP2 POP POP SWAP3 POP SWAP3 SWAP1 POP JUMP JUMPDEST PUSH0 DUP2 PUSH1 0x7 SIGNEXTEND SWAP1 POP SWAP2 SWAP1 POP JUMP JUMPDEST PUSH0 DUP2 SWAP1 POP SWAP2 SWAP1 POP JUMP JUMPDEST PUSH0 PUSH2 0x9F4 PUSH2 0x9EF PUSH2 0x9EA DUP5 PUSH2 0x9C5 JUMP JUMPDEST PUSH2 0x9D1 JUMP JUMPDEST PUSH2 0x9C5 JUMP JUMPDEST SWAP1 POP SWAP2 SWAP1 POP JUMP JUMPDEST PUSH2 0xA04 DUP2 PUSH2 0x9DA JUMP JUMPDEST DUP3 MSTORE POP POP JUMP JUMPDEST PUSH0 PUSH1 0x20 DUP3 ADD SWAP1 POP PUSH2 0xA1D PUSH0 DUP4 ADD DUP5 PUSH2 0x9FB JUMP JUMPDEST SWAP3 SWAP2 POP POP JUMP JUMPDEST PUSH0 DUP2 MLOAD SWAP1 POP SWAP2 SWAP1 POP JUMP JUMPDEST PUSH0 DUP3 DUP3 MSTORE PUSH1 0x20 DUP3 ADD SWAP1 POP SWAP3 SWAP2 POP POP JUMP JUMPDEST DUP3 DUP2 DUP4 MCOPY PUSH0 DUP4 DUP4 ADD MSTORE POP POP POP JUMP JUMPDEST PUSH0 PUSH1 0x1F NOT PUSH1 0x1F DUP4 ADD AND SWAP1 POP SWAP2 SWAP1 POP JUMP JUMPDEST PUSH0 PUSH2 0xA65 DUP3 PUSH2 0xA23 JUMP JUMPDEST PUSH2 0xA6F DUP2 DUP6 PUSH2 0xA2D JUMP JUMPDEST SWAP4 POP PUSH2 0xA7F DUP2 DUP6 PUSH1 0x20 DUP7 ADD PUSH2 0xA3D JUMP JUMPDEST PUSH2 0xA88 DUP2 PUSH2 0xA4B JUMP JUMPDEST DUP5 ADD SWAP2 POP POP SWAP3 SWAP2 POP POP JUMP JUMPDEST PUSH0 PUSH1 0x20 DUP3 ADD SWAP1 POP DUP2 DUP2 SUB PUSH0 DUP4 ADD MSTORE PUSH2 0xAAB DUP2 DUP5 PUSH2 0xA5B JUMP JUMPDEST SWAP1 POP SWAP3 SWAP2 POP POP JUMP JUMPDEST PUSH2 0xABC DUP2 PUSH2 0x8F7 JUMP JUMPDEST DUP3 MSTORE POP POP JUMP JUMPDEST PUSH0 PUSH1 0x20 DUP3 ADD SWAP1 POP PUSH2 0xAD5 PUSH0 DUP4 ADD DUP5 PUSH2 0xAB3 JUMP JUMPDEST SWAP3 SWAP2 POP POP JUMP JUMPDEST PUSH32 0x4E487B7100000000000000000000000000000000000000000000000000000000 PUSH0 MSTORE PUSH1 0x32 PUSH1 0x4 MSTORE PUSH1 0x24 PUSH0 REVERT JUMPDEST PUSH32 0x4E487B7100000000000000000000000000000000000000000000000000000000 PUSH0 MSTORE PUSH1 0x31 PUSH1 0x4 MSTORE PUSH1 0x24 PUSH0 REVERT JUMPDEST PUSH0 DUP2 ISZERO ISZERO SWAP1 POP SWAP2 SWAP1 POP JUMP JUMPDEST PUSH2 0xB49 DUP2 PUSH2 0xB35 JUMP JUMPDEST DUP3 MSTORE POP POP JUMP JUMPDEST PUSH0 PUSH1 0x20 DUP3 ADD SWAP1 POP PUSH2 0xB62 PUSH0 DUP4 ADD DUP5 PUSH2 0xB40 JUMP JUMPDEST SWAP3 SWAP2 POP POP JUMP JUMPDEST PUSH32 0x4E487B7100000000000000000000000000000000000000000000000000000000 PUSH0 MSTORE PUSH1 0x11 PUSH1 0x4 MSTORE PUSH1 0x24 PUSH0 REVERT JUMPDEST PUSH0 PUSH2 0xB9F DUP3 PUSH2 0x8F7 JUMP JUMPDEST SWAP2 POP PUSH1 0xFF DUP3 SUB PUSH2 0xBB2 JUMPI PUSH2 0xBB1 PUSH2 0xB68 JUMP JUMPDEST JUMPDEST PUSH1 0x1 DUP3 ADD SWAP1 POP SWAP2 SWAP1 POP JUMP JUMPDEST PUSH0 DUP2 SWAP1 POP SWAP3 SWAP2 POP POP JUMP JUMPDEST POP JUMP JUMPDEST PUSH0 PUSH2 0xBD5 PUSH0 DUP4 PUSH2 0xBBD JUMP JUMPDEST SWAP2 POP PUSH2 0xBE0 DUP3 PUSH2 0xBC7 JUMP JUMPDEST PUSH0 DUP3 ADD SWAP1 POP SWAP2 SWAP1 POP JUMP JUMPDEST PUSH0 PUSH2 0xBF4 DUP3 PUSH2 0xBCA JUMP JUMPDEST SWAP2 POP DUP2 SWAP1 POP SWAP2 SWAP1 POP JUMP JUMPDEST PUSH32 0x4661696C656420746F2073656E64204574686572000000000000000000000000 PUSH0 DUP3 ADD MSTORE POP JUMP JUMPDEST PUSH0 PUSH2 0xC32 PUSH1 0x14 DUP4 PUSH2 0xA2D JUMP JUMPDEST SWAP2 POP PUSH2 0xC3D DUP3 PUSH2 0xBFE JUMP JUMPDEST PUSH1 0x20 DUP3 ADD SWAP1 POP SWAP2 SWAP1 POP JUMP JUMPDEST PUSH0 PUSH1 0x20 DUP3 ADD SWAP1 POP DUP2 DUP2 SUB PUSH0 DUP4 ADD MSTORE PUSH2 0xC5F DUP2 PUSH2 0xC26 JUMP JUMPDEST SWAP1 POP SWAP2 SWAP1 POP JUMP JUMPDEST PUSH32 0x4E487B7100000000000000000000000000000000000000000000000000000000 PUSH0 MSTORE PUSH1 0x22 PUSH1 0x4 MSTORE PUSH1 0x24 PUSH0 REVERT JUMPDEST PUSH0 PUSH1 0x2 DUP3 DIV SWAP1 POP PUSH1 0x1 DUP3 AND DUP1 PUSH2 0xCAA JUMPI PUSH1 0x7F DUP3 AND SWAP2 POP JUMPDEST PUSH1 0x20 DUP3 LT DUP2 SUB PUSH2 0xCBD JUMPI PUSH2 0xCBC PUSH2 0xC66 JUMP JUMPDEST JUMPDEST POP SWAP2 SWAP1 POP JUMP JUMPDEST PUSH0 DUP2 SWAP1 POP SWAP2 SWAP1 POP JUMP JUMPDEST PUSH0 PUSH2 0xCD6 DUP3 PUSH2 0xCC3 JUMP JUMPDEST SWAP2 POP PUSH2 0xCE1 DUP4 PUSH2 0xCC3 JUMP JUMPDEST SWAP3 POP DUP3 DUP3 ADD SWAP1 POP DUP1 DUP3 GT ISZERO PUSH2 0xCF9 JUMPI PUSH2 0xCF8 PUSH2 0xB68 JUMP JUMPDEST JUMPDEST SWAP3 SWAP2 POP POP JUMP JUMPDEST PUSH32 0x4E487B7100000000000000000000000000000000000000000000000000000000 PUSH0 MSTORE PUSH1 0x41 PUSH1 0x4 MSTORE PUSH1 0x24 PUSH0 REVERT JUMPDEST PUSH32 0x4E487B7100000000000000000000000000000000000000000000000000000000 PUSH0 MSTORE PUSH1 0x1 PUSH1 0x4 MSTORE PUSH1 0x24 PUSH0 REVERT JUMPDEST PUSH0 PUSH2 0xD63 DUP3 PUSH2 0x9C5 JUMP JUMPDEST SWAP2 POP PUSH2 0xD6E DUP4 PUSH2 0x9C5 JUMP JUMPDEST SWAP3 POP DUP3 DUP3 ADD SWAP1 POP PUSH32 0xFFFFFFFFFFFFFFFFFFFFFFFFFFFFFFFFFFFFFFFFFFFFFFFF8000000000000000 DUP2 SLT PUSH8 0x7FFFFFFFFFFFFFFF DUP3 SGT OR ISZERO PUSH2 0xDB2 JUMPI PUSH2 0xDB1 PUSH2 0xB68 JUMP JUMPDEST JUMPDEST SWAP3 SWAP2 POP POP JUMP JUMPDEST PUSH0 PUSH2 0xDC2 DUP3 PUSH2 0x9C5 JUMP JUMPDEST SWAP2 POP PUSH2 0xDCD DUP4 PUSH2 0x9C5 JUMP JUMPDEST SWAP3 POP DUP3 DUP3 MUL PUSH2 0xDDB DUP2 PUSH2 0x9C5 JUMP JUMPDEST SWAP2 POP DUP1 DUP3 EQ PUSH2 0xDED JUMPI PUSH2 0xDEC PUSH2 0xB68 JUMP JUMPDEST JUMPDEST POP SWAP3 SWAP2 POP POP JUMP JUMPDEST PUSH32 0x4E487B7100000000000000000000000000000000000000000000000000000000 PUSH0 MSTORE PUSH1 0x12 PUSH1 0x4 MSTORE PUSH1 0x24 PUSH0 REVERT JUMPDEST PUSH0 PUSH2 0xE2B DUP3 PUSH2 0x9C5 JUMP JUMPDEST SWAP2 POP PUSH2 0xE36 DUP4 PUSH2 0x9C5 JUMP JUMPDEST SWAP3 POP DUP3 PUSH2 0xE46 JUMPI PUSH2 0xE45 PUSH2 0xDF4 JUMP JUMPDEST JUMPDEST PUSH1 0x1 PUSH0 SUB DUP4 EQ PUSH32 0xFFFFFFFFFFFFFFFFFFFFFFFFFFFFFFFFFFFFFFFFFFFFFFFF8000000000000000 DUP4 EQ AND ISZERO PUSH2 0xE7E JUMPI PUSH2 0xE7D PUSH2 0xB68 JUMP JUMPDEST JUMPDEST DUP3 DUP3 SDIV SWAP1 POP SWAP3 SWAP2 POP POP JUMP INVALID LOG2 PUSH5 0x6970667358 0x22 SLT KECCAK256 0xD9 SWAP13 0xE4 DUP2 SWAP16 STOP 0xC1 SWAP1 NOT CALLDATALOAD PUSH4 0x6873AF6F RETURN LT GT PUSH27 0x65CF9A55949EE765FD74AFAAF064736F6C634300081A0033000000 "
				},
				"gasEstimates": {
					"creation": {
						"codeDepositCost": "755000",
						"executionCost": "infinite",
						"totalCost": "infinite"
					},
					"external": {
						"answer(uint8,address)": "infinite",
						"calculate_grade()": "infinite",
						"get_current_question()": "infinite",
						"get_progress()": "2517"
					},
					"internal": {
						"dot_product(TutorContract.fxp[] memory,TutorContract.fxp[] memory)": "infinite",
						"fxp_mul(TutorContract.fxp,TutorContract.fxp)": "infinite",
						"push_front(TutorContract.fxp[] memory,TutorContract.fxp)": "infinite"
					}
				},
				"methodIdentifiers": {
					"answer(uint8,address)": "2525146b",
					"calculate_grade()": "42fba3fb",
					"get_current_question()": "734ba396",
					"get_progress()": "e6ae3e6f"
				}
			},
			"storageLayout": {
				"storage": [
					{
						"astId": 19,
						"contract": "tutor.sol:TutorContract",
						"label": "TutorOracle",
						"offset": 0,
						"slot": "0",
						"type": "t_contract(Oracle)14"
					},
					{
						"astId": 22,
						"contract": "tutor.sol:TutorContract",
						"label": "questions",
						"offset": 0,
						"slot": "1",
						"type": "t_array(t_string_storage)dyn_storage"
					},
					{
						"astId": 25,
						"contract": "tutor.sol:TutorContract",
						"label": "answers",
						"offset": 0,
						"slot": "2",
						"type": "t_array(t_uint8)dyn_storage"
					},
					{
						"astId": 29,
						"contract": "tutor.sol:TutorContract",
						"label": "weights",
						"offset": 0,
						"slot": "3",
						"type": "t_array(t_userDefinedValueType(fxp)16)dyn_storage"
					},
					{
						"astId": 33,
						"contract": "tutor.sol:TutorContract",
						"label": "points",
						"offset": 0,
						"slot": "4",
						"type": "t_array(t_userDefinedValueType(fxp)16)dyn_storage"
					},
					{
						"astId": 35,
						"contract": "tutor.sol:TutorContract",
						"label": "progress",
						"offset": 0,
						"slot": "5",
						"type": "t_uint8"
					},
					{
						"astId": 38,
						"contract": "tutor.sol:TutorContract",
						"label": "grade",
						"offset": 1,
						"slot": "5",
						"type": "t_userDefinedValueType(fxp)16"
					}
				],
				"types": {
					"t_array(t_string_storage)dyn_storage": {
						"base": "t_string_storage",
						"encoding": "dynamic_array",
						"label": "string[]",
						"numberOfBytes": "32"
					},
					"t_array(t_uint8)dyn_storage": {
						"base": "t_uint8",
						"encoding": "dynamic_array",
						"label": "uint8[]",
						"numberOfBytes": "32"
					},
					"t_array(t_userDefinedValueType(fxp)16)dyn_storage": {
						"base": "t_userDefinedValueType(fxp)16",
						"encoding": "dynamic_array",
						"label": "TutorContract.fxp[]",
						"numberOfBytes": "32"
					},
					"t_contract(Oracle)14": {
						"encoding": "inplace",
						"label": "contract Oracle",
						"numberOfBytes": "20"
					},
					"t_string_storage": {
						"encoding": "bytes",
						"label": "string",
						"numberOfBytes": "32"
					},
					"t_uint8": {
						"encoding": "inplace",
						"label": "uint8",
						"numberOfBytes": "1"
					},
					"t_userDefinedValueType(fxp)16": {
						"encoding": "inplace",
						"label": "TutorContract.fxp",
						"numberOfBytes": "8"
					}
				}
			},
			"userdoc": {
				"kind": "user",
				"methods": {},
				"version": 1
			}
		}
	}
}