{
	"tutor.sol": {
		"TutorContract": {
			"abi": [
				{
					"inputs": [
						{
							"internalType": "string[]",
							"name": "q",
							"type": "string[]"
						},
						{
							"internalType": "uint8[]",
							"name": "a",
							"type": "uint8[]"
						}
					],
					"stateMutability": "nonpayable",
					"type": "constructor"
				},
				{
					"anonymous": false,
					"inputs": [
						{
							"indexed": false,
							"internalType": "bool",
							"name": "correct",
							"type": "bool"
						}
					],
					"name": "Answered",
					"type": "event"
				},
				{
					"inputs": [],
					"name": "calculate_grade",
					"outputs": [
						{
							"internalType": "TutorContract.fxp",
							"name": "",
							"type": "int64"
						}
					],
					"stateMutability": "view",
					"type": "function"
				},
				{
					"inputs": [],
					"name": "get_current_question",
					"outputs": [
						{
							"internalType": "string",
							"name": "",
							"type": "string"
						}
					],
					"stateMutability": "view",
					"type": "function"
				}
			],
			"devdoc": {
				"kind": "dev",
				"methods": {},
				"version": 1
			},
			"evm": {
				"assembly": "    /* \"tutor.sol\":60:1637  contract TutorContract {... */\n  mstore(0x40, 0x80)\n    /* \"tutor.sol\":385:748  constructor(string[] memory q, uint8[] memory a) {... */\n  callvalue\n  dup1\n  iszero\n  tag_1\n  jumpi\n  0x00\n  dup1\n  revert\ntag_1:\n  pop\n  mload(0x40)\n  sub(codesize, bytecodeSize)\n  dup1\n  bytecodeSize\n  dup4\n  codecopy\n  dup2\n  dup2\n  add\n  0x40\n  mstore\n  dup2\n  add\n  swap1\n  tag_2\n  swap2\n  swap1\n  tag_3\n  jump\t// in\ntag_2:\n    /* \"tutor.sol\":454:455  q */\n  dup2\n    /* \"tutor.sol\":442:451  questions */\n  0x00\n    /* \"tutor.sol\":442:455  questions = q */\n  swap1\n  dup1\n  mload\n  swap1\n  0x20\n  add\n  swap1\n  tag_6\n  swap3\n  swap2\n  swap1\n  tag_7\n  jump\t// in\ntag_6:\n  pop\n    /* \"tutor.sol\":473:474  a */\n  dup1\n    /* \"tutor.sol\":463:470  answers */\n  0x01\n    /* \"tutor.sol\":463:474  answers = a */\n  swap1\n  dup1\n  mload\n  swap1\n  0x20\n  add\n  swap1\n  tag_8\n  swap3\n  swap2\n  swap1\n  tag_9\n  jump\t// in\ntag_8:\n  pop\n    /* \"tutor.sol\":482:584  weights = [fxp.wrap(2000000), fxp.wrap(1500000), fxp.wrap(900000), fxp.wrap(400000), fxp.wrap(200000)] */\n  mload(0x40)\n  dup1\n  0xa0\n  add\n  0x40\n  mstore\n  dup1\n    /* \"tutor.sol\":502:509  2000000 */\n  0x1e8480\n    /* \"tutor.sol\":482:584  weights = [fxp.wrap(2000000), fxp.wrap(1500000), fxp.wrap(900000), fxp.wrap(400000), fxp.wrap(200000)] */\n  0x07\n  signextend\n  0x07\n  signextend\n  dup2\n  mstore\n  0x20\n  add\n    /* \"tutor.sol\":521:528  1500000 */\n  0x16e360\n    /* \"tutor.sol\":482:584  weights = [fxp.wrap(2000000), fxp.wrap(1500000), fxp.wrap(900000), fxp.wrap(400000), fxp.wrap(200000)] */\n  0x07\n  signextend\n  0x07\n  signextend\n  dup2\n  mstore\n  0x20\n  add\n    /* \"tutor.sol\":540:546  900000 */\n  0x0dbba0\n    /* \"tutor.sol\":482:584  weights = [fxp.wrap(2000000), fxp.wrap(1500000), fxp.wrap(900000), fxp.wrap(400000), fxp.wrap(200000)] */\n  0x07\n  signextend\n  0x07\n  signextend\n  dup2\n  mstore\n  0x20\n  add\n    /* \"tutor.sol\":558:564  400000 */\n  0x061a80\n    /* \"tutor.sol\":482:584  weights = [fxp.wrap(2000000), fxp.wrap(1500000), fxp.wrap(900000), fxp.wrap(400000), fxp.wrap(200000)] */\n  0x07\n  signextend\n  0x07\n  signextend\n  dup2\n  mstore\n  0x20\n  add\n    /* \"tutor.sol\":576:582  200000 */\n  0x030d40\n    /* \"tutor.sol\":482:584  weights = [fxp.wrap(2000000), fxp.wrap(1500000), fxp.wrap(900000), fxp.wrap(400000), fxp.wrap(200000)] */\n  0x07\n  signextend\n  0x07\n  signextend\n  dup2\n  mstore\n  pop\n    /* \"tutor.sol\":482:489  weights */\n  0x02\n    /* \"tutor.sol\":482:584  weights = [fxp.wrap(2000000), fxp.wrap(1500000), fxp.wrap(900000), fxp.wrap(400000), fxp.wrap(200000)] */\n  swap1\n  0x05\n  tag_10\n  swap3\n  swap2\n  swap1\n  tag_11\n  jump\t// in\ntag_10:\n  pop\n    /* \"tutor.sol\":592:696  points = [fxp.wrap(1000000), fxp.wrap(1000000), fxp.wrap(1000000), fxp.wrap(1000000), fxp.wrap(1000000)] */\n  mload(0x40)\n  dup1\n  0xa0\n  add\n  0x40\n  mstore\n  dup1\n    /* \"tutor.sol\":611:618  1000000 */\n  0x0f4240\n    /* \"tutor.sol\":592:696  points = [fxp.wrap(1000000), fxp.wrap(1000000), fxp.wrap(1000000), fxp.wrap(1000000), fxp.wrap(1000000)] */\n  0x07\n  signextend\n  0x07\n  signextend\n  dup2\n  mstore\n  0x20\n  add\n    /* \"tutor.sol\":630:637  1000000 */\n  0x0f4240\n    /* \"tutor.sol\":592:696  points = [fxp.wrap(1000000), fxp.wrap(1000000), fxp.wrap(1000000), fxp.wrap(1000000), fxp.wrap(1000000)] */\n  0x07\n  signextend\n  0x07\n  signextend\n  dup2\n  mstore\n  0x20\n  add\n    /* \"tutor.sol\":649:656  1000000 */\n  0x0f4240\n    /* \"tutor.sol\":592:696  points = [fxp.wrap(1000000), fxp.wrap(1000000), fxp.wrap(1000000), fxp.wrap(1000000), fxp.wrap(1000000)] */\n  0x07\n  signextend\n  0x07\n  signextend\n  dup2\n  mstore\n  0x20\n  add\n    /* \"tutor.sol\":668:675  1000000 */\n  0x0f4240\n    /* \"tutor.sol\":592:696  points = [fxp.wrap(1000000), fxp.wrap(1000000), fxp.wrap(1000000), fxp.wrap(1000000), fxp.wrap(1000000)] */\n  0x07\n  signextend\n  0x07\n  signextend\n  dup2\n  mstore\n  0x20\n  add\n    /* \"tutor.sol\":687:694  1000000 */\n  0x0f4240\n    /* \"tutor.sol\":592:696  points = [fxp.wrap(1000000), fxp.wrap(1000000), fxp.wrap(1000000), fxp.wrap(1000000), fxp.wrap(1000000)] */\n  0x07\n  signextend\n  0x07\n  signextend\n  dup2\n  mstore\n  pop\n    /* \"tutor.sol\":592:598  points */\n  0x03\n    /* \"tutor.sol\":592:696  points = [fxp.wrap(1000000), fxp.wrap(1000000), fxp.wrap(1000000), fxp.wrap(1000000), fxp.wrap(1000000)] */\n  swap1\n  0x05\n  tag_12\n  swap3\n  swap2\n  swap1\n  tag_11\n  jump\t// in\ntag_12:\n  pop\n    /* \"tutor.sol\":715:716  0 */\n  0x00\n    /* \"tutor.sol\":704:712  progress */\n  0x04\n  0x00\n    /* \"tutor.sol\":704:716  progress = 0 */\n  0x0100\n  exp\n  dup2\n  sload\n  dup2\n  0xff\n  mul\n  not\n  and\n  swap1\n  dup4\n  0xff\n  and\n  mul\n  or\n  swap1\n  sstore\n  pop\n    /* \"tutor.sol\":741:742  0 */\n  0x00\n    /* \"tutor.sol\":724:729  grade */\n  0x04\n  0x01\n    /* \"tutor.sol\":724:743  grade = fxp.wrap(0) */\n  0x0100\n  exp\n  dup2\n  sload\n  dup2\n  0xffffffffffffffff\n  mul\n  not\n  and\n  swap1\n  dup4\n  0x07\n  signextend\n  0xffffffffffffffff\n  and\n  mul\n  or\n  swap1\n  sstore\n  pop\n    /* \"tutor.sol\":385:748  constructor(string[] memory q, uint8[] memory a) {... */\n  pop\n  pop\n    /* \"tutor.sol\":60:1637  contract TutorContract {... */\n  jump(tag_13)\ntag_7:\n  dup3\n  dup1\n  sload\n  dup3\n  dup3\n  sstore\n  swap1\n  0x00\n  mstore\n  keccak256(0x00, 0x20)\n  swap1\n  dup2\n  add\n  swap3\n  dup3\n  iszero\n  tag_14\n  jumpi\n  swap2\n  0x20\n  mul\n  dup3\n  add\ntag_15:\n  dup3\n  dup2\n  gt\n  iszero\n  tag_16\n  jumpi\n  dup3\n  mload\n  dup3\n  swap1\n  dup2\n  tag_17\n  swap2\n  swap1\n  tag_18\n  jump\t// in\ntag_17:\n  pop\n  swap2\n  0x20\n  add\n  swap2\n  swap1\n  0x01\n  add\n  swap1\n  jump(tag_15)\ntag_16:\ntag_14:\n  pop\n  swap1\n  pop\n  tag_19\n  swap2\n  swap1\n  tag_20\n  jump\t// in\ntag_19:\n  pop\n  swap1\n  jump\t// out\ntag_9:\n  dup3\n  dup1\n  sload\n  dup3\n  dup3\n  sstore\n  swap1\n  0x00\n  mstore\n  keccak256(0x00, 0x20)\n  swap1\n  0x1f\n  add\n  0x20\n  swap1\n  div\n  dup2\n  add\n  swap3\n  dup3\n  iszero\n  tag_21\n  jumpi\n  swap2\n  0x20\n  mul\n  dup3\n  add\n  0x00\ntag_22:\n  dup4\n  dup3\n  gt\n  iszero\n  tag_23\n  jumpi\n  dup4\n  mload\n  dup4\n  dup3\n  0x0100\n  exp\n  dup2\n  sload\n  dup2\n  0xff\n  mul\n  not\n  and\n  swap1\n  dup4\n  0xff\n  and\n  mul\n  or\n  swap1\n  sstore\n  pop\n  swap3\n  0x20\n  add\n  swap3\n  0x01\n  add\n  0x20\n  dup2\n  0x00\n  add\n  div\n  swap3\n  dup4\n  add\n  swap3\n  0x01\n  sub\n  mul\n  jump(tag_22)\ntag_23:\n  dup1\n  iszero\n  tag_24\n  jumpi\n  dup3\n  dup2\n  0x0100\n  exp\n  dup2\n  sload\n  swap1\n  0xff\n  mul\n  not\n  and\n  swap1\n  sstore\n  0x01\n  add\n  0x20\n  dup2\n  0x00\n  add\n  div\n  swap3\n  dup4\n  add\n  swap3\n  0x01\n  sub\n  mul\n  jump(tag_23)\ntag_24:\n  pop\ntag_21:\n  pop\n  swap1\n  pop\n  tag_25\n  swap2\n  swap1\n  tag_26\n  jump\t// in\ntag_25:\n  pop\n  swap1\n  jump\t// out\ntag_11:\n  dup3\n  dup1\n  sload\n  dup3\n  dup3\n  sstore\n  swap1\n  0x00\n  mstore\n  keccak256(0x00, 0x20)\n  swap1\n  0x03\n  add\n  0x04\n  swap1\n  div\n  dup2\n  add\n  swap3\n  dup3\n  iszero\n  tag_27\n  jumpi\n  swap2\n  0x20\n  mul\n  dup3\n  add\n  0x00\ntag_28:\n  dup4\n  dup3\n  gt\n  iszero\n  tag_29\n  jumpi\n  dup4\n  mload\n  dup4\n  dup3\n  0x0100\n  exp\n  dup2\n  sload\n  dup2\n  0xffffffffffffffff\n  mul\n  not\n  and\n  swap1\n  dup4\n  0x07\n  signextend\n  0xffffffffffffffff\n  and\n  mul\n  or\n  swap1\n  sstore\n  pop\n  swap3\n  0x20\n  add\n  swap3\n  0x08\n  add\n  0x20\n  dup2\n  0x07\n  add\n  div\n  swap3\n  dup4\n  add\n  swap3\n  0x01\n  sub\n  mul\n  jump(tag_28)\ntag_29:\n  dup1\n  iszero\n  tag_30\n  jumpi\n  dup3\n  dup2\n  0x0100\n  exp\n  dup2\n  sload\n  swap1\n  0xffffffffffffffff\n  mul\n  not\n  and\n  swap1\n  sstore\n  0x08\n  add\n  0x20\n  dup2\n  0x07\n  add\n  div\n  swap3\n  dup4\n  add\n  swap3\n  0x01\n  sub\n  mul\n  jump(tag_29)\ntag_30:\n  pop\ntag_27:\n  pop\n  swap1\n  pop\n  tag_31\n  swap2\n  swap1\n  tag_26\n  jump\t// in\ntag_31:\n  pop\n  swap1\n  jump\t// out\ntag_20:\ntag_32:\n  dup1\n  dup3\n  gt\n  iszero\n  tag_33\n  jumpi\n  0x00\n  dup2\n  dup2\n  tag_34\n  swap2\n  swap1\n  tag_35\n  jump\t// in\ntag_34:\n  pop\n  0x01\n  add\n  jump(tag_32)\ntag_33:\n  pop\n  swap1\n  jump\t// out\ntag_26:\ntag_36:\n  dup1\n  dup3\n  gt\n  iszero\n  tag_37\n  jumpi\n  0x00\n  dup2\n  0x00\n  swap1\n  sstore\n  pop\n  0x01\n  add\n  jump(tag_36)\ntag_37:\n  pop\n  swap1\n  jump\t// out\ntag_35:\n  pop\n  dup1\n  sload\n  tag_38\n  swap1\n  tag_39\n  jump\t// in\ntag_38:\n  0x00\n  dup3\n  sstore\n  dup1\n  0x1f\n  lt\n  tag_41\n  jumpi\n  pop\n  jump(tag_40)\ntag_41:\n  0x1f\n  add\n  0x20\n  swap1\n  div\n  swap1\n  0x00\n  mstore\n  keccak256(0x00, 0x20)\n  swap1\n  dup2\n  add\n  swap1\n  tag_42\n  swap2\n  swap1\n  tag_26\n  jump\t// in\ntag_42:\ntag_40:\n  pop\n  jump\t// out\n    /* \"#utility.yul\":7:82   */\ntag_43:\n    /* \"#utility.yul\":40:46   */\n  0x00\n    /* \"#utility.yul\":73:75   */\n  0x40\n    /* \"#utility.yul\":67:76   */\n  mload\n    /* \"#utility.yul\":57:76   */\n  swap1\n  pop\n    /* \"#utility.yul\":7:82   */\n  swap1\n  jump\t// out\n    /* \"#utility.yul\":88:205   */\ntag_44:\n    /* \"#utility.yul\":197:198   */\n  0x00\n    /* \"#utility.yul\":194:195   */\n  dup1\n    /* \"#utility.yul\":187:199   */\n  revert\n    /* \"#utility.yul\":211:328   */\ntag_45:\n    /* \"#utility.yul\":320:321   */\n  0x00\n    /* \"#utility.yul\":317:318   */\n  dup1\n    /* \"#utility.yul\":310:322   */\n  revert\n    /* \"#utility.yul\":334:451   */\ntag_46:\n    /* \"#utility.yul\":443:444   */\n  0x00\n    /* \"#utility.yul\":440:441   */\n  dup1\n    /* \"#utility.yul\":433:445   */\n  revert\n    /* \"#utility.yul\":457:559   */\ntag_47:\n    /* \"#utility.yul\":498:504   */\n  0x00\n    /* \"#utility.yul\":549:551   */\n  0x1f\n    /* \"#utility.yul\":545:552   */\n  not\n    /* \"#utility.yul\":540:542   */\n  0x1f\n    /* \"#utility.yul\":533:538   */\n  dup4\n    /* \"#utility.yul\":529:543   */\n  add\n    /* \"#utility.yul\":525:553   */\n  and\n    /* \"#utility.yul\":515:553   */\n  swap1\n  pop\n    /* \"#utility.yul\":457:559   */\n  swap2\n  swap1\n  pop\n  jump\t// out\n    /* \"#utility.yul\":565:745   */\ntag_48:\n    /* \"#utility.yul\":613:690   */\n  0x4e487b7100000000000000000000000000000000000000000000000000000000\n    /* \"#utility.yul\":610:611   */\n  0x00\n    /* \"#utility.yul\":603:691   */\n  mstore\n    /* \"#utility.yul\":710:714   */\n  0x41\n    /* \"#utility.yul\":707:708   */\n  0x04\n    /* \"#utility.yul\":700:715   */\n  mstore\n    /* \"#utility.yul\":734:738   */\n  0x24\n    /* \"#utility.yul\":731:732   */\n  0x00\n    /* \"#utility.yul\":724:739   */\n  revert\n    /* \"#utility.yul\":751:1032   */\ntag_49:\n    /* \"#utility.yul\":834:861   */\n  tag_92\n    /* \"#utility.yul\":856:860   */\n  dup3\n    /* \"#utility.yul\":834:861   */\n  tag_47\n  jump\t// in\ntag_92:\n    /* \"#utility.yul\":826:832   */\n  dup2\n    /* \"#utility.yul\":822:862   */\n  add\n    /* \"#utility.yul\":964:970   */\n  dup2\n    /* \"#utility.yul\":952:962   */\n  dup2\n    /* \"#utility.yul\":949:971   */\n  lt\n    /* \"#utility.yul\":928:946   */\n  0xffffffffffffffff\n    /* \"#utility.yul\":916:926   */\n  dup3\n    /* \"#utility.yul\":913:947   */\n  gt\n    /* \"#utility.yul\":910:972   */\n  or\n    /* \"#utility.yul\":907:995   */\n  iszero\n  tag_93\n  jumpi\n    /* \"#utility.yul\":975:993   */\n  tag_94\n  tag_48\n  jump\t// in\ntag_94:\n    /* \"#utility.yul\":907:995   */\ntag_93:\n    /* \"#utility.yul\":1015:1025   */\n  dup1\n    /* \"#utility.yul\":1011:1013   */\n  0x40\n    /* \"#utility.yul\":1004:1026   */\n  mstore\n    /* \"#utility.yul\":794:1032   */\n  pop\n    /* \"#utility.yul\":751:1032   */\n  pop\n  pop\n  jump\t// out\n    /* \"#utility.yul\":1038:1167   */\ntag_50:\n    /* \"#utility.yul\":1072:1078   */\n  0x00\n    /* \"#utility.yul\":1099:1119   */\n  tag_96\n  tag_43\n  jump\t// in\ntag_96:\n    /* \"#utility.yul\":1089:1119   */\n  swap1\n  pop\n    /* \"#utility.yul\":1128:1161   */\n  tag_97\n    /* \"#utility.yul\":1156:1160   */\n  dup3\n    /* \"#utility.yul\":1148:1154   */\n  dup3\n    /* \"#utility.yul\":1128:1161   */\n  tag_49\n  jump\t// in\ntag_97:\n    /* \"#utility.yul\":1038:1167   */\n  swap2\n  swap1\n  pop\n  jump\t// out\n    /* \"#utility.yul\":1173:1494   */\ntag_51:\n    /* \"#utility.yul\":1260:1264   */\n  0x00\n    /* \"#utility.yul\":1350:1368   */\n  0xffffffffffffffff\n    /* \"#utility.yul\":1342:1348   */\n  dup3\n    /* \"#utility.yul\":1339:1369   */\n  gt\n    /* \"#utility.yul\":1336:1392   */\n  iszero\n  tag_99\n  jumpi\n    /* \"#utility.yul\":1372:1390   */\n  tag_100\n  tag_48\n  jump\t// in\ntag_100:\n    /* \"#utility.yul\":1336:1392   */\ntag_99:\n    /* \"#utility.yul\":1422:1426   */\n  0x20\n    /* \"#utility.yul\":1414:1420   */\n  dup3\n    /* \"#utility.yul\":1410:1427   */\n  mul\n    /* \"#utility.yul\":1402:1427   */\n  swap1\n  pop\n    /* \"#utility.yul\":1482:1486   */\n  0x20\n    /* \"#utility.yul\":1476:1480   */\n  dup2\n    /* \"#utility.yul\":1472:1487   */\n  add\n    /* \"#utility.yul\":1464:1487   */\n  swap1\n  pop\n    /* \"#utility.yul\":1173:1494   */\n  swap2\n  swap1\n  pop\n  jump\t// out\n    /* \"#utility.yul\":1500:1617   */\ntag_52:\n    /* \"#utility.yul\":1609:1610   */\n  0x00\n    /* \"#utility.yul\":1606:1607   */\n  dup1\n    /* \"#utility.yul\":1599:1611   */\n  revert\n    /* \"#utility.yul\":1623:1740   */\ntag_53:\n    /* \"#utility.yul\":1732:1733   */\n  0x00\n    /* \"#utility.yul\":1729:1730   */\n  dup1\n    /* \"#utility.yul\":1722:1734   */\n  revert\n    /* \"#utility.yul\":1746:2054   */\ntag_54:\n    /* \"#utility.yul\":1808:1812   */\n  0x00\n    /* \"#utility.yul\":1898:1916   */\n  0xffffffffffffffff\n    /* \"#utility.yul\":1890:1896   */\n  dup3\n    /* \"#utility.yul\":1887:1917   */\n  gt\n    /* \"#utility.yul\":1884:1940   */\n  iszero\n  tag_104\n  jumpi\n    /* \"#utility.yul\":1920:1938   */\n  tag_105\n  tag_48\n  jump\t// in\ntag_105:\n    /* \"#utility.yul\":1884:1940   */\ntag_104:\n    /* \"#utility.yul\":1958:1987   */\n  tag_106\n    /* \"#utility.yul\":1980:1986   */\n  dup3\n    /* \"#utility.yul\":1958:1987   */\n  tag_47\n  jump\t// in\ntag_106:\n    /* \"#utility.yul\":1950:1987   */\n  swap1\n  pop\n    /* \"#utility.yul\":2042:2046   */\n  0x20\n    /* \"#utility.yul\":2036:2040   */\n  dup2\n    /* \"#utility.yul\":2032:2047   */\n  add\n    /* \"#utility.yul\":2024:2047   */\n  swap1\n  pop\n    /* \"#utility.yul\":1746:2054   */\n  swap2\n  swap1\n  pop\n  jump\t// out\n    /* \"#utility.yul\":2060:2199   */\ntag_55:\n    /* \"#utility.yul\":2149:2155   */\n  dup3\n    /* \"#utility.yul\":2144:2147   */\n  dup2\n    /* \"#utility.yul\":2139:2142   */\n  dup4\n    /* \"#utility.yul\":2133:2156   */\n  mcopy\n    /* \"#utility.yul\":2190:2191   */\n  0x00\n    /* \"#utility.yul\":2181:2187   */\n  dup4\n    /* \"#utility.yul\":2176:2179   */\n  dup4\n    /* \"#utility.yul\":2172:2188   */\n  add\n    /* \"#utility.yul\":2165:2192   */\n  mstore\n    /* \"#utility.yul\":2060:2199   */\n  pop\n  pop\n  pop\n  jump\t// out\n    /* \"#utility.yul\":2205:2639   */\ntag_56:\n    /* \"#utility.yul\":2294:2299   */\n  0x00\n    /* \"#utility.yul\":2319:2385   */\n  tag_109\n    /* \"#utility.yul\":2335:2384   */\n  tag_110\n    /* \"#utility.yul\":2377:2383   */\n  dup5\n    /* \"#utility.yul\":2335:2384   */\n  tag_54\n  jump\t// in\ntag_110:\n    /* \"#utility.yul\":2319:2385   */\n  tag_50\n  jump\t// in\ntag_109:\n    /* \"#utility.yul\":2310:2385   */\n  swap1\n  pop\n    /* \"#utility.yul\":2408:2414   */\n  dup3\n    /* \"#utility.yul\":2401:2406   */\n  dup2\n    /* \"#utility.yul\":2394:2415   */\n  mstore\n    /* \"#utility.yul\":2446:2450   */\n  0x20\n    /* \"#utility.yul\":2439:2444   */\n  dup2\n    /* \"#utility.yul\":2435:2451   */\n  add\n    /* \"#utility.yul\":2484:2487   */\n  dup5\n    /* \"#utility.yul\":2475:2481   */\n  dup5\n    /* \"#utility.yul\":2470:2473   */\n  dup5\n    /* \"#utility.yul\":2466:2482   */\n  add\n    /* \"#utility.yul\":2463:2488   */\n  gt\n    /* \"#utility.yul\":2460:2572   */\n  iszero\n  tag_111\n  jumpi\n    /* \"#utility.yul\":2491:2570   */\n  tag_112\n  tag_53\n  jump\t// in\ntag_112:\n    /* \"#utility.yul\":2460:2572   */\ntag_111:\n    /* \"#utility.yul\":2581:2633   */\n  tag_113\n    /* \"#utility.yul\":2626:2632   */\n  dup5\n    /* \"#utility.yul\":2621:2624   */\n  dup3\n    /* \"#utility.yul\":2616:2619   */\n  dup6\n    /* \"#utility.yul\":2581:2633   */\n  tag_55\n  jump\t// in\ntag_113:\n    /* \"#utility.yul\":2300:2639   */\n  pop\n    /* \"#utility.yul\":2205:2639   */\n  swap4\n  swap3\n  pop\n  pop\n  pop\n  jump\t// out\n    /* \"#utility.yul\":2659:3014   */\ntag_57:\n    /* \"#utility.yul\":2726:2731   */\n  0x00\n    /* \"#utility.yul\":2775:2778   */\n  dup3\n    /* \"#utility.yul\":2768:2772   */\n  0x1f\n    /* \"#utility.yul\":2760:2766   */\n  dup4\n    /* \"#utility.yul\":2756:2773   */\n  add\n    /* \"#utility.yul\":2752:2779   */\n  slt\n    /* \"#utility.yul\":2742:2864   */\n  tag_115\n  jumpi\n    /* \"#utility.yul\":2783:2862   */\n  tag_116\n  tag_46\n  jump\t// in\ntag_116:\n    /* \"#utility.yul\":2742:2864   */\ntag_115:\n    /* \"#utility.yul\":2893:2899   */\n  dup2\n    /* \"#utility.yul\":2887:2900   */\n  mload\n    /* \"#utility.yul\":2918:3008   */\n  tag_117\n    /* \"#utility.yul\":3004:3007   */\n  dup5\n    /* \"#utility.yul\":2996:3002   */\n  dup3\n    /* \"#utility.yul\":2989:2993   */\n  0x20\n    /* \"#utility.yul\":2981:2987   */\n  dup7\n    /* \"#utility.yul\":2977:2994   */\n  add\n    /* \"#utility.yul\":2918:3008   */\n  tag_56\n  jump\t// in\ntag_117:\n    /* \"#utility.yul\":2909:3008   */\n  swap2\n  pop\n    /* \"#utility.yul\":2732:3014   */\n  pop\n    /* \"#utility.yul\":2659:3014   */\n  swap3\n  swap2\n  pop\n  pop\n  jump\t// out\n    /* \"#utility.yul\":3036:3996   */\ntag_58:\n    /* \"#utility.yul\":3153:3158   */\n  0x00\n    /* \"#utility.yul\":3178:3269   */\n  tag_119\n    /* \"#utility.yul\":3194:3268   */\n  tag_120\n    /* \"#utility.yul\":3261:3267   */\n  dup5\n    /* \"#utility.yul\":3194:3268   */\n  tag_51\n  jump\t// in\ntag_120:\n    /* \"#utility.yul\":3178:3269   */\n  tag_50\n  jump\t// in\ntag_119:\n    /* \"#utility.yul\":3169:3269   */\n  swap1\n  pop\n    /* \"#utility.yul\":3289:3294   */\n  dup1\n    /* \"#utility.yul\":3318:3324   */\n  dup4\n    /* \"#utility.yul\":3311:3316   */\n  dup3\n    /* \"#utility.yul\":3304:3325   */\n  mstore\n    /* \"#utility.yul\":3352:3356   */\n  0x20\n    /* \"#utility.yul\":3345:3350   */\n  dup3\n    /* \"#utility.yul\":3341:3357   */\n  add\n    /* \"#utility.yul\":3334:3357   */\n  swap1\n  pop\n    /* \"#utility.yul\":3405:3409   */\n  0x20\n    /* \"#utility.yul\":3397:3403   */\n  dup5\n    /* \"#utility.yul\":3393:3410   */\n  mul\n    /* \"#utility.yul\":3385:3391   */\n  dup4\n    /* \"#utility.yul\":3381:3411   */\n  add\n    /* \"#utility.yul\":3434:3437   */\n  dup6\n    /* \"#utility.yul\":3426:3432   */\n  dup2\n    /* \"#utility.yul\":3423:3438   */\n  gt\n    /* \"#utility.yul\":3420:3542   */\n  iszero\n  tag_121\n  jumpi\n    /* \"#utility.yul\":3453:3532   */\n  tag_122\n  tag_52\n  jump\t// in\ntag_122:\n    /* \"#utility.yul\":3420:3542   */\ntag_121:\n    /* \"#utility.yul\":3568:3574   */\n  dup4\n    /* \"#utility.yul\":3551:3990   */\ntag_123:\n    /* \"#utility.yul\":3585:3591   */\n  dup2\n    /* \"#utility.yul\":3580:3583   */\n  dup2\n    /* \"#utility.yul\":3577:3592   */\n  lt\n    /* \"#utility.yul\":3551:3990   */\n  iszero\n  tag_125\n  jumpi\n    /* \"#utility.yul\":3667:3670   */\n  dup1\n    /* \"#utility.yul\":3661:3671   */\n  mload\n    /* \"#utility.yul\":3703:3721   */\n  0xffffffffffffffff\n    /* \"#utility.yul\":3690:3701   */\n  dup2\n    /* \"#utility.yul\":3687:3722   */\n  gt\n    /* \"#utility.yul\":3684:3806   */\n  iszero\n  tag_126\n  jumpi\n    /* \"#utility.yul\":3725:3804   */\n  tag_127\n  tag_46\n  jump\t// in\ntag_127:\n    /* \"#utility.yul\":3684:3806   */\ntag_126:\n    /* \"#utility.yul\":3849:3860   */\n  dup1\n    /* \"#utility.yul\":3841:3847   */\n  dup7\n    /* \"#utility.yul\":3837:3861   */\n  add\n    /* \"#utility.yul\":3887:3945   */\n  tag_128\n    /* \"#utility.yul\":3941:3944   */\n  dup10\n    /* \"#utility.yul\":3929:3939   */\n  dup3\n    /* \"#utility.yul\":3887:3945   */\n  tag_57\n  jump\t// in\ntag_128:\n    /* \"#utility.yul\":3882:3885   */\n  dup6\n    /* \"#utility.yul\":3875:3946   */\n  mstore\n    /* \"#utility.yul\":3975:3979   */\n  0x20\n    /* \"#utility.yul\":3970:3973   */\n  dup6\n    /* \"#utility.yul\":3966:3980   */\n  add\n    /* \"#utility.yul\":3959:3980   */\n  swap5\n  pop\n    /* \"#utility.yul\":3627:3990   */\n  pop\n  pop\n    /* \"#utility.yul\":3611:3615   */\n  0x20\n    /* \"#utility.yul\":3606:3609   */\n  dup2\n    /* \"#utility.yul\":3602:3616   */\n  add\n    /* \"#utility.yul\":3595:3616   */\n  swap1\n  pop\n    /* \"#utility.yul\":3551:3990   */\n  jump(tag_123)\ntag_125:\n    /* \"#utility.yul\":3555:3576   */\n  pop\n    /* \"#utility.yul\":3159:3996   */\n  pop\n  pop\n    /* \"#utility.yul\":3036:3996   */\n  swap4\n  swap3\n  pop\n  pop\n  pop\n  jump\t// out\n    /* \"#utility.yul\":4018:4423   */\ntag_59:\n    /* \"#utility.yul\":4110:4115   */\n  0x00\n    /* \"#utility.yul\":4159:4162   */\n  dup3\n    /* \"#utility.yul\":4152:4156   */\n  0x1f\n    /* \"#utility.yul\":4144:4150   */\n  dup4\n    /* \"#utility.yul\":4140:4157   */\n  add\n    /* \"#utility.yul\":4136:4163   */\n  slt\n    /* \"#utility.yul\":4126:4248   */\n  tag_130\n  jumpi\n    /* \"#utility.yul\":4167:4246   */\n  tag_131\n  tag_46\n  jump\t// in\ntag_131:\n    /* \"#utility.yul\":4126:4248   */\ntag_130:\n    /* \"#utility.yul\":4277:4283   */\n  dup2\n    /* \"#utility.yul\":4271:4284   */\n  mload\n    /* \"#utility.yul\":4302:4417   */\n  tag_132\n    /* \"#utility.yul\":4413:4416   */\n  dup5\n    /* \"#utility.yul\":4405:4411   */\n  dup3\n    /* \"#utility.yul\":4398:4402   */\n  0x20\n    /* \"#utility.yul\":4390:4396   */\n  dup7\n    /* \"#utility.yul\":4386:4403   */\n  add\n    /* \"#utility.yul\":4302:4417   */\n  tag_58\n  jump\t// in\ntag_132:\n    /* \"#utility.yul\":4293:4417   */\n  swap2\n  pop\n    /* \"#utility.yul\":4116:4423   */\n  pop\n    /* \"#utility.yul\":4018:4423   */\n  swap3\n  swap2\n  pop\n  pop\n  jump\t// out\n    /* \"#utility.yul\":4429:4738   */\ntag_60:\n    /* \"#utility.yul\":4504:4508   */\n  0x00\n    /* \"#utility.yul\":4594:4612   */\n  0xffffffffffffffff\n    /* \"#utility.yul\":4586:4592   */\n  dup3\n    /* \"#utility.yul\":4583:4613   */\n  gt\n    /* \"#utility.yul\":4580:4636   */\n  iszero\n  tag_134\n  jumpi\n    /* \"#utility.yul\":4616:4634   */\n  tag_135\n  tag_48\n  jump\t// in\ntag_135:\n    /* \"#utility.yul\":4580:4636   */\ntag_134:\n    /* \"#utility.yul\":4666:4670   */\n  0x20\n    /* \"#utility.yul\":4658:4664   */\n  dup3\n    /* \"#utility.yul\":4654:4671   */\n  mul\n    /* \"#utility.yul\":4646:4671   */\n  swap1\n  pop\n    /* \"#utility.yul\":4726:4730   */\n  0x20\n    /* \"#utility.yul\":4720:4724   */\n  dup2\n    /* \"#utility.yul\":4716:4731   */\n  add\n    /* \"#utility.yul\":4708:4731   */\n  swap1\n  pop\n    /* \"#utility.yul\":4429:4738   */\n  swap2\n  swap1\n  pop\n  jump\t// out\n    /* \"#utility.yul\":4744:4830   */\ntag_61:\n    /* \"#utility.yul\":4779:4786   */\n  0x00\n    /* \"#utility.yul\":4819:4823   */\n  0xff\n    /* \"#utility.yul\":4812:4817   */\n  dup3\n    /* \"#utility.yul\":4808:4824   */\n  and\n    /* \"#utility.yul\":4797:4824   */\n  swap1\n  pop\n    /* \"#utility.yul\":4744:4830   */\n  swap2\n  swap1\n  pop\n  jump\t// out\n    /* \"#utility.yul\":4836:4954   */\ntag_62:\n    /* \"#utility.yul\":4907:4929   */\n  tag_138\n    /* \"#utility.yul\":4923:4928   */\n  dup2\n    /* \"#utility.yul\":4907:4929   */\n  tag_61\n  jump\t// in\ntag_138:\n    /* \"#utility.yul\":4900:4905   */\n  dup2\n    /* \"#utility.yul\":4897:4930   */\n  eq\n    /* \"#utility.yul\":4887:4948   */\n  tag_139\n  jumpi\n    /* \"#utility.yul\":4944:4945   */\n  0x00\n    /* \"#utility.yul\":4941:4942   */\n  dup1\n    /* \"#utility.yul\":4934:4946   */\n  revert\n    /* \"#utility.yul\":4887:4948   */\ntag_139:\n    /* \"#utility.yul\":4836:4954   */\n  pop\n  jump\t// out\n    /* \"#utility.yul\":4960:5099   */\ntag_63:\n    /* \"#utility.yul\":5015:5020   */\n  0x00\n    /* \"#utility.yul\":5046:5052   */\n  dup2\n    /* \"#utility.yul\":5040:5053   */\n  mload\n    /* \"#utility.yul\":5031:5053   */\n  swap1\n  pop\n    /* \"#utility.yul\":5062:5093   */\n  tag_141\n    /* \"#utility.yul\":5087:5092   */\n  dup2\n    /* \"#utility.yul\":5062:5093   */\n  tag_62\n  jump\t// in\ntag_141:\n    /* \"#utility.yul\":4960:5099   */\n  swap3\n  swap2\n  pop\n  pop\n  jump\t// out\n    /* \"#utility.yul\":5120:5846   */\ntag_64:\n    /* \"#utility.yul\":5225:5230   */\n  0x00\n    /* \"#utility.yul\":5250:5329   */\n  tag_143\n    /* \"#utility.yul\":5266:5328   */\n  tag_144\n    /* \"#utility.yul\":5321:5327   */\n  dup5\n    /* \"#utility.yul\":5266:5328   */\n  tag_60\n  jump\t// in\ntag_144:\n    /* \"#utility.yul\":5250:5329   */\n  tag_50\n  jump\t// in\ntag_143:\n    /* \"#utility.yul\":5241:5329   */\n  swap1\n  pop\n    /* \"#utility.yul\":5349:5354   */\n  dup1\n    /* \"#utility.yul\":5378:5384   */\n  dup4\n    /* \"#utility.yul\":5371:5376   */\n  dup3\n    /* \"#utility.yul\":5364:5385   */\n  mstore\n    /* \"#utility.yul\":5412:5416   */\n  0x20\n    /* \"#utility.yul\":5405:5410   */\n  dup3\n    /* \"#utility.yul\":5401:5417   */\n  add\n    /* \"#utility.yul\":5394:5417   */\n  swap1\n  pop\n    /* \"#utility.yul\":5465:5469   */\n  0x20\n    /* \"#utility.yul\":5457:5463   */\n  dup5\n    /* \"#utility.yul\":5453:5470   */\n  mul\n    /* \"#utility.yul\":5445:5451   */\n  dup4\n    /* \"#utility.yul\":5441:5471   */\n  add\n    /* \"#utility.yul\":5494:5497   */\n  dup6\n    /* \"#utility.yul\":5486:5492   */\n  dup2\n    /* \"#utility.yul\":5483:5498   */\n  gt\n    /* \"#utility.yul\":5480:5602   */\n  iszero\n  tag_145\n  jumpi\n    /* \"#utility.yul\":5513:5592   */\n  tag_146\n  tag_52\n  jump\t// in\ntag_146:\n    /* \"#utility.yul\":5480:5602   */\ntag_145:\n    /* \"#utility.yul\":5628:5634   */\n  dup4\n    /* \"#utility.yul\":5611:5840   */\ntag_147:\n    /* \"#utility.yul\":5645:5651   */\n  dup2\n    /* \"#utility.yul\":5640:5643   */\n  dup2\n    /* \"#utility.yul\":5637:5652   */\n  lt\n    /* \"#utility.yul\":5611:5840   */\n  iszero\n  tag_149\n  jumpi\n    /* \"#utility.yul\":5720:5723   */\n  dup1\n    /* \"#utility.yul\":5749:5795   */\n  tag_150\n    /* \"#utility.yul\":5791:5794   */\n  dup9\n    /* \"#utility.yul\":5779:5789   */\n  dup3\n    /* \"#utility.yul\":5749:5795   */\n  tag_63\n  jump\t// in\ntag_150:\n    /* \"#utility.yul\":5744:5747   */\n  dup5\n    /* \"#utility.yul\":5737:5796   */\n  mstore\n    /* \"#utility.yul\":5825:5829   */\n  0x20\n    /* \"#utility.yul\":5820:5823   */\n  dup5\n    /* \"#utility.yul\":5816:5830   */\n  add\n    /* \"#utility.yul\":5809:5830   */\n  swap4\n  pop\n    /* \"#utility.yul\":5687:5840   */\n  pop\n    /* \"#utility.yul\":5671:5675   */\n  0x20\n    /* \"#utility.yul\":5666:5669   */\n  dup2\n    /* \"#utility.yul\":5662:5676   */\n  add\n    /* \"#utility.yul\":5655:5676   */\n  swap1\n  pop\n    /* \"#utility.yul\":5611:5840   */\n  jump(tag_147)\ntag_149:\n    /* \"#utility.yul\":5615:5636   */\n  pop\n    /* \"#utility.yul\":5231:5846   */\n  pop\n  pop\n    /* \"#utility.yul\":5120:5846   */\n  swap4\n  swap3\n  pop\n  pop\n  pop\n  jump\t// out\n    /* \"#utility.yul\":5867:6248   */\ntag_65:\n    /* \"#utility.yul\":5947:5952   */\n  0x00\n    /* \"#utility.yul\":5996:5999   */\n  dup3\n    /* \"#utility.yul\":5989:5993   */\n  0x1f\n    /* \"#utility.yul\":5981:5987   */\n  dup4\n    /* \"#utility.yul\":5977:5994   */\n  add\n    /* \"#utility.yul\":5973:6000   */\n  slt\n    /* \"#utility.yul\":5963:6085   */\n  tag_152\n  jumpi\n    /* \"#utility.yul\":6004:6083   */\n  tag_153\n  tag_46\n  jump\t// in\ntag_153:\n    /* \"#utility.yul\":5963:6085   */\ntag_152:\n    /* \"#utility.yul\":6114:6120   */\n  dup2\n    /* \"#utility.yul\":6108:6121   */\n  mload\n    /* \"#utility.yul\":6139:6242   */\n  tag_154\n    /* \"#utility.yul\":6238:6241   */\n  dup5\n    /* \"#utility.yul\":6230:6236   */\n  dup3\n    /* \"#utility.yul\":6223:6227   */\n  0x20\n    /* \"#utility.yul\":6215:6221   */\n  dup7\n    /* \"#utility.yul\":6211:6228   */\n  add\n    /* \"#utility.yul\":6139:6242   */\n  tag_64\n  jump\t// in\ntag_154:\n    /* \"#utility.yul\":6130:6242   */\n  swap2\n  pop\n    /* \"#utility.yul\":5953:6248   */\n  pop\n    /* \"#utility.yul\":5867:6248   */\n  swap3\n  swap2\n  pop\n  pop\n  jump\t// out\n    /* \"#utility.yul\":6254:7183   */\ntag_3:\n    /* \"#utility.yul\":6391:6397   */\n  0x00\n    /* \"#utility.yul\":6399:6405   */\n  dup1\n    /* \"#utility.yul\":6448:6450   */\n  0x40\n    /* \"#utility.yul\":6436:6445   */\n  dup4\n    /* \"#utility.yul\":6427:6434   */\n  dup6\n    /* \"#utility.yul\":6423:6446   */\n  sub\n    /* \"#utility.yul\":6419:6451   */\n  slt\n    /* \"#utility.yul\":6416:6535   */\n  iszero\n  tag_156\n  jumpi\n    /* \"#utility.yul\":6454:6533   */\n  tag_157\n  tag_44\n  jump\t// in\ntag_157:\n    /* \"#utility.yul\":6416:6535   */\ntag_156:\n    /* \"#utility.yul\":6595:6596   */\n  0x00\n    /* \"#utility.yul\":6584:6593   */\n  dup4\n    /* \"#utility.yul\":6580:6597   */\n  add\n    /* \"#utility.yul\":6574:6598   */\n  mload\n    /* \"#utility.yul\":6625:6643   */\n  0xffffffffffffffff\n    /* \"#utility.yul\":6617:6623   */\n  dup2\n    /* \"#utility.yul\":6614:6644   */\n  gt\n    /* \"#utility.yul\":6611:6728   */\n  iszero\n  tag_158\n  jumpi\n    /* \"#utility.yul\":6647:6726   */\n  tag_159\n  tag_45\n  jump\t// in\ntag_159:\n    /* \"#utility.yul\":6611:6728   */\ntag_158:\n    /* \"#utility.yul\":6752:6851   */\n  tag_160\n    /* \"#utility.yul\":6843:6850   */\n  dup6\n    /* \"#utility.yul\":6834:6840   */\n  dup3\n    /* \"#utility.yul\":6823:6832   */\n  dup7\n    /* \"#utility.yul\":6819:6841   */\n  add\n    /* \"#utility.yul\":6752:6851   */\n  tag_59\n  jump\t// in\ntag_160:\n    /* \"#utility.yul\":6742:6851   */\n  swap3\n  pop\n    /* \"#utility.yul\":6545:6861   */\n  pop\n    /* \"#utility.yul\":6921:6923   */\n  0x20\n    /* \"#utility.yul\":6910:6919   */\n  dup4\n    /* \"#utility.yul\":6906:6924   */\n  add\n    /* \"#utility.yul\":6900:6925   */\n  mload\n    /* \"#utility.yul\":6952:6970   */\n  0xffffffffffffffff\n    /* \"#utility.yul\":6944:6950   */\n  dup2\n    /* \"#utility.yul\":6941:6971   */\n  gt\n    /* \"#utility.yul\":6938:7055   */\n  iszero\n  tag_161\n  jumpi\n    /* \"#utility.yul\":6974:7053   */\n  tag_162\n  tag_45\n  jump\t// in\ntag_162:\n    /* \"#utility.yul\":6938:7055   */\ntag_161:\n    /* \"#utility.yul\":7079:7166   */\n  tag_163\n    /* \"#utility.yul\":7158:7165   */\n  dup6\n    /* \"#utility.yul\":7149:7155   */\n  dup3\n    /* \"#utility.yul\":7138:7147   */\n  dup7\n    /* \"#utility.yul\":7134:7156   */\n  add\n    /* \"#utility.yul\":7079:7166   */\n  tag_65\n  jump\t// in\ntag_163:\n    /* \"#utility.yul\":7069:7166   */\n  swap2\n  pop\n    /* \"#utility.yul\":6871:7176   */\n  pop\n    /* \"#utility.yul\":6254:7183   */\n  swap3\n  pop\n  swap3\n  swap1\n  pop\n  jump\t// out\n    /* \"#utility.yul\":7189:7288   */\ntag_66:\n    /* \"#utility.yul\":7241:7247   */\n  0x00\n    /* \"#utility.yul\":7275:7280   */\n  dup2\n    /* \"#utility.yul\":7269:7281   */\n  mload\n    /* \"#utility.yul\":7259:7281   */\n  swap1\n  pop\n    /* \"#utility.yul\":7189:7288   */\n  swap2\n  swap1\n  pop\n  jump\t// out\n    /* \"#utility.yul\":7294:7474   */\ntag_67:\n    /* \"#utility.yul\":7342:7419   */\n  0x4e487b7100000000000000000000000000000000000000000000000000000000\n    /* \"#utility.yul\":7339:7340   */\n  0x00\n    /* \"#utility.yul\":7332:7420   */\n  mstore\n    /* \"#utility.yul\":7439:7443   */\n  0x22\n    /* \"#utility.yul\":7436:7437   */\n  0x04\n    /* \"#utility.yul\":7429:7444   */\n  mstore\n    /* \"#utility.yul\":7463:7467   */\n  0x24\n    /* \"#utility.yul\":7460:7461   */\n  0x00\n    /* \"#utility.yul\":7453:7468   */\n  revert\n    /* \"#utility.yul\":7480:7800   */\ntag_39:\n    /* \"#utility.yul\":7524:7530   */\n  0x00\n    /* \"#utility.yul\":7561:7562   */\n  0x02\n    /* \"#utility.yul\":7555:7559   */\n  dup3\n    /* \"#utility.yul\":7551:7563   */\n  div\n    /* \"#utility.yul\":7541:7563   */\n  swap1\n  pop\n    /* \"#utility.yul\":7608:7609   */\n  0x01\n    /* \"#utility.yul\":7602:7606   */\n  dup3\n    /* \"#utility.yul\":7598:7610   */\n  and\n    /* \"#utility.yul\":7629:7647   */\n  dup1\n    /* \"#utility.yul\":7619:7700   */\n  tag_167\n  jumpi\n    /* \"#utility.yul\":7685:7689   */\n  0x7f\n    /* \"#utility.yul\":7677:7683   */\n  dup3\n    /* \"#utility.yul\":7673:7690   */\n  and\n    /* \"#utility.yul\":7663:7690   */\n  swap2\n  pop\n    /* \"#utility.yul\":7619:7700   */\ntag_167:\n    /* \"#utility.yul\":7747:7749   */\n  0x20\n    /* \"#utility.yul\":7739:7745   */\n  dup3\n    /* \"#utility.yul\":7736:7750   */\n  lt\n    /* \"#utility.yul\":7716:7734   */\n  dup2\n    /* \"#utility.yul\":7713:7751   */\n  sub\n    /* \"#utility.yul\":7710:7794   */\n  tag_168\n  jumpi\n    /* \"#utility.yul\":7766:7784   */\n  tag_169\n  tag_67\n  jump\t// in\ntag_169:\n    /* \"#utility.yul\":7710:7794   */\ntag_168:\n    /* \"#utility.yul\":7531:7800   */\n  pop\n    /* \"#utility.yul\":7480:7800   */\n  swap2\n  swap1\n  pop\n  jump\t// out\n    /* \"#utility.yul\":7806:7947   */\ntag_68:\n    /* \"#utility.yul\":7855:7859   */\n  0x00\n    /* \"#utility.yul\":7878:7881   */\n  dup2\n    /* \"#utility.yul\":7870:7881   */\n  swap1\n  pop\n    /* \"#utility.yul\":7901:7904   */\n  dup2\n    /* \"#utility.yul\":7898:7899   */\n  0x00\n    /* \"#utility.yul\":7891:7905   */\n  mstore\n    /* \"#utility.yul\":7935:7939   */\n  0x20\n    /* \"#utility.yul\":7932:7933   */\n  0x00\n    /* \"#utility.yul\":7922:7940   */\n  keccak256\n    /* \"#utility.yul\":7914:7940   */\n  swap1\n  pop\n    /* \"#utility.yul\":7806:7947   */\n  swap2\n  swap1\n  pop\n  jump\t// out\n    /* \"#utility.yul\":7953:8046   */\ntag_69:\n    /* \"#utility.yul\":7990:7996   */\n  0x00\n    /* \"#utility.yul\":8037:8039   */\n  0x20\n    /* \"#utility.yul\":8032:8034   */\n  0x1f\n    /* \"#utility.yul\":8025:8030   */\n  dup4\n    /* \"#utility.yul\":8021:8035   */\n  add\n    /* \"#utility.yul\":8017:8040   */\n  div\n    /* \"#utility.yul\":8007:8040   */\n  swap1\n  pop\n    /* \"#utility.yul\":7953:8046   */\n  swap2\n  swap1\n  pop\n  jump\t// out\n    /* \"#utility.yul\":8052:8159   */\ntag_70:\n    /* \"#utility.yul\":8096:8104   */\n  0x00\n    /* \"#utility.yul\":8146:8151   */\n  dup3\n    /* \"#utility.yul\":8140:8144   */\n  dup3\n    /* \"#utility.yul\":8136:8152   */\n  shl\n    /* \"#utility.yul\":8115:8152   */\n  swap1\n  pop\n    /* \"#utility.yul\":8052:8159   */\n  swap3\n  swap2\n  pop\n  pop\n  jump\t// out\n    /* \"#utility.yul\":8165:8558   */\ntag_71:\n    /* \"#utility.yul\":8234:8240   */\n  0x00\n    /* \"#utility.yul\":8284:8285   */\n  0x08\n    /* \"#utility.yul\":8272:8282   */\n  dup4\n    /* \"#utility.yul\":8268:8286   */\n  mul\n    /* \"#utility.yul\":8307:8404   */\n  tag_174\n    /* \"#utility.yul\":8337:8403   */\n  0xffffffffffffffffffffffffffffffffffffffffffffffffffffffffffffffff\n    /* \"#utility.yul\":8326:8335   */\n  dup3\n    /* \"#utility.yul\":8307:8404   */\n  tag_70\n  jump\t// in\ntag_174:\n    /* \"#utility.yul\":8425:8464   */\n  tag_175\n    /* \"#utility.yul\":8455:8463   */\n  dup7\n    /* \"#utility.yul\":8444:8453   */\n  dup4\n    /* \"#utility.yul\":8425:8464   */\n  tag_70\n  jump\t// in\ntag_175:\n    /* \"#utility.yul\":8413:8464   */\n  swap6\n  pop\n    /* \"#utility.yul\":8497:8501   */\n  dup1\n    /* \"#utility.yul\":8493:8502   */\n  not\n    /* \"#utility.yul\":8486:8491   */\n  dup5\n    /* \"#utility.yul\":8482:8503   */\n  and\n    /* \"#utility.yul\":8473:8503   */\n  swap4\n  pop\n    /* \"#utility.yul\":8546:8550   */\n  dup1\n    /* \"#utility.yul\":8536:8544   */\n  dup7\n    /* \"#utility.yul\":8532:8551   */\n  and\n    /* \"#utility.yul\":8525:8530   */\n  dup5\n    /* \"#utility.yul\":8522:8552   */\n  or\n    /* \"#utility.yul\":8512:8552   */\n  swap3\n  pop\n    /* \"#utility.yul\":8241:8558   */\n  pop\n  pop\n    /* \"#utility.yul\":8165:8558   */\n  swap4\n  swap3\n  pop\n  pop\n  pop\n  jump\t// out\n    /* \"#utility.yul\":8564:8641   */\ntag_72:\n    /* \"#utility.yul\":8601:8608   */\n  0x00\n    /* \"#utility.yul\":8630:8635   */\n  dup2\n    /* \"#utility.yul\":8619:8635   */\n  swap1\n  pop\n    /* \"#utility.yul\":8564:8641   */\n  swap2\n  swap1\n  pop\n  jump\t// out\n    /* \"#utility.yul\":8647:8707   */\ntag_73:\n    /* \"#utility.yul\":8675:8678   */\n  0x00\n    /* \"#utility.yul\":8696:8701   */\n  dup2\n    /* \"#utility.yul\":8689:8701   */\n  swap1\n  pop\n    /* \"#utility.yul\":8647:8707   */\n  swap2\n  swap1\n  pop\n  jump\t// out\n    /* \"#utility.yul\":8713:8855   */\ntag_74:\n    /* \"#utility.yul\":8763:8772   */\n  0x00\n    /* \"#utility.yul\":8796:8849   */\n  tag_179\n    /* \"#utility.yul\":8814:8848   */\n  tag_180\n    /* \"#utility.yul\":8823:8847   */\n  tag_181\n    /* \"#utility.yul\":8841:8846   */\n  dup5\n    /* \"#utility.yul\":8823:8847   */\n  tag_72\n  jump\t// in\ntag_181:\n    /* \"#utility.yul\":8814:8848   */\n  tag_73\n  jump\t// in\ntag_180:\n    /* \"#utility.yul\":8796:8849   */\n  tag_72\n  jump\t// in\ntag_179:\n    /* \"#utility.yul\":8783:8849   */\n  swap1\n  pop\n    /* \"#utility.yul\":8713:8855   */\n  swap2\n  swap1\n  pop\n  jump\t// out\n    /* \"#utility.yul\":8861:8936   */\ntag_75:\n    /* \"#utility.yul\":8904:8907   */\n  0x00\n    /* \"#utility.yul\":8925:8930   */\n  dup2\n    /* \"#utility.yul\":8918:8930   */\n  swap1\n  pop\n    /* \"#utility.yul\":8861:8936   */\n  swap2\n  swap1\n  pop\n  jump\t// out\n    /* \"#utility.yul\":8942:9211   */\ntag_76:\n    /* \"#utility.yul\":9052:9091   */\n  tag_184\n    /* \"#utility.yul\":9083:9090   */\n  dup4\n    /* \"#utility.yul\":9052:9091   */\n  tag_74\n  jump\t// in\ntag_184:\n    /* \"#utility.yul\":9113:9204   */\n  tag_185\n    /* \"#utility.yul\":9162:9203   */\n  tag_186\n    /* \"#utility.yul\":9186:9202   */\n  dup3\n    /* \"#utility.yul\":9162:9203   */\n  tag_75\n  jump\t// in\ntag_186:\n    /* \"#utility.yul\":9154:9160   */\n  dup5\n    /* \"#utility.yul\":9147:9151   */\n  dup5\n    /* \"#utility.yul\":9141:9152   */\n  sload\n    /* \"#utility.yul\":9113:9204   */\n  tag_71\n  jump\t// in\ntag_185:\n    /* \"#utility.yul\":9107:9111   */\n  dup3\n    /* \"#utility.yul\":9100:9205   */\n  sstore\n    /* \"#utility.yul\":9018:9211   */\n  pop\n    /* \"#utility.yul\":8942:9211   */\n  pop\n  pop\n  pop\n  jump\t// out\n    /* \"#utility.yul\":9217:9290   */\ntag_77:\n    /* \"#utility.yul\":9262:9265   */\n  0x00\n    /* \"#utility.yul\":9217:9290   */\n  swap1\n  jump\t// out\n    /* \"#utility.yul\":9296:9485   */\ntag_78:\n    /* \"#utility.yul\":9373:9405   */\n  tag_189\n  tag_77\n  jump\t// in\ntag_189:\n    /* \"#utility.yul\":9414:9479   */\n  tag_190\n    /* \"#utility.yul\":9472:9478   */\n  dup2\n    /* \"#utility.yul\":9464:9470   */\n  dup5\n    /* \"#utility.yul\":9458:9462   */\n  dup5\n    /* \"#utility.yul\":9414:9479   */\n  tag_76\n  jump\t// in\ntag_190:\n    /* \"#utility.yul\":9349:9485   */\n  pop\n    /* \"#utility.yul\":9296:9485   */\n  pop\n  pop\n  jump\t// out\n    /* \"#utility.yul\":9491:9677   */\ntag_79:\n    /* \"#utility.yul\":9551:9671   */\ntag_192:\n    /* \"#utility.yul\":9568:9571   */\n  dup2\n    /* \"#utility.yul\":9561:9566   */\n  dup2\n    /* \"#utility.yul\":9558:9572   */\n  lt\n    /* \"#utility.yul\":9551:9671   */\n  iszero\n  tag_194\n  jumpi\n    /* \"#utility.yul\":9622:9661   */\n  tag_195\n    /* \"#utility.yul\":9659:9660   */\n  0x00\n    /* \"#utility.yul\":9652:9657   */\n  dup3\n    /* \"#utility.yul\":9622:9661   */\n  tag_78\n  jump\t// in\ntag_195:\n    /* \"#utility.yul\":9595:9596   */\n  0x01\n    /* \"#utility.yul\":9588:9593   */\n  dup2\n    /* \"#utility.yul\":9584:9597   */\n  add\n    /* \"#utility.yul\":9575:9597   */\n  swap1\n  pop\n    /* \"#utility.yul\":9551:9671   */\n  jump(tag_192)\ntag_194:\n    /* \"#utility.yul\":9491:9677   */\n  pop\n  pop\n  jump\t// out\n    /* \"#utility.yul\":9683:10226   */\ntag_80:\n    /* \"#utility.yul\":9784:9786   */\n  0x1f\n    /* \"#utility.yul\":9779:9782   */\n  dup3\n    /* \"#utility.yul\":9776:9787   */\n  gt\n    /* \"#utility.yul\":9773:10219   */\n  iszero\n  tag_197\n  jumpi\n    /* \"#utility.yul\":9818:9856   */\n  tag_198\n    /* \"#utility.yul\":9850:9855   */\n  dup2\n    /* \"#utility.yul\":9818:9856   */\n  tag_68\n  jump\t// in\ntag_198:\n    /* \"#utility.yul\":9902:9931   */\n  tag_199\n    /* \"#utility.yul\":9920:9930   */\n  dup5\n    /* \"#utility.yul\":9902:9931   */\n  tag_69\n  jump\t// in\ntag_199:\n    /* \"#utility.yul\":9892:9900   */\n  dup2\n    /* \"#utility.yul\":9888:9932   */\n  add\n    /* \"#utility.yul\":10085:10087   */\n  0x20\n    /* \"#utility.yul\":10073:10083   */\n  dup6\n    /* \"#utility.yul\":10070:10088   */\n  lt\n    /* \"#utility.yul\":10067:10116   */\n  iszero\n  tag_200\n  jumpi\n    /* \"#utility.yul\":10106:10114   */\n  dup2\n    /* \"#utility.yul\":10091:10114   */\n  swap1\n  pop\n    /* \"#utility.yul\":10067:10116   */\ntag_200:\n    /* \"#utility.yul\":10129:10209   */\n  tag_201\n    /* \"#utility.yul\":10185:10207   */\n  tag_202\n    /* \"#utility.yul\":10203:10206   */\n  dup6\n    /* \"#utility.yul\":10185:10207   */\n  tag_69\n  jump\t// in\ntag_202:\n    /* \"#utility.yul\":10175:10183   */\n  dup4\n    /* \"#utility.yul\":10171:10208   */\n  add\n    /* \"#utility.yul\":10158:10169   */\n  dup3\n    /* \"#utility.yul\":10129:10209   */\n  tag_79\n  jump\t// in\ntag_201:\n    /* \"#utility.yul\":9788:10219   */\n  pop\n  pop\n    /* \"#utility.yul\":9773:10219   */\ntag_197:\n    /* \"#utility.yul\":9683:10226   */\n  pop\n  pop\n  pop\n  jump\t// out\n    /* \"#utility.yul\":10232:10349   */\ntag_81:\n    /* \"#utility.yul\":10286:10294   */\n  0x00\n    /* \"#utility.yul\":10336:10341   */\n  dup3\n    /* \"#utility.yul\":10330:10334   */\n  dup3\n    /* \"#utility.yul\":10326:10342   */\n  shr\n    /* \"#utility.yul\":10305:10342   */\n  swap1\n  pop\n    /* \"#utility.yul\":10232:10349   */\n  swap3\n  swap2\n  pop\n  pop\n  jump\t// out\n    /* \"#utility.yul\":10355:10524   */\ntag_82:\n    /* \"#utility.yul\":10399:10405   */\n  0x00\n    /* \"#utility.yul\":10432:10483   */\n  tag_205\n    /* \"#utility.yul\":10480:10481   */\n  0x00\n    /* \"#utility.yul\":10476:10482   */\n  not\n    /* \"#utility.yul\":10468:10473   */\n  dup5\n    /* \"#utility.yul\":10465:10466   */\n  0x08\n    /* \"#utility.yul\":10461:10474   */\n  mul\n    /* \"#utility.yul\":10432:10483   */\n  tag_81\n  jump\t// in\ntag_205:\n    /* \"#utility.yul\":10428:10484   */\n  not\n    /* \"#utility.yul\":10513:10517   */\n  dup1\n    /* \"#utility.yul\":10507:10511   */\n  dup4\n    /* \"#utility.yul\":10503:10518   */\n  and\n    /* \"#utility.yul\":10493:10518   */\n  swap2\n  pop\n    /* \"#utility.yul\":10406:10524   */\n  pop\n    /* \"#utility.yul\":10355:10524   */\n  swap3\n  swap2\n  pop\n  pop\n  jump\t// out\n    /* \"#utility.yul\":10529:10824   */\ntag_83:\n    /* \"#utility.yul\":10605:10609   */\n  0x00\n    /* \"#utility.yul\":10751:10780   */\n  tag_207\n    /* \"#utility.yul\":10776:10779   */\n  dup4\n    /* \"#utility.yul\":10770:10774   */\n  dup4\n    /* \"#utility.yul\":10751:10780   */\n  tag_82\n  jump\t// in\ntag_207:\n    /* \"#utility.yul\":10743:10780   */\n  swap2\n  pop\n    /* \"#utility.yul\":10813:10816   */\n  dup3\n    /* \"#utility.yul\":10810:10811   */\n  0x02\n    /* \"#utility.yul\":10806:10817   */\n  mul\n    /* \"#utility.yul\":10800:10804   */\n  dup3\n    /* \"#utility.yul\":10797:10818   */\n  or\n    /* \"#utility.yul\":10789:10818   */\n  swap1\n  pop\n    /* \"#utility.yul\":10529:10824   */\n  swap3\n  swap2\n  pop\n  pop\n  jump\t// out\n    /* \"#utility.yul\":10829:12224   */\ntag_18:\n    /* \"#utility.yul\":10946:10983   */\n  tag_209\n    /* \"#utility.yul\":10979:10982   */\n  dup3\n    /* \"#utility.yul\":10946:10983   */\n  tag_66\n  jump\t// in\ntag_209:\n    /* \"#utility.yul\":11048:11066   */\n  0xffffffffffffffff\n    /* \"#utility.yul\":11040:11046   */\n  dup2\n    /* \"#utility.yul\":11037:11067   */\n  gt\n    /* \"#utility.yul\":11034:11090   */\n  iszero\n  tag_210\n  jumpi\n    /* \"#utility.yul\":11070:11088   */\n  tag_211\n  tag_48\n  jump\t// in\ntag_211:\n    /* \"#utility.yul\":11034:11090   */\ntag_210:\n    /* \"#utility.yul\":11114:11152   */\n  tag_212\n    /* \"#utility.yul\":11146:11150   */\n  dup3\n    /* \"#utility.yul\":11140:11151   */\n  sload\n    /* \"#utility.yul\":11114:11152   */\n  tag_39\n  jump\t// in\ntag_212:\n    /* \"#utility.yul\":11199:11266   */\n  tag_213\n    /* \"#utility.yul\":11259:11265   */\n  dup3\n    /* \"#utility.yul\":11251:11257   */\n  dup3\n    /* \"#utility.yul\":11245:11249   */\n  dup6\n    /* \"#utility.yul\":11199:11266   */\n  tag_80\n  jump\t// in\ntag_213:\n    /* \"#utility.yul\":11293:11294   */\n  0x00\n    /* \"#utility.yul\":11317:11321   */\n  0x20\n    /* \"#utility.yul\":11304:11321   */\n  swap1\n  pop\n    /* \"#utility.yul\":11349:11351   */\n  0x1f\n    /* \"#utility.yul\":11341:11347   */\n  dup4\n    /* \"#utility.yul\":11338:11352   */\n  gt\n    /* \"#utility.yul\":11366:11367   */\n  0x01\n    /* \"#utility.yul\":11361:11979   */\n  dup2\n  eq\n  tag_215\n  jumpi\n    /* \"#utility.yul\":12023:12024   */\n  0x00\n    /* \"#utility.yul\":12040:12046   */\n  dup5\n    /* \"#utility.yul\":12037:12114   */\n  iszero\n  tag_216\n  jumpi\n    /* \"#utility.yul\":12089:12098   */\n  dup3\n    /* \"#utility.yul\":12084:12087   */\n  dup8\n    /* \"#utility.yul\":12080:12099   */\n  add\n    /* \"#utility.yul\":12074:12100   */\n  mload\n    /* \"#utility.yul\":12065:12100   */\n  swap1\n  pop\n    /* \"#utility.yul\":12037:12114   */\ntag_216:\n    /* \"#utility.yul\":12140:12207   */\n  tag_217\n    /* \"#utility.yul\":12200:12206   */\n  dup6\n    /* \"#utility.yul\":12193:12198   */\n  dup3\n    /* \"#utility.yul\":12140:12207   */\n  tag_83\n  jump\t// in\ntag_217:\n    /* \"#utility.yul\":12134:12138   */\n  dup7\n    /* \"#utility.yul\":12127:12208   */\n  sstore\n    /* \"#utility.yul\":11996:12218   */\n  pop\n    /* \"#utility.yul\":11331:12218   */\n  jump(tag_214)\n    /* \"#utility.yul\":11361:11979   */\ntag_215:\n    /* \"#utility.yul\":11413:11417   */\n  0x1f\n    /* \"#utility.yul\":11409:11418   */\n  not\n    /* \"#utility.yul\":11401:11407   */\n  dup5\n    /* \"#utility.yul\":11397:11419   */\n  and\n    /* \"#utility.yul\":11447:11484   */\n  tag_218\n    /* \"#utility.yul\":11479:11483   */\n  dup7\n    /* \"#utility.yul\":11447:11484   */\n  tag_68\n  jump\t// in\ntag_218:\n    /* \"#utility.yul\":11506:11507   */\n  0x00\n    /* \"#utility.yul\":11520:11728   */\ntag_219:\n    /* \"#utility.yul\":11534:11541   */\n  dup3\n    /* \"#utility.yul\":11531:11532   */\n  dup2\n    /* \"#utility.yul\":11528:11542   */\n  lt\n    /* \"#utility.yul\":11520:11728   */\n  iszero\n  tag_221\n  jumpi\n    /* \"#utility.yul\":11613:11622   */\n  dup5\n    /* \"#utility.yul\":11608:11611   */\n  dup10\n    /* \"#utility.yul\":11604:11623   */\n  add\n    /* \"#utility.yul\":11598:11624   */\n  mload\n    /* \"#utility.yul\":11590:11596   */\n  dup3\n    /* \"#utility.yul\":11583:11625   */\n  sstore\n    /* \"#utility.yul\":11664:11665   */\n  0x01\n    /* \"#utility.yul\":11656:11662   */\n  dup3\n    /* \"#utility.yul\":11652:11666   */\n  add\n    /* \"#utility.yul\":11642:11666   */\n  swap2\n  pop\n    /* \"#utility.yul\":11711:11713   */\n  0x20\n    /* \"#utility.yul\":11700:11709   */\n  dup6\n    /* \"#utility.yul\":11696:11714   */\n  add\n    /* \"#utility.yul\":11683:11714   */\n  swap5\n  pop\n    /* \"#utility.yul\":11557:11561   */\n  0x20\n    /* \"#utility.yul\":11554:11555   */\n  dup2\n    /* \"#utility.yul\":11550:11562   */\n  add\n    /* \"#utility.yul\":11545:11562   */\n  swap1\n  pop\n    /* \"#utility.yul\":11520:11728   */\n  jump(tag_219)\ntag_221:\n    /* \"#utility.yul\":11756:11762   */\n  dup7\n    /* \"#utility.yul\":11747:11754   */\n  dup4\n    /* \"#utility.yul\":11744:11763   */\n  lt\n    /* \"#utility.yul\":11741:11920   */\n  iszero\n  tag_222\n  jumpi\n    /* \"#utility.yul\":11814:11823   */\n  dup5\n    /* \"#utility.yul\":11809:11812   */\n  dup10\n    /* \"#utility.yul\":11805:11824   */\n  add\n    /* \"#utility.yul\":11799:11825   */\n  mload\n    /* \"#utility.yul\":11857:11905   */\n  tag_223\n    /* \"#utility.yul\":11899:11903   */\n  0x1f\n    /* \"#utility.yul\":11891:11897   */\n  dup10\n    /* \"#utility.yul\":11887:11904   */\n  and\n    /* \"#utility.yul\":11876:11885   */\n  dup3\n    /* \"#utility.yul\":11857:11905   */\n  tag_82\n  jump\t// in\ntag_223:\n    /* \"#utility.yul\":11849:11855   */\n  dup4\n    /* \"#utility.yul\":11842:11906   */\n  sstore\n    /* \"#utility.yul\":11764:11920   */\n  pop\n    /* \"#utility.yul\":11741:11920   */\ntag_222:\n    /* \"#utility.yul\":11966:11967   */\n  0x01\n    /* \"#utility.yul\":11962:11963   */\n  0x02\n    /* \"#utility.yul\":11954:11960   */\n  dup9\n    /* \"#utility.yul\":11950:11964   */\n  mul\n    /* \"#utility.yul\":11946:11968   */\n  add\n    /* \"#utility.yul\":11940:11944   */\n  dup9\n    /* \"#utility.yul\":11933:11969   */\n  sstore\n    /* \"#utility.yul\":11368:11979   */\n  pop\n  pop\n  pop\n    /* \"#utility.yul\":11331:12218   */\ntag_214:\n  pop\n    /* \"#utility.yul\":10921:12224   */\n  pop\n  pop\n  pop\n    /* \"#utility.yul\":10829:12224   */\n  pop\n  pop\n  jump\t// out\n    /* \"tutor.sol\":60:1637  contract TutorContract {... */\ntag_13:\n  dataSize(sub_0)\n  dup1\n  dataOffset(sub_0)\n  0x00\n  codecopy\n  0x00\n  return\nstop\n\nsub_0: assembly {\n        /* \"tutor.sol\":60:1637  contract TutorContract {... */\n      mstore(0x40, 0x80)\n      callvalue\n      dup1\n      iszero\n      tag_1\n      jumpi\n      0x00\n      dup1\n      revert\n    tag_1:\n      pop\n      jumpi(tag_2, lt(calldatasize, 0x04))\n      shr(0xe0, calldataload(0x00))\n      dup1\n      0x42fba3fb\n      eq\n      tag_3\n      jumpi\n      dup1\n      0x734ba396\n      eq\n      tag_4\n      jumpi\n    tag_2:\n      0x00\n      dup1\n      revert\n        /* \"tutor.sol\":1176:1277  function calculate_grade() public view returns (fxp) {... */\n    tag_3:\n      tag_5\n      tag_6\n      jump\t// in\n    tag_5:\n      mload(0x40)\n      tag_7\n      swap2\n      swap1\n      tag_8\n      jump\t// in\n    tag_7:\n      mload(0x40)\n      dup1\n      swap2\n      sub\n      swap1\n      return\n        /* \"tutor.sol\":1281:1388  function get_current_question() public view returns (string memory) {... */\n    tag_4:\n      tag_9\n      tag_10\n      jump\t// in\n    tag_9:\n      mload(0x40)\n      tag_11\n      swap2\n      swap1\n      tag_12\n      jump\t// in\n    tag_11:\n      mload(0x40)\n      dup1\n      swap2\n      sub\n      swap1\n      return\n        /* \"tutor.sol\":1176:1277  function calculate_grade() public view returns (fxp) {... */\n    tag_6:\n        /* \"tutor.sol\":1224:1227  fxp */\n      0x00\n        /* \"tutor.sol\":1244:1272  dot_product(weights, points) */\n      tag_14\n        /* \"tutor.sol\":1256:1263  weights */\n      0x02\n        /* \"tutor.sol\":1244:1272  dot_product(weights, points) */\n      dup1\n      sload\n      dup1\n      0x20\n      mul\n      0x20\n      add\n      mload(0x40)\n      swap1\n      dup2\n      add\n      0x40\n      mstore\n      dup1\n      swap3\n      swap2\n      swap1\n      dup2\n      dup2\n      mstore\n      0x20\n      add\n      dup3\n      dup1\n      sload\n      dup1\n      iszero\n      tag_15\n      jumpi\n      0x20\n      mul\n      dup3\n      add\n      swap2\n      swap1\n      0x00\n      mstore\n      keccak256(0x00, 0x20)\n      swap1\n      0x00\n      swap1\n    tag_16:\n      dup3\n      dup3\n      swap1\n      sload\n      swap1\n      0x0100\n      exp\n      swap1\n      div\n      0x07\n      signextend\n      0x07\n      signextend\n      dup2\n      mstore\n      0x20\n      add\n      swap1\n      0x08\n      add\n      swap1\n      0x20\n      dup3\n      0x07\n      add\n      div\n      swap3\n      dup4\n      add\n      swap3\n      0x01\n      sub\n      dup3\n      mul\n      swap2\n      pop\n      dup1\n      dup5\n      gt\n      tag_16\n      jumpi\n      swap1\n      pop\n    tag_15:\n      pop\n      pop\n      pop\n      pop\n      pop\n        /* \"tutor.sol\":1265:1271  points */\n      0x03\n        /* \"tutor.sol\":1244:1272  dot_product(weights, points) */\n      dup1\n      sload\n      dup1\n      0x20\n      mul\n      0x20\n      add\n      mload(0x40)\n      swap1\n      dup2\n      add\n      0x40\n      mstore\n      dup1\n      swap3\n      swap2\n      swap1\n      dup2\n      dup2\n      mstore\n      0x20\n      add\n      dup3\n      dup1\n      sload\n      dup1\n      iszero\n      tag_17\n      jumpi\n      0x20\n      mul\n      dup3\n      add\n      swap2\n      swap1\n      0x00\n      mstore\n      keccak256(0x00, 0x20)\n      swap1\n      0x00\n      swap1\n    tag_18:\n      dup3\n      dup3\n      swap1\n      sload\n      swap1\n      0x0100\n      exp\n      swap1\n      div\n      0x07\n      signextend\n      0x07\n      signextend\n      dup2\n      mstore\n      0x20\n      add\n      swap1\n      0x08\n      add\n      swap1\n      0x20\n      dup3\n      0x07\n      add\n      div\n      swap3\n      dup4\n      add\n      swap3\n      0x01\n      sub\n      dup3\n      mul\n      swap2\n      pop\n      dup1\n      dup5\n      gt\n      tag_18\n      jumpi\n      swap1\n      pop\n    tag_17:\n      pop\n      pop\n      pop\n      pop\n      pop\n        /* \"tutor.sol\":1244:1255  dot_product */\n      tag_19\n        /* \"tutor.sol\":1244:1272  dot_product(weights, points) */\n      jump\t// in\n    tag_14:\n        /* \"tutor.sol\":1237:1272  return dot_product(weights, points) */\n      swap1\n      pop\n        /* \"tutor.sol\":1176:1277  function calculate_grade() public view returns (fxp) {... */\n      swap1\n      jump\t// out\n        /* \"tutor.sol\":1281:1388  function get_current_question() public view returns (string memory) {... */\n    tag_10:\n        /* \"tutor.sol\":1334:1347  string memory */\n      0x60\n        /* \"tutor.sol\":1364:1373  questions */\n      0x00\n        /* \"tutor.sol\":1374:1382  progress */\n      0x04\n      0x00\n      swap1\n      sload\n      swap1\n      0x0100\n      exp\n      swap1\n      div\n      0xff\n      and\n        /* \"tutor.sol\":1364:1383  questions[progress] */\n      0xff\n      and\n      dup2\n      sload\n      dup2\n      lt\n      tag_21\n      jumpi\n      tag_22\n      tag_23\n      jump\t// in\n    tag_22:\n    tag_21:\n      swap1\n      0x00\n      mstore\n      keccak256(0x00, 0x20)\n      add\n        /* \"tutor.sol\":1357:1383  return questions[progress] */\n      dup1\n      sload\n      tag_25\n      swap1\n      tag_26\n      jump\t// in\n    tag_25:\n      dup1\n      0x1f\n      add\n      0x20\n      dup1\n      swap2\n      div\n      mul\n      0x20\n      add\n      mload(0x40)\n      swap1\n      dup2\n      add\n      0x40\n      mstore\n      dup1\n      swap3\n      swap2\n      swap1\n      dup2\n      dup2\n      mstore\n      0x20\n      add\n      dup3\n      dup1\n      sload\n      tag_27\n      swap1\n      tag_26\n      jump\t// in\n    tag_27:\n      dup1\n      iszero\n      tag_28\n      jumpi\n      dup1\n      0x1f\n      lt\n      tag_29\n      jumpi\n      0x0100\n      dup1\n      dup4\n      sload\n      div\n      mul\n      dup4\n      mstore\n      swap2\n      0x20\n      add\n      swap2\n      jump(tag_28)\n    tag_29:\n      dup3\n      add\n      swap2\n      swap1\n      0x00\n      mstore\n      keccak256(0x00, 0x20)\n      swap1\n    tag_30:\n      dup2\n      sload\n      dup2\n      mstore\n      swap1\n      0x01\n      add\n      swap1\n      0x20\n      add\n      dup1\n      dup4\n      gt\n      tag_30\n      jumpi\n      dup3\n      swap1\n      sub\n      0x1f\n      and\n      dup3\n      add\n      swap2\n    tag_28:\n      pop\n      pop\n      pop\n      pop\n      pop\n      swap1\n      pop\n        /* \"tutor.sol\":1281:1388  function get_current_question() public view returns (string memory) {... */\n      swap1\n      jump\t// out\n        /* \"tutor.sol\":883:1172  function dot_product(fxp[] memory xs, fxp[] memory ys) private pure returns (fxp) {... */\n    tag_19:\n        /* \"tutor.sol\":960:963  fxp */\n      0x00\n        /* \"tutor.sol\":993:995  ys */\n      dup2\n        /* \"tutor.sol\":993:1002  ys.length */\n      mload\n        /* \"tutor.sol\":980:982  xs */\n      dup4\n        /* \"tutor.sol\":980:989  xs.length */\n      mload\n        /* \"tutor.sol\":980:1002  xs.length == ys.length */\n      eq\n        /* \"tutor.sol\":973:1003  assert(xs.length == ys.length) */\n      tag_32\n      jumpi\n      tag_33\n      tag_34\n      jump\t// in\n    tag_33:\n    tag_32:\n        /* \"tutor.sol\":1011:1024  int64 product */\n      0x00\n        /* \"tutor.sol\":1041:1048  uint8 i */\n      dup1\n        /* \"tutor.sol\":1036:1136  for (uint8 i = 0; i < xs.length; i++) {... */\n    tag_35:\n        /* \"tutor.sol\":1058:1060  xs */\n      dup5\n        /* \"tutor.sol\":1058:1067  xs.length */\n      mload\n        /* \"tutor.sol\":1054:1055  i */\n      dup2\n        /* \"tutor.sol\":1054:1067  i < xs.length */\n      0xff\n      and\n      lt\n        /* \"tutor.sol\":1036:1136  for (uint8 i = 0; i < xs.length; i++) {... */\n      iszero\n      tag_36\n      jumpi\n        /* \"tutor.sol\":1105:1126  fxp_mul(xs[i], ys[i]) */\n      tag_38\n        /* \"tutor.sol\":1113:1115  xs */\n      dup6\n        /* \"tutor.sol\":1116:1117  i */\n      dup3\n        /* \"tutor.sol\":1113:1118  xs[i] */\n      0xff\n      and\n      dup2\n      mload\n      dup2\n      lt\n      tag_39\n      jumpi\n      tag_40\n      tag_23\n      jump\t// in\n    tag_40:\n    tag_39:\n      0x20\n      mul\n      0x20\n      add\n      add\n      mload\n        /* \"tutor.sol\":1120:1122  ys */\n      dup6\n        /* \"tutor.sol\":1123:1124  i */\n      dup4\n        /* \"tutor.sol\":1120:1125  ys[i] */\n      0xff\n      and\n      dup2\n      mload\n      dup2\n      lt\n      tag_41\n      jumpi\n      tag_42\n      tag_23\n      jump\t// in\n    tag_42:\n    tag_41:\n      0x20\n      mul\n      0x20\n      add\n      add\n      mload\n        /* \"tutor.sol\":1105:1112  fxp_mul */\n      tag_43\n        /* \"tutor.sol\":1105:1126  fxp_mul(xs[i], ys[i]) */\n      jump\t// in\n    tag_38:\n        /* \"tutor.sol\":1083:1127  product += fxp.unwrap(fxp_mul(xs[i], ys[i])) */\n      dup3\n      tag_44\n      swap2\n      swap1\n      tag_45\n      jump\t// in\n    tag_44:\n      swap2\n      pop\n        /* \"tutor.sol\":1069:1072  i++ */\n      dup1\n      dup1\n      tag_46\n      swap1\n      tag_47\n      jump\t// in\n    tag_46:\n      swap2\n      pop\n      pop\n        /* \"tutor.sol\":1036:1136  for (uint8 i = 0; i < xs.length; i++) {... */\n      jump(tag_35)\n    tag_36:\n      pop\n        /* \"tutor.sol\":1159:1166  product */\n      dup1\n        /* \"tutor.sol\":1143:1167  return fxp.wrap(product) */\n      swap2\n      pop\n      pop\n        /* \"tutor.sol\":883:1172  function dot_product(fxp[] memory xs, fxp[] memory ys) private pure returns (fxp) {... */\n      swap3\n      swap2\n      pop\n      pop\n      jump\t// out\n        /* \"tutor.sol\":752:879  function fxp_mul(fxp x, fxp y) private pure returns (fxp) {... */\n    tag_43:\n        /* \"tutor.sol\":805:808  fxp */\n      0x00\n        /* \"tutor.sol\":866:873  1000000 */\n      0x0f4240\n        /* \"tutor.sol\":861:862  y */\n      dup3\n        /* \"tutor.sol\":845:846  x */\n      dup5\n        /* \"tutor.sol\":834:863  fxp.unwrap(x) * fxp.unwrap(y) */\n      tag_49\n      swap2\n      swap1\n      tag_50\n      jump\t// in\n    tag_49:\n        /* \"tutor.sol\":834:873  fxp.unwrap(x) * fxp.unwrap(y) / 1000000 */\n      tag_51\n      swap2\n      swap1\n      tag_52\n      jump\t// in\n    tag_51:\n        /* \"tutor.sol\":818:874  return fxp.wrap(fxp.unwrap(x) * fxp.unwrap(y) / 1000000) */\n      swap1\n      pop\n        /* \"tutor.sol\":752:879  function fxp_mul(fxp x, fxp y) private pure returns (fxp) {... */\n      swap3\n      swap2\n      pop\n      pop\n      jump\t// out\n        /* \"#utility.yul\":7:97   */\n    tag_53:\n        /* \"#utility.yul\":42:49   */\n      0x00\n        /* \"#utility.yul\":85:90   */\n      dup2\n        /* \"#utility.yul\":82:83   */\n      0x07\n        /* \"#utility.yul\":71:91   */\n      signextend\n        /* \"#utility.yul\":60:91   */\n      swap1\n      pop\n        /* \"#utility.yul\":7:97   */\n      swap2\n      swap1\n      pop\n      jump\t// out\n        /* \"#utility.yul\":103:163   */\n    tag_54:\n        /* \"#utility.yul\":131:134   */\n      0x00\n        /* \"#utility.yul\":152:157   */\n      dup2\n        /* \"#utility.yul\":145:157   */\n      swap1\n      pop\n        /* \"#utility.yul\":103:163   */\n      swap2\n      swap1\n      pop\n      jump\t// out\n        /* \"#utility.yul\":169:303   */\n    tag_55:\n        /* \"#utility.yul\":215:224   */\n      0x00\n        /* \"#utility.yul\":248:297   */\n      tag_70\n        /* \"#utility.yul\":264:296   */\n      tag_71\n        /* \"#utility.yul\":273:295   */\n      tag_72\n        /* \"#utility.yul\":289:294   */\n      dup5\n        /* \"#utility.yul\":273:295   */\n      tag_53\n      jump\t// in\n    tag_72:\n        /* \"#utility.yul\":264:296   */\n      tag_54\n      jump\t// in\n    tag_71:\n        /* \"#utility.yul\":248:297   */\n      tag_53\n      jump\t// in\n    tag_70:\n        /* \"#utility.yul\":235:297   */\n      swap1\n      pop\n        /* \"#utility.yul\":169:303   */\n      swap2\n      swap1\n      pop\n      jump\t// out\n        /* \"#utility.yul\":309:455   */\n    tag_56:\n        /* \"#utility.yul\":415:448   */\n      tag_74\n        /* \"#utility.yul\":442:447   */\n      dup2\n        /* \"#utility.yul\":415:448   */\n      tag_55\n      jump\t// in\n    tag_74:\n        /* \"#utility.yul\":410:413   */\n      dup3\n        /* \"#utility.yul\":403:449   */\n      mstore\n        /* \"#utility.yul\":309:455   */\n      pop\n      pop\n      jump\t// out\n        /* \"#utility.yul\":461:721   */\n    tag_8:\n        /* \"#utility.yul\":573:577   */\n      0x00\n        /* \"#utility.yul\":611:613   */\n      0x20\n        /* \"#utility.yul\":600:609   */\n      dup3\n        /* \"#utility.yul\":596:614   */\n      add\n        /* \"#utility.yul\":588:614   */\n      swap1\n      pop\n        /* \"#utility.yul\":624:714   */\n      tag_76\n        /* \"#utility.yul\":711:712   */\n      0x00\n        /* \"#utility.yul\":700:709   */\n      dup4\n        /* \"#utility.yul\":696:713   */\n      add\n        /* \"#utility.yul\":687:693   */\n      dup5\n        /* \"#utility.yul\":624:714   */\n      tag_56\n      jump\t// in\n    tag_76:\n        /* \"#utility.yul\":461:721   */\n      swap3\n      swap2\n      pop\n      pop\n      jump\t// out\n        /* \"#utility.yul\":727:826   */\n    tag_57:\n        /* \"#utility.yul\":779:785   */\n      0x00\n        /* \"#utility.yul\":813:818   */\n      dup2\n        /* \"#utility.yul\":807:819   */\n      mload\n        /* \"#utility.yul\":797:819   */\n      swap1\n      pop\n        /* \"#utility.yul\":727:826   */\n      swap2\n      swap1\n      pop\n      jump\t// out\n        /* \"#utility.yul\":832:1001   */\n    tag_58:\n        /* \"#utility.yul\":916:927   */\n      0x00\n        /* \"#utility.yul\":950:956   */\n      dup3\n        /* \"#utility.yul\":945:948   */\n      dup3\n        /* \"#utility.yul\":938:957   */\n      mstore\n        /* \"#utility.yul\":990:994   */\n      0x20\n        /* \"#utility.yul\":985:988   */\n      dup3\n        /* \"#utility.yul\":981:995   */\n      add\n        /* \"#utility.yul\":966:995   */\n      swap1\n      pop\n        /* \"#utility.yul\":832:1001   */\n      swap3\n      swap2\n      pop\n      pop\n      jump\t// out\n        /* \"#utility.yul\":1007:1146   */\n    tag_59:\n        /* \"#utility.yul\":1096:1102   */\n      dup3\n        /* \"#utility.yul\":1091:1094   */\n      dup2\n        /* \"#utility.yul\":1086:1089   */\n      dup4\n        /* \"#utility.yul\":1080:1103   */\n      mcopy\n        /* \"#utility.yul\":1137:1138   */\n      0x00\n        /* \"#utility.yul\":1128:1134   */\n      dup4\n        /* \"#utility.yul\":1123:1126   */\n      dup4\n        /* \"#utility.yul\":1119:1135   */\n      add\n        /* \"#utility.yul\":1112:1139   */\n      mstore\n        /* \"#utility.yul\":1007:1146   */\n      pop\n      pop\n      pop\n      jump\t// out\n        /* \"#utility.yul\":1152:1254   */\n    tag_60:\n        /* \"#utility.yul\":1193:1199   */\n      0x00\n        /* \"#utility.yul\":1244:1246   */\n      0x1f\n        /* \"#utility.yul\":1240:1247   */\n      not\n        /* \"#utility.yul\":1235:1237   */\n      0x1f\n        /* \"#utility.yul\":1228:1233   */\n      dup4\n        /* \"#utility.yul\":1224:1238   */\n      add\n        /* \"#utility.yul\":1220:1248   */\n      and\n        /* \"#utility.yul\":1210:1248   */\n      swap1\n      pop\n        /* \"#utility.yul\":1152:1254   */\n      swap2\n      swap1\n      pop\n      jump\t// out\n        /* \"#utility.yul\":1260:1637   */\n    tag_61:\n        /* \"#utility.yul\":1348:1351   */\n      0x00\n        /* \"#utility.yul\":1376:1415   */\n      tag_82\n        /* \"#utility.yul\":1409:1414   */\n      dup3\n        /* \"#utility.yul\":1376:1415   */\n      tag_57\n      jump\t// in\n    tag_82:\n        /* \"#utility.yul\":1431:1502   */\n      tag_83\n        /* \"#utility.yul\":1495:1501   */\n      dup2\n        /* \"#utility.yul\":1490:1493   */\n      dup6\n        /* \"#utility.yul\":1431:1502   */\n      tag_58\n      jump\t// in\n    tag_83:\n        /* \"#utility.yul\":1424:1502   */\n      swap4\n      pop\n        /* \"#utility.yul\":1511:1576   */\n      tag_84\n        /* \"#utility.yul\":1569:1575   */\n      dup2\n        /* \"#utility.yul\":1564:1567   */\n      dup6\n        /* \"#utility.yul\":1557:1561   */\n      0x20\n        /* \"#utility.yul\":1550:1555   */\n      dup7\n        /* \"#utility.yul\":1546:1562   */\n      add\n        /* \"#utility.yul\":1511:1576   */\n      tag_59\n      jump\t// in\n    tag_84:\n        /* \"#utility.yul\":1601:1630   */\n      tag_85\n        /* \"#utility.yul\":1623:1629   */\n      dup2\n        /* \"#utility.yul\":1601:1630   */\n      tag_60\n      jump\t// in\n    tag_85:\n        /* \"#utility.yul\":1596:1599   */\n      dup5\n        /* \"#utility.yul\":1592:1631   */\n      add\n        /* \"#utility.yul\":1585:1631   */\n      swap2\n      pop\n        /* \"#utility.yul\":1352:1637   */\n      pop\n        /* \"#utility.yul\":1260:1637   */\n      swap3\n      swap2\n      pop\n      pop\n      jump\t// out\n        /* \"#utility.yul\":1643:1956   */\n    tag_12:\n        /* \"#utility.yul\":1756:1760   */\n      0x00\n        /* \"#utility.yul\":1794:1796   */\n      0x20\n        /* \"#utility.yul\":1783:1792   */\n      dup3\n        /* \"#utility.yul\":1779:1797   */\n      add\n        /* \"#utility.yul\":1771:1797   */\n      swap1\n      pop\n        /* \"#utility.yul\":1843:1852   */\n      dup2\n        /* \"#utility.yul\":1837:1841   */\n      dup2\n        /* \"#utility.yul\":1833:1853   */\n      sub\n        /* \"#utility.yul\":1829:1830   */\n      0x00\n        /* \"#utility.yul\":1818:1827   */\n      dup4\n        /* \"#utility.yul\":1814:1831   */\n      add\n        /* \"#utility.yul\":1807:1854   */\n      mstore\n        /* \"#utility.yul\":1871:1949   */\n      tag_87\n        /* \"#utility.yul\":1944:1948   */\n      dup2\n        /* \"#utility.yul\":1935:1941   */\n      dup5\n        /* \"#utility.yul\":1871:1949   */\n      tag_61\n      jump\t// in\n    tag_87:\n        /* \"#utility.yul\":1863:1949   */\n      swap1\n      pop\n        /* \"#utility.yul\":1643:1956   */\n      swap3\n      swap2\n      pop\n      pop\n      jump\t// out\n        /* \"#utility.yul\":1962:2142   */\n    tag_23:\n        /* \"#utility.yul\":2010:2087   */\n      0x4e487b7100000000000000000000000000000000000000000000000000000000\n        /* \"#utility.yul\":2007:2008   */\n      0x00\n        /* \"#utility.yul\":2000:2088   */\n      mstore\n        /* \"#utility.yul\":2107:2111   */\n      0x32\n        /* \"#utility.yul\":2104:2105   */\n      0x04\n        /* \"#utility.yul\":2097:2112   */\n      mstore\n        /* \"#utility.yul\":2131:2135   */\n      0x24\n        /* \"#utility.yul\":2128:2129   */\n      0x00\n        /* \"#utility.yul\":2121:2136   */\n      revert\n        /* \"#utility.yul\":2148:2328   */\n    tag_62:\n        /* \"#utility.yul\":2196:2273   */\n      0x4e487b7100000000000000000000000000000000000000000000000000000000\n        /* \"#utility.yul\":2193:2194   */\n      0x00\n        /* \"#utility.yul\":2186:2274   */\n      mstore\n        /* \"#utility.yul\":2293:2297   */\n      0x22\n        /* \"#utility.yul\":2290:2291   */\n      0x04\n        /* \"#utility.yul\":2283:2298   */\n      mstore\n        /* \"#utility.yul\":2317:2321   */\n      0x24\n        /* \"#utility.yul\":2314:2315   */\n      0x00\n        /* \"#utility.yul\":2307:2322   */\n      revert\n        /* \"#utility.yul\":2334:2654   */\n    tag_26:\n        /* \"#utility.yul\":2378:2384   */\n      0x00\n        /* \"#utility.yul\":2415:2416   */\n      0x02\n        /* \"#utility.yul\":2409:2413   */\n      dup3\n        /* \"#utility.yul\":2405:2417   */\n      div\n        /* \"#utility.yul\":2395:2417   */\n      swap1\n      pop\n        /* \"#utility.yul\":2462:2463   */\n      0x01\n        /* \"#utility.yul\":2456:2460   */\n      dup3\n        /* \"#utility.yul\":2452:2464   */\n      and\n        /* \"#utility.yul\":2483:2501   */\n      dup1\n        /* \"#utility.yul\":2473:2554   */\n      tag_91\n      jumpi\n        /* \"#utility.yul\":2539:2543   */\n      0x7f\n        /* \"#utility.yul\":2531:2537   */\n      dup3\n        /* \"#utility.yul\":2527:2544   */\n      and\n        /* \"#utility.yul\":2517:2544   */\n      swap2\n      pop\n        /* \"#utility.yul\":2473:2554   */\n    tag_91:\n        /* \"#utility.yul\":2601:2603   */\n      0x20\n        /* \"#utility.yul\":2593:2599   */\n      dup3\n        /* \"#utility.yul\":2590:2604   */\n      lt\n        /* \"#utility.yul\":2570:2588   */\n      dup2\n        /* \"#utility.yul\":2567:2605   */\n      sub\n        /* \"#utility.yul\":2564:2648   */\n      tag_92\n      jumpi\n        /* \"#utility.yul\":2620:2638   */\n      tag_93\n      tag_62\n      jump\t// in\n    tag_93:\n        /* \"#utility.yul\":2564:2648   */\n    tag_92:\n        /* \"#utility.yul\":2385:2654   */\n      pop\n        /* \"#utility.yul\":2334:2654   */\n      swap2\n      swap1\n      pop\n      jump\t// out\n        /* \"#utility.yul\":2660:2840   */\n    tag_34:\n        /* \"#utility.yul\":2708:2785   */\n      0x4e487b7100000000000000000000000000000000000000000000000000000000\n        /* \"#utility.yul\":2705:2706   */\n      0x00\n        /* \"#utility.yul\":2698:2786   */\n      mstore\n        /* \"#utility.yul\":2805:2809   */\n      0x01\n        /* \"#utility.yul\":2802:2803   */\n      0x04\n        /* \"#utility.yul\":2795:2810   */\n      mstore\n        /* \"#utility.yul\":2829:2833   */\n      0x24\n        /* \"#utility.yul\":2826:2827   */\n      0x00\n        /* \"#utility.yul\":2819:2834   */\n      revert\n        /* \"#utility.yul\":2846:3026   */\n    tag_63:\n        /* \"#utility.yul\":2894:2971   */\n      0x4e487b7100000000000000000000000000000000000000000000000000000000\n        /* \"#utility.yul\":2891:2892   */\n      0x00\n        /* \"#utility.yul\":2884:2972   */\n      mstore\n        /* \"#utility.yul\":2991:2995   */\n      0x11\n        /* \"#utility.yul\":2988:2989   */\n      0x04\n        /* \"#utility.yul\":2981:2996   */\n      mstore\n        /* \"#utility.yul\":3015:3019   */\n      0x24\n        /* \"#utility.yul\":3012:3013   */\n      0x00\n        /* \"#utility.yul\":3005:3020   */\n      revert\n        /* \"#utility.yul\":3032:3351   */\n    tag_45:\n        /* \"#utility.yul\":3070:3073   */\n      0x00\n        /* \"#utility.yul\":3089:3107   */\n      tag_97\n        /* \"#utility.yul\":3105:3106   */\n      dup3\n        /* \"#utility.yul\":3089:3107   */\n      tag_53\n      jump\t// in\n    tag_97:\n        /* \"#utility.yul\":3084:3107   */\n      swap2\n      pop\n        /* \"#utility.yul\":3121:3139   */\n      tag_98\n        /* \"#utility.yul\":3137:3138   */\n      dup4\n        /* \"#utility.yul\":3121:3139   */\n      tag_53\n      jump\t// in\n    tag_98:\n        /* \"#utility.yul\":3116:3139   */\n      swap3\n      pop\n        /* \"#utility.yul\":3162:3163   */\n      dup3\n        /* \"#utility.yul\":3159:3160   */\n      dup3\n        /* \"#utility.yul\":3155:3164   */\n      add\n        /* \"#utility.yul\":3148:3164   */\n      swap1\n      pop\n        /* \"#utility.yul\":3244:3310   */\n      0xffffffffffffffffffffffffffffffffffffffffffffffff8000000000000000\n        /* \"#utility.yul\":3239:3242   */\n      dup2\n        /* \"#utility.yul\":3235:3311   */\n      slt\n        /* \"#utility.yul\":3202:3220   */\n      0x7fffffffffffffff\n        /* \"#utility.yul\":3197:3200   */\n      dup3\n        /* \"#utility.yul\":3193:3221   */\n      sgt\n        /* \"#utility.yul\":3177:3321   */\n      or\n        /* \"#utility.yul\":3174:3344   */\n      iszero\n      tag_99\n      jumpi\n        /* \"#utility.yul\":3324:3342   */\n      tag_100\n      tag_63\n      jump\t// in\n    tag_100:\n        /* \"#utility.yul\":3174:3344   */\n    tag_99:\n        /* \"#utility.yul\":3032:3351   */\n      swap3\n      swap2\n      pop\n      pop\n      jump\t// out\n        /* \"#utility.yul\":3357:3443   */\n    tag_64:\n        /* \"#utility.yul\":3392:3399   */\n      0x00\n        /* \"#utility.yul\":3432:3436   */\n      0xff\n        /* \"#utility.yul\":3425:3430   */\n      dup3\n        /* \"#utility.yul\":3421:3437   */\n      and\n        /* \"#utility.yul\":3410:3437   */\n      swap1\n      pop\n        /* \"#utility.yul\":3357:3443   */\n      swap2\n      swap1\n      pop\n      jump\t// out\n        /* \"#utility.yul\":3449:3616   */\n    tag_47:\n        /* \"#utility.yul\":3486:3489   */\n      0x00\n        /* \"#utility.yul\":3509:3531   */\n      tag_103\n        /* \"#utility.yul\":3525:3530   */\n      dup3\n        /* \"#utility.yul\":3509:3531   */\n      tag_64\n      jump\t// in\n    tag_103:\n        /* \"#utility.yul\":3500:3531   */\n      swap2\n      pop\n        /* \"#utility.yul\":3553:3557   */\n      0xff\n        /* \"#utility.yul\":3546:3551   */\n      dup3\n        /* \"#utility.yul\":3543:3558   */\n      sub\n        /* \"#utility.yul\":3540:3581   */\n      tag_104\n      jumpi\n        /* \"#utility.yul\":3561:3579   */\n      tag_105\n      tag_63\n      jump\t// in\n    tag_105:\n        /* \"#utility.yul\":3540:3581   */\n    tag_104:\n        /* \"#utility.yul\":3608:3609   */\n      0x01\n        /* \"#utility.yul\":3601:3606   */\n      dup3\n        /* \"#utility.yul\":3597:3610   */\n      add\n        /* \"#utility.yul\":3590:3610   */\n      swap1\n      pop\n        /* \"#utility.yul\":3449:3616   */\n      swap2\n      swap1\n      pop\n      jump\t// out\n        /* \"#utility.yul\":3622:3893   */\n    tag_50:\n        /* \"#utility.yul\":3660:3667   */\n      0x00\n        /* \"#utility.yul\":3683:3701   */\n      tag_107\n        /* \"#utility.yul\":3699:3700   */\n      dup3\n        /* \"#utility.yul\":3683:3701   */\n      tag_53\n      jump\t// in\n    tag_107:\n        /* \"#utility.yul\":3678:3701   */\n      swap2\n      pop\n        /* \"#utility.yul\":3715:3733   */\n      tag_108\n        /* \"#utility.yul\":3731:3732   */\n      dup4\n        /* \"#utility.yul\":3715:3733   */\n      tag_53\n      jump\t// in\n    tag_108:\n        /* \"#utility.yul\":3710:3733   */\n      swap3\n      pop\n        /* \"#utility.yul\":3768:3769   */\n      dup3\n        /* \"#utility.yul\":3765:3766   */\n      dup3\n        /* \"#utility.yul\":3761:3770   */\n      mul\n        /* \"#utility.yul\":3790:3818   */\n      tag_109\n        /* \"#utility.yul\":3806:3817   */\n      dup2\n        /* \"#utility.yul\":3790:3818   */\n      tag_53\n      jump\t// in\n    tag_109:\n        /* \"#utility.yul\":3779:3818   */\n      swap2\n      pop\n        /* \"#utility.yul\":3850:3861   */\n      dup1\n        /* \"#utility.yul\":3841:3848   */\n      dup3\n        /* \"#utility.yul\":3838:3862   */\n      eq\n        /* \"#utility.yul\":3828:3886   */\n      tag_110\n      jumpi\n        /* \"#utility.yul\":3866:3884   */\n      tag_111\n      tag_63\n      jump\t// in\n    tag_111:\n        /* \"#utility.yul\":3828:3886   */\n    tag_110:\n        /* \"#utility.yul\":3668:3893   */\n      pop\n        /* \"#utility.yul\":3622:3893   */\n      swap3\n      swap2\n      pop\n      pop\n      jump\t// out\n        /* \"#utility.yul\":3899:4079   */\n    tag_65:\n        /* \"#utility.yul\":3947:4024   */\n      0x4e487b7100000000000000000000000000000000000000000000000000000000\n        /* \"#utility.yul\":3944:3945   */\n      0x00\n        /* \"#utility.yul\":3937:4025   */\n      mstore\n        /* \"#utility.yul\":4044:4048   */\n      0x12\n        /* \"#utility.yul\":4041:4042   */\n      0x04\n        /* \"#utility.yul\":4034:4049   */\n      mstore\n        /* \"#utility.yul\":4068:4072   */\n      0x24\n        /* \"#utility.yul\":4065:4066   */\n      0x00\n        /* \"#utility.yul\":4058:4073   */\n      revert\n        /* \"#utility.yul\":4085:4467   */\n    tag_52:\n        /* \"#utility.yul\":4123:4124   */\n      0x00\n        /* \"#utility.yul\":4140:4158   */\n      tag_114\n        /* \"#utility.yul\":4156:4157   */\n      dup3\n        /* \"#utility.yul\":4140:4158   */\n      tag_53\n      jump\t// in\n    tag_114:\n        /* \"#utility.yul\":4135:4158   */\n      swap2\n      pop\n        /* \"#utility.yul\":4172:4190   */\n      tag_115\n        /* \"#utility.yul\":4188:4189   */\n      dup4\n        /* \"#utility.yul\":4172:4190   */\n      tag_53\n      jump\t// in\n    tag_115:\n        /* \"#utility.yul\":4167:4190   */\n      swap3\n      pop\n        /* \"#utility.yul\":4209:4210   */\n      dup3\n        /* \"#utility.yul\":4199:4234   */\n      tag_116\n      jumpi\n        /* \"#utility.yul\":4214:4232   */\n      tag_117\n      tag_65\n      jump\t// in\n    tag_117:\n        /* \"#utility.yul\":4199:4234   */\n    tag_116:\n        /* \"#utility.yul\":4400:4401   */\n      0x01\n        /* \"#utility.yul\":4397:4398   */\n      0x00\n        /* \"#utility.yul\":4393:4402   */\n      sub\n        /* \"#utility.yul\":4390:4391   */\n      dup4\n        /* \"#utility.yul\":4387:4403   */\n      eq\n        /* \"#utility.yul\":4306:4372   */\n      0xffffffffffffffffffffffffffffffffffffffffffffffff8000000000000000\n        /* \"#utility.yul\":4303:4304   */\n      dup4\n        /* \"#utility.yul\":4300:4373   */\n      eq\n        /* \"#utility.yul\":4283:4413   */\n      and\n        /* \"#utility.yul\":4280:4436   */\n      iszero\n      tag_118\n      jumpi\n        /* \"#utility.yul\":4416:4434   */\n      tag_119\n      tag_63\n      jump\t// in\n    tag_119:\n        /* \"#utility.yul\":4280:4436   */\n    tag_118:\n        /* \"#utility.yul\":4459:4460   */\n      dup3\n        /* \"#utility.yul\":4456:4457   */\n      dup3\n        /* \"#utility.yul\":4451:4461   */\n      sdiv\n        /* \"#utility.yul\":4446:4461   */\n      swap1\n      pop\n        /* \"#utility.yul\":4085:4467   */\n      swap3\n      swap2\n      pop\n      pop\n      jump\t// out\n\n    auxdata: 0xa264697066735822122012a8987c10014f86611a496eb4bf9e2d3d5f7997c4b2e4fae44484950dd7faec64736f6c634300081a0033\n}\n",
				"bytecode": {
					"linkReferences": {},
					"object": "608060405234801561000f575f80fd5b5060405161106d38038061106d833981810160405281019061003191906106ca565b815f9080519060200190610046929190610175565b50806001908051906020019061005d9291906101cc565b506040518060a00160405280621e848060070b60070b81526020016216e36060070b60070b8152602001620dbba060070b60070b815260200162061a8060070b60070b815260200162030d4060070b60070b81525060029060056100c292919061026e565b506040518060a00160405280620f424060070b60070b8152602001620f424060070b60070b8152602001620f424060070b60070b8152602001620f424060070b60070b8152602001620f424060070b60070b815250600390600561012792919061026e565b505f60045f6101000a81548160ff021916908360ff1602179055505f600460016101000a81548167ffffffffffffffff021916908360070b67ffffffffffffffff1602179055505050610a1c565b828054828255905f5260205f209081019282156101bb579160200282015b828111156101ba5782518290816101aa919061094d565b5091602001919060010190610193565b5b5090506101c8919061032a565b5090565b828054828255905f5260205f2090601f0160209004810192821561025d579160200282015f5b8382111561022f57835183826101000a81548160ff021916908360ff16021790555092602001926001016020815f010492830192600103026101f2565b801561025b5782816101000a81549060ff02191690556001016020815f0104928301926001030261022f565b505b50905061026a919061034d565b5090565b828054828255905f5260205f2090600301600490048101928215610319579160200282015f5b838211156102e357835183826101000a81548167ffffffffffffffff021916908360070b67ffffffffffffffff1602179055509260200192600801602081600701049283019260010302610294565b80156103175782816101000a81549067ffffffffffffffff02191690556008016020816007010492830192600103026102e3565b505b509050610326919061034d565b5090565b5b80821115610349575f81816103409190610368565b5060010161032b565b5090565b5b80821115610364575f815f90555060010161034e565b5090565b50805461037490610777565b5f825580601f1061038557506103a2565b601f0160209004905f5260205f20908101906103a1919061034d565b5b50565b5f604051905090565b5f80fd5b5f80fd5b5f80fd5b5f601f19601f8301169050919050565b7f4e487b71000000000000000000000000000000000000000000000000000000005f52604160045260245ffd5b610400826103ba565b810181811067ffffffffffffffff8211171561041f5761041e6103ca565b5b80604052505050565b5f6104316103a5565b905061043d82826103f7565b919050565b5f67ffffffffffffffff82111561045c5761045b6103ca565b5b602082029050602081019050919050565b5f80fd5b5f80fd5b5f67ffffffffffffffff82111561048f5761048e6103ca565b5b610498826103ba565b9050602081019050919050565b8281835e5f83830152505050565b5f6104c56104c084610475565b610428565b9050828152602081018484840111156104e1576104e0610471565b5b6104ec8482856104a5565b509392505050565b5f82601f830112610508576105076103b6565b5b81516105188482602086016104b3565b91505092915050565b5f61053361052e84610442565b610428565b905080838252602082019050602084028301858111156105565761055561046d565b5b835b8181101561059d57805167ffffffffffffffff81111561057b5761057a6103b6565b5b80860161058889826104f4565b85526020850194505050602081019050610558565b5050509392505050565b5f82601f8301126105bb576105ba6103b6565b5b81516105cb848260208601610521565b91505092915050565b5f67ffffffffffffffff8211156105ee576105ed6103ca565b5b602082029050602081019050919050565b5f60ff82169050919050565b610614816105ff565b811461061e575f80fd5b50565b5f8151905061062f8161060b565b92915050565b5f610647610642846105d4565b610428565b9050808382526020820190506020840283018581111561066a5761066961046d565b5b835b81811015610693578061067f8882610621565b84526020840193505060208101905061066c565b5050509392505050565b5f82601f8301126106b1576106b06103b6565b5b81516106c1848260208601610635565b91505092915050565b5f80604083850312156106e0576106df6103ae565b5b5f83015167ffffffffffffffff8111156106fd576106fc6103b2565b5b610709858286016105a7565b925050602083015167ffffffffffffffff81111561072a576107296103b2565b5b6107368582860161069d565b9150509250929050565b5f81519050919050565b7f4e487b71000000000000000000000000000000000000000000000000000000005f52602260045260245ffd5b5f600282049050600182168061078e57607f821691505b6020821081036107a1576107a061074a565b5b50919050565b5f819050815f5260205f209050919050565b5f6020601f8301049050919050565b5f82821b905092915050565b5f600883026108037fffffffffffffffffffffffffffffffffffffffffffffffffffffffffffffffff826107c8565b61080d86836107c8565b95508019841693508086168417925050509392505050565b5f819050919050565b5f819050919050565b5f61085161084c61084784610825565b61082e565b610825565b9050919050565b5f819050919050565b61086a83610837565b61087e61087682610858565b8484546107d4565b825550505050565b5f90565b610892610886565b61089d818484610861565b505050565b5b818110156108c0576108b55f8261088a565b6001810190506108a3565b5050565b601f821115610905576108d6816107a7565b6108df846107b9565b810160208510156108ee578190505b6109026108fa856107b9565b8301826108a2565b50505b505050565b5f82821c905092915050565b5f6109255f198460080261090a565b1980831691505092915050565b5f61093d8383610916565b9150826002028217905092915050565b61095682610740565b67ffffffffffffffff81111561096f5761096e6103ca565b5b6109798254610777565b6109848282856108c4565b5f60209050601f8311600181146109b5575f84156109a3578287015190505b6109ad8582610932565b865550610a14565b601f1984166109c3866107a7565b5f5b828110156109ea578489015182556001820191506020850194506020810190506109c5565b86831015610a075784890151610a03601f891682610916565b8355505b6001600288020188555050505b505050505050565b61064480610a295f395ff3fe608060405234801561000f575f80fd5b5060043610610034575f3560e01c806342fba3fb14610038578063734ba39614610056575b5f80fd5b610040610074565b60405161004d919061031d565b60405180910390f35b61005e61016a565b60405161006b91906103a6565b60405180910390f35b5f61016560028054806020026020016040519081016040528092919081815260200182805480156100e757602002820191905f5260205f20905f905b82829054906101000a900460070b60070b815260200190600801906020826007010492830192600103820291508084116100b05790505b5050505050600380548060200260200160405190810160405280929190818152602001828054801561015b57602002820191905f5260205f20905f905b82829054906101000a900460070b60070b815260200190600801906020826007010492830192600103820291508084116101245790505b5050505050610224565b905090565b60605f60045f9054906101000a900460ff1660ff16815481106101905761018f6103c6565b5b905f5260205f200180546101a390610420565b80601f01602080910402602001604051908101604052809291908181526020018280546101cf90610420565b801561021a5780601f106101f15761010080835404028352916020019161021a565b820191905f5260205f20905b8154815290600101906020018083116101fd57829003601f168201915b5050505050905090565b5f815183511461023757610236610450565b5b5f805b84518160ff1610156102aa5761028a858260ff168151811061025f5761025e6103c6565b5b6020026020010151858360ff168151811061027d5761027c6103c6565b5b60200260200101516102b5565b8261029591906104aa565b915080806102a290610515565b91505061023a565b508091505092915050565b5f620f424082846102c6919061053d565b6102d091906105a6565b905092915050565b5f8160070b9050919050565b5f819050919050565b5f6103076103026102fd846102d8565b6102e4565b6102d8565b9050919050565b610317816102ed565b82525050565b5f6020820190506103305f83018461030e565b92915050565b5f81519050919050565b5f82825260208201905092915050565b8281835e5f83830152505050565b5f601f19601f8301169050919050565b5f61037882610336565b6103828185610340565b9350610392818560208601610350565b61039b8161035e565b840191505092915050565b5f6020820190508181035f8301526103be818461036e565b905092915050565b7f4e487b71000000000000000000000000000000000000000000000000000000005f52603260045260245ffd5b7f4e487b71000000000000000000000000000000000000000000000000000000005f52602260045260245ffd5b5f600282049050600182168061043757607f821691505b60208210810361044a576104496103f3565b5b50919050565b7f4e487b71000000000000000000000000000000000000000000000000000000005f52600160045260245ffd5b7f4e487b71000000000000000000000000000000000000000000000000000000005f52601160045260245ffd5b5f6104b4826102d8565b91506104bf836102d8565b925082820190507fffffffffffffffffffffffffffffffffffffffffffffffff80000000000000008112677fffffffffffffff821317156105035761050261047d565b5b92915050565b5f60ff82169050919050565b5f61051f82610509565b915060ff82036105325761053161047d565b5b600182019050919050565b5f610547826102d8565b9150610552836102d8565b9250828202610560816102d8565b91508082146105725761057161047d565b5b5092915050565b7f4e487b71000000000000000000000000000000000000000000000000000000005f52601260045260245ffd5b5f6105b0826102d8565b91506105bb836102d8565b9250826105cb576105ca610579565b5b60015f0383147fffffffffffffffffffffffffffffffffffffffffffffffff8000000000000000831416156106035761060261047d565b5b82820590509291505056fea264697066735822122012a8987c10014f86611a496eb4bf9e2d3d5f7997c4b2e4fae44484950dd7faec64736f6c634300081a0033",
					"opcodes": "PUSH1 0x80 PUSH1 0x40 MSTORE CALLVALUE DUP1 ISZERO PUSH2 0xF JUMPI PUSH0 DUP1 REVERT JUMPDEST POP PUSH1 0x40 MLOAD PUSH2 0x106D CODESIZE SUB DUP1 PUSH2 0x106D DUP4 CODECOPY DUP2 DUP2 ADD PUSH1 0x40 MSTORE DUP2 ADD SWAP1 PUSH2 0x31 SWAP2 SWAP1 PUSH2 0x6CA JUMP JUMPDEST DUP2 PUSH0 SWAP1 DUP1 MLOAD SWAP1 PUSH1 0x20 ADD SWAP1 PUSH2 0x46 SWAP3 SWAP2 SWAP1 PUSH2 0x175 JUMP JUMPDEST POP DUP1 PUSH1 0x1 SWAP1 DUP1 MLOAD SWAP1 PUSH1 0x20 ADD SWAP1 PUSH2 0x5D SWAP3 SWAP2 SWAP1 PUSH2 0x1CC JUMP JUMPDEST POP PUSH1 0x40 MLOAD DUP1 PUSH1 0xA0 ADD PUSH1 0x40 MSTORE DUP1 PUSH3 0x1E8480 PUSH1 0x7 SIGNEXTEND PUSH1 0x7 SIGNEXTEND DUP2 MSTORE PUSH1 0x20 ADD PUSH3 0x16E360 PUSH1 0x7 SIGNEXTEND PUSH1 0x7 SIGNEXTEND DUP2 MSTORE PUSH1 0x20 ADD PUSH3 0xDBBA0 PUSH1 0x7 SIGNEXTEND PUSH1 0x7 SIGNEXTEND DUP2 MSTORE PUSH1 0x20 ADD PUSH3 0x61A80 PUSH1 0x7 SIGNEXTEND PUSH1 0x7 SIGNEXTEND DUP2 MSTORE PUSH1 0x20 ADD PUSH3 0x30D40 PUSH1 0x7 SIGNEXTEND PUSH1 0x7 SIGNEXTEND DUP2 MSTORE POP PUSH1 0x2 SWAP1 PUSH1 0x5 PUSH2 0xC2 SWAP3 SWAP2 SWAP1 PUSH2 0x26E JUMP JUMPDEST POP PUSH1 0x40 MLOAD DUP1 PUSH1 0xA0 ADD PUSH1 0x40 MSTORE DUP1 PUSH3 0xF4240 PUSH1 0x7 SIGNEXTEND PUSH1 0x7 SIGNEXTEND DUP2 MSTORE PUSH1 0x20 ADD PUSH3 0xF4240 PUSH1 0x7 SIGNEXTEND PUSH1 0x7 SIGNEXTEND DUP2 MSTORE PUSH1 0x20 ADD PUSH3 0xF4240 PUSH1 0x7 SIGNEXTEND PUSH1 0x7 SIGNEXTEND DUP2 MSTORE PUSH1 0x20 ADD PUSH3 0xF4240 PUSH1 0x7 SIGNEXTEND PUSH1 0x7 SIGNEXTEND DUP2 MSTORE PUSH1 0x20 ADD PUSH3 0xF4240 PUSH1 0x7 SIGNEXTEND PUSH1 0x7 SIGNEXTEND DUP2 MSTORE POP PUSH1 0x3 SWAP1 PUSH1 0x5 PUSH2 0x127 SWAP3 SWAP2 SWAP1 PUSH2 0x26E JUMP JUMPDEST POP PUSH0 PUSH1 0x4 PUSH0 PUSH2 0x100 EXP DUP2 SLOAD DUP2 PUSH1 0xFF MUL NOT AND SWAP1 DUP4 PUSH1 0xFF AND MUL OR SWAP1 SSTORE POP PUSH0 PUSH1 0x4 PUSH1 0x1 PUSH2 0x100 EXP DUP2 SLOAD DUP2 PUSH8 0xFFFFFFFFFFFFFFFF MUL NOT AND SWAP1 DUP4 PUSH1 0x7 SIGNEXTEND PUSH8 0xFFFFFFFFFFFFFFFF AND MUL OR SWAP1 SSTORE POP POP POP PUSH2 0xA1C JUMP JUMPDEST DUP3 DUP1 SLOAD DUP3 DUP3 SSTORE SWAP1 PUSH0 MSTORE PUSH1 0x20 PUSH0 KECCAK256 SWAP1 DUP2 ADD SWAP3 DUP3 ISZERO PUSH2 0x1BB JUMPI SWAP2 PUSH1 0x20 MUL DUP3 ADD JUMPDEST DUP3 DUP2 GT ISZERO PUSH2 0x1BA JUMPI DUP3 MLOAD DUP3 SWAP1 DUP2 PUSH2 0x1AA SWAP2 SWAP1 PUSH2 0x94D JUMP JUMPDEST POP SWAP2 PUSH1 0x20 ADD SWAP2 SWAP1 PUSH1 0x1 ADD SWAP1 PUSH2 0x193 JUMP JUMPDEST JUMPDEST POP SWAP1 POP PUSH2 0x1C8 SWAP2 SWAP1 PUSH2 0x32A JUMP JUMPDEST POP SWAP1 JUMP JUMPDEST DUP3 DUP1 SLOAD DUP3 DUP3 SSTORE SWAP1 PUSH0 MSTORE PUSH1 0x20 PUSH0 KECCAK256 SWAP1 PUSH1 0x1F ADD PUSH1 0x20 SWAP1 DIV DUP2 ADD SWAP3 DUP3 ISZERO PUSH2 0x25D JUMPI SWAP2 PUSH1 0x20 MUL DUP3 ADD PUSH0 JUMPDEST DUP4 DUP3 GT ISZERO PUSH2 0x22F JUMPI DUP4 MLOAD DUP4 DUP3 PUSH2 0x100 EXP DUP2 SLOAD DUP2 PUSH1 0xFF MUL NOT AND SWAP1 DUP4 PUSH1 0xFF AND MUL OR SWAP1 SSTORE POP SWAP3 PUSH1 0x20 ADD SWAP3 PUSH1 0x1 ADD PUSH1 0x20 DUP2 PUSH0 ADD DIV SWAP3 DUP4 ADD SWAP3 PUSH1 0x1 SUB MUL PUSH2 0x1F2 JUMP JUMPDEST DUP1 ISZERO PUSH2 0x25B JUMPI DUP3 DUP2 PUSH2 0x100 EXP DUP2 SLOAD SWAP1 PUSH1 0xFF MUL NOT AND SWAP1 SSTORE PUSH1 0x1 ADD PUSH1 0x20 DUP2 PUSH0 ADD DIV SWAP3 DUP4 ADD SWAP3 PUSH1 0x1 SUB MUL PUSH2 0x22F JUMP JUMPDEST POP JUMPDEST POP SWAP1 POP PUSH2 0x26A SWAP2 SWAP1 PUSH2 0x34D JUMP JUMPDEST POP SWAP1 JUMP JUMPDEST DUP3 DUP1 SLOAD DUP3 DUP3 SSTORE SWAP1 PUSH0 MSTORE PUSH1 0x20 PUSH0 KECCAK256 SWAP1 PUSH1 0x3 ADD PUSH1 0x4 SWAP1 DIV DUP2 ADD SWAP3 DUP3 ISZERO PUSH2 0x319 JUMPI SWAP2 PUSH1 0x20 MUL DUP3 ADD PUSH0 JUMPDEST DUP4 DUP3 GT ISZERO PUSH2 0x2E3 JUMPI DUP4 MLOAD DUP4 DUP3 PUSH2 0x100 EXP DUP2 SLOAD DUP2 PUSH8 0xFFFFFFFFFFFFFFFF MUL NOT AND SWAP1 DUP4 PUSH1 0x7 SIGNEXTEND PUSH8 0xFFFFFFFFFFFFFFFF AND MUL OR SWAP1 SSTORE POP SWAP3 PUSH1 0x20 ADD SWAP3 PUSH1 0x8 ADD PUSH1 0x20 DUP2 PUSH1 0x7 ADD DIV SWAP3 DUP4 ADD SWAP3 PUSH1 0x1 SUB MUL PUSH2 0x294 JUMP JUMPDEST DUP1 ISZERO PUSH2 0x317 JUMPI DUP3 DUP2 PUSH2 0x100 EXP DUP2 SLOAD SWAP1 PUSH8 0xFFFFFFFFFFFFFFFF MUL NOT AND SWAP1 SSTORE PUSH1 0x8 ADD PUSH1 0x20 DUP2 PUSH1 0x7 ADD DIV SWAP3 DUP4 ADD SWAP3 PUSH1 0x1 SUB MUL PUSH2 0x2E3 JUMP JUMPDEST POP JUMPDEST POP SWAP1 POP PUSH2 0x326 SWAP2 SWAP1 PUSH2 0x34D JUMP JUMPDEST POP SWAP1 JUMP JUMPDEST JUMPDEST DUP1 DUP3 GT ISZERO PUSH2 0x349 JUMPI PUSH0 DUP2 DUP2 PUSH2 0x340 SWAP2 SWAP1 PUSH2 0x368 JUMP JUMPDEST POP PUSH1 0x1 ADD PUSH2 0x32B JUMP JUMPDEST POP SWAP1 JUMP JUMPDEST JUMPDEST DUP1 DUP3 GT ISZERO PUSH2 0x364 JUMPI PUSH0 DUP2 PUSH0 SWAP1 SSTORE POP PUSH1 0x1 ADD PUSH2 0x34E JUMP JUMPDEST POP SWAP1 JUMP JUMPDEST POP DUP1 SLOAD PUSH2 0x374 SWAP1 PUSH2 0x777 JUMP JUMPDEST PUSH0 DUP3 SSTORE DUP1 PUSH1 0x1F LT PUSH2 0x385 JUMPI POP PUSH2 0x3A2 JUMP JUMPDEST PUSH1 0x1F ADD PUSH1 0x20 SWAP1 DIV SWAP1 PUSH0 MSTORE PUSH1 0x20 PUSH0 KECCAK256 SWAP1 DUP2 ADD SWAP1 PUSH2 0x3A1 SWAP2 SWAP1 PUSH2 0x34D JUMP JUMPDEST JUMPDEST POP JUMP JUMPDEST PUSH0 PUSH1 0x40 MLOAD SWAP1 POP SWAP1 JUMP JUMPDEST PUSH0 DUP1 REVERT JUMPDEST PUSH0 DUP1 REVERT JUMPDEST PUSH0 DUP1 REVERT JUMPDEST PUSH0 PUSH1 0x1F NOT PUSH1 0x1F DUP4 ADD AND SWAP1 POP SWAP2 SWAP1 POP JUMP JUMPDEST PUSH32 0x4E487B7100000000000000000000000000000000000000000000000000000000 PUSH0 MSTORE PUSH1 0x41 PUSH1 0x4 MSTORE PUSH1 0x24 PUSH0 REVERT JUMPDEST PUSH2 0x400 DUP3 PUSH2 0x3BA JUMP JUMPDEST DUP2 ADD DUP2 DUP2 LT PUSH8 0xFFFFFFFFFFFFFFFF DUP3 GT OR ISZERO PUSH2 0x41F JUMPI PUSH2 0x41E PUSH2 0x3CA JUMP JUMPDEST JUMPDEST DUP1 PUSH1 0x40 MSTORE POP POP POP JUMP JUMPDEST PUSH0 PUSH2 0x431 PUSH2 0x3A5 JUMP JUMPDEST SWAP1 POP PUSH2 0x43D DUP3 DUP3 PUSH2 0x3F7 JUMP JUMPDEST SWAP2 SWAP1 POP JUMP JUMPDEST PUSH0 PUSH8 0xFFFFFFFFFFFFFFFF DUP3 GT ISZERO PUSH2 0x45C JUMPI PUSH2 0x45B PUSH2 0x3CA JUMP JUMPDEST JUMPDEST PUSH1 0x20 DUP3 MUL SWAP1 POP PUSH1 0x20 DUP2 ADD SWAP1 POP SWAP2 SWAP1 POP JUMP JUMPDEST PUSH0 DUP1 REVERT JUMPDEST PUSH0 DUP1 REVERT JUMPDEST PUSH0 PUSH8 0xFFFFFFFFFFFFFFFF DUP3 GT ISZERO PUSH2 0x48F JUMPI PUSH2 0x48E PUSH2 0x3CA JUMP JUMPDEST JUMPDEST PUSH2 0x498 DUP3 PUSH2 0x3BA JUMP JUMPDEST SWAP1 POP PUSH1 0x20 DUP2 ADD SWAP1 POP SWAP2 SWAP1 POP JUMP JUMPDEST DUP3 DUP2 DUP4 MCOPY PUSH0 DUP4 DUP4 ADD MSTORE POP POP POP JUMP JUMPDEST PUSH0 PUSH2 0x4C5 PUSH2 0x4C0 DUP5 PUSH2 0x475 JUMP JUMPDEST PUSH2 0x428 JUMP JUMPDEST SWAP1 POP DUP3 DUP2 MSTORE PUSH1 0x20 DUP2 ADD DUP5 DUP5 DUP5 ADD GT ISZERO PUSH2 0x4E1 JUMPI PUSH2 0x4E0 PUSH2 0x471 JUMP JUMPDEST JUMPDEST PUSH2 0x4EC DUP5 DUP3 DUP6 PUSH2 0x4A5 JUMP JUMPDEST POP SWAP4 SWAP3 POP POP POP JUMP JUMPDEST PUSH0 DUP3 PUSH1 0x1F DUP4 ADD SLT PUSH2 0x508 JUMPI PUSH2 0x507 PUSH2 0x3B6 JUMP JUMPDEST JUMPDEST DUP2 MLOAD PUSH2 0x518 DUP5 DUP3 PUSH1 0x20 DUP7 ADD PUSH2 0x4B3 JUMP JUMPDEST SWAP2 POP POP SWAP3 SWAP2 POP POP JUMP JUMPDEST PUSH0 PUSH2 0x533 PUSH2 0x52E DUP5 PUSH2 0x442 JUMP JUMPDEST PUSH2 0x428 JUMP JUMPDEST SWAP1 POP DUP1 DUP4 DUP3 MSTORE PUSH1 0x20 DUP3 ADD SWAP1 POP PUSH1 0x20 DUP5 MUL DUP4 ADD DUP6 DUP2 GT ISZERO PUSH2 0x556 JUMPI PUSH2 0x555 PUSH2 0x46D JUMP JUMPDEST JUMPDEST DUP4 JUMPDEST DUP2 DUP2 LT ISZERO PUSH2 0x59D JUMPI DUP1 MLOAD PUSH8 0xFFFFFFFFFFFFFFFF DUP2 GT ISZERO PUSH2 0x57B JUMPI PUSH2 0x57A PUSH2 0x3B6 JUMP JUMPDEST JUMPDEST DUP1 DUP7 ADD PUSH2 0x588 DUP10 DUP3 PUSH2 0x4F4 JUMP JUMPDEST DUP6 MSTORE PUSH1 0x20 DUP6 ADD SWAP5 POP POP POP PUSH1 0x20 DUP2 ADD SWAP1 POP PUSH2 0x558 JUMP JUMPDEST POP POP POP SWAP4 SWAP3 POP POP POP JUMP JUMPDEST PUSH0 DUP3 PUSH1 0x1F DUP4 ADD SLT PUSH2 0x5BB JUMPI PUSH2 0x5BA PUSH2 0x3B6 JUMP JUMPDEST JUMPDEST DUP2 MLOAD PUSH2 0x5CB DUP5 DUP3 PUSH1 0x20 DUP7 ADD PUSH2 0x521 JUMP JUMPDEST SWAP2 POP POP SWAP3 SWAP2 POP POP JUMP JUMPDEST PUSH0 PUSH8 0xFFFFFFFFFFFFFFFF DUP3 GT ISZERO PUSH2 0x5EE JUMPI PUSH2 0x5ED PUSH2 0x3CA JUMP JUMPDEST JUMPDEST PUSH1 0x20 DUP3 MUL SWAP1 POP PUSH1 0x20 DUP2 ADD SWAP1 POP SWAP2 SWAP1 POP JUMP JUMPDEST PUSH0 PUSH1 0xFF DUP3 AND SWAP1 POP SWAP2 SWAP1 POP JUMP JUMPDEST PUSH2 0x614 DUP2 PUSH2 0x5FF JUMP JUMPDEST DUP2 EQ PUSH2 0x61E JUMPI PUSH0 DUP1 REVERT JUMPDEST POP JUMP JUMPDEST PUSH0 DUP2 MLOAD SWAP1 POP PUSH2 0x62F DUP2 PUSH2 0x60B JUMP JUMPDEST SWAP3 SWAP2 POP POP JUMP JUMPDEST PUSH0 PUSH2 0x647 PUSH2 0x642 DUP5 PUSH2 0x5D4 JUMP JUMPDEST PUSH2 0x428 JUMP JUMPDEST SWAP1 POP DUP1 DUP4 DUP3 MSTORE PUSH1 0x20 DUP3 ADD SWAP1 POP PUSH1 0x20 DUP5 MUL DUP4 ADD DUP6 DUP2 GT ISZERO PUSH2 0x66A JUMPI PUSH2 0x669 PUSH2 0x46D JUMP JUMPDEST JUMPDEST DUP4 JUMPDEST DUP2 DUP2 LT ISZERO PUSH2 0x693 JUMPI DUP1 PUSH2 0x67F DUP9 DUP3 PUSH2 0x621 JUMP JUMPDEST DUP5 MSTORE PUSH1 0x20 DUP5 ADD SWAP4 POP POP PUSH1 0x20 DUP2 ADD SWAP1 POP PUSH2 0x66C JUMP JUMPDEST POP POP POP SWAP4 SWAP3 POP POP POP JUMP JUMPDEST PUSH0 DUP3 PUSH1 0x1F DUP4 ADD SLT PUSH2 0x6B1 JUMPI PUSH2 0x6B0 PUSH2 0x3B6 JUMP JUMPDEST JUMPDEST DUP2 MLOAD PUSH2 0x6C1 DUP5 DUP3 PUSH1 0x20 DUP7 ADD PUSH2 0x635 JUMP JUMPDEST SWAP2 POP POP SWAP3 SWAP2 POP POP JUMP JUMPDEST PUSH0 DUP1 PUSH1 0x40 DUP4 DUP6 SUB SLT ISZERO PUSH2 0x6E0 JUMPI PUSH2 0x6DF PUSH2 0x3AE JUMP JUMPDEST JUMPDEST PUSH0 DUP4 ADD MLOAD PUSH8 0xFFFFFFFFFFFFFFFF DUP2 GT ISZERO PUSH2 0x6FD JUMPI PUSH2 0x6FC PUSH2 0x3B2 JUMP JUMPDEST JUMPDEST PUSH2 0x709 DUP6 DUP3 DUP7 ADD PUSH2 0x5A7 JUMP JUMPDEST SWAP3 POP POP PUSH1 0x20 DUP4 ADD MLOAD PUSH8 0xFFFFFFFFFFFFFFFF DUP2 GT ISZERO PUSH2 0x72A JUMPI PUSH2 0x729 PUSH2 0x3B2 JUMP JUMPDEST JUMPDEST PUSH2 0x736 DUP6 DUP3 DUP7 ADD PUSH2 0x69D JUMP JUMPDEST SWAP2 POP POP SWAP3 POP SWAP3 SWAP1 POP JUMP JUMPDEST PUSH0 DUP2 MLOAD SWAP1 POP SWAP2 SWAP1 POP JUMP JUMPDEST PUSH32 0x4E487B7100000000000000000000000000000000000000000000000000000000 PUSH0 MSTORE PUSH1 0x22 PUSH1 0x4 MSTORE PUSH1 0x24 PUSH0 REVERT JUMPDEST PUSH0 PUSH1 0x2 DUP3 DIV SWAP1 POP PUSH1 0x1 DUP3 AND DUP1 PUSH2 0x78E JUMPI PUSH1 0x7F DUP3 AND SWAP2 POP JUMPDEST PUSH1 0x20 DUP3 LT DUP2 SUB PUSH2 0x7A1 JUMPI PUSH2 0x7A0 PUSH2 0x74A JUMP JUMPDEST JUMPDEST POP SWAP2 SWAP1 POP JUMP JUMPDEST PUSH0 DUP2 SWAP1 POP DUP2 PUSH0 MSTORE PUSH1 0x20 PUSH0 KECCAK256 SWAP1 POP SWAP2 SWAP1 POP JUMP JUMPDEST PUSH0 PUSH1 0x20 PUSH1 0x1F DUP4 ADD DIV SWAP1 POP SWAP2 SWAP1 POP JUMP JUMPDEST PUSH0 DUP3 DUP3 SHL SWAP1 POP SWAP3 SWAP2 POP POP JUMP JUMPDEST PUSH0 PUSH1 0x8 DUP4 MUL PUSH2 0x803 PUSH32 0xFFFFFFFFFFFFFFFFFFFFFFFFFFFFFFFFFFFFFFFFFFFFFFFFFFFFFFFFFFFFFFFF DUP3 PUSH2 0x7C8 JUMP JUMPDEST PUSH2 0x80D DUP7 DUP4 PUSH2 0x7C8 JUMP JUMPDEST SWAP6 POP DUP1 NOT DUP5 AND SWAP4 POP DUP1 DUP7 AND DUP5 OR SWAP3 POP POP POP SWAP4 SWAP3 POP POP POP JUMP JUMPDEST PUSH0 DUP2 SWAP1 POP SWAP2 SWAP1 POP JUMP JUMPDEST PUSH0 DUP2 SWAP1 POP SWAP2 SWAP1 POP JUMP JUMPDEST PUSH0 PUSH2 0x851 PUSH2 0x84C PUSH2 0x847 DUP5 PUSH2 0x825 JUMP JUMPDEST PUSH2 0x82E JUMP JUMPDEST PUSH2 0x825 JUMP JUMPDEST SWAP1 POP SWAP2 SWAP1 POP JUMP JUMPDEST PUSH0 DUP2 SWAP1 POP SWAP2 SWAP1 POP JUMP JUMPDEST PUSH2 0x86A DUP4 PUSH2 0x837 JUMP JUMPDEST PUSH2 0x87E PUSH2 0x876 DUP3 PUSH2 0x858 JUMP JUMPDEST DUP5 DUP5 SLOAD PUSH2 0x7D4 JUMP JUMPDEST DUP3 SSTORE POP POP POP POP JUMP JUMPDEST PUSH0 SWAP1 JUMP JUMPDEST PUSH2 0x892 PUSH2 0x886 JUMP JUMPDEST PUSH2 0x89D DUP2 DUP5 DUP5 PUSH2 0x861 JUMP JUMPDEST POP POP POP JUMP JUMPDEST JUMPDEST DUP2 DUP2 LT ISZERO PUSH2 0x8C0 JUMPI PUSH2 0x8B5 PUSH0 DUP3 PUSH2 0x88A JUMP JUMPDEST PUSH1 0x1 DUP2 ADD SWAP1 POP PUSH2 0x8A3 JUMP JUMPDEST POP POP JUMP JUMPDEST PUSH1 0x1F DUP3 GT ISZERO PUSH2 0x905 JUMPI PUSH2 0x8D6 DUP2 PUSH2 0x7A7 JUMP JUMPDEST PUSH2 0x8DF DUP5 PUSH2 0x7B9 JUMP JUMPDEST DUP2 ADD PUSH1 0x20 DUP6 LT ISZERO PUSH2 0x8EE JUMPI DUP2 SWAP1 POP JUMPDEST PUSH2 0x902 PUSH2 0x8FA DUP6 PUSH2 0x7B9 JUMP JUMPDEST DUP4 ADD DUP3 PUSH2 0x8A2 JUMP JUMPDEST POP POP JUMPDEST POP POP POP JUMP JUMPDEST PUSH0 DUP3 DUP3 SHR SWAP1 POP SWAP3 SWAP2 POP POP JUMP JUMPDEST PUSH0 PUSH2 0x925 PUSH0 NOT DUP5 PUSH1 0x8 MUL PUSH2 0x90A JUMP JUMPDEST NOT DUP1 DUP4 AND SWAP2 POP POP SWAP3 SWAP2 POP POP JUMP JUMPDEST PUSH0 PUSH2 0x93D DUP4 DUP4 PUSH2 0x916 JUMP JUMPDEST SWAP2 POP DUP3 PUSH1 0x2 MUL DUP3 OR SWAP1 POP SWAP3 SWAP2 POP POP JUMP JUMPDEST PUSH2 0x956 DUP3 PUSH2 0x740 JUMP JUMPDEST PUSH8 0xFFFFFFFFFFFFFFFF DUP2 GT ISZERO PUSH2 0x96F JUMPI PUSH2 0x96E PUSH2 0x3CA JUMP JUMPDEST JUMPDEST PUSH2 0x979 DUP3 SLOAD PUSH2 0x777 JUMP JUMPDEST PUSH2 0x984 DUP3 DUP3 DUP6 PUSH2 0x8C4 JUMP JUMPDEST PUSH0 PUSH1 0x20 SWAP1 POP PUSH1 0x1F DUP4 GT PUSH1 0x1 DUP2 EQ PUSH2 0x9B5 JUMPI PUSH0 DUP5 ISZERO PUSH2 0x9A3 JUMPI DUP3 DUP8 ADD MLOAD SWAP1 POP JUMPDEST PUSH2 0x9AD DUP6 DUP3 PUSH2 0x932 JUMP JUMPDEST DUP7 SSTORE POP PUSH2 0xA14 JUMP JUMPDEST PUSH1 0x1F NOT DUP5 AND PUSH2 0x9C3 DUP7 PUSH2 0x7A7 JUMP JUMPDEST PUSH0 JUMPDEST DUP3 DUP2 LT ISZERO PUSH2 0x9EA JUMPI DUP5 DUP10 ADD MLOAD DUP3 SSTORE PUSH1 0x1 DUP3 ADD SWAP2 POP PUSH1 0x20 DUP6 ADD SWAP5 POP PUSH1 0x20 DUP2 ADD SWAP1 POP PUSH2 0x9C5 JUMP JUMPDEST DUP7 DUP4 LT ISZERO PUSH2 0xA07 JUMPI DUP5 DUP10 ADD MLOAD PUSH2 0xA03 PUSH1 0x1F DUP10 AND DUP3 PUSH2 0x916 JUMP JUMPDEST DUP4 SSTORE POP JUMPDEST PUSH1 0x1 PUSH1 0x2 DUP9 MUL ADD DUP9 SSTORE POP POP POP JUMPDEST POP POP POP POP POP POP JUMP JUMPDEST PUSH2 0x644 DUP1 PUSH2 0xA29 PUSH0 CODECOPY PUSH0 RETURN INVALID PUSH1 0x80 PUSH1 0x40 MSTORE CALLVALUE DUP1 ISZERO PUSH2 0xF JUMPI PUSH0 DUP1 REVERT JUMPDEST POP PUSH1 0x4 CALLDATASIZE LT PUSH2 0x34 JUMPI PUSH0 CALLDATALOAD PUSH1 0xE0 SHR DUP1 PUSH4 0x42FBA3FB EQ PUSH2 0x38 JUMPI DUP1 PUSH4 0x734BA396 EQ PUSH2 0x56 JUMPI JUMPDEST PUSH0 DUP1 REVERT JUMPDEST PUSH2 0x40 PUSH2 0x74 JUMP JUMPDEST PUSH1 0x40 MLOAD PUSH2 0x4D SWAP2 SWAP1 PUSH2 0x31D JUMP JUMPDEST PUSH1 0x40 MLOAD DUP1 SWAP2 SUB SWAP1 RETURN JUMPDEST PUSH2 0x5E PUSH2 0x16A JUMP JUMPDEST PUSH1 0x40 MLOAD PUSH2 0x6B SWAP2 SWAP1 PUSH2 0x3A6 JUMP JUMPDEST PUSH1 0x40 MLOAD DUP1 SWAP2 SUB SWAP1 RETURN JUMPDEST PUSH0 PUSH2 0x165 PUSH1 0x2 DUP1 SLOAD DUP1 PUSH1 0x20 MUL PUSH1 0x20 ADD PUSH1 0x40 MLOAD SWAP1 DUP2 ADD PUSH1 0x40 MSTORE DUP1 SWAP3 SWAP2 SWAP1 DUP2 DUP2 MSTORE PUSH1 0x20 ADD DUP3 DUP1 SLOAD DUP1 ISZERO PUSH2 0xE7 JUMPI PUSH1 0x20 MUL DUP3 ADD SWAP2 SWAP1 PUSH0 MSTORE PUSH1 0x20 PUSH0 KECCAK256 SWAP1 PUSH0 SWAP1 JUMPDEST DUP3 DUP3 SWAP1 SLOAD SWAP1 PUSH2 0x100 EXP SWAP1 DIV PUSH1 0x7 SIGNEXTEND PUSH1 0x7 SIGNEXTEND DUP2 MSTORE PUSH1 0x20 ADD SWAP1 PUSH1 0x8 ADD SWAP1 PUSH1 0x20 DUP3 PUSH1 0x7 ADD DIV SWAP3 DUP4 ADD SWAP3 PUSH1 0x1 SUB DUP3 MUL SWAP2 POP DUP1 DUP5 GT PUSH2 0xB0 JUMPI SWAP1 POP JUMPDEST POP POP POP POP POP PUSH1 0x3 DUP1 SLOAD DUP1 PUSH1 0x20 MUL PUSH1 0x20 ADD PUSH1 0x40 MLOAD SWAP1 DUP2 ADD PUSH1 0x40 MSTORE DUP1 SWAP3 SWAP2 SWAP1 DUP2 DUP2 MSTORE PUSH1 0x20 ADD DUP3 DUP1 SLOAD DUP1 ISZERO PUSH2 0x15B JUMPI PUSH1 0x20 MUL DUP3 ADD SWAP2 SWAP1 PUSH0 MSTORE PUSH1 0x20 PUSH0 KECCAK256 SWAP1 PUSH0 SWAP1 JUMPDEST DUP3 DUP3 SWAP1 SLOAD SWAP1 PUSH2 0x100 EXP SWAP1 DIV PUSH1 0x7 SIGNEXTEND PUSH1 0x7 SIGNEXTEND DUP2 MSTORE PUSH1 0x20 ADD SWAP1 PUSH1 0x8 ADD SWAP1 PUSH1 0x20 DUP3 PUSH1 0x7 ADD DIV SWAP3 DUP4 ADD SWAP3 PUSH1 0x1 SUB DUP3 MUL SWAP2 POP DUP1 DUP5 GT PUSH2 0x124 JUMPI SWAP1 POP JUMPDEST POP POP POP POP POP PUSH2 0x224 JUMP JUMPDEST SWAP1 POP SWAP1 JUMP JUMPDEST PUSH1 0x60 PUSH0 PUSH1 0x4 PUSH0 SWAP1 SLOAD SWAP1 PUSH2 0x100 EXP SWAP1 DIV PUSH1 0xFF AND PUSH1 0xFF AND DUP2 SLOAD DUP2 LT PUSH2 0x190 JUMPI PUSH2 0x18F PUSH2 0x3C6 JUMP JUMPDEST JUMPDEST SWAP1 PUSH0 MSTORE PUSH1 0x20 PUSH0 KECCAK256 ADD DUP1 SLOAD PUSH2 0x1A3 SWAP1 PUSH2 0x420 JUMP JUMPDEST DUP1 PUSH1 0x1F ADD PUSH1 0x20 DUP1 SWAP2 DIV MUL PUSH1 0x20 ADD PUSH1 0x40 MLOAD SWAP1 DUP2 ADD PUSH1 0x40 MSTORE DUP1 SWAP3 SWAP2 SWAP1 DUP2 DUP2 MSTORE PUSH1 0x20 ADD DUP3 DUP1 SLOAD PUSH2 0x1CF SWAP1 PUSH2 0x420 JUMP JUMPDEST DUP1 ISZERO PUSH2 0x21A JUMPI DUP1 PUSH1 0x1F LT PUSH2 0x1F1 JUMPI PUSH2 0x100 DUP1 DUP4 SLOAD DIV MUL DUP4 MSTORE SWAP2 PUSH1 0x20 ADD SWAP2 PUSH2 0x21A JUMP JUMPDEST DUP3 ADD SWAP2 SWAP1 PUSH0 MSTORE PUSH1 0x20 PUSH0 KECCAK256 SWAP1 JUMPDEST DUP2 SLOAD DUP2 MSTORE SWAP1 PUSH1 0x1 ADD SWAP1 PUSH1 0x20 ADD DUP1 DUP4 GT PUSH2 0x1FD JUMPI DUP3 SWAP1 SUB PUSH1 0x1F AND DUP3 ADD SWAP2 JUMPDEST POP POP POP POP POP SWAP1 POP SWAP1 JUMP JUMPDEST PUSH0 DUP2 MLOAD DUP4 MLOAD EQ PUSH2 0x237 JUMPI PUSH2 0x236 PUSH2 0x450 JUMP JUMPDEST JUMPDEST PUSH0 DUP1 JUMPDEST DUP5 MLOAD DUP2 PUSH1 0xFF AND LT ISZERO PUSH2 0x2AA JUMPI PUSH2 0x28A DUP6 DUP3 PUSH1 0xFF AND DUP2 MLOAD DUP2 LT PUSH2 0x25F JUMPI PUSH2 0x25E PUSH2 0x3C6 JUMP JUMPDEST JUMPDEST PUSH1 0x20 MUL PUSH1 0x20 ADD ADD MLOAD DUP6 DUP4 PUSH1 0xFF AND DUP2 MLOAD DUP2 LT PUSH2 0x27D JUMPI PUSH2 0x27C PUSH2 0x3C6 JUMP JUMPDEST JUMPDEST PUSH1 0x20 MUL PUSH1 0x20 ADD ADD MLOAD PUSH2 0x2B5 JUMP JUMPDEST DUP3 PUSH2 0x295 SWAP2 SWAP1 PUSH2 0x4AA JUMP JUMPDEST SWAP2 POP DUP1 DUP1 PUSH2 0x2A2 SWAP1 PUSH2 0x515 JUMP JUMPDEST SWAP2 POP POP PUSH2 0x23A JUMP JUMPDEST POP DUP1 SWAP2 POP POP SWAP3 SWAP2 POP POP JUMP JUMPDEST PUSH0 PUSH3 0xF4240 DUP3 DUP5 PUSH2 0x2C6 SWAP2 SWAP1 PUSH2 0x53D JUMP JUMPDEST PUSH2 0x2D0 SWAP2 SWAP1 PUSH2 0x5A6 JUMP JUMPDEST SWAP1 POP SWAP3 SWAP2 POP POP JUMP JUMPDEST PUSH0 DUP2 PUSH1 0x7 SIGNEXTEND SWAP1 POP SWAP2 SWAP1 POP JUMP JUMPDEST PUSH0 DUP2 SWAP1 POP SWAP2 SWAP1 POP JUMP JUMPDEST PUSH0 PUSH2 0x307 PUSH2 0x302 PUSH2 0x2FD DUP5 PUSH2 0x2D8 JUMP JUMPDEST PUSH2 0x2E4 JUMP JUMPDEST PUSH2 0x2D8 JUMP JUMPDEST SWAP1 POP SWAP2 SWAP1 POP JUMP JUMPDEST PUSH2 0x317 DUP2 PUSH2 0x2ED JUMP JUMPDEST DUP3 MSTORE POP POP JUMP JUMPDEST PUSH0 PUSH1 0x20 DUP3 ADD SWAP1 POP PUSH2 0x330 PUSH0 DUP4 ADD DUP5 PUSH2 0x30E JUMP JUMPDEST SWAP3 SWAP2 POP POP JUMP JUMPDEST PUSH0 DUP2 MLOAD SWAP1 POP SWAP2 SWAP1 POP JUMP JUMPDEST PUSH0 DUP3 DUP3 MSTORE PUSH1 0x20 DUP3 ADD SWAP1 POP SWAP3 SWAP2 POP POP JUMP JUMPDEST DUP3 DUP2 DUP4 MCOPY PUSH0 DUP4 DUP4 ADD MSTORE POP POP POP JUMP JUMPDEST PUSH0 PUSH1 0x1F NOT PUSH1 0x1F DUP4 ADD AND SWAP1 POP SWAP2 SWAP1 POP JUMP JUMPDEST PUSH0 PUSH2 0x378 DUP3 PUSH2 0x336 JUMP JUMPDEST PUSH2 0x382 DUP2 DUP6 PUSH2 0x340 JUMP JUMPDEST SWAP4 POP PUSH2 0x392 DUP2 DUP6 PUSH1 0x20 DUP7 ADD PUSH2 0x350 JUMP JUMPDEST PUSH2 0x39B DUP2 PUSH2 0x35E JUMP JUMPDEST DUP5 ADD SWAP2 POP POP SWAP3 SWAP2 POP POP JUMP JUMPDEST PUSH0 PUSH1 0x20 DUP3 ADD SWAP1 POP DUP2 DUP2 SUB PUSH0 DUP4 ADD MSTORE PUSH2 0x3BE DUP2 DUP5 PUSH2 0x36E JUMP JUMPDEST SWAP1 POP SWAP3 SWAP2 POP POP JUMP JUMPDEST PUSH32 0x4E487B7100000000000000000000000000000000000000000000000000000000 PUSH0 MSTORE PUSH1 0x32 PUSH1 0x4 MSTORE PUSH1 0x24 PUSH0 REVERT JUMPDEST PUSH32 0x4E487B7100000000000000000000000000000000000000000000000000000000 PUSH0 MSTORE PUSH1 0x22 PUSH1 0x4 MSTORE PUSH1 0x24 PUSH0 REVERT JUMPDEST PUSH0 PUSH1 0x2 DUP3 DIV SWAP1 POP PUSH1 0x1 DUP3 AND DUP1 PUSH2 0x437 JUMPI PUSH1 0x7F DUP3 AND SWAP2 POP JUMPDEST PUSH1 0x20 DUP3 LT DUP2 SUB PUSH2 0x44A JUMPI PUSH2 0x449 PUSH2 0x3F3 JUMP JUMPDEST JUMPDEST POP SWAP2 SWAP1 POP JUMP JUMPDEST PUSH32 0x4E487B7100000000000000000000000000000000000000000000000000000000 PUSH0 MSTORE PUSH1 0x1 PUSH1 0x4 MSTORE PUSH1 0x24 PUSH0 REVERT JUMPDEST PUSH32 0x4E487B7100000000000000000000000000000000000000000000000000000000 PUSH0 MSTORE PUSH1 0x11 PUSH1 0x4 MSTORE PUSH1 0x24 PUSH0 REVERT JUMPDEST PUSH0 PUSH2 0x4B4 DUP3 PUSH2 0x2D8 JUMP JUMPDEST SWAP2 POP PUSH2 0x4BF DUP4 PUSH2 0x2D8 JUMP JUMPDEST SWAP3 POP DUP3 DUP3 ADD SWAP1 POP PUSH32 0xFFFFFFFFFFFFFFFFFFFFFFFFFFFFFFFFFFFFFFFFFFFFFFFF8000000000000000 DUP2 SLT PUSH8 0x7FFFFFFFFFFFFFFF DUP3 SGT OR ISZERO PUSH2 0x503 JUMPI PUSH2 0x502 PUSH2 0x47D JUMP JUMPDEST JUMPDEST SWAP3 SWAP2 POP POP JUMP JUMPDEST PUSH0 PUSH1 0xFF DUP3 AND SWAP1 POP SWAP2 SWAP1 POP JUMP JUMPDEST PUSH0 PUSH2 0x51F DUP3 PUSH2 0x509 JUMP JUMPDEST SWAP2 POP PUSH1 0xFF DUP3 SUB PUSH2 0x532 JUMPI PUSH2 0x531 PUSH2 0x47D JUMP JUMPDEST JUMPDEST PUSH1 0x1 DUP3 ADD SWAP1 POP SWAP2 SWAP1 POP JUMP JUMPDEST PUSH0 PUSH2 0x547 DUP3 PUSH2 0x2D8 JUMP JUMPDEST SWAP2 POP PUSH2 0x552 DUP4 PUSH2 0x2D8 JUMP JUMPDEST SWAP3 POP DUP3 DUP3 MUL PUSH2 0x560 DUP2 PUSH2 0x2D8 JUMP JUMPDEST SWAP2 POP DUP1 DUP3 EQ PUSH2 0x572 JUMPI PUSH2 0x571 PUSH2 0x47D JUMP JUMPDEST JUMPDEST POP SWAP3 SWAP2 POP POP JUMP JUMPDEST PUSH32 0x4E487B7100000000000000000000000000000000000000000000000000000000 PUSH0 MSTORE PUSH1 0x12 PUSH1 0x4 MSTORE PUSH1 0x24 PUSH0 REVERT JUMPDEST PUSH0 PUSH2 0x5B0 DUP3 PUSH2 0x2D8 JUMP JUMPDEST SWAP2 POP PUSH2 0x5BB DUP4 PUSH2 0x2D8 JUMP JUMPDEST SWAP3 POP DUP3 PUSH2 0x5CB JUMPI PUSH2 0x5CA PUSH2 0x579 JUMP JUMPDEST JUMPDEST PUSH1 0x1 PUSH0 SUB DUP4 EQ PUSH32 0xFFFFFFFFFFFFFFFFFFFFFFFFFFFFFFFFFFFFFFFFFFFFFFFF8000000000000000 DUP4 EQ AND ISZERO PUSH2 0x603 JUMPI PUSH2 0x602 PUSH2 0x47D JUMP JUMPDEST JUMPDEST DUP3 DUP3 SDIV SWAP1 POP SWAP3 SWAP2 POP POP JUMP INVALID LOG2 PUSH5 0x6970667358 0x22 SLT KECCAK256 SLT 0xA8 SWAP9 PUSH29 0x10014F86611A496EB4BF9E2D3D5F7997C4B2E4FAE44484950DD7FAEC64 PUSH20 0x6F6C634300081A00330000000000000000000000 "
				},
				"gasEstimates": {
					"creation": {
						"codeDepositCost": "320800",
						"executionCost": "infinite",
						"totalCost": "infinite"
					},
					"external": {
						"calculate_grade()": "infinite",
						"get_current_question()": "infinite"
					},
					"internal": {
						"dot_product(TutorContract.fxp[] memory,TutorContract.fxp[] memory)": "infinite",
						"fxp_mul(TutorContract.fxp,TutorContract.fxp)": "infinite"
					}
				},
				"methodIdentifiers": {
					"calculate_grade()": "42fba3fb",
					"get_current_question()": "734ba396"
				}
			},
			"storageLayout": {
				"storage": [
					{
						"astId": 6,
						"contract": "tutor.sol:TutorContract",
						"label": "questions",
						"offset": 0,
						"slot": "0",
						"type": "t_array(t_string_storage)dyn_storage"
					},
					{
						"astId": 9,
						"contract": "tutor.sol:TutorContract",
						"label": "answers",
						"offset": 0,
						"slot": "1",
						"type": "t_array(t_uint8)dyn_storage"
					},
					{
						"astId": 13,
						"contract": "tutor.sol:TutorContract",
						"label": "weights",
						"offset": 0,
						"slot": "2",
						"type": "t_array(t_userDefinedValueType(fxp)3)dyn_storage"
					},
					{
						"astId": 17,
						"contract": "tutor.sol:TutorContract",
						"label": "points",
						"offset": 0,
						"slot": "3",
						"type": "t_array(t_userDefinedValueType(fxp)3)dyn_storage"
					},
					{
						"astId": 19,
						"contract": "tutor.sol:TutorContract",
						"label": "progress",
						"offset": 0,
						"slot": "4",
						"type": "t_uint8"
					},
					{
						"astId": 22,
						"contract": "tutor.sol:TutorContract",
						"label": "grade",
						"offset": 1,
						"slot": "4",
						"type": "t_userDefinedValueType(fxp)3"
					}
				],
				"types": {
					"t_array(t_string_storage)dyn_storage": {
						"base": "t_string_storage",
						"encoding": "dynamic_array",
						"label": "string[]",
						"numberOfBytes": "32"
					},
					"t_array(t_uint8)dyn_storage": {
						"base": "t_uint8",
						"encoding": "dynamic_array",
						"label": "uint8[]",
						"numberOfBytes": "32"
					},
					"t_array(t_userDefinedValueType(fxp)3)dyn_storage": {
						"base": "t_userDefinedValueType(fxp)3",
						"encoding": "dynamic_array",
						"label": "TutorContract.fxp[]",
						"numberOfBytes": "32"
					},
					"t_string_storage": {
						"encoding": "bytes",
						"label": "string",
						"numberOfBytes": "32"
					},
					"t_uint8": {
						"encoding": "inplace",
						"label": "uint8",
						"numberOfBytes": "1"
					},
					"t_userDefinedValueType(fxp)3": {
						"encoding": "inplace",
						"label": "TutorContract.fxp",
						"numberOfBytes": "8"
					}
				}
			},
			"userdoc": {
				"kind": "user",
				"methods": {},
				"version": 1
			}
		}
	}
}